:020000040800F2
:10000000202300206902000891210008391300080C
:1000100025180008210D00081D340008000000000C
:10002000000000000000000000000000D1010008F6
:10003000250D000800000000150200084D290008E9
:10004000830200088302000883020008830200087C
:10005000830200088302000883020008830200086C
:10006000830200088302000883020008830200085C
:10007000830200088302000883020008830200084C
:10008000830200088302000883020008830200083C
:10009000830200088302000883020008830200082C
:1000A000830200088302000883020008830200081C
:1000B000852A00088302000800000000830200086F
:1000C0008302000800000000000000008302000816
:1000D0000000000083020008830200080000000006
:1000E00083020008830200088302000800F002F87F
:1000F00000F05EF80AA090E8000C82448344AAF164
:100100000107DA4501D100F053F8AFF2090EBAE861
:100110000F0013F0010F18BFFB1A43F0010318473B
:10012000B0700000D07000000A444FF0000C10F8CE
:10013000013B13F0070408BF10F8014B1D1108BF65
:1001400010F8015B641E05D010F8016B641E01F805
:10015000016BF9D113F0080F1EBF10F8014BAD1C55
:100160000C1B09D16D1E58BF01F801CBFAD505E073
:1001700014F8016B01F8016B6D1EF9D59142D6D3CD
:10018000704700000023002400250026103A28BFF5
:1001900078C1FBD8520728BF30C148BF0B607047F9
:1001A0001FB59DE8030000F08FF91FBD10B510BD0D
:1001B00000F04EFA1146FFF7F3FF03F097FC00F052
:1001C0006CFA03B4FFF7F2FF03BC00F09DFA0000E5
:1001D000224B19680868B0E8F00F80F30988BFF374
:1001E0006F8F4FF0000080F311884EF00D0E7047B6
:1001F0000000000006480068006880F3088862B6C6
:1002000061B6BFF34F8FBFF36F8F00DF00BF00BF3A
:1002100008ED00E0EFF30980BFF36F8F0F4B1A6812
:1002200020E9F00F106008B54FF0500080F31188FE
:10023000BFF34F8FBFF36F8F04F0E6FA4FF000006B
:1002400080F31188BDE8084019680868B0E8F00F2D
:1002500080F30988BFF36F8F704700BF340100201F
:10026000EFF30580704700000948804709480047C0
:10027000FEE7FEE7FEE7FEE7FEE7FEE7FEE7FEE756
:10028000FEE7FEE704480549054A064B70470000B3
:1002900081290008ED0000082019002020230020FB
:1002A000201E0020201E002070B5064600F0F0F849
:1002B000056806F10B0020F00704B4429CBF002043
:1002C00070BD2B466A68BAB11068A04210D304F121
:1002D000080188423CBF5068586007D35168101924
:1002E00041601168091B016058601460101D70BDE9
:1002F00013465268002AE7D12146284600F0D0F87C
:100300000028DED170BD40EA010310B59B070FD174
:10031000042A0DD310C808C9121F9C42F8D020BA75
:1003200019BA884201D9012010BD4FF0FF3010BD2D
:100330001AB1D30703D0521C07E0002010BD10F8FB
:10034000013B11F8014B1B1B07D110F8013B11F8C1
:10035000014B1B1B01D1921EF1D1184610BD032A7F
:1003600040F2308010F0030C00F0158011F8013BD2
:10037000BCF1020F624498BF11F801CB00F8013BB9
:1003800038BF11F8013BA2F1040298BF00F801CB7D
:1003900038BF00F8013B11F0030300F0FD80083A7C
:1003A000C0F0088051F8043B083A51F804CBA0E8AB
:1003B0000810F5E7121D5CBF51F8043B40F8043B00
:1003C000AFF30080D20724BF11F8013B11F801CB35
:1003D00048BF11F8012B24BF00F8013B00F801CB06
:1003E00048BF00F8012B704702F0FF0343EA0322E5
:1003F00042EA024200F002B84FF000020429C0F0C5
:10040000128010F0030C00F01B80CCF1040CBCF146
:10041000020F18BF00F8012BA8BF20F8022BA1EB98
:100420000C0100F00DB85FEAC17C24BF00F8012B7D
:1004300000F8012B48BF00F8012B70474FF0000275
:1004400000B5134694469646203922BFA0E80C50CA
:10045000A0E80C50B1F12001BFF4F7AF090728BFA5
:10046000A0E80C5048BF0CC05DF804EB890028BF21
:1004700040F8042B08BF704748BF20F8022B11F04A
:10048000804F18BF00F8012B7047704770477047C6
:1004900000487047C4180020704770477047704785
:1004A00038B504460A4600206946AFF300800028AC
:1004B00008BF38BD02460099204600F0A7F8012089
:1004C00038BD012000F0BCB8F8B5AFF30080054698
:1004D00000200C46102000BF0646A819A0420DD9E6
:1004E000324669460020AFF30080070008BF00F0E5
:1004F000A7F80098A04218BF0546C419FFF7C8FF27
:1005000005600746F01D20F007004619284600F058
:100510000AF8B44208BFF8BDA21B31463868BDE8EE
:10052000F84000F073B800210160C0E90110704785
:100530001020704770B50446051FFFF7A9FF00683B
:10054000002C14BF446870BD002C18BFAC423CBFE7
:1005500020466468F8D301680A18AA4218BF4560AB
:1005600003D12A6805461144016028684119A14257
:100570001CBF6C6070BD61686960216808442860B8
:1005800070BD10B500F03EF8006810BD10B504460F
:1005900000F038F8046010BD10B5203AC0F00B80B0
:1005A000B1E81850203AA0E81850B1E81850A0E877
:1005B0001850BFF4F5AF5FEA027C24BFB1E81850D1
:1005C000A0E8185044BF18C918C0BDE810405FEA41
:1005D000827C24BF51F8043B40F8043B08BF7047BD
:1005E000D20728BF31F8023B48BF11F8012B28BFC2
:1005F00020F8023B48BF00F8012B704700487047C5
:10060000BC18002000487047BC1800200346406812
:100610008C46002818BF88423CBF03464068F8D388
:1006200018681844884207D00CF1030020F0070036
:10063000001D411A521A0146081D0A60FFF77ABFD1
:1006400010B500F039F8BDE8104000F02FB8704741
:100650007546FFF7D3FFAE4605006946534620F0C6
:100660000700854618B020B5FFF70CFEBDE8204016
:100670004FF000064FF000074FF000084FF0000B5E
:1006800021F00701AC46ACE8C009ACE8C009ACE811
:10069000C009ACE8C0098D46704710B50446AFF3F9
:1006A00000802046BDE81040FFF78BBD002801D038
:1006B00000F02AB87047000010B5012805D00021CD
:1006C00003A000F027F8012010BD09A1F8E7000001
:1006D00053494752544D454D3A204F7574206F662B
:1006E0002068656170206D656D6F72790000000093
:1006F0003A2048656170206D656D6F727920636F77
:10070000727275707465640001491820ABBEFEE713
:100710002600020070B505460C460A2000E06D1C5C
:1007200000F011F835B128780028F8D102E0641CF7
:1007300000F009F814B120780028F8D1BDE8704025
:100740000A20AFF3008008B569468DF80000032049
:10075000ABBE08BD10B509480078032801D100F0F0
:100760002FF906480078022801D100F09BF80348D1
:100770000078012801D100F003F810BD4B000020E3
:1007800010B500F00BF8034801680348007802F048
:10079000C3FB10BD200100204800002010B501203F
:1007A00001F00EF801280FD10221314800F0B6FA0D
:1007B0003049096888683049097801F050F92F49B3
:1007C0000860012000F0E2FF022000F0F9FF01289C
:1007D00017D12B480078401E29490870294908780C
:1007E0002749097800F052F8254908700846017831
:1007F0002548006801F01DF91E490860022000F03C
:10080000C5FF032000F0DCFF012817D11C48007849
:10081000401C1B4908701B4908781949097800F0E9
:1008200035F817490870084601781748006801F044
:1008300000F910490860032000F0A8FF012000F033
:10084000BFFF022809D0022000F0BAFF022804D01E
:10085000032000F0B5FF022808D1012000F096FF28
:10086000022000F093FF032000F090FF10BD000075
:100870004B0000204C0000204900002050000020C8
:10088000480000201901002020010020024691426A
:1008900001DD10467047002901DC0120FAE7084617
:1008A000F8E7000070B500F011F8064800688468A9
:1008B00004480068C5682A7821460348007802F099
:1008C0006FFB70BD4C0000204900002010B5384877
:1008D0000068C468012000F073FF012806D10321DD
:1008E000344800F01BFA012000F050FF012000F016
:1008F00067FF02280AD101212E4800F00FFA0121DA
:100900002D4800F00BFA012000F040FF022000F01B
:1009100057FF012816D128480078401E2649087044
:1009200020780978FFF7B2FF234908702049096849
:1009300088682149097801F092F82049086002206E
:1009400000F024FF032000F03BFF012816D11A48D5
:100950000078401C1849087020780978FFF796FF46
:10096000154908701249096888681349097801F027
:1009700076F812490860032000F008FF012000F01B
:100980001FFF022809D0022000F01AFF022804D01D
:10099000032000F015FF022808D1012000F0F6FE28
:1009A000022000F0F3FE032000F0F0FE10BD000076
:1009B0004C0000204B000020490000205000002087
:1009C00010B500F003F800F019F810BD10B50A4892
:1009D0000068047A012C04D0022C08D0032C09D121
:1009E00002E000F019F905E000F054F902E000F02F
:1009F0004BF800BF00BF10BD5000002070B586B09E
:100A00001F480068057A012D04D0022D1BD0032D4C
:100A100033D10AE01A480068046926681849096851
:100A20004868314602F084FC27E0154800680469F4
:100A3000606800680590124A21681268506805AA2B
:100A400002F0B0FC19E00E480068046920680068F4
:100A50000590606800680490A068006803902669AB
:100A6000084800780649CDE90060096803AB04AA8C
:100A7000486805A902F08AFB00BF00BF06B070BD40
:100A8000500000204A00002070B5012000F098FEC0
:100A900002280AD102212D4800F040F901212C48FA
:100AA00000F03CF9012000F071FE022000F088FE09
:100AB000012804D100F080F8022000F067FE032036
:100AC00000F07EFE012804D100F046F8032000F07B
:100AD0005DFE022000F074FE022814D11D4800685B
:100AE0000469257B5DB11A480078401E18490870DA
:100AF000084601780320FFF7C9FE15490870022057
:100B000000F044FE00BF032000F05AFE022814D17A
:100B1000104800680469257B5DB10D480078401CD1
:100B20000B490870084601780320FFF7AFFE08491B
:100B30000870032000F02AFE00BF012000F040FEF4
:100B4000012801D100F022FE70BD00004B00002002
:100B50004A0000205000002030B5154C246822695E
:100B6000106853689168134C2478012C04D0022C2F
:100B70000DD0032C1AD10EE00468641C04600468D4
:100B80001D68AC4202DD0468641E04600EE01C684F
:100B9000641C1C600AE00C68641C0C600C6805682E
:100BA000AC4202DD0C68641E0C6000BF00BF30BDAB
:100BB000500000204A00002030B5154C24682269FE
:100BC000106851689368134C2478012C04D0022CCF
:100BD0000DD0032C1AD115E00468641E046004686B
:100BE0001D68AC4202DA0468641C04600EE00C6804
:100BF000641E0C600C680568AC4202DA0C68641C68
:100C00000C6003E01C68641E1C6000BF00BF30BDA8
:100C1000500000204A00002070B51C48006804699C
:100C20002568012000F0CCFD022806D102211848D9
:100C300000F074F8012000F0A9FD022000F0C0FDD2
:100C4000022806D10121284600F068F8022000F0B1
:100C50009DFD032000F0B4FD022806D100212846A6
:100C600000F05CF8032000F091FD022000F0A8FDE8
:100C7000012804D0032000F0A3FD012805D10220A3
:100C800000F084FD032000F081FD70BD50000020C5
:100C90004B00002010B5012000F092FD022806D183
:100CA0000221174800F03AF8012000F06FFD012002
:100CB00000F086FD012809D0022000F081FD012806
:100CC00004D0032000F07CFD012808D1012000F0B1
:100CD0005DFD022000F05AFD032000F057FD0220C8
:100CE00000F06EFD022804D0032000F069FD022808
:100CF00005D1022000F04AFD032000F047FD10BDA1
:100D00004B00002010B504460121204600F091FE62
:100D10000149086010BD00004C00002001707047C0
:100D200000BFFEE77047000010B5044600BF0B4847
:100D300000780028FBD1A1B24FF0804001F0D5FF30
:100D40000121880701F0BAFE00BF0448007800289E
:100D5000FBD000200149087010BD000019000020E0
:100D600030B5044604254FF4302000F06FF80546F6
:100D7000042D17D10C48006940F002000A490861AF
:100D800008464461006940F0400008614FF430209B
:100D900000F05CF805460448006941F6FD71084022
:100DA00001490861284630BD0020024004200B495B
:100DB000C96801F0010109B101200EE00749C968C5
:100DC00001F0040109B1022007E00449C96801F0FB
:100DD000100109B1032000E0042070470020024008
:100DE0000348006940F08000014908617047000035
:100DF0000020024070B504460D460426F00200F0C3
:100E000025F80646042E11D10948006940F001007A
:100E1000074908612580F00200F018F806460448EA
:100E2000006941F6FE71084001490861304670BD15
:100E30000020024002480349486003484860704768
:100E40002301674500200240AB89EFCD00B5024683
:100E50000423FFF7ABFF034603E0FFF7A7FF0346BA
:100E6000521E012B01D1002AF7D102B905231846E1
:100E700000BD000010B580220749084800F03AF88C
:100E8000054800884AF6BB21884201D000F09AF854
:100E900000F044F810BD0000A8010020007C00080C
:100EA00010B54FF4807204490448FFF72CFA08B1DA
:100EB000002010BD0120FCE7A8020020A8010020AE
:100EC00010B50446FFF7B6FF2046FFF749FFFFF7CE
:100ED00087FF10BD10B5FFF7E3FF08B900F072F807
:100EE000802202490248FFF73AFA10BDA80100200B
:100EF000A802002030B503460C461546002207E044
:100F000003EB420000F007F824F81200501C82B2F4
:100F1000AA42F5DB30BD01460888704700B5802243
:100F20001A491B48FFF7E6FF18480088194908804E
:100F30001648408818490860144800791749087015
:100F400012488079164908701048007A15490870CF
:100F50000E484089144908600C48007B134908700A
:100F60000A48C089124908600848008A1149086087
:100F70000648408A104908600448007D0F490870FF
:100F80000248807D0E49087000BD0000A8010020C5
:100F9000007C000814000020DC000020A9000020D4
:100FA000AA000020AB000020AC000020A60000201A
:100FB000B8000020C4000020D0000020A7000020BE
:100FC000A800002010B503F097FA1748FFF778FF44
:100FD0001648008816490880164800884880164838
:100FE0000078888015480078C88015480078088106
:100FF0001448008848811448007888811348008884
:10100000C881134800880882124800884882124824
:101010000078888211480078C8828022024800F057
:101020001FF803F07BFA10BD007C000814000020BC
:10103000A8010020DC000020A9000020AA00002058
:10104000AB000020AC000020A6000020B80000206B
:10105000C4000020D0000020A7000020A80000202D
:101060002DE9F04105460E461746002407E036F804
:10107000141005EB440000F006F8601C84B2BC427A
:10108000F5DBBDE8F08170B504460D46FFF7D2FEF2
:1010900029462046FFF7AEFEFFF7A2FE70BD000016
:1010A00008B50121042001F063FB4FF48070ADF816
:1010B000000018208DF8030003208DF80200694617
:1010C000014800F003F808BD000801402DE9F04197
:1010D000024600250026002000230024002791F866
:1010E00003C00CF00F0591F803C00CF0100CBCF11C
:1010F000000F03D091F802C04CEA050591F800C03A
:10110000BCF1000F31D0146800202BE04FF0010C2F
:101110000CFA00F3B1F800C00CEA03069E4220D19D
:1011200083004FF00F0C0CFA03F7BC4305FA03FCE5
:101130004CEA040491F803C0BCF1280F06D14FF02B
:10114000010C0CFA00FCC2F814C00AE091F803C0CC
:10115000BCF1480F05D14FF0010C0CFA00FCC2F8AD
:1011600010C0401C0828D1D31460B1F800C0BCF1F5
:10117000FF0F34DD546800202EE000F1080C4FF022
:10118000010808FA0CF3B1F800C00CEA03069E420D
:1011900021D183004FF00F0C0CFA03F7BC4305FA82
:1011A00003FC4CEA040491F803C0BCF1280F05D1FC
:1011B00000F1080C08FA0CF8C2F8148091F803C08A
:1011C000BCF1480F07D100F1080C4FF0010808FAF4
:1011D0000CF8C2F81080401C0828CED35460BDE83B
:1011E000F08110B500F07EF8FFF75AFF00F004F828
:1011F00000F038F810BD000008B50121042001F00E
:10120000B7FA0121082001F0B3FA0220ADF800007E
:1012100048208DF8030003208DF8020069460F482E
:10122000FFF754FF0120ADF8000048208DF80300BF
:1012300003208DF8020069460848FFF747FF0120A8
:10124000ADF8000048208DF8030003208DF802005F
:1012500069460348FFF73AFF08BD0000000C014053
:101260000008014008B50121480501F071FA01218B
:10127000082001F07DFA1C208DF80300C020ADF895
:10128000000003208DF8020069460248FFF71EFFA8
:1012900008BD0000000C01400246002093680B408E
:1012A0000BB1012000E00020704741617047000051
:1012B00010B502210148FFF7EFFF10BD000C0140FF
:1012C00010B501210148FFF7E7FF10BD000C0140F8
:1012D00010B501210148FFF7DFFF10BD00080140F4
:1012E0000161704708B50121042001F041FA4FF473
:1012F0008050ADF8000014208DF8030003208DF815
:10130000020069460148FFF7E1FE08BD0008014000
:1013100010B5044634B1012C0AD101030548FFF78A
:10132000DFFF05E04FF480510248FFF7BEFF00BF2A
:1013300000BF10BD0008014000BFFEE770B50246C7
:101340000024002500230020958A138B1B0445EA06
:10135000030626F07F4404EA01068E4201D10120F3
:1013600000E0002070BD002221F07F42D343838241
:10137000704721B1028842F00102028004E0028835
:101380004FF6FE731A400280704721B1028842F482
:101390008072028004E002884FF6FF631A400280E8
:1013A000704721B1028842F40072028004E0028892
:1013B0004FF6FF531A40028070470CB502460020DA
:1013C00000230193009300920B0F019321F07F41C2
:1013D000019B1BB1009B1433009303E0090C009B9D
:1013E00018330093009B1B680B400BB1012000E0F9
:1013F00000200CBD2DE9F04385B004460D460026C3
:10140000B1460427DFF8CC80A6884FF6C0700640AE
:10141000684601F0BDF9DDF808802F48B8FBF0F010
:101420001FFA80F946EA0906A68020884FF6FE7169
:101430000840208000262949286888420CD828685E
:101440004000B8FBF0F087B2042F00DA04273E43D7
:1014500009F10100208427E0E8884BF6FF718842FB
:1014600006D1286800EB4000B8FBF0F087B209E035
:10147000286800EBC00101EB0010B8FBF0F087B268
:1014800047F48047C7F30B0008B947F0010747F45A
:10149000004006434FF4967009FB00F04FF47A7158
:1014A00090FBF1F0401C2084A683208840F00100CE
:1014B000208026884FF6F5300640A88869890843C1
:1014C00006432680A88929890843208105B0BDE804
:1014D000F083000000127A0040420F00A086010055
:1014E00012B141F0010102E04FF6FE731940018292
:1014F000704701827047000010B50446012115486D
:10150000FFF743FF1449134800F062F800B910BD1B
:10151000002278210F48FFF7E3FF10490D4800F043
:1015200057F800210B48FFF7E4FF0C49891C0948D4
:1015300000F04EF821460748FFF7DBFF0749891EF8
:10154000044800F045F801210248FFF72AFF00BFD8
:10155000DDE70000005400400100030082000700A6
:1015600070B505460E4601211648FFF70EFF1649D5
:10157000144800F02DF8002278211248FFF7B0FF40
:101580001249104800F024F840210E48FFF7B1FF3F
:101590000E49891C0B4800F01BF800240AE0295D65
:1015A0000848FFF7A6FF0949891E064800F010F811
:1015B000601CC4B2B442F2DB01210248FFF7F1FE25
:1015C00070BD0000005400400100030082000700CD
:1015D00070B504460D4644F6206633E01D492046AA
:1015E000FFF7EBFE28B11B492046FFF7BCFE0220A7
:1015F00070BD19492046FFF7E0FE28B11649204684
:10160000FFF7B1FE0320F3E714492046FFF7D5FEAC
:1016100028B112492046FFF7A6FE0420E8E710494A
:101620002046FFF7CAFE28B10D492046FFF79BFE72
:101630000520DDE7301EA6F1010603D100F012F807
:101640000020D5E729462046FFF778FE0128C5D1BE
:1016500000BFCDE7000100100002001000040010E0
:10166000000800101FB50020ADF804000C480090E1
:101670004BF6FF70ADF806004FF48060ADF80A003D
:101680000001ADF80C000020ADF8080069460548DF
:10169000FFF7B0FE01210348FFF76BFE1FBD0000FE
:1016A000E09304000054004010B50024FFF700FE52
:1016B000F8B9052002F098FFFFF7FAFDC8B909E074
:1016C000601C84B2012002F08FFF4EF6602084423D
:1016D00000DB0446FFF7ECFD0028F1D0322C04DBE0
:1016E0000221012000F086F803E00121084600F005
:1016F00081F810BD10B50024FFF7E2FDF8B9052010
:1017000002F072FFFFF7DCFDC8B909E0601C84B28B
:10171000012002F069FF4EF66020844200DB04469F
:10172000FFF7CEFD0028F1D0322C04DB0221084661
:1017300000F060F803E00121022000F05BF810BD2A
:1017400010B50024FFF7C4FDF8B9052002F04CFFE6
:10175000FFF7BEFDC8B909E0601C84B2012002F0A9
:1017600043FF4EF66020844200DB0446FFF7B0FDE5
:101770000028F1D0322C04DB0221032000F03AF8DB
:1017800003E00121032000F035F810BD00B5034649
:10179000012B04D0022B07D0032B0FD109E000212D
:1017A000012000F027F809E00021022000F022F8D3
:1017B00004E00021032000F01DF800BF00BF00BDC1
:1017C0000146012904D0022905D0032909D105E0E9
:1017D00005480078704705480078FBE70448007822
:1017E000F8E7FF20F6E700001600002017000020B1
:1017F00018000020012804D0022805D0032809D1B0
:1018000005E0054A117005E0044A117002E0044A3F
:10181000117000BF00BF70471600002017000020A5
:101820001800002000BFFEE710B500231A46194635
:10183000184600F003F80446204610BD2DE9F0419B
:1018400005460F46164698461820FEF72DFD04461D
:1018500014B90020BDE8F08125606760A660C4F877
:101860000C802046F6E72DE9F04705460E46174660
:101870009846DDF820902020FEF716FD044614B9A6
:101880000020BDE8F0872560C4F804902672E76068
:10189000C4F81080C4F814902046F2E738B5044626
:1018A00000231A46194618460094FFF7DCFF054648
:1018B000284638BD2DE9F84F81460D4616461F468D
:1018C000DDE90AABCDF800B05246394630460C9BF4
:1018D00000F014F88046B8F1000F02D10020BDE8F6
:1018E000F88F43460022022148460095FFF7BBFFD0
:1018F00004460CB90020F2E72046F0E72DE9F04756
:1019000005460E4617469846DDF820901420FEF74F
:10191000CBFC044614B90020BDE8F0872560666062
:10192000A76084F80C80C4F810902046F4E72DE9F5
:10193000F84380460D461646304600F0A6F80446A9
:1019400014B90020BDE8F883234600220121404657
:101950000095FFF788FF07460CB90020F2E73846EC
:10196000F0E72DE9F84381460D4616461F463946F5
:10197000304600F014F88046B8F1000F02D1002084
:10198000BDE8F88343460022032148460095FFF74F
:101990006AFF04460CB90020F2E72046F0E770B574
:1019A00005460E460820FEF77FFC04460CB90020D1
:1019B00070BD256066602046FAE70146084600E0F3
:1019C00040694269002AFBD17047014600204A69FC
:1019D00002E0431C58B25269002AFAD1704701460E
:1019E000084600E0C069C269002AFBD17047014681
:1019F0000020CA6902E0431C58B2D269002AFAD119
:101A0000704730B505460B462846FFF7D6FF04461B
:101A100063611C610020586130BD30B505460B463E
:101A20002846FFF7DCFF0446E3619C610020D86193
:101A300030BD10B502460B460AB1002B01DC002078
:101A400010BD0124516906E0A34201D10846F7E721
:101A5000601CC4B249690029F6D10020F0E710B536
:101A600002460B460AB1002B01DC002010BD012408
:101A7000D16906E0A34201D10846F7E7601CC4B271
:101A8000C9690029F6D10020F0E770B505460420A9
:101A9000FEF70AFC04460CB9002070BD2560204604
:101AA000FBE7000010B50C480068FFF7A0FF0B49EA
:101AB00008700B480068FFF79AFF0A4908700A4847
:101AC0000068FFF794FF0949087009480068FFF7AC
:101AD0007CFF0849087010BD240100201A01002075
:101AE000280100201B0100202C0100201C010020E7
:101AF000200100201901002070B5FFF795FE15495F
:101B00000860154B1548164902681648FFF796FEFF
:101B10000446154B1548164902681648FFF78EFE15
:101B20000546154B1548164902681648FFF786FE0C
:101B30000646214607480068FFF763FF2946054827
:101B40000068FFF75EFF314602480068FFF759FF63
:101B500070BD0000200100201A0100202401002097
:101B600008010020836A00081B01002028010020D2
:101B70000F010020136C00081C0100202C01002024
:101B800013010020A36D000810B500F0C7F800F0A5
:101B900005F800F03DF8FFF7AFFF10BD3EB5114866
:101BA000FFF77CFE10490860104A11491148FFF701
:101BB000BEFE054600201049104A114BCDE9002118
:101BC0000290104A10491148FFF774FE0446294656
:101BD00005480068FFF721FF214603480068FFF72A
:101BE0001CFF3EBD0F01002028010020A6000020A0
:101BF0005400002077670008EC000020B4000020AB
:101C0000B0000020AC0000205A000020B36700089C
:101C10002DE9FE432948FFF741FE29490860294A7A
:101C200029492A48FFF783FE0746294A29492A48B5
:101C3000FFF77DFE804600202849294A294BCDE93F
:101C400000210290284A29492948FFF733FE04461B
:101C500000202249274A284BCDE900210290274A3B
:101C600027492848FFF726FE054600201B49264A3B
:101C7000264BCDE900210290254A26492648FFF748
:101C800019FE064639460E480068FFF7C6FE414673
:101C90000B480068FFF7C1FE214609480068FFF7BE
:101CA000BCFE294606480068FFF7B7FE31460448E7
:101CB0000068FFF7B2FEBDE8FE83000013010020BC
:101CC0002C010020A70000206000002057690008B8
:101CD000A80000206600002093690008F2000020A0
:101CE000C0000020BC000020B80000206B000020D5
:101CF000CF690008CC000020C8000020C4000020EC
:101D00006F0000200B6A0008D8000020D4000020DB
:101D1000D000002075000020476A00082DE9FE432E
:101D20002248FFF7BBFD22490860224A2249234886
:101D3000FFF7FDFD054600202149224A224BCDE94F
:101D400000210290214A22492248FFF7B3FD0446B0
:101D5000214A22492248FFF7EAFD0646214A224944
:101D60002248FFF7E4FD0746214B224A2249234837
:101D7000FFF7F7FD804629460D480068FFF74DFE46
:101D800021460B480068FFF748FE314608480068C6
:101D9000FFF743FE394606480068FFF73EFE41461E
:101DA00003480068FFF739FEBDE8FE830801002004
:101DB00024010020A90000207A0000202B680008E0
:101DC000FD000020E4000020E0000020DC000020F6
:101DD0008200002067680008AA0000208D00002013
:101DE000A3680008AB00002094000020DF68000812
:101DF000E8000020030100209B0000201B69000870
:101E000010B5FFF7C1FEFFF74DFE02480068FEF770
:101E100079FF10BD2001002010B50848007818B9DE
:101E2000002000F0D9FE07E00549097801EB8101A7
:101E30008906080E00F0D0FE10BD0000A6000020AC
:101E4000AC00002010B51948007808B31848007895
:101E500020B900F037F801201549087015480078BE
:101E600010B100F033F813E0134B1B7803EB83033E
:101E70005B061A0E114B1B7803EB83035B06190EEE
:101E80000F4B1B7803EB83035B06180E00F0D8F8AA
:101E90000648007838B900221146104600F0D0F804
:101EA00000200349087000F0E3F810BDA7000020EF
:101EB00033010020A8000020D0000020C400002032
:101EC000B800002000B500F0A3F800BD70B50521F2
:101ED000FA22052300208EE0494C2478012C11D1F0
:101EE00000EB4004474D2C5D0C4400EB4005454E93
:101EF000745500EB400435462C5D944202DB00240F
:101F00003F4D2C703E4C24788CB900EB40043D4D85
:101F10002C5D641A00EB40053A4E745500EB40040A
:101F200035462C5D9C4202DC0124354D2C70364C2C
:101F30002478012C14D100EB4004324D2C446478F9
:101F40000C4400EB40052F4E35446C7000EB400410
:101F500035462C446478944202DB00242A4D2C70D0
:101F6000294C2478A4B900EB4004264D2C44647815
:101F7000641A00EB4005234E35446C7000EB4004BE
:101F800035462C4464789C4202DC01241E4D2C70A2
:101F90001E4C2478012C14D100EB4004194D2C4424
:101FA000A4780C4400EB4005164E3544AC7000EBB1
:101FB000400435462C44A478944202DB0024134D9F
:101FC0002C70124C2478A4B900EB40040D4D2C4425
:101FD000A478641A00EB40050A4E3544AC7000EB5F
:101FE000400435462C44A4789C4202DC0124074D71
:101FF0002C70441CE0B20C28FFF66EAF70BD0000E0
:1020000030010020A807002031010020320100200B
:10201000002010E0962100EB4002084B9954322139
:1020200000EB40021A445170FA2100EB40021A44BE
:102030009170411CC8B20C28ECDB7047A807002047
:1020400030B5034600200DE000EB4004074D2B5552
:1020500000EB40042C44617000EB40042C44A2705F
:10206000441CE0B20C28EFDB30BD0000A8070020C4
:1020700070B502F041FA002410E004EB44000A4D70
:102080002844837804EB44002844427804EB44005D
:10209000295C204601F001FA601CC4B20C2CECDB78
:1020A00002F03CFA70BD0000A807002010B502F055
:1020B000DBFB0149086010BDE800002010B51048A6
:1020C0000068012804D0022809D0032815D10DE0AA
:1020D000812000F02FFB012000F02CFB0DE081207F
:1020E00000F028FB322000F025FB06E0812000F004
:1020F00021FBFF2000F01EFB00BF00BF10BD000051
:10210000DC00002010B50848007810B1012808D183
:1021100003E0A62000F00EFB03E0A72000F00AFB7E
:1021200000BF00BF10BD0000A900002010B5084886
:10213000007810B1012808D103E0A12000F0FAFADC
:1021400003E0A02000F0F6FA00BF00BF10BD0000C1
:10215000AA00002010B50848007810B1012808D165
:1021600003E0C82000F0E6FA03E0C02000F0E2FA45
:1021700000BF00BF10BD0000AB00002010B5FFF78E
:10218000C1FFFFF79BFFFFF7D1FFFFF7E3FF10BD94
:102190007047000070B5002100230F22C47804B3FB
:1021A000154C246804F4E064C4F5E064210AC1F12C
:1021B0000403CA40447804FA03F1847814402143AC
:1021C00009010E4C0678A155047804F01F0501247E
:1021D000AC4005786D11AD0005F1E025C5F8004172
:1021E00009E0047804F01F050124AC40044D067892
:1021F000761145F8264070BD0CED00E000E400E0EB
:1022000080E100E002490143024A1160704700008A
:102210000000FA050CED00E000200CE0002106E0D3
:102220000022064B03EBC0135A544A1CD1B280293A
:10223000F6DB421CD0B20828F0DB7047A803002070
:102240002DE9F04304460D4616461F467F2C01DD5E
:10225000BDE8F0833F2D00DDFAE7A119802902DDFA
:10226000C4F18001CEB2E919402902DDC5F1400177
:10227000CFB2284630E0234629E04FEAE07C00EB6D
:102280005C7C4FEAEC0CDFF85C8008EBCC1C1CF8A3
:1022900003C002464FEAE07800EB58784FEAE808BE
:1022A000A0EBC8094FF0010808FA09F82CEA080C5D
:1022B00001464FEAE07800EB58784FEAE808DFF88B
:1022C000249009EBC81808F803C0591CCBB2A11917
:1022D0009942D2DC411CC8B2E9198142CBDC00BF73
:1022E000B6E70000A803002070B503467F2B00DD91
:1022F00070BD3F2900DDFBE7CC1701EB5474E410FF
:102300000C4D05EBC414E45C0A46CD1701EB557582
:10231000ED10A1EBC5060125B5402C430846CD17AD
:1023200001EB5575ED10034E06EBC515EC5400BFDF
:10233000DEE70000A80300202DE9F04705460E4621
:1023400017469846DDF820A0BAF1000F24D12C469C
:102350000CE031462046FFF7C7FF06EB0800401EA1
:10236000C1B22046FFF7C0FF601CC4B2E819A0420A
:10237000EFDC34460BE021462846FFF7B5FFE919AC
:10238000491EC8B22146FFF7AFFF601CC4B206EB7E
:102390000800A042EFDC14E02C460FE0B14607E055
:1023A00049462046FFF7A0FF09F1010000F0FF09B0
:1023B00006EB08004845F3DC601CC4B2E819A042F3
:1023C000ECDCBDE8F08710B5AE2000F0B3F9D52005
:1023D00000F0B0F9802000F0ADF9A82000F0AAF9D3
:1023E0003F2000F0A7F9D32000F0A4F9002000F06E
:1023F000A1F9402000F09EF9A12000F09BF9C8202F
:1024000000F098F9DA2000F095F9122000F092F926
:10241000812000F08FF9FF2000F08CF9D92000F026
:1024200089F9F12000F086F9DB2000F083F93020F3
:1024300000F080F9A42000F07DF9A62000F07AF9E0
:102440008D2000F077F9142000F074F9AF2000F02F
:1024500071F9FFF7E1FE00F053F910BD10B5024627
:10246000012000E050430B1EA1F10101FAD110BD83
:1024700070B505460C4645F0B00000F05BF9102140
:1024800041EA141000F056F904F00F0000F052F980
:1024900070BD0000F8B506460F4614461D46082DCF
:1024A0000CD1A4F120000E4901EB001010230822EA
:1024B00039460090304600F017F80FE0062D0DD198
:1024C000A4F1200000EB4000064901EB4000082386
:1024D000062239460090304600F006F8F8BD0000AC
:1024E000825D0008726300082DE9F04707460C463C
:1024F00090469946DDF820A07F2F01DDBDE8F087EA
:102500003F2C00DDFAE74B46424621463846FFF7AE
:1025100097FE002570E0002669E0B8197F2800DDED
:1025200067E0E11704EB517105EBE101072900DDDC
:10253000E4E72046E21704EB527205EBE202344B6B
:1025400003EBC212BB19D25C2146E31704EB5373B1
:10255000DB10A4EBC30305FB086C1AF80CC00CFAE3
:1025600003FC42EA0C02E31704EB537305EBE303AD
:10257000DFF89CC00CEBC31307EB060C03F80C2030
:10258000E11704EB517105EBE101491C072900DD5E
:102590002BE02046E21704EB527205EBE202521CDC
:1025A0001B4B03EBC212BB19D25C2146E31704EBB1
:1025B0005373DB10A4EBC303C3F1080305FB086CE2
:1025C0001AF80CC04CFA03FC42EA0C02E31704EBC5
:1025D000537305EBE3035B1CDFF834C00CEBC31350
:1025E00007EB060C03F80C2000BF701CC6B2464572
:1025F00093DB00BF681CC5B2A9F10100C11700EB55
:102600005171012202EBE101A94284DC00BF75E7B0
:10261000A80300202DE9F0470646894617461D46C7
:10262000DDF82080002417E0281B411E0A20FFF758
:1026300015FFB7FBF0F00A21B0FBF1F201FB12002D
:1026400000F1300A04FB0861C8B2434652464946CD
:10265000FFF720FF601CC4B2AC42E5DBBDE8F087A9
:102660002DE9F04F80468A4615461E46DDF8249037
:10267000002D07DB4B462B2251464046FFF70AFF51
:102680002F4606E04B462D2251464046FFF702FFFB
:102690006F42002418E0301B411E0A20FFF7DEFEC7
:1026A000B7FBF0F00A21B0FBF1F201FB120000F1E0
:1026B000300B611C01FB0981C8B24B465A4651469A
:1026C000FFF7E8FE601CC4B2B442E4DBBDE8F08F63
:1026D0002DE9F0410646884615461F46002409E0CC
:1026E0002A5D04FB0761C8B23B464146FFF7D2FEB4
:1026F000601CC4B2285D0028F2D1BDE8F081000062
:1027000010B501F0F9FEFFF739FD00240BE00021C0
:102710002046FFF7ADFE064901EBC410802100F012
:102720000FF8601CC4B2082CF1DB01F0F7FE10BDFD
:10273000A803002010B504462046FEF7DDFE10BDBC
:1027400070B504460D4629462046FEF709FF70BDC8
:1027500029B1064AD2690243044BDA6104E0034A14
:10276000D2698243014BDA617047000000100240D9
:1027700029B1064A92690243044B9A6104E0034A74
:1027800092698243014B9A61704700000010024039
:1027900030B500210022002400232D4D6D6805F086
:1027A0000C0121B1042905D0082923D105E0294DC8
:1027B000056022E0274D05601FE0254D6D6805F49A
:1027C0007012234D6D6805F48034022505EB9242AA
:1027D0001CB9214D554305600BE01D4D6D6805F496
:1027E00000351DB11C4D5543056002E0194D5543A0
:1027F000056002E0174D056000BF00BF144D6D6815
:1028000005F0F0010909154D6B5C0568DD40456078
:102810000F4D6D6805F4E061090A104D6B5C456869
:10282000DD4085600A4D6D6805F46051C90A0B4DA5
:102830006B5C4568DD40C560054D6D6805F4404141
:10284000890B074D6B5CC568B5FBF3F5056130BDC1
:102850000010024000127A0000093D000000002034
:102860001000002010B500F001F810BD0CB50020DC
:10287000019000903348006840F48030314908608E
:1028800000BF3048006800F4003000900198401C00
:102890000190009818B90198B0F5A06FF1D12948BE
:1028A000006800F4003010B10120009001E0002029
:1028B00000900098012843D12348006840F01000A0
:1028C000214908600846006820F0030008600846B7
:1028D000006840F0020008601A48406819494860E2
:1028E0000846406848600846406840F48060486098
:1028F0000846406820F47C1048600846406840F470
:10290000E81048600846006840F08070086000BF2A
:102910000C48006800F000700028F9D009484068B1
:1029200020F00300074948600846406840F0020074
:10293000486000BF0348406800F00C000828F9D147
:102940000CBD0000001002400020024010B500BF86
:10295000502080F31188BFF34F8FBFF36F8F00BFFC
:1029600002F004F918B14FF080500449086000BF2C
:10297000002080F3118800BF10BD000004ED00E0CE
:1029800010B51348006840F001001149086008467E
:102990004068104908400E494860084600680E49E2
:1029A00008400B4908600846006820F48020086051
:1029B0000846406820F4FE0048604FF41F0088601D
:1029C000FFF750FF4FF000600449086010BD0000A1
:1029D000001002400000FFF8FFFFF6FE08ED00E0E7
:1029E00001E0FEF761FEFCE700BFFEE701E0FEF755
:1029F00081FEFCE701E0FEF7A3FEFCE7FFF7E3FC46
:102A000003E0FDF7A7FEFFF77BFEFAE7FFF75AFAB0
:102A100005E0FFF717FA4FF4FA7001F0E5FDF8E76B
:102A200007E0FEF757FAFFF741FB4FF47A7001F029
:102A3000DBFDF6E704E0FFF7EFF9642001F0D4FDD9
:102A4000F9E700BFFEE700BFFEE700001CB54FF44A
:102A50004070FFF7D7FB0648012100234022CDE953
:102A6000001004A1064802F047F801F089FE1CBDE1
:102A7000440000205461736B5F53746172740000F2
:102A80009D2D000810B50121880700F0AFF801283E
:102A900006D10021800700F011F8012003490870D9
:102AA0000121880700F007F810BD00001900002080
:102AB000CA4302827047CA430282704721B102882A
:102AC00042F00102028004E002884FF6FE731A40D1
:102AD0000280704731B1B0F8442042F40042A0F8BF
:102AE000442005E0B0F84420C2F30E02A0F84420D0
:102AF00070471FB501210846FFF72AFE0020ADF8F8
:102B00000A00ADF80600ADF808002320ADF8040077
:102B100000208DF80C0001A94FF0804000F0ECF887
:102B200001218807FFF7C4FF01221146900700F03A
:102B30006EF81C208DF8000001208DF803000220A3
:102B40008DF801006846FFF725FB00214FF080401B
:102B500000F0CFF800214FF08040FFF7AFFF1FBD1E
:102B600000B587B00121C802FFF702FE684600F0F9
:102B7000B2F80020ADF81600ADF812006320ADF8F1
:102B800014002320ADF8100000208DF8180004A9CF
:102B9000104800F0B1F801210E48FFF79BFF6020BC
:102BA000ADF800000020ADF808000120ADF80200EB
:102BB0001420ADF806006946064800F037F80821F1
:102BC000044800F07FF801210248FFF777FF07B0C3
:102BD00000BD0000002C014010B50446214602480B
:102BE00000F085F810BD0000002C014030B5024611
:102BF000002000230024158A05EA0103958905EACF
:102C0000010413B10CB1012000E0002030BD1AB165
:102C100083890B43838102E083898B4383817047DF
:102C200010B5FFF766FFFFF79BFF10BD70B50024DE
:102C300000220023058C4FF6FE7635400584028C79
:102C40008388048B4FF68F752C40B51E2C400D8861
:102C50002C43751E2A400D892A434D882A43144D62
:102C6000A8420BD0134DA84208D0134DA84205D05E
:102C7000124DA84202D0124DA84213D14FF6F7755B
:102C80002A404D892A434FF6FB752A408D882A43F6
:102C90004FF6FF652B404FF6FF552B408D892B4398
:102CA000CD892B4383800483CD888586028470BDC3
:102CB000002C01400034014000400140004401402C
:102CC000004801400A460021018B4FF6F773194076
:102CD0001143018370470021018041808180C180C0
:102CE000018141818181C1817047818570478186E1
:102CF0007047818470470000002202881D4B984273
:102D00000ED01D4B98420BD0B0F1804F08D01B4B1A
:102D1000984205D01A4B984202D01A4B984204D1DF
:102D20004FF68F731A404B881A43174B984207D0BF
:102D3000164B984204D04FF6FF431A40CB881A43F3
:102D400002808B8883850B8803850A4B98420BD0C1
:102D5000094B984208D00E4B984205D00D4B984233
:102D600002D00D4B984201D10B7A03860123838256
:102D700070470000002C0140003401400004004076
:102D800000080040000C004000100040001400400B
:102D90000040014000440140004801401CB5044689
:102DA00001F0AAFB3448012100234022CDE90010A4
:102DB00032A1344801F0A0FE334801210023402213
:102DC000CDE9001031A1334801F096FE32480121CF
:102DD00000234022CDE9001030A1324801F08CFEE2
:102DE0003148012100238022CDE900102FA1314874
:102DF00001F082FE3048012100234022CDE900107D
:102E00002EA1304801F078FE2F48012100234022F6
:102E1000CDE900102DA12F4801F06EFE2E480121B2
:102E200000234022CDE900102CA12E4801F064FEC1
:102E30002D48012100234022CDE900102BA12D486F
:102E400001F05AFE2C48012100234022CDE9001058
:102E50002AA12C4801F050FE2B48012100234022DA
:102E6000CDE9001029A12B4801F046FE002001F019
:102E7000D5FB01F053FB1CBD1C0000205441534BFB
:102E800031000000E1290008200000205441534B8C
:102E900032000000ED290008240000205441534B6B
:102EA00033000000F5290008280000205441534B4E
:102EB00034000000FD2900082C0000205441534B31
:102EC000350000000D2A0008300000205441534B0B
:102ED00036000000212A0008340000205441534BE2
:102EE00037000000352A0008380000205441534BB9
:102EF00038000000432A00083C0000205441534B96
:102F000039000000472A0008400000205441534B7C
:102F100031300000E9290008F8B504460E46304675
:102F2000FEF753FDA04200DAF8BDFFF775F9214620
:102F30003046FEF77EFD05460823002101206A6821
:102F4000FFF7C6FB28682823502214210090012097
:102F5000FFF7CAFA002028235022142100900120F4
:102F6000FFF7EAF90820022322460A210090612097
:102F7000FFF750FB062309A21C216420FFF7A8FBE2
:102F80003046FEF722FD0746082002233A46242158
:102F900000906120FFF73EFB00BFC5E72F00000057
:102FA000F8B504460E461746FFF736F90823002108
:102FB00001207268FFF78CFB062371A200216020BC
:102FC000FFF786FB06236EA200217820FFF780FB27
:102FD000082002232246002100906820FFF71AFBF8
:102FE00000200C231A46162100906E20FFF7A4F94A
:102FF00000200C231A462B2100906E20FFF79CF92D
:10300000BC4237D1204604EBD0714910A4EB4101FA
:1030100001292FD121463046FEF721FD05462868BB
:1030200014231A46122100900120FFF75DFA0020B8
:1030300014231A46122100900120FFF77DF908237E
:10304000142117206A68FFF743FB01200C231A465E
:10305000162100906E20FFF76FF90C231A462B21E2
:103060006E20FFF7EDF8062346A22D213020FFF752
:103070002FFB84E0204604EBD0714910A4EB410102
:1030800000293AD121463046FEF7E9FC054628687A
:1030900014231A46282100900120FFF725FA00206A
:1030A00014231A46282100900120FFF745F9082330
:1030B0002A2117206A68FFF70BFBAD6901200C235A
:1030C0001A462B2100906E20FFF736F9286814234A
:1030D0001A46122100900120FFF706FA002014235F
:1030E0001A46122100900120FFF726F90823142127
:1030F00017206A68FFF7ECFA41E0204604EBD07134
:103100004910A4EB4101012939D121463046FEF78F
:10311000A6FC0546286814231A46122100900120B7
:10312000FFF7E2F9002014231A4612210090012033
:10313000FFF702F90823142117206A68FFF7C8FA7D
:1031400001200C231A46162100906E20FFF7F4F898
:10315000ED69286814231A46282100900120FFF702
:10316000C3F9002014231A46282100900120FFF7FC
:10317000E3F808232A2117206A68FFF7A9FAF8BDA7
:103180002D0000002D456E642D0000002DE9F04F4C
:1031900087B082460E4691461D460024D9F80000AD
:1031A0002968401A069030682968401A05900698E8
:1031B00002F00CFD0190059802F008FD00900199C5
:1031C00002F042FC834602F013FC0022504BCDE992
:1031D000020102F0E3F9074602F060F9C0B2049080
:1031E000FFF71AF800203D237D22022100900846B7
:1031F000FFF7A2F80623524600210F20FFF768FAD6
:10320000062338210F20109AFFF762FA3068002851
:1032100006DBD9F80000002802DB2868002801DA64
:10322000122410E00A2400200A236E222A21009092
:103230001846FFF781F801200A2300902A2118463A
:10324000049AFFF779F8062332A221462D20FFF7D2
:103250003FFA04F10A00C1B2062330A22D20FFF785
:1032600037FA04F11400C1B206232EA22D20FFF775
:103270002FFA306800F08DF9C7B2062000903B4667
:1032800021464B203268FFF7EBF9D9F8000000F037
:1032900080F9C7B20620009004F10A00C1B23B4693
:1032A0004B20D9F80020FFF7DBF9286800F071F90E
:1032B000C7B20620009004F11400C1B23B464B2077
:1032C0002A68FFF7CDF91198012804D0022809D007
:1032D000032819D10FE0062314A221461E20FFF770
:1032E000F7F911E004F10A00C1B206230FA21E2073
:1032F000FFF7EEF908E004F11400C1B206230BA2B7
:103300001E20FFF7E5F900BF00BF07B0BDE8F08F52
:1033100000805B406E6F773A000000006D61783A84
:10332000000000006D696E693A0000002D3E00004B
:1033300038B505460C46FEF76FFF00203D237D2281
:10334000022100900846FEF7F7FF06232A460021D7
:103350000F20FFF7BDF9207801280ED10020282387
:103360001E220F2100900846FEF7E6FF08230BA25D
:1033700019211720FFF7ACF90FE0207868B9002079
:10338000282346220F2100902C20FEF7D5FF08238A
:1033900003A219214320FFF79BF938BD4F4E0000CF
:1033A0004F464600F8B504460D461646FEF734FF74
:1033B00000203D237D22022100900846FEF7BCFF3D
:1033C0000623224600210F20FFF782F906230DA2D3
:1033D00011210A20FFF77CF906230EA226210A20DC
:1033E000FFF776F906232A4611215320FFF770F9DB
:1033F000082000900523202137203268FFF730F99C
:10340000F8BD00006465736372697074696F6E3A29
:103410000000000076616C75653A000000BFFEE7B1
:1034200070B50446002600251DE004F080065EB15C
:103430000120FDF76DFF0120FDF776FC4FF4805170
:103440000A48FDF732FF0AE04FF480510748FDF7C4
:1034500047FF0020FDF75CFF0120FDF765FC6006DB
:10346000040E681CC5B2082DDFDB70BD00080140EA
:10347000F8B505460E4617468DF800608DF80150E8
:103480008DF80270002405E01DF80400FFF7C8FF66
:10349000601CC4B2032CF7DBF8BD2DE9F0410446F3
:1034A0000D4616461F464FF0000808E03A463146E2
:1034B0002846FFF7DDFF08F1010000F0FF08A045F6
:1034C000F4DBBDE8F0812DE9F0414F1E00EBC701B0
:1034D0000446D1E9000115461E4637F006020DD01C
:1034E0002A46334602F05AF87F1E04EBC703D3E99D
:1034F000002301F053FD37F00602F1D1022F25D051
:10350000042F13D0062F18BFBDE8F0812A4633469A
:1035100002F044F8D4E90A2301F040FD2A4633467C
:1035200002F03CF8D4E9082301F038FD2A4633467E
:1035300002F034F8D4E9062301F030FD2A46334680
:1035400002F02CF8D4E9042301F028FD2A46334682
:1035500002F024F8D4E9022301F020FD2A46334684
:1035600002F01CF8D4E90023BDE8F04101F016BDDB
:10357000002213461046014901F0CCBD0000F03F87
:10358000012202F0B8BB002213461046114601F09A
:10359000C1BD2DE9F05F8246BAF1000F02D10120D2
:1035A000BDE8F09FBAF1000B01DB594601E0CBF119
:1035B0000001084601F09FFF804600F025FA06460C
:1035C00000F006F8044601F039FF401CE8E700006F
:1035D0002DE9F041C1F30A52A2F2FF362F4A304BD7
:1035E0000D460446142E2FDA002E12DA01F0D6FC16
:1035F0000022134602F0D0F84CD2002DA4BF0024C4
:10360000254647DA25F00040204318BF254D41D01C
:1036100018E0DFF894C02CFA06F705EA070C5CEA1C
:10362000040C08BFBDE8F08101F0B8FC002213468D
:1036300002F0B2F82ED2002D03DA4FF48010F040E1
:103640000544BD43002425E0332EC8BFBDE8F0810A
:10365000A6F1140C4FF0FF3727FA0CF73C4208BFD5
:10366000BDE8F08102F0CEF80022134602F094F893
:1036700010D2002D0DDA142E08BF6D1C09D0C6F132
:103680003400012101FA00F02044A04238BF6D1C33
:103690000446BC4329462046BDE8F0819C7500885D
:1036A0003CE4377E0000F0BFFFFF0F002DE9F04D36
:1036B000C84A002490B0914205DA21F000439342B9
:1036C00001D805D120B110B0BDE8F04DFFF758BFCB
:1036D000B1F5801F1BDA53EA000209D0002911DA84
:1036E0000120FCF753FF10B0BDE8F04DFFF74BBFD2
:1036F0000220FCF74BFFFFF73BFF10B081F00041C9
:10370000BDE8F08D6FF03504362202F0F4FA04EBD8
:103710002152C1F31308B049A2F2FF33414401F42E
:10372000801282F07F6103EB225281F040510092BF
:1037300041EA08010022A94B02F070F8044608F1A2
:103740000200A74EC0F313000D467E44032867D243
:10375000D6E90023204601F035FE1ED1009800284E
:1037600002BFD6E9000110B0BDE8F08D01F0C3FE44
:1037700007460C469B4A9C4B01F010FF06460D463F
:103780009A4A9B4B3846214601F008FF10B032465A
:103790002B46BDE8F04D01F001BC4FF05532954B82
:1037A0002046294601F0FAFE0022934B02F02AF847
:1037B00006460F4622462B461046194601F0EEFEFD
:1037C00032463B4601F0EAFE064600980F46F0B14D
:1037D00001F091FE80468A46824A834B01F0DEFE6C
:1037E00032463B4602F00EF822462B4602F016F80F
:1037F00005460C467D4A7E4B4046514601F0CEFEC2
:1038000010B02A462346BDE8F04D02F007B80B463B
:1038100010B0324620462946BDE8F04D01F0FEBF0B
:1038200000224FF08043204601F0B8FB02460B46D1
:103830002046294601F06EFC06460F46009801F02E
:103840005AFECDE9040132463B461046394601F0A6
:10385000A5FE0C9069480C9A4044019009910B46D2
:10386000104601F09BFE8246024665488B46C8F131
:1038700051080B4608F5D72803217844FFF723FEAB
:1038800052465B4601F08AFE0A905E480D91524610
:103890005B4604217844FFF716FE099B0C9A01F061
:1038A0007DFE844601980D9B40EA080860460A9A0E
:1038B00001F074FB83460891B8F1000F4EDD4FF024
:1038C000FF322046294602F016FA22462B4601F026
:1038D00065FE804600988A4660B3DDE90401414AEE
:1038E000414B01F05BFE099100905A46404651461B
:1038F000089B01F053FB32463B4601F04FFE099B0B
:10390000009A01F04BFB4246534601F07BFF2246F2
:103910002B4601F083FF04460D46DDE90401334ADE
:10392000334B01F03BFE10B022462B46BDE8F04D74
:1039300001F074BF5A464046089B01F02FFB324607
:103940003B4601F02BFE4246534601F05BFF10B0B0
:1039500022462B46BDE8F04D01F054BF009840B31D
:10396000DDE904011F4A204B01F018FE80468A461B
:103970005A4620462946089B01F050FF32463B46F6
:1039800001F00CFE4246534601F048FF22462B460A
:1039900001F044FF04460D46DDE90401134A144BCF
:1039A00001F0FCFD10B022462B46BDE8F04D01F0C1
:1039B00035BF0B465A462046294601F02FFF3246B6
:1039C0003B4601F0EBFD10B022462B46BDE8F04D22
:1039D00001F018BF0000F07F645F09000000F03FB5
:1039E0007A3A0000763C7935EF39EA3D0000E0FE96
:1039F000422EE63F5555D53F0000E03F86EBF9FFEC
:103A000012390000103900002DE9F0410446304819
:103A10000025814205DA21F00042824201D805D119
:103A200024B12046BDE8F041FFF7AABDB1F5801FE3
:103A30001BDA52EA040008D000290FDA0120FCF753
:103A4000A5FDBDE8F041FFF79EBD0220FCF79EFDFD
:103A5000FFF78EFD81F00041BDE8F0816FF0350584
:103A60003622204602F047F9044605EB2150A0F229
:103A7000FF32D00F40F2FF331B1A0D4663F31F5580
:103A8000104401F038FD06460F4629462046FFF750
:103A90000DFE104A104B01F081FD04460D460F4A01
:103AA0000F4B3046394601F079FD22462B4601F096
:103AB00075FA05460C460B4A0B4B3046394601F069
:103AC0006DFD2A462346BDE8F04101F067BA0000CB
:103AD0000000F07F0EE526157BCBDB3F362BF11186
:103AE000F3FE593D00609F501344D33F10B5FDF7DE
:103AF00078FBFFF795F8FDF7BDF9FDF7B3FDFEF78D
:103B00007FF9FEF7A3FF002010BD00002DE9F04172
:103B100005460E462648076826480068001D00F046
:103B2000A1FC50B92348006890F82C10012088406F
:103B300021490968814320480160681CD8B9D6B181
:103B40001E4948681B49096888601A4982680968E3
:103B5000CA6018490968091D8268516015490968D9
:103B6000091D8160154A134909684A6111460968AF
:103B7000491C11601AE07C190E4800684460BC4280
:103B800007D20C480168091D0D48006800F08EFC42
:103B90000CE008480168091D0A48006800F086FC2E
:103BA00009480068844201D207480460BDE8F081FA
:103BB00048010020340100204C0100208008002032
:103BC0003C010020380100206401002010B50446AB
:103BD00000F092FC2F480068401C2E4908602E48D7
:103BE000006840B92C4804600846006801280DD1DF
:103BF00000F07EF90AE02948006838B926480068D4
:103C0000C06AE16A884201D82348046024480068F9
:103C1000401C2349086094F82C1001208840214959
:103C2000096808431F490860E16A01EB81011E4AE7
:103C300002EB81014868A0608268E260211D826811
:103C400051608160E16A01EB8101174A02EB810258
:103C50006261E16A01EB8101134A52F82110491CAB
:103C6000E26A02EB8202104B43F8221000F056FC8D
:103C70000A48006868B108480068C06AE16A88427A
:103C800007D24FF0805009490860BFF34F8FBFF350
:103C90006F8F10BD4401002034010020500100202E
:103CA000600100204C010020CC07002004ED00E062
:103CB00010B500F021FC0C48006890B90B4800F0EA
:103CC000E5FB0B4800F0E2FB08480A490860084899
:103CD0000949086000220C210A2000F0E5FD024994
:103CE000086000F01BFC10BD7C010020940800203F
:103CF000A8080020740100207801002010B516E00B
:103D000000F0FAFB0C48C068C468201D00F0AAFB54
:103D10000A480068401E0949086009480068401EBA
:103D20000749086000F0FAFB204600F020F804483C
:103D300000680028E4D110BD6C0800204401002078
:103D40004001002070B504460D46206C70B1216C16
:103D5000E0680144E160D4E90210884201D321689F
:103D6000E1602846226CE168FCF7F9FA70BD10B5F5
:103D70000446206B00F0E2FB204600F0DFFB10BDA4
:103D80000146084A126812680AB9012200E00022BE
:103D90000A600A6822B9034A1268D268106800E013
:103DA000002070477401002030B54FF4805315484F
:103DB00000F007042CB1C01D20F00700114C041BBB
:103DC0001B1B0246104C226000240F4D6C60D01863
:103DD000083820F007000D4C206000240B4D2D68A2
:103DE0006C600A4D2D682C601146441A4C60074CDB
:103DF00024680C60064D4C682C60064D4C682C60A5
:103E000030BD0000BC080020880100209001002087
:103E1000980100209401002000BFFFF76FFF0648C3
:103E200000680128F9D94FF0805004490860BFF3B9
:103E30004F8FBFF36F8FF0E7CC07002004ED00E059
:103E40002DE9F04106460D4617469846069C0DB9E9
:103E5000246000E02760E66325640121204600F02D
:103E600049FDBDE8F0812DE9F05F81460E46174619
:103E70009A46DDF828800C9CB900A522206BFCF73F
:103E8000B3FA781E216B01EB800B2BF0070B7EB190
:103E9000002507E0715D04F134004155705D00B903
:103EA00002E06D1C102DF5D300BF00214320015509
:103EB000B8F1050F01D34FF00408C4F82C80201D81
:103EC00000F0F1FA04F1180000F0EDFA2461C8F1F5
:103ED0000500A061646252464946584600F0B0FAB7
:103EE00020600B9808B10B980460BDE8F09F0000BB
:103EF00010B5002407E004EB84010F4A02EB8100B7
:103F000000F0C4FA641C052CF5D30C4800F0BEFA8E
:103F10000B4800F0BBFA0B4800F0B8FA0A4800F072
:103F2000B5FA0A4800F0B2FA0448094908600448A2
:103F30000849086010BD0000CC07002030080020B0
:103F400044080020580800206C0800208008002049
:103F5000380100203C01002010B50146164800E061
:103F6000006803688B42FBD30246436813448B42CC
:103F700004D143684C682344436001460A464B68B9
:103F800013440468A34211D10C4C03682468A34273
:103F900008D04B680468646823444B6003681B685E
:103FA0000B6005E0054B1B680B6001E003680B60CC
:103FB000884200D0016010BD8801002090010020DF
:103FC0002DE9F04104460D4616461F464FF0000805
:103FD00065602461B5420CD8F01BA169884202D308
:103FE0004FF0010811E0211D0948006800F05EFA59
:103FF0000BE0BE4204D2BD4202D34FF0010804E000
:10400000211D0448006800F051FA4046BDE8F081E7
:10401000780100207401002070B5054600F06CFAAC
:10402000A86B08B9012400E0002400F077FA2046CC
:1040300070BD000070B505460E460E480068C068A9
:10404000C468201D00F00EFA94F8240000F004006B
:1040500028B132462946204600F0C4F805E094F81D
:10406000240000F0FE0084F824002046216A8847DE
:1040700070BD0000740100207FB56EE0019800283B
:104080006BDB039C606908B9012000E0002010B9D7
:10409000201D00F0E7F9684600F0D0F805460198C9
:1040A0000A2858D2DFE800F05705072E36470608E1
:1040B0002F3700BF00BF00BF94F8240040F001007C
:1040C00084F824000298A269811803462A462046F3
:1040D000FFF776FFA8B194F8240000F0040038B18F
:1040E0000298A26981182A46204600F07BF805E074
:1040F00094F8240000F0FE0084F824002046216A91
:10410000884729E000BF94F8240000F0FE0084F8FE
:10411000240021E000BF94F8240040F0010084F85E
:1041200024000298A061A06941192B462A46204626
:10413000FFF746FF10E094F8240000F0020018B9E1
:10414000204600F0FBF905E094F8240000F0FE00A2
:1041500084F8240000E000BF00BF002201A903484A
:10416000006800F017FC002888D17FBD7C0100208A
:10417000F8B505460C4600F03FFB684600F05EF8D7
:104180000646009820BB44B9B54206D800F03AFE76
:1041900031462846FFF74EFF1CE03CB10E48006850
:1041A000006808B9012000E000200446A91B22464F
:1041B0000A48006800F0F3F900F024FE50B94FF00F
:1041C000805007490860BFF34F8FBFF36F8F01E046
:1041D00000F018FEF8BD0000780100207C010020EE
:1041E00004ED00E070B504460D46164604E0A069F3
:1041F00005442046216A8847A06941192B4632466A
:104200002046FFF7DDFE0028F1D170BD09480068A7
:10421000006808B9012000E0002020B14FF0FF3015
:104220000549086005E003480068C0680068024965
:1042300008607047380100206401002070B5044612
:1042400000F08EFC054607480068854204D200F065
:104250000BF80120206001E000202060014805608B
:10426000284670BD8401002070B508E00D48006844
:10427000C06804684FF0FF312046FFF7DBFE0948B5
:104280000068006808B9012000E000200028EDD097
:10429000044805680448006802490860024805604F
:1042A00070BD0000740100207801002000BF502084
:1042B00080F31188BFF34F8FBFF36F8F00BF00BF34
:1042C000FEE708B500BF6846FFF75AFD04462046E2
:1042D0000099FFF74DFFFFF7CFFEF4E770B50446F6
:1042E00000F00AF994F9455010E0606A08B901201D
:1042F00000E0002038B904F1240000F0FFFC18B100
:1043000000F002FA00E003E0681E45B2002DECDC8C
:1043100000BFFF2084F8450000F000F900F0ECF841
:1043200094F9445010E0206908B9012000E0002011
:1043300048B904F1100000F0E1FC08B100F0E4F924
:10434000681E45B200E001E0002DECDC00BFFF205C
:1043500084F8440000F0E2F870BD00002DE9F04759
:1043600005464FF0000900F047FA3048006808B9E8
:10437000FFF71AFD75B105F00700C0F11008C8F18C
:10438000FF30A84201D2012000E0002008B94544D6
:1043900000E00025012000EBE570002841D0002D51
:1043A0003FD02348006885423BD8224E30460468FF
:1043B00001E0264624686068A84202D220680028EE
:1043C000F7D11A48006884422BD0306800F1080900
:1043D000206830606068401B102807D96719606842
:1043E000401B786065603846FFF7B6FD104960688D
:1043F0000968081A0E490860084600680E490968ED
:10440000884203D20A4800680B490860606840F09F
:10441000004060600020206008480068401C074998
:10442000086000F0EFFC4846BDE8F08790010020EE
:104430009401002088010020980100209C010020A8
:10444000001F4FF080730360001F21F00103036021
:10445000001F034B036014380260203870470000CF
:10446000AD42000801460A69D1E901309860D1E9FE
:10447000010358605068884201D18868506000206C
:1044800008611068401E10601068704700F1080154
:1044900041604FF0FF31816000F10801C1600161AE
:1044A00000210160704700210161704710B502468C
:1044B0000B685C1C0CB9106907E002F1080000E011
:1044C0004068446824689C42FAD944684C604C684F
:1044D000A160886041600A611468641C146010BDAA
:1044E00042684A6093688B60936859609160086184
:1044F00003685B1C0360704700BF502080F3118885
:10450000BFF34F8FBFF36F8F00BF03480068401C9D
:104510000149086070470000A401002006480068B7
:10452000401E054908600846006820B9002080F355
:10453000118800BF00BF7047A401002070B5064677
:104540003546E6B1083D2C466068C00FB8B120681A
:10455000A8B9606820F00040606000F04DF908499B
:10456000606809680844064908602046FFF7F4FCC3
:1045700004480068401C0349086000F043FC70BD1B
:1045800094010020A001002000204FF0E0210861EC
:10459000886148F69F4048610720086170472DE90F
:1045A000F04105460E4617462C46FFF7A5FF94F945
:1045B0004400401C10B9002084F8440094F94500E0
:1045C000401C10B9002084F84500FFF7A7FFA06B3E
:1045D00028B93A46314604F1240000F0ABF82046F1
:1045E000FFF77CFEBDE8F08170B50446002544B1BC
:1045F00000F002F900212046FFF788FA00F002FCE3
:1046000005463DB94FF0805003490860BFF34F8F16
:10461000BFF36F8F70BD000004ED00E070B505467C
:10462000FFF76AFF15B92948006800E028460446EC
:10463000201DFFF717FF78B9E06A00EB80002449DE
:1046400051F8200040B994F82C10012088402149ED
:10465000096881431F480160A06A18B104F118007D
:10466000FFF700FF1C480068401C1B490860174802
:104670000068844209D1211D1848FFF731FF18480E
:104680000068401C1649086006E016480068401E95
:1046900014490860FFF7BAFDFFF740FF0B480068B8
:1046A000844202D02046FFF762FB0F48006858B1F1
:1046B00006480068844207D14FF080500B490860DB
:1046C000BFF34F8FBFF36F8F70BD00003401002028
:1046D000CC0700204C010020600100206C08002065
:1046E00040010020440100205001002004ED00E0C2
:1046F0000349096801600349096841607047000087
:104700005C01002048010020012001490860704739
:104710005801002070B505460C460548016818315F
:104720002846FFF7C3FE01212046FFF7EFF970BDD1
:104730003401002070B504460E46154660680F49E6
:104740000968C8610D49826809680A620B490968ED
:104750001831826851600949096818318160074938
:1047600009688C622168491C21600DB14FF0FF3649
:1047700029463046FFF7CAF970BD00003401002019
:104780001CB5154800210B464022CDE9001013A1AD
:10479000144800F0B1F90446012C02D100F0E0FB0E
:1047A0000446012C14D100BF502080F31188BFF3C0
:1047B0004F8FBFF36F8F00BF4FF0FF300A49086083
:1047C00001200A49086000200949086000F052F8F9
:1047D000084800681CBD00006801002049444C45A1
:1047E00000000000193E0008640100205001002074
:1047F000480100206C01002002480068401C01496B
:1048000008607047700100201248006818B101204C
:10481000114908601DE000200F4908600F4800683A
:10482000B0FA80F0C0F11F0101EB81020C4B03EBE9
:10483000820042685268426000F108024368934275
:1048400002D14268526842604268D268054B1A60E1
:1048500000BF704770010020580100204C0100206B
:10486000CC07002034010020014800687047000098
:104870009401002010B50A48006840F4700008490F
:1048800008600846006840F070400860FFF77CFE52
:10489000002004490860FBF7ADFC002010BD0000BB
:1048A00020ED00E0A40100202DE9F84304460E4667
:1048B00017460025DCB1681EB0FBF4F0B04216D3F9
:1048C00004FB06F010F1490F11D804FB06F909F1B9
:1048D0004800FFF743FD05464DB1A84608F14808DA
:1048E0003B464246314620460095FFF7A9FA284646
:1048F000BDE8F8832DE9F04105460E4601272C4618
:10490000002C41D0E06B00283ED0B91EE06BB1FB1B
:10491000F0F0216C884237D3FFF7EEFDD4E90F1297
:10492000206801FB0200A0600020A0632068606096
:10493000E06B401E226C216800FB0211E160FF2049
:1049400084F8440084F845009EB9206908B9012024
:1049500000E00020A8B904F1100000F0CFF980B108
:104960004FF080500A490860BFF34F8FBFF36F8F3D
:1049700007E004F11000FFF789FD04F12400FFF7C0
:1049800085FDFFF7CBFD00E000273846BDE8F0814C
:1049900004ED00E02DE9F74183B005460F464FF0E6
:1049A00000082C4600BFFFF7A7FDA66BF6B13946FD
:1049B0002046FFF7C7F9701EA063206908B90120DF
:1049C00000E0002060B904F1100000F097F938B160
:1049D0004FF080502F490860BFF34F8FBFF36F8FA8
:1049E000FFF79CFD012006B0BDE8F081059818B9DD
:1049F000FFF794FD0020F6E7B8F1000F04D101A8FD
:104A0000FFF776FE4FF00108FFF788FDFFF7F4FE91
:104A1000FFF772FD94F94400401C10B9002084F89F
:104A2000440094F94500401C10B9002084F845006A
:104A3000FFF774FD05A901A800F02EF8F0B9204693
:104A4000FFF7EAFAA0B104F124000599FFF762FE2E
:104A50002046FFF743FC00F0D5F90028A3D14FF022
:104A600080500C490860BFF34F8FBFF36F8F9AE7F8
:104A70002046FFF733FC00F0C5F994E72046FFF726
:104A80002DFC00F0BFF92046FFF7C6FA00288AD0B7
:104A90000020A8E704ED00E070B506460C46FFF7DD
:104AA0002BFD134802687068131A2068401C08B96F
:104AB000002519E00F4930680968884206D07068FF
:104AC000904203D80125002020600DE02068984224
:104AD00007D92068C01A20603046FFF709FE00257C
:104AE00002E0002020600125FFF718FD284670BD78
:104AF000480100205C0100202DE9FF4F85B0804671
:104B000089461746DDE912ABB800FFF727FC0646D9
:104B100076B14C20FFF722FC04462CB14C212046F4
:104B2000FBF78CFC266304E03046FFF707FD00E04E
:104B300000247CB10020CDE900ABCDE902403A462B
:104B400049464046089BFFF78EF92046FFF73EF89E
:104B5000012501E04FF0FF35284609B0BDE8F08F90
:104B60000149086870470000480100202DE9F04124
:104B700000275748006800287ED156480068451C29
:104B8000544805608DB95448D0F8008053480068F7
:104B9000514908605148C0F8008051480068401CE5
:104BA0004F490860FFF732FB00BF4E48006885425E
:104BB00076D300BF48480068006808B9012000E0CB
:104BC000002020B14FF0FF304649086067E04248BE
:104BD0000068C068C4686668B54202D24148066091
:104BE0005DE06069D4E902128A60D4E902214A607A
:104BF000211D42688A4201D1E16841600022626160
:104C00000168491E0160A06A98B1A06AD4E9071240
:104C10008A60D4E907214A6004F1180142688A4297
:104C200001D1216A41600022A2620168491E01602F
:104C300000BF94F82C10012088402B4909680843D4
:104C400029490860E16A01EB8101284A02EB8101F0
:104C50004868A0608268E260211D826851608160BE
:104C6000E16A01EB8101214A02EB81026261E16AA2
:104C700001EB81011D4A00E022E052F82110491C9D
:104C8000E26A02EB8202194B43F822101849E06AEB
:104C90000968C96A88428DD901278BE700E000BF07
:104CA00013480068C06A00EB8000104951F82000EA
:104CB000012800D901270F48006800B1012704E04E
:104CC0000D480068401C0C4908603846BDE8F0817A
:104CD0007001002048010020380100203C01002024
:104CE0005C010020640100204C010020CC07002062
:104CF00034010020580100205401002070B5034603
:104D0000D868C168886AD1E90745A560D1E9075428
:104D1000656001F118044568A54201D10C6A446040
:104D200000258D620468641E046030480068002815
:104D30003DD14869D1E90245A560D1E902546560D9
:104D40000C1D4568A54201D1CC68446000254D6129
:104D50000468641E046091F82C400120A040244C9B
:104D600024682043224C2060CC6A04EB8404214D4B
:104D700005EB8404606888608568CD600C1D8568DB
:104D80006C608460CC6A04EB84041A4D05EB8405E6
:104D90004D61CC6A04EB8404164D55F82440641C24
:104DA000CD6A05EB8505134E46F8254010E0124C00
:104DB0006068C86185680D6201F1180485686C60DF
:104DC00084600D4D8D622C462468641C2C6000BFED
:104DD0000A4CC86A2468E46AA04204D9012201206E
:104DE000074C206000E00022104670BD70010020DA
:104DF0004C010020CC07002058080020340100207E
:104E00005801002070B500240026FFF775FB4B48C1
:104E10000068401E494908600846006800287DD1A6
:104E200047480068002879D05BE04648C068C468FD
:104E3000A06AD4E907128A60D4E907214A6004F124
:104E4000180142688A4201D1216A41600022A262AF
:104E50000168491E01606069D4E902128A60D4E9E0
:104E600002214A60211D42688A4201D1E168416005
:104E7000002262610168491E016094F82C10012033
:104E800088403149096808432F490860E16A01EB0D
:104E900081012E4A02EB81014868A0608268E260CD
:104EA000211D826851608160E16A01EB8101274A1E
:104EB00002EB81026261E16A01EB8101234A52F84F
:104EC0002110491CE26A02EB8202204B43F82210B7
:104ED0001F49E06A0968C96A884202D301201D4956
:104EE00008601848006808B9012000E00020002888
:104EF0009BD00CB1FFF78AF91748056865B100BF70
:104F0000FFF734FE10B10120124908606D1E002D1C
:104F1000F6D10020104908600E4800E009E0006862
:104F200038B1012630070D490860BFF34F8FBFF33A
:104F30006F8FFFF7F3FA304670BD0000700100205C
:104F400044010020580800204C010020CC0700201C
:104F500034010020580100205401002004ED00E03D
:104F60001CB50024FEF7A4FE0748006850B10748AE
:104F7000042100233222CDE9001005A10648FFF7E5
:104F8000BBFD044620461CBD7C01002080010020A2
:104F9000546D722053766300C342000810B591EA45
:104FA000030F48BF83F0004300F14084841A71EB83
:104FB000030C05D2121943EB0C03001B61EB0C012F
:104FC000DFF824E14FEA1154A4EB135C1EEA430F0F
:104FD00018BF9EEA445F73D023EA0E03DCF1200E73
:104FE00021EA045143F4801332D322FA0CFE10EB71
:104FF0000E0023FA0CFE41EB0E01CCF1200E03FA59
:105000000EFE10EB0E0051F10001B1F5801FCCF146
:10501000200E32D201EB045112FA0EF2BDE810401C
:1050200058BF7047401C38BF5FEA420218BF704744
:10503000002814BF20F0010041F100014FEA4103B4
:1050400013F5001F38BF7047A1F1C04100F09EBBAF
:10505000012A43EB0302ACF1200CDCF11F0E32BF3E
:105060004FF0000E23FA0CF310EB030041EB045158
:10507000B4EB115FD0D0A1EB045101F580114908C8
:105080005FEA300001EB04510ED350F1000038BF4D
:1050900012FA0EFE08D1BDE81040C9E7401C38BF27
:1050A0005FEA4202CAD1C3E7BDE810404FEA4103BC
:1050B00013F5001F38BF7047A1F1C04100F066BB77
:1050C0009EEA445F08D011EA5E0FBDE8104004BFBD
:1050D00001F0004100207047BDE8104070B500F0BD
:1050E00007FB00BF64FBBE3E0000E0FF02494FF03B
:1050F000000000F0CEBD00BF0000F87F491058BF8F
:10510000C1F140415B1058BFC3F140438B42EFF304
:10511000008070472DE9C04130B4DFF8A0C23CEAFE
:10512000111418BF3CEA131400F0EC8081EA030567
:105130001CEA111444EAD57418BF1CEA131500F0D8
:10514000C780A4EB05044FF0004545EAC12145EABC
:10515000C32341EA505143EA525304F17F74994208
:1051600004F500344FEAC0204FEAC22208BF904243
:1051700000F09C804FEA13650FF24016765D4FEA0F
:10518000134506FB05F7C7F1807706FB07F74FEAE3
:10519000D737A7FB03687642C8F58038A7FB06CE51
:1051A00038BFA8F1010807FB08E64FF0000EA6FB88
:1051B000028CE6FB03CEDCF1000CCEF1004E38BFD2
:1051C000AEF1010EA6FB0C584FF000074FF00005A2
:1051D000E6FB0E87A1FB08C6A0FB07CE16EB0E066A
:1051E00045F10005E1FB076515F1E04E7EBFA4F532
:1051F00080345FEA46066D4116F1800745F10005EF
:105200004FEA17274FEA066647EA0567A6F1DE462A
:10521000B6F1805F4FEA15251FD9384624F0010CFE
:1052200005EBC471BCF1FE6F01EB0C1102D8F0BCB0
:10523000BDE8008124425CBF01F5801E9EEAC47F68
:1052400002D4F0BCBDE80081244238D4F0BCA1F106
:10525000C041BDE8004100F099BA4FEAD22242EACB
:1052600043524FEAD323A7FB02864FEAD02040EAFD
:10527000415007FB03661EEA0E0F4FEAD12105FBE2
:10528000026658BFA6EB0056B6EB00564FEA520E28
:105290004EEAC37E18EB0E0E56EB530EBDD518EB3F
:1052A00002085E417F1C55F10005B6E74FF48015FA
:1052B0004FF000074FF000064FF00008ADE7F0BCDC
:1052C0004FF0000001F1C04101F00041BDE8008154
:1052D00011EA0C1F0CEA131500D00CE013EA0C1FA6
:1052E00000F025804FF00000F0BC81EA030101F0DE
:1052F0000041BDE80081F0BCBDE8004181EA030146
:1053000000F044BAF0BCBDE8004170B500F0F0F91F
:10531000097EFC3E00F007B881EA03014FF000006F
:1053200001F00041704781EA030100F02FBAF0BCA0
:10533000BDE800414FF0000021497047FFFDFBF937
:10534000F7F5F4F2F0EEEDEBE9E8E6E4E3E1E0DEB8
:10535000DDDBDAD8D7D5D4D3D1D0CFCDCCCBCAC82A
:10536000C7C6C5C4C2C1C0BFBEBDBCBBBAB9B8B751
:10537000B6B5B4B3B2B1B0AFAEADACABAAA9A8A844
:10538000A7A6A5A4A3A3A2A1A09F9F9E9D9C9C9B12
:105390009A999998979796959594939392919190BD
:1053A0008F8F8E8E8D8C8C8B8B8A8989888887874E
:1053B0008685858484838382828181800000FF07C3
:1053C0000000F87F51EA030C17D41CF5801F58BF6A
:1053D000BCF5801F00F10680994218BF704708BFD6
:1053E0009042704707D711F5801F58BF13F5801FF3
:1053F00019D499427047894270471CF5801F08D51F
:10540000BCF5801FF7D58B4218BF704708BF82429A
:1054100070474FF4001C1CEB410F38BF1CEB430FCF
:1054200001D28B42704770B500F062F992244900B6
:105430004FF000514FF08053FFF760BE4FEA410339
:105440004FEA5353A3F58063D3F11E03C8BFD3F1D2
:10545000210C0CDD4FF0004242EAC12242EA5052D8
:1054600032FA03FC8CEAE17CACEBE1707047102B64
:10547000C4BF0020704703F5787CBCF1FF3F04D027
:105480006FF0004282EA2100704770B500F030F9F9
:105490004992248000207047F2E700004FEA115340
:1054A000A3F58063D3F11E03A8BFD3F1200C08DB62
:1054B0004FF0004242EAC12252EA505232FA03F05F
:1054C000704709420BD4102BC4BF0020704703F56E
:1054D000787CBCF1FF3F05D04FF0FF3070474FF0B4
:1054E0000000704770B500F003F900BF49922480B6
:1054F00000207047F0E710F0004248BF4042B0FA89
:1055000080F310FA03F10AD0C3F11D0303F58063A1
:105510004FEA415002EB035202EBD12170474FF0AA
:105520000000704751EA030C17D41CF5801F58BFC8
:10553000BCF5801F00F10680994218BF704708BF74
:105540009042704707D711F5801F58BF13F5801F91
:1055500019D499427047894270471CF5801F08D5BD
:10556000BCF5801FF7D58B4218BF704708BF824239
:1055700070474FF4001C1CEB410F38BF1CEB430F6E
:1055800001D28B42704770B500F0B2F89224490006
:105590004FF000514FF08053FFF7B0BDDFF848C126
:1055A00070B51CEA111E1EBF1CEA13159EEA0C0FF3
:1055B00095EA0C0F00F06F8081EA030423EA4C1394
:1055C0004EEAD47E21EA4C1141F4801143F4801359
:1055D000AE44A1FB024CA0FB0365AEF17F7E361901
:1055E00055EB0C05A1FB034C4CF10003A0FB021C86
:1055F00016EB0C06654153F10003094218BF46F053
:10560000010613F4007F0BD14FEA03314FEA053056
:10561000340341EA155140EA16506FF003020AE0E4
:105620004FEAC3214FEAC520F40241EA555140EA4E
:1056300056506FF0020202EB2E4201EB025585EA52
:10564000CE710AD05FEA440C18BF24F0004450F138
:10565000000041F1000120EAD47040F2FE7C624576
:1056600000D270BDA84214BF4FF080444FF04044B8
:10567000002E08BF0024BEF1806FA8BFA1F1C04179
:10568000BDE8704080F282804FF0000001F1C0411F
:1056900001F0004170479EEA0C0F0CEA131518BF89
:1056A00095EA0C0F06D04FF0000081EA030E0EF0D1
:1056B000004170BD00F01CF88900013E00F007B801
:1056C00000F009B84FEA430C5FEA5C5C08D081EA5D
:1056D000030100F05BB84FEA410C5FEA5C5CF6D175
:1056E0004FF00000014970470000FF070000F87FFD
:1056F0000EF1020E2EF0030E5EF8046B364205D456
:10570000012A43EB030515F5001F12D8012841EBD0
:10571000010C1CF5001F0CD80ED14FEAD17C15F5F9
:10572000001F0CEB4C0C0CF1020C08BF4CEBD37CB3
:1057300004E04FF0080C01E04FEAD37C0CEB4C0581
:1057400026FA05F606F00706B6F1040C06D20EEBB3
:10575000860CBDE870404CF0010C6047DFE80CF0AF
:10576000090B02024FF000414FF00000A1F50021AB
:1057700070BD19461046012851EB010418BFD4F53D
:10578000001484BF002001F0004170BD0808A0F59E
:1057900000114FEA3101704753EA010C17D41CF590
:1057A000801F58BFBCF5801F00F106808B4218BFD8
:1057B000704708BF8242704707D713F5801F58BF54
:1057C00011F5801F19D48B4270479B4270471CF51E
:1057D000801F08D5BCF5801FF7D5994218BF7047C8
:1057E00008BF904270474FF4001C1CEB430F38BFBA
:1057F0001CEB410F01D2994270470FB40CBC03BCA3
:10580000FFF7C1BE91EA030F10B581F000413FF5EB
:10581000CDAB83F0004300F009B8000010B591EA69
:10582000030F48BF83F000433FF5C0AB841A71EB10
:10583000030C07D212198CF0004C43EB0C03001B35
:1058400061EB0C01DFF8A4E14FEA1154A4EB135C07
:105850001EEA430F18BF9EEA445F00F0B08023EABF
:105860006E03524221EA0451C3EB6E0338BF5B1E44
:10587000DCF1200E25D322FA0CFE10EB0E0043FAC9
:105880000CFE41EB0E01CCF1200E03FA0EFE10EBE4
:105890000E0051F10001CCF1200E29D412FA0EF2C3
:1058A00001EB0451BDE8104058BF7047401C1CBFBD
:1058B000B2F1004F704700280CBF491C20F00100D6
:1058C000704712EB020E43EB030218BF4FF0010EBC
:1058D0004EEA4202ACF1200CDCF11E0E54D943FA20
:1058E0000CFE10EB0E0051F1FF31CCF11E0ED5D5A0
:1058F0000EF1010E12FA0EFE404141EB010101EBE7
:10590000445C5FEA5C5C10D910EBDE7001EB045183
:1059100038BFBEF1004FBDE8104018BF70470028E7
:105920000CBF491C20F00100704730D24FEAD42C44
:1059300011F5001124F400641BD0B1FA81F20B3A86
:10594000A41AA41ED2F12003914030FA03F31943A4
:10595000904001EBCC71002C01EB0451BDE81040EC
:10596000A8BF704701F1C0414FF0000001F00041B5
:105970007047B0FA80F310FA03F100D110BDE41AB9
:10598000173C4805C90AE4E701EB045110BD491072
:1059900001EB0451BDE810404FEA300002E04FF047
:1059A000000170474A0008BF0042F8D0B2F5001F5E
:1059B00028BF704701F000414FF0000070479EEA99
:1059C000445F07D011EA5E0FBDE8104004BF00211C
:1059D00000207047BDE8104070B5FFF789FE00BF9A
:1059E00040DFF63E83F00041104670470000E0FFC4
:1059F00043004FEAD30C4FEA3C0C43401FBF400723
:105A00000CF1605113F0FE4F70471CF0006F03D192
:105A100000200CF0004170470CF0004343EA507046
:105A200010B540EACC0000F0E9F800BF0000009299
:105A30004FEA0001FFF7AABE4FF000414FF000000F
:105A4000A1F50021704700004FF47F0C1CEAD01232
:105A50001EBF1CEAD11392EA0C0F93EA0C0F00F060
:105A6000858090EA010F48BF42F4807240F4000C38
:105A700041F400002CF07F4120F07F4000B58142CE
:105A8000A2EB03020FF2081CACEB504EC0F1000079
:105A90009EF800E04FEA4E0E00FB0EFC38BF4900B6
:105AA0004FEA2C1C02F5FA020CFB0EF34FEACE1E55
:105AB0004FEA112C4FEAC1210EEB635E42EB22420A
:105AC0000EFB0CFC4FEA1C5300FB03114FEA112C98
:105AD0004FEA01310EFB0CFC4FEADC4C00FB0C11D1
