:020000040800F2
:1000000028250020690200085D1D00086F12000805
:10001000F1130008C90C0008D132000800000000EC
:10002000000000000000000000000000D1010008F6
:10003000CD0C0008000000001502000895260008FD
:10004000830200088302000883020008830200087C
:10005000830200088302000883020008830200086C
:10006000830200088302000883020008830200085C
:10007000830200088302000883020008830200084C
:10008000830200088302000883020008830200083C
:10009000830200088302000883020008830200082C
:1000A000830200088302000883020008830200081C
:1000B000E127000883020008000000008302000816
:1000C0008302000800000000000000008302000816
:1000D0000000000083020008830200080000000006
:1000E00083020008830200088302000800F002F87F
:1000F00000F05EF80AA090E8000C82448344AAF164
:100100000107DA4501D100F053F8AFF2090EBAE861
:100110000F0013F0010F18BFFB1A43F0010318473B
:10012000E0720000007300000A444FF0000C10F869
:10013000013B13F0070408BF10F8014B1D1108BF65
:1001400010F8015B641E05D010F8016B641E01F805
:10015000016BF9D113F0080F1EBF10F8014BAD1C55
:100160000C1B09D16D1E58BF01F801CBFAD505E073
:1001700014F8016B01F8016B6D1EF9D59142D6D3CD
:10018000704700000023002400250026103A28BFF5
:1001900078C1FBD8520728BF30C148BF0B607047F9
:1001A0001FB59DE8030000F063F91FBD10B510BD39
:1001B00000F022FA1146FFF7F3FF03F0F1FB00F025
:1001C00040FA03B4FFF7F2FF03BC00F071FA00003D
:1001D000224B19680868B0E8F00F80F30988BFF374
:1001E0006F8F4FF0000080F311884EF00D0E7047B6
:1001F0000000000006480068006880F3088862B6C6
:1002000061B6BFF34F8FBFF36F8F00DF00BF00BF3A
:1002100008ED00E0EFF30980BFF36F8F0F4B1A6812
:1002200020E9F00F106008B54FF0500080F31188FE
:10023000BFF34F8FBFF36F8F04F0C6FA4FF000008B
:1002400080F31188BDE8084019680868B0E8F00F2D
:1002500080F30988BFF36F8F704700BF4001002013
:10026000EFF30580704700000948804709480047C0
:10027000FEE7FEE7FEE7FEE7FEE7FEE7FEE7FEE756
:10028000FEE7FEE704480549054A064B70470000B3
:10029000C9260008ED000008281B002028250020A2
:1002A000282000202820002070B5064600F0C4F861
:1002B000056806F10B0020F00704B4429CBF002043
:1002C00070BD2B466A68BAB11068A04210D304F121
:1002D000080188423CBF5068586007D35168101924
:1002E00041601168091B016058601460101D70BDE9
:1002F00013465268002AE7D12146284600F0A4F8A8
:100300000028DED170BD032A40F2308010F0030CCB
:1003100000F0158011F8013BBCF1020F624498BF58
:1003200011F801CB00F8013B38BF11F8013BA2F1F5
:10033000040298BF00F801CB38BF00F8013B11F070
:10034000030300F0FD80083AC0F0088051F8043B38
:10035000083A51F804CBA0E80810F5E7121D5CBF7D
:1003600051F8043B40F8043BAFF30080D20724BFB0
:1003700011F8013B11F801CB48BF11F8012B24BF44
:1003800000F8013B00F801CB48BF00F8012B704793
:1003900002F0FF0343EA032242EA024200F002B8FD
:1003A0004FF000020429C0F0128010F0030C00F09E
:1003B0001B80CCF1040CBCF1020F18BF00F8012B1C
:1003C000A8BF20F8022BA1EB0C0100F00DB85FEAEA
:1003D000C17C24BF00F8012B00F8012B48BF00F8B6
:1003E000012B70474FF0000200B513469446964625
:1003F000203922BFA0E80C50A0E80C50B1F1200138
:10040000BFF4F7AF090728BFA0E80C5048BF0CC0E5
:100410005DF804EB890028BF40F8042B08BF704743
:1004200048BF20F8022B11F0804F18BF00F8012BB5
:10043000704770477047704700487047D01A0020D7
:10044000704770477047704738B504460A46002029
:100450006946AFF30080002808BF38BD0246009906
:10046000204600F0A7F8012038BD012000F0BCB8FC
:10047000F8B5AFF30080054600200C46102000BF01
:100480000646A819A0420DD9324669460020AFF3AE
:100490000080070008BF00F0A7F80098A04218BF2E
:1004A0000546C419FFF7C8FF05600746F01D20F098
:1004B00007004619284600F00AF8B44208BFF8BD04
:1004C000A21B31463868BDE8F84000F073B800213F
:1004D0000160C0E9011070471020704770B50446F4
:1004E000051FFFF7A9FF0068002C14BF446870BD0A
:1004F000002C18BFAC423CBF20466468F8D30168AA
:100500000A18AA4218BF456003D12A68054611445B
:10051000016028684119A1421CBF6C6070BD616810
:10052000696021680844286070BD10B500F03EF88D
:10053000006810BD10B5044600F038F8046010BD26
:1005400010B5203AC0F00B80B1E81850203AA0E86E
:100550001850B1E81850A0E81850BFF4F5AF5FEAA2
:10056000027C24BFB1E81850A0E8185044BF18C955
:1005700018C0BDE810405FEA827C24BF51F8043BFC
:1005800040F8043B08BF7047D20728BF31F8023B50
:1005900048BF11F8012B28BF20F8023B48BF00F8E4
:1005A000012B704700487047C81A00200048704768
:1005B000C81A0020034640688C46002818BF8842AD
:1005C0003CBF03464068F8D318681844884207D0F7
:1005D0000CF1030020F00700001D411A521A0146D9
:1005E000081D0A60FFF77ABF10B500F039F8BDE8C2
:1005F000104000F02FB870477546FFF7D3FFAE46A6
:1006000005006946534620F00700854618B020B51E
:10061000FFF738FEBDE820404FF000064FF000071E
:100620004FF000084FF0000B21F00701AC46ACE89A
:10063000C009ACE8C009ACE8C009ACE8C0098D4607
:10064000704710B50446AFF300802046BDE8104067
:10065000FFF7B7BD002801D000F02AB870470000AE
:1006600010B5012805D0002103A000F027F80120D3
:1006700010BD09A1F8E7000053494752544D454DBC
:100680003A204F7574206F662068656170206D6533
:100690006D6F7279000000003A2048656170206D2E
:1006A000656D6F727920636F727275707465640026
:1006B00001491820ABBEFEE72600020070B50546D2
:1006C0000C460A2000E06D1C00F011F835B12878C6
:1006D0000028F8D102E0641C00F009F814B1207879
:1006E0000028F8D1BDE870400A20AFF3008008B5BB
:1006F00069468DF800000320ABBE08BD10B509485F
:100700000078032801D100F02FF90648007802286C
:1007100001D100F09BF803480078012801D100F0D6
:1007200003F810BD5700002010B500F00BF8034887
:1007300001680348007802F049FB10BD2C0100203D
:100740005400002010B5012000F020FE01280FD138
:100750000221314800F0B6FA30490968886830490A
:10076000097800F062FF2F490860012000F0F3FDD6
:10077000022000F00BFE012817D12B480078401E04
:1007800029490870294908782749097800F052F862
:1007900025490870084601782548006800F02FFFB9
:1007A0001E490860022000F0D6FD032000F0EEFD97
:1007B000012817D11C480078401C1B4908701B49B0
:1007C00008781949097800F035F817490870084683
:1007D00001781748006800F012FF104908600320F4
:1007E00000F0B9FD012000F0D1FD022809D002205F
:1007F00000F0CCFD022804D0032000F0C7FD022841
:1008000008D1012000F0A7FD022000F0A4FD032084
:1008100000F0A1FD10BD000057000020580000208E
:10082000550000205C00002054000020250100201D
:100830002C0100200246914201DD1046704700293C
:1008400001DC0120FAE70846F8E7000070B500F087
:1008500011F806480068846804480068C5682A786A
:1008600021460348007802F0F5FA70BD58000020D8
:100870005500002010B538480068C468012000F019
:1008800085FD012806D10321344800F01BFA012020
:1008900000F061FD012000F079FD02280AD101215C
:1008A0002E4800F00FFA01212D4800F00BFA01202C
:1008B00000F051FD022000F069FD012816D1284802
:1008C0000078401E2649087020780978FFF7B2FFAB
:1008D000234908702049096888682149097800F08F
:1008E000A4FE20490860022000F035FD032000F03E
:1008F0004DFD012816D11A480078401C184908708F
:1009000020780978FFF796FF1549087012490968A1
:1009100088681349097800F088FE124908600320AE
:1009200000F019FD012000F031FD022809D002205D
:1009300000F02CFD022804D0032000F027FD02283F
:1009400008D1012000F007FD022000F004FD032083
:1009500000F001FD10BD00005800002057000020ED
:10096000550000205C00002010B500F003F800F0F6
:1009700019F810BD10B50A480068047A012C04D09B
:10098000022C08D0032C09D102E000F019F905E08F
:1009900000F054F902E000F04BF800BF00BF10BDBA
:1009A0005C00002070B586B01F480068057A012DF4
:1009B00004D0022D1BD0032D33D10AE01A48006861
:1009C00004692668184909684868314602F00AFC3B
:1009D00027E0154800680469606800680590124ABD
:1009E00021681268506805AA02F036FC19E00E482A
:1009F00000680469206800680590606800680490D9
:100A0000A068006803902669084800780649CDE987
:100A10000060096803AB04AA486805A902F010FB4E
:100A200000BF00BF06B070BD5C0000205600002073
:100A300070B5012000F0AAFC02280AD102212D483D
:100A400000F040F901212C4800F03CF9012000F0B1
:100A500082FC022000F09AFC012804D100F080F80A
:100A6000022000F078FC032000F090FC012804D163
:100A700000F046F8032000F06EFC022000F086FC37
:100A8000022814D11D4800680469257B5DB11A480D
:100A90000078401E18490870084601780320FFF7C7
:100AA000C9FE15490870022000F055FC00BF032064
:100AB00000F06CFC022814D1104800680469257B02
:100AC0005DB10D480078401C0B490870084601785C
:100AD0000320FFF7AFFE08490870032000F03BFC3D
:100AE00000BF012000F052FC012801D100F033FCCE
:100AF00070BD000057000020560000205C00002060
:100B000030B5154C24682269106853689168134CFD
:100B10002478012C04D0022C0DD0032C1AD10EE025
:100B20000468641C046004681D68AC4202DD04684B
:100B3000641E04600EE01C68641C1C600AE00C6803
:100B4000641C0C600C680568AC4202DD0C68641E15
:100B50000C6000BF00BF30BD5C00002056000020CC
:100B600030B5154C24682269106851689368134C9D
:100B70002478012C04D0022C0DD0032C1AD115E0BE
:100B80000468641E046004681D68AC4202DA0468EC
:100B9000641C04600EE00C68641E0C600C68056840
:100BA000AC4202DA0C68641C0C6003E01C68641E32
:100BB0001C6000BF00BF30BD5C000020560000205C
:100BC00070B51C48006804692568012000F0DEFB50
:100BD000022806D10221184800F074F8012000F024
:100BE000BAFB022000F0D2FB022806D101212846E0
:100BF00000F068F8022000F0AEFB032000F0C6FB16
:100C0000022806D10021284600F05CF8032000F0FD
:100C1000A2FB022000F0BAFB012804D0032000F060
:100C2000B5FB012805D1022000F095FB032000F060
:100C300092FB70BD5C0000205700002010B5012021
:100C400000F0A4FB022806D10221174800F03AF870
:100C5000012000F080FB012000F098FB012809D062
:100C6000022000F093FB012804D0032000F08EFB4B
:100C7000012808D1012000F06EFB022000F06BFB80
:100C8000032000F068FB022000F080FB022804D063
:100C9000032000F07BFB022805D1022000F05BFB63
:100CA000032000F058FB10BD5700002010B504468B
:100CB0000121204600F0A3FC0149086010BD00009E
:100CC000580000200170704700BFFEE77047000029
:100CD00010B5044600BF0B4800780028FBD1A1B234
:100CE0004FF0804001F0FFFE0121880701F0E4FD94
:100CF00000BF044800780028FBD00020014908709C
:100D000010BD00000500002030B5044604254FF456
:100D1000302000F06FF80546042D17D10C4800690B
:100D200040F002000A49086108464461006940F049
:100D3000400008614FF4302000F05CF8054604489C
:100D4000006941F6FD71084001490861284630BD3F
:100D50000020024004200B49C96801F0010109B1DB
:100D600001200EE00749C96801F0040109B1022021
:100D700007E00449C96801F0100109B1032000E04F
:100D800004207047002002400348006940F08000C2
:100D900001490861704700000020024070B5044618
:100DA0000D460426F00200F025F80646042E11D167
:100DB0000948006940F00100074908612580F002F8
:100DC00000F018F806460448006941F6FE71084034
:100DD00001490861304670BD0020024002480349C5
:100DE000486003484860704723016745002002407F
:100DF000AB89EFCD00B502460423FFF7ABFF0346F6
:100E000003E0FFF7A7FF0346521E012B01D1002A82
:100E1000F7D102B90523184600BD000010B54FF404
:100E200000720749074800F019F8054800884AF69B
:100E3000BB21884201D000F079F800F023F810BD02
:100E4000B4010020007C000810B50446FFF7C6FF7F
:100E50002046FFF759FFFFF797FF10BD30B5034657
:100E60000C461546002207E003EB420000F007F8AD
:100E700024F81200501C82B2AA42F5DB30BD0146B4
:100E80000888704700B54FF400721A491A48FFF7F6
:100E9000E5FF184800881949088016484088184915
:100EA000086014480079174908701248807916497B
:100EB00008701048007A154908700E484089144996
:100EC00008600C48007B134908700A48C089124921
:100ED00008600848008A114908600648408A10499D
:100EE00008600448007D0F4908700248807D0E4963
:100EF000087000BDB4010020007C00080000002044
:100F0000E8000020B5000020B6000020B700002057
:100F1000B8000020B2000020C4000020D000002053
:100F2000DC000020B3000020B400002010B51748FA
:100F3000FFF78AFF1648008816490880164800887F
:100F4000488016480078888015480078C880154881
:100F50000078088114480088488114480078888106
:100F600013480088C8811348008808821248008806
:100F7000488212480078888211480078C8824FF46D
:100F80000072024800F01EF810BD0000007C00084E
:100F900000000020B4010020E8000020B50000207F
:100FA000B6000020B7000020B8000020B2000020EA
:100FB000C4000020D0000020DC000020B30000208E
:100FC000B40000202DE9F04105460E4617460024E6
:100FD00007E036F8141005EB440000F006F8601C3A
:100FE00084B2BC42F5DBBDE8F08170B504460D4625
:100FF000FFF7F4FE29462046FFF7D0FEFFF7C4FEB8
:1010000070BD000008B50121042001F02DFA4FF455
:101010008070ADF8000018208DF8030003208DF8D3
:1010200002006946014800F003F808BD00080140CD
:101030002DE9F0410246002500260020002300246F
:10104000002791F803C00CF00F0591F803C00CF0D5
:10105000100CBCF1000F03D091F802C04CEA05055A
:1010600091F800C0BCF1000F31D0146800202BE0D3
:101070004FF0010C0CFA00F3B1F800C00CEA0306C3
:101080009E4220D183004FF00F0C0CFA03F7BC43B3
:1010900005FA03FC4CEA040491F803C0BCF1280FE4
:1010A00006D14FF0010C0CFA00FCC2F814C00AE0A3
:1010B00091F803C0BCF1480F05D14FF0010C0CFAB8
:1010C00000FCC2F810C0401C0828D1D31460B1F84D
:1010D00000C0BCF1FF0F34DD546800202EE000F1A9
:1010E000080C4FF0010808FA0CF3B1F800C00CEA44
:1010F00003069E4221D183004FF00F0C0CFA03F738
:10110000BC4305FA03FC4CEA040491F803C0BCF1AB
:10111000280F05D100F1080C08FA0CF8C2F8148069
:1011200091F803C0BCF1480F07D100F1080C4FF053
:10113000010808FA0CF8C2F81080401C0828CED329
:101140005460BDE8F08110B500F062F8FFF75AFF77
:1011500000F002F810BD000008B50121042001F0E4
:1011600083F90121082001F07FF90220ADF8000089
:1011700048208DF8030003208DF8020069460F48CF
:10118000FFF756FF0120ADF8000048208DF803005E
:1011900003208DF8020069460848FFF749FF012047
:1011A000ADF8000048208DF8030003208DF8020000
:1011B00069460348FFF73CFF08BD0000000C0140F2
:1011C000000801400246002093680B400BB101204B
:1011D00000E00020704741617047000010B5022117
:1011E0000148FFF7EFFF10BD000C014010B50121D1
:1011F0000148FFF7E7FF10BD000C014010B50121C9
:101200000148FFF7DFFF10BD000801400161704792
:1012100008B50121042001F027F94FF48050ADF802
:10122000000014208DF8030003208DF802006946A9
:101230000148FFF7FDFE08BD0008014010B5044657
:1012400034B1012C0AD101030548FFF7DFFF05E0A7
:101250004FF480510248FFF7BEFF00BF00BF10BD32
:10126000000801400AB1016100E04161704700BF20
:10127000FEE710B50024FFF7B1FFF8B9052003F031
:1012800093F9FFF7ABFFC8B909E0601C84B20120F5
:1012900003F08AF94EF66020844200DB0446FFF733
:1012A0009DFF0028F1D0322C04DB0221012000F048
:1012B00087F803E00121084600F082F810BD10B560
:1012C0000024FFF793FFF8B9052003F06DF9FFF74D
:1012D0008DFFC8B909E0601C84B2012003F064F9F5
:1012E0004EF66020844200DB0446FFF77FFF0028B3
:1012F000F1D0322C04DB0221084600F061F803E053
:101300000121022000F05CF810BD10B50024FFF7A9
:1013100075FFF8B9052003F047F9FFF76FFFC8B96B
:1013200009E0601C84B2012003F03EF94EF6602013
:10133000844200DB0446FFF761FF0028F1D0322C25
:1013400004DB0221032000F03BF803E0012103202D
:1013500000F036F810BD00B50346012B04D0022B77
:1013600007D0032B0FD109E00021012000F028F85D
:1013700009E00021022000F023F804E0002103200E
:1013800000F01EF800BF00BF00BD000001460129AB
:1013900004D0022905D0032909D105E005480078C9
:1013A000704705480078FBE704480078F8E7FF201D
:1013B000F6E70000020000200300002004000020E7
:1013C000012804D0022805D0032809D105E0054AE8
:1013D000117005E0044A117002E0044A117000BF68
:1013E00000BF70470200002003000020040000201E
:1013F00000BFFEE710B500231A461946184600F054
:1014000003F80446204610BD2DE9F04105460F467D
:10141000164698461820FEF747FF044614B90020E8
:10142000BDE8F08125606760A660C4F80C802046A6
:10143000F6E72DE9F04705460E4617469846DDF8D3
:1014400020902020FEF730FF044614B90020BDE8AC
:10145000F0872560C4F804902672E760C4F8108015
:10146000C4F814902046F2E738B5044600231A4623
:10147000194618460094FFF7DCFF0546284638BD9C
:101480002DE9F84F81460D4616461F46DDE90AABA9
:10149000CDF800B05246394630460C9B00F014F8A7
:1014A0008046B8F1000F02D10020BDE8F88F434616
:1014B0000022022148460095FFF7BBFF04460CB905
:1014C0000020F2E72046F0E72DE9F04705460E46FA
:1014D00017469846DDF820901420FEF7E5FE0446F6
:1014E00014B90020BDE8F08725606660A76084F825
:1014F0000C80C4F810902046F4E72DE9F8438046AC
:101500000D461646304600F0A6F8044614B90020F1
:10151000BDE8F88323460022012140460095FFF7ED
:1015200088FF07460CB90020F2E73846F0E72DE9BE
:10153000F84381460D4616461F463946304600F0B0
:1015400014F88046B8F1000F02D10020BDE8F883FE
:1015500043460022032148460095FFF76AFF0446F0
:101560000CB90020F2E72046F0E770B505460E46BC
:101570000820FEF799FE04460CB9002070BD2560D6
:1015800066602046FAE70146084600E04069426985
:10159000002AFBD17047014600204A6902E0431C43
:1015A00058B25269002AFAD170470146084600E055
:1015B000C069C269002AFBD1704701460020CA6990
:1015C00002E0431C58B2D269002AFAD1704730B504
:1015D00005460B462846FFF7D6FF044663611C61AB
:1015E0000020586130BD30B505460B462846FFF750
:1015F000DCFF0446E3619C610020D86130BD10B57A
:1016000002460B460AB1002B01DC002010BD01246C
:10161000516906E0A34201D10846F7E7601CC4B255
:1016200049690029F6D10020F0E710B502460B46C3
:101630000AB1002B01DC002010BD0124D16906E0B5
:10164000A34201D10846F7E7601CC4B2C96900296A
:10165000F6D10020F0E770B505460420FEF724FE21
:1016600004460CB9002070BD25602046FBE7000051
:1016700010B50C480068FFF7A0FF0B4908700B4835
:101680000068FFF79AFF0A4908700A480068FFF7E8
:1016900094FF0949087009480068FFF77CFF084972
:1016A000087010BD30010020260100203401002008
:1016B0002701002038010020280100202C010020F3
:1016C0002501002070B5FFF795FE15490860154B00
:1016D0001548164902681648FFF796FE0446154B52
:1016E0001548164902681648FFF78EFE0546154B49
:1016F0001548164902681648FFF786FE0646214639
:1017000007480068FFF763FF294605480068FFF7B0
:101710005EFF314602480068FFF759FF70BD0000C8
:101720002C0100202601002030010020140100209F
:10173000B76C000827010020340100201B010020A5
:10174000476E000828010020380100201F010020FA
:10175000D76F000810B500F0C7F800F005F800F0EA
:101760003DF8FFF7AFFF10BD3EB51148FFF77CFE17
:1017700010490860104A11491148FFF7BEFE05469E
:1017800000201049104A114BCDE900210290104A67
:1017900010491148FFF774FE0446294605480068C1
:1017A000FFF721FF214603480068FFF71CFF3EBDFD
:1017B0001B01002034010020B20000206000002046
:1017C000AB690008F8000020C0000020BC00002029
:1017D000B800002066000020E76900082DE9FE43FC
:1017E0002948FFF741FE29490860294A29492A4822
:1017F000FFF783FE0746294A29492A48FFF77DFE5D
:10180000804600202849294A294BCDE90021029031
:10181000284A29492948FFF733FE04460020224977
:10182000274A284BCDE900210290274A274928481A
:10183000FFF726FE054600201B49264A264BCDE928
:1018400000210290254A26492648FFF719FE064640
:1018500039460E480068FFF7C6FE41460B4800684F
:10186000FFF7C1FE214609480068FFF7BCFE294684
:1018700006480068FFF7B7FE314604480068FFF7E6
:10188000B2FEBDE8FE8300001F01002038010020E9
:10189000B30000206C0000208B6B0008B400002017
:1018A00072000020C76B0008FE000020CC00002062
:1018B000C8000020C400002077000020036C00084E
:1018C000D8000020D4000020D00000207B000020A1
:1018D0003F6C0008E4000020E0000020DC00002055
:1018E000810000207B6C00082DE9FE432248FFF7B1
:1018F000BBFD22490860224A22492348FFF7FDFD2B
:10190000054600202149224A224BCDE900210290C0
:10191000214A22492248FFF7B3FD0446214A2249C1
:101920002248FFF7EAFD0646214A22492248FFF7EE
:10193000E4FD0746214B224A22492348FFF7F7FDE1
:10194000804629460D480068FFF74DFE21460B48AA
:101950000068FFF748FE314608480068FFF743FE7D
:10196000394606480068FFF73EFE414603480068D6
:10197000FFF739FEBDE8FE8314010020300100208E
:10198000B5000020860000205F6A000809010020E1
:10199000F0000020EC000020E80000208E00002075
:1019A0009B6A0008B600002099000020D76A000852
:1019B000B7000020A0000020136B0008F4000020F6
:1019C0000F010020A70000204F6B000810B5FFF7A3
:1019D000C1FEFFF74DFE02480068FFF767F910BD32
:1019E0002C01002010B50848007818B9002000F03C
:1019F000F1FF07E00549097801EB81018906080E2E
:101A000000F0E8FF10BD0000B2000020B800002088
:101A100010B51948007808B31848007820B900F0CC
:101A200037F80120154908701548007810B100F00A
:101A300033F813E0134B1B7803EB83035B061A0E9A
:101A4000114B1B7803EB83035B06190E0F4B1B78BE
:101A500003EB83035B06180E00F0D8F80648007805
:101A600038B900221146104600F0D0F80020034992
:101A7000087000F0E3F810BDB30000203F01002023
:101A8000B4000020DC000020D0000020C4000020B2
:101A900000B500F0A3F800BD70B50521FA220523BA
:101AA00000208EE0494C2478012C11D100EB400439
:101AB000474D2C5D0C4400EB4005454E745500EB42
:101AC000400435462C5D944202DB00243F4D2C70CF
:101AD0003E4C24788CB900EB40043D4D2C5D641ADB
:101AE00000EB40053A4E745500EB400435462C5D42
:101AF0009C4202DC0124354D2C70364C2478012C9C
:101B000014D100EB4004324D2C4464780C4400EBBB
:101B100040052F4E35446C7000EB400435462C4494
:101B20006478944202DB00242A4D2C70294C2478DE
:101B3000A4B900EB4004264D2C446478641A00EBF1
:101B40004005234E35446C7000EB400435462C4470
:101B500064789C4202DC01241E4D2C701E4C2478BB
:101B6000012C14D100EB4004194D2C44A4780C44F2
:101B700000EB4005164E3544AC7000EB4004354692
:101B80002C44A478944202DB0024134D2C70124C98
:101B90002478A4B900EB40040D4D2C44A478641AB9
:101BA00000EB40050A4E3544AC7000EB400435466E
:101BB0002C44A4789C4202DC0124074D2C70441C68
:101BC000E0B20C28FFF66EAF70BD00003C010020B3
:101BD000B40900203D0100203E010020002010E05B
:101BE000962100EB4002084B9954322100EB400251
:101BF0001A445170FA2100EB40021A449170411CC2
:101C0000C8B20C28ECDB7047B409002030B503469D
:101C100000200DE000EB4004074D2B5500EB400485
:101C20002C44617000EB40042C44A270441CE0B2D0
:101C30000C28EFDB30BD0000B409002070B502F0C5
:101C40003BFC002410E004EB44000A4D2844837858
:101C500004EB44002844427804EB4400295C20460D
:101C600001F075FB601CC4B20C2CECDB02F036FCFE
:101C700070BD0000B409002010B502F0D5FD014987
:101C8000086010BDF400002010B51048006801285D
:101C900004D0022809D0032815D10DE0812000F0DE
:101CA000ABFB012000F0A8FB0DE0812000F0A4FBBD
:101CB000322000F0A1FB06E0812000F09DFBFF2018
:101CC00000F09AFB00BF00BF10BD0000E80000203C
:101CD00010B50848007810B1012808D103E0A6200B
:101CE00000F08AFB03E0A72000F086FB00BF00BFE6
:101CF00010BD0000B500002010B50848007810B1F4
:101D0000012808D103E0A12000F076FB03E0A02029
:101D100000F072FB00BF00BF10BD0000B600002045
:101D200010B50848007810B1012808D103E0C82098
:101D300000F062FB03E0C02000F05EFB00BF00BFCC
:101D400010BD0000B700002010B5FFF7C1FFFFF77E
:101D50009BFFFFF7D1FFFFF7E3FF10BD70470000C7
:101D600070B5002100230F22C47804B3154C2468F9
:101D700004F4E064C4F5E064210AC1F10403CA403C
:101D8000447804FA03F184781440214309010E4C8D
:101D90000678A155047804F01F050124AC400578AD
:101DA0006D11AD0005F1E025C5F8004109E00478AA
:101DB00004F01F050124AC40044D0678761145F867
:101DC000264070BD0CED00E000E400E080E100E0A2
:101DD00002490143024A1160704700000000FA0501
:101DE0000CED00E000200CE0002106E00022064B94
:101DF00003EBC0135A544A1CD1B28029F6DB421CB3
:101E0000D0B20828F0DB7047B40500202DE9F0437C
:101E100004460D4616461F467F2C01DDBDE8F083C3
:101E20003F2D00DDFAE7A119802902DDC4F1800110
:101E3000CEB2E919402902DDC5F14001CFB22846F2
:101E400030E0234629E04FEAE07C00EB5C7C4FEA7F
:101E5000EC0CDFF85C8008EBCC1C1CF803C00246DD
:101E60004FEAE07800EB58784FEAE808A0EBC809A1
:101E70004FF0010808FA09F82CEA080C01464FEA6D
:101E8000E07800EB58784FEAE808DFF8249009EB97
:101E9000C81808F803C0591CCBB2A1199942D2DC6A
:101EA000411CC8B2E9198142CBDC00BFB6E7000093
:101EB000B405002070B503467F2B00DD70BD3F29BF
:101EC00000DDFBE7CC1701EB5474E4100C4D05EB7F
:101ED000C414E45C0A46CD1701EB5575ED10A1EB77
:101EE000C5060125B5402C430846CD1701EB5575B5
:101EF000ED10034E06EBC515EC5400BFDEE7000005
:101F0000B40500202DE9F04705460E4617469846D1
:101F1000DDF820A0BAF1000F24D12C460CE03146A8
:101F20002046FFF7C7FF06EB0800401EC1B220465F
:101F3000FFF7C0FF601CC4B2E819A042EFDC3446D2
:101F40000BE021462846FFF7B5FFE919491EC8B244
:101F50002146FFF7AFFF601CC4B206EB0800A042A9
:101F6000EFDC14E02C460FE0B14607E0494620467E
:101F7000FFF7A0FF09F1010000F0FF0906EB0800E0
:101F80004845F3DC601CC4B2E819A042ECDCBDE8B3
:101F9000F087000038B5002406E0002500E06D1C45
:101FA000B5F57A7FFBD3641CB4F57A7FF5D30121B4
:101FB000082000F059FA14208DF8030003208DF852
:101FC00002004020ADF8000069460848FFF730F8ED
:101FD0008020ADF8000069460448FFF729F8012089
:101FE00000F0F6F9012000F0FDF938BD000C0140C9
:101FF00070B50546002411E080212141294009B136
:10200000012100E00021084600F0ECF9012000F079
:10201000DFF9002000F0DCF9601CC4B2082CEBDB17
:10202000012000F0D5F9002000F0D2F970BD10B504
:10203000012000F0D7F9012000F0CAF9002000F0DB
:10204000D1F9002000F0C4F910BD10B5002000F057
:10205000C9F9012000F0BCF9012000F0C3F910BD5E
:1020600010B5FFF797FFAE2000F0C6F9D52000F0BD
:10207000C3F9802000F0C0F9A82000F0BDF93F208E
:1020800000F0BAF9D32000F0B7F9002000F0B4F95D
:10209000402000F0B1F9A12000F0AEF9C82000F016
:1020A000ABF9DA2000F0A8F9122000F0A5F98120A0
:1020B00000F0A2F9FF2000F09FF9D92000F09CF970
:1020C000F12000F099F9DB2000F096F9302000F0C3
:1020D00093F9A42000F090F9A62000F08DF98D204E
:1020E00000F08AF9142000F087F9AF2000F084F99D
:1020F000FFF778FE00F052F910BD10B5024601203E
:1021000000E050430B1EA1F10101FAD110BD70B5E2
:1021100005460C4645F0B00000F06EF9102141EA8A
:10212000141000F069F904F00F0000F065F970BDBB
:10213000F8B506460F4614461D46082D0CD1A4F1ED
:1021400020000E4901EB00101023082239460090B0
:10215000304600F017F80FE0062D0DD1A4F1200055
:1021600000EB4000064901EB4000082306223946F7
:102170000090304600F006F8F8BD0000B65F000899
:10218000A66500082DE9F04707460C46904699469B
:10219000DDF820A07F2F01DDBDE8F0873F2C00DDBA
:1021A000FAE74B46424621463846FFF72FFE002508
:1021B00070E0002669E0B8197F2800DD67E0E117CC
:1021C00004EB517105EBE101072900DDE4E720464E
:1021D000E21704EB527205EBE202344B03EBC2123E
:1021E000BB19D25C2146E31704EB5373DB10A4EB5D
:1021F000C30305FB086C1AF80CC00CFA03FC42EA96
:102200000C02E31704EB537305EBE303DFF89CC008
:102210000CEBC31307EB060C03F80C20E11704EBDF
:10222000517105EBE101491C072900DD2BE0204637
:10223000E21704EB527205EBE202521C1B4B03EB5C
:10224000C212BB19D25C2146E31704EB5373DB10B7
:10225000A4EBC303C3F1080305FB086C1AF80CC018
:102260004CFA03FC42EA0C02E31704EB537305EB50
:10227000E3035B1CDFF834C00CEBC31307EB060C65
:1022800003F80C2000BF701CC6B2464593DB00BFAC
:10229000681CC5B2A9F10100C11700EB5171012200
:1022A00002EBE101A94284DC00BF75E7B405002020
:1022B0002DE9F0470646894617461D46DDF8208081
:1022C000002417E0281B411E0A20FFF716FFB7FB6A
:1022D000F0F00A21B0FBF1F201FB120000F1300A2C
:1022E00004FB0861C8B2434652464946FFF720FF47
:1022F000601CC4B2AC42E5DBBDE8F0872DE9F04FCD
:1023000080468A4615461E46DDF82490002D07DBE0
:102310004B462B2251464046FFF70AFF2F4606E068
:102320004B462D2251464046FFF702FF6F420024E4
:1023300018E0301B411E0A20FFF7DFFEB7FBF0F06C
:102340000A21B0FBF1F201FB120000F1300B611C1D
:1023500001FB0981C8B24B465A465146FFF7E8FED9
:10236000601CC4B2B442E4DBBDE8F08F2DE9F0415B
:102370000646884615461F46002409E02A5D04FBF0
:102380000761C8B23B464146FFF7D2FE601CC4B2AB
:10239000285D0028F2D1BDE8F081000010B502F000
:1023A0008BF8FFF7D1FC00240BE000212046FFF75B
:1023B000AEFE064901EBC410802100F02DF8601C30
:1023C000C4B2082CF1DB02F089F810BDB40500207E
:1023D00010B50446224640210148FEF743FF10BDD8
:1023E000000C014010B50446224680210148FEF74A
:1023F00039FF10BD000C014010B50446FFF717FE71
:102400007820FFF7F5FD0020FFF7F2FD2046FFF7EB
:10241000EFFDFFF71AFE10BD70B505460E46FFF73B
:1024200006FE7820FFF7E4FD4020FFF7E1FD0024E1
:1024300004E0285DFFF7DCFD601CC4B2B442F8DBA9
:10244000FFF703FE70BD000029B1064AD2690243BE
:10245000044BDA6104E0034AD2698243014BDA613A
:10246000704700000010024029B1064A92690243F9
:10247000044B9A6104E0034A92698243014B9A61DA
:1024800070470000001002400F48006840F0010053
:102490000D490860084640680C4908400A494860F0
:1024A000084600680A49084007490860084600686D
:1024B00020F4802008600846406820F4FE00486050
:1024C0004FF41F0088607047001002400000FFF8C2
:1024D000FFFFF6FE10B501460022002300204A113E
:1024E000012A02D1094C236806E0022A02D1074CD6
:1024F000236A01E0054C636A01F01F020124944045
:102500001C400CB1012000E0002010BD0010024072
:102510000248406800F00C007047000000100240C4
:102520001149096821F480310F4A11601146096888
:1025300021F480211160B0F5803F03D0B0F5802FE9
:102540000ED106E00849096841F48031064A11605D
:1025500007E00549096841F4A021034A116000E041
:1025600000BF00BF7047000000100240014908662C
:10257000704700000000424202460020044B5868A9
:1025800020F47C1042EA01031843014B5860704765
:102590000010024001460020034A506820F003006A
:1025A00008435060704700000010024010B500F072
:1025B00001F810BD0CB50020019000903348006870
:1025C00040F480303149086000BF3048006800F4B2
:1025D000003000900198401C0190009818B90198B3
:1025E000B0F5A06FF1D12948006800F4003010B1B7
:1025F0000120009001E0002000900098012843D1C4
:102600002348006840F0100021490860084600682F
:1026100020F0030008600846006840F002000860EF
:102620001A484068194948600846406848600846AA
:10263000406840F4806048600846406820F47C10A0
:1026400048600846406840F4E81048600846006862
:1026500040F08070086000BF0C48006800F0007017
:102660000028F9D00948406820F003000749486075
:102670000846406840F00200486000BF03484068D8
:1026800000F00C000828F9D10CBD00000010024039
:102690000020024010B500BF502080F31188BFF326
:1026A0004F8FBFF36F8F00BF02F028FB18B14FF0C0
:1026B00080500449086000BF002080F3118800BFEB
:1026C00010BD000004ED00E010B51348006840F0B4
:1026D00001001149086008464068104908400E4949
:1026E0004860084600680E4908400B4908600846E3
:1026F000006820F4802008600846406820F4FE004E
:1027000048604FF41F008860FFF750FF4FF00060F3
:102710000449086010BD0000001002400000FFF8EE
:10272000FFFFF6FE08ED00E001E0FEF7A2FDFCE78A
:1027300000BFFEE700BFFEE700BFFEE700BFFEE709
:1027400000BFFEE700BFFEE701E0FEF7B8FDFCE7D3
:1027500001E0FEF7DAFDFCE7FFF782FC03E0FDF79E
:10276000CDFFFFF71BFEFAE7FFF792F905E0FFF751
:102770004FF94FF4FA7001F017FFF8E707E0FEF7A2
:10278000D5FBFFF779FA4FF47A7001F00DFFF6E709
:1027900004E0FFF727F9642001F006FFF9E700BF26
:1027A000FEE700BFFEE700001CB54FF44070FFF7E6
:1027B0000FFB0648012100234022CDE9001004A1AF
:1027C000064802F051FA01F0BBFF1CBD4C0000208E
:1027D0005461736B5F53746172740000992B00082D
:1027E00010B50121880700F0FFF8012806D100216B
:1027F000800700F061F80120034908700121880773
:1028000000F057F810BD00000500002070B5054627
:1028100002F06EFA04460148046070BD50000020CA
:1028200070B5054602F064FA044670BD38B5174825
:102830000023012241F28831009015A002F058FCDB
:1028400015490860154801231A4642F2107100909C
:1028500013A002F04DFC1449086002F049FA044646
:10286000002003462246012100900B48006802F038
:1028700079FC02F03DFA044600200346224601217D
:1028800000900948006802F06DFC38BD0D28000872
:1028900054494D455231000008000020212800080D
:1028A00054494D45523200000C000020CA430282B8
:1028B0007047CA430282704721B1028842F0010288
:1028C000028004E002884FF6FE731A4002807047CF
:1028D00031B1B0F8442042F40042A0F8442005E0B1
:1028E000B0F84420C2F30E02A0F8442070471FB590
:1028F00001210846FFF7A8FD0020ADF80A00ADF859
:102900000600ADF808002320ADF8040000208DF883
:102910000C0001A94FF0804000F0ECF8012188077D
:10292000FFF7C4FF01221146900700F06EF81C204B
:102930008DF8000001208DF8030002208DF80100C1
:102940006846FFF70DFA00214FF0804000F0CFF805
:1029500000214FF08040FFF7AFFF1FBD00B587B0EB
:102960000121C802FFF780FD684600F0B2F80020A0
:10297000ADF81600ADF812006320ADF81400232066
:10298000ADF8100000208DF8180004A9104800F0E0
:10299000B1F801210E48FFF79BFF6020ADF8000061
:1029A0000020ADF808000120ADF802001420ADF8B9
:1029B00006006946064800F037F80821044800F090
:1029C0007FF801210248FFF777FF07B000BD000044
:1029D000002C014010B504462146024800F085F85D
:1029E00010BD0000002C014030B50246002000233D
:1029F0000024158A05EA0103958905EA010413B14B
:102A00000CB1012000E0002030BD1AB183890B43D6
:102A1000838102E083898B438381704710B5FFF780
:102A200066FFFFF79BFF10BD70B500240022002356
:102A3000058C4FF6FE7635400584028C8388048B26
:102A40004FF68F752C40B51E2C400D882C43751EFB
:102A50002A400D892A434D882A43144DA8420BD0A1
:102A6000134DA84208D0134DA84205D0124DA842DC
:102A700002D0124DA84213D14FF6F7752A404D8966
:102A80002A434FF6FB752A408D882A434FF6FF658F
:102A90002B404FF6FF552B408D892B43CD892B437F
:102AA00083800483CD888586028470BD002C01401C
:102AB0000034014000400140004401400048014012
:102AC0000A460021018B4FF6F77319401143018329
:102AD00070470021018041808180C1800181418156
:102AE0008181C1817047818570478186704781846B
:102AF00070470000002202881D4B98420ED01D4BEB
:102B000098420BD0B0F1804F08D01B4B984205D0B3
:102B10001A4B984202D01A4B984204D14FF68F7349
:102B20001A404B881A43174B984207D0164B9842CD
:102B300004D04FF6FF431A40CB881A4302808B889B
:102B400083850B8803850A4B98420BD0094B98422A
:102B500008D00E4B984205D00D4B984202D00D4B39
:102B6000984201D10B7A03860123838270470000CB
:102B7000002C0140003401400004004000080040E7
:102B8000000C0040001000400014004000400140D4
:102B900000440140004801401CB5044601F08CFC93
:102BA000FFF744FE4D48012100234022CDE90010EB
:102BB0004BA14D4802F058F84C4801210023402217
:102BC000CDE900104AA14C4802F04EF84B480121D3
:102BD00000234022CDE9001049A14B4802F044F8FF
:102BE0004A48012100238022CDE9001048A14A482B
:102BF00002F03AF84948012100234022CDE90010B3
:102C000047A1494802F030F84848012100234022FA
:102C1000CDE9001046A1484802F026F847480121B6
:102C200000234022CDE9001045A1474802F01CF8DE
:102C30004648012100234022CDE9001044A1464826
:102C400002F012F84548012100234022CDE900108E
:102C500043A1454802F008F84448012100234022DE
:102C6000CDE9001042A1444801F0FEFF4348012194
:102C700000234022CDE9001041A1434801F0F4FFB8
:102C80004248012100234022CDE9001040A14248E2
:102C900001F0EAFF4148012100234022CDE9001064
:102CA0003FA1414801F0E0FF4048012100234022BC
:102CB000CDE900103EA1404801F0D6FF3F48012178
:102CC00000234022CDE900103DA13F4801F0CCFF98
:102CD000002001F083FC01F001FC1CBD100000206D
:102CE0005441534B310000002927000814000020F4
:102CF0005441534B320000004927000818000020BF
:102D00005441534B33000000512700081C000020A1
:102D10005441534B34000000592700082000002084
:102D20005441534B3500000069270008240000205F
:102D30005441534B360000007D2700082800002036
:102D40005441534B37000000912700082C0000200D
:102D50005441534B380000009F27000830000020EA
:102D60005441534B39000000A327000834000020D1
:102D70005441534B31300000312700083800002007
:102D80005441534B31310000352700083C000020EE
:102D90005441534B313200003927000840000020D5
:102DA0005441534B313300003D27000844000020BC
:102DB0005441534B313400004127000848000020A3
:102DC0005441534B3135000045270008F8B50446FF
:102DD0000E463046FEF7DFFBA04200DAF8BDFFF7F3
:102DE00001F821463046FEF70AFC0546082300217B
:102DF00001206A68FFF7BAFA2868282350221421B4
:102E000000900120FFF7BEF9002028235022142152
:102E100000900120FFF776F80820022322460A21BD
:102E200000906120FFF744FA062309A21C216420C8
:102E3000FFF79CFA3046FEF7AEFB07460820022358
:102E40003A46242100906120FFF732FA00BFC5E71F
:102E50002F000000F8B504460E461746FEF7C2FFE5
:102E60000823002101207268FFF780FA062371A26F
:102E700000216020FFF77AFA06236EA20021782055
:102E8000FFF774FA082002232246002100906820F0
:102E9000FFF70EFA00200C231A46162100906E2030
:102EA000FFF730F800200C231A462B2100906E20EB
:102EB000FFF728F8BC4237D1204604EBD071491007
:102EC000A4EB410101292FD121463046FEF7ADFB8D
:102ED0000546286814231A46122100900120FFF7A6
:102EE00051F9002014231A46122100900120FFF707
:102EF00009F80823142117206A68FFF737FA012020
:102F00000C231A46162100906E20FEF7FBFF0C23BF
:102F10001A462B216E20FEF779FF062346A22D21AB
:102F20003020FFF723FA84E0204604EBD0714910EB
:102F3000A4EB410100293AD121463046FEF775FB4A
:102F40000546286814231A46282100900120FFF71F
:102F500019F9002014231A46282100900120FEF7B9
:102F6000D1FF08232A2117206A68FFF7FFF9AD690E
:102F700001200C231A462B2100906E20FEF7C2FF81
:102F8000286814231A46122100900120FFF7FAF84E
:102F9000002014231A46122100900120FEF7B2FFF0
:102FA0000823142117206A68FFF7E0F941E0204662
:102FB00004EBD0714910A4EB4101012939D121461C
:102FC0003046FEF732FB0546286814231A461221C4
:102FD00000900120FFF7D6F8002014231A46122192
:102FE00000900120FEF78EFF0823142117206A6845
:102FF000FFF7BCF901200C231A46162100906E2021
:10300000FEF780FFED69286814231A4628210090F6
:103010000120FFF7B7F8002014231A46282100905A
:103020000120FEF76FFF08232A2117206A68FFF7A7
:103030009DF9F8BD2D0000002D456E642D000000A7
:103040002DE9F04F87B082460E4691461D4600247A
:10305000D9F800002968401A069030682968401A9B
:103060000590069802F0CCFE0190059802F0C8FE8B
:103070000090019902F002FE834602F0D3FD002287
:10308000504BCDE9020102F0A3FB074602F020FB02
:10309000C0B20490FEF7A6FE00203D237D2202214F
:1030A00000900846FEF72EFF0623524600210F200F
:1030B000FFF75CF9062338210F20109AFFF756F925
:1030C0003068002806DBD9F80000002802DB2868F9
:1030D000002801DA122410E00A2400200A236E22BC
:1030E0002A2100901846FEF70DFF01200A230090C8
:1030F0002A211846049AFEF705FF062332A221462C
:103100002D20FFF733F904F10A00C1B2062330A2E3
:103110002D20FFF72BF904F11400C1B206232EA2D3
:103120002D20FFF723F9306800F08DF9C7B2062093
:1031300000903B4621464B203268FFF7DFF8D9F874
:10314000000000F080F9C7B20620009004F10A00E8
:10315000C1B23B464B20D9F80020FFF7CFF82868D2
:1031600000F071F9C7B20620009004F11400C1B25A
:103170003B464B202A68FFF7C1F81198012804D07C
:10318000022809D0032819D10FE0062314A22146F2
:103190001E20FFF7EBF811E004F10A00C1B206238C
:1031A0000FA21E20FFF7E2F808E004F11400C1B2FC
:1031B00006230BA21E20FFF7D9F800BF00BF07B0FF
:1031C000BDE8F08F00805B406E6F773A0000000032
:1031D0006D61783A000000006D696E693A00000088
:1031E0002D3E000038B505460C46FEF7FBFD0020DD
:1031F0003D237D22022100900846FEF783FE062330
:103200002A4600210F20FFF7B1F8207801280ED1BF
:10321000002028231E220F2100900846FEF772FE90
:1032200008230BA219211720FFF7A0F80FE0207840
:1032300068B90020282346220F2100902C20FEF799
:1032400061FE082303A219214320FFF78FF838BD40
:103250004F4E00004F464600F8B504460D46164650
:10326000FEF7C0FD00203D237D220221009008468C
:10327000FEF748FE0623224600210F20FFF776F8CE
:1032800006230DA211210A20FFF770F806230EA2D3
:1032900026210A20FFF76AF806232A461121532027
:1032A000FFF764F8082000900523202137203268BA
:1032B000FFF724F8F8BD00006465736372697074E9
:1032C000696F6E3A0000000076616C75653A000027
:1032D00000BFFEE770B50446002600251DE004F09F
:1032E00080065EB10120FDF7A9FF0120FDF7F0FC8B
:1032F0004FF480510A48FDF76EFF0AE04FF4805109
:103300000748FDF783FF0020FDF798FF0120FDF738
:10331000DFFC6006040E681CC5B2082DDFDB70BD43
:1033200000080140F8B505460E4617468DF80060C6
:103330008DF801508DF80270002405E01DF804009E
:10334000FFF7C8FF601CC4B2032CF7DBF8BD2DE902
:10335000F04104460D4616461F464FF0000808E0AF
:103360003A4631462846FFF7DDFF08F1010000F03C
:10337000FF08A045F4DBBDE8F0812DE9F0414F1EC8
:1033800000EBC7010446D1E9000115461E4637F09F
:1033900006020DD02A46334602F01AFA7F1E04EBCD
:1033A000C703D3E9002301F013FF37F00602F1D180
:1033B000022F25D0042F13D0062F18BFBDE8F081AF
:1033C0002A46334602F004FAD4E90A2301F000FF4A
:1033D0002A46334602F0FCF9D4E9082301F0F8FE4E
:1033E0002A46334602F0F4F9D4E9062301F0F0FE50
:1033F0002A46334602F0ECF9D4E9042301F0E8FE52
:103400002A46334602F0E4F9D4E9022301F0E0FE53
:103410002A46334602F0DCF9D4E90023BDE8F04146
:1034200001F0D6BE002213461046014901F08CBFC0
:103430000000F03F012202F078BD00221346104642
:10344000114601F081BF2DE9F05F8246BAF1000F0D
:1034500002D10120BDE8F09FBAF1000B01DB594613
:1034600001E0CBF10001084602F05FF9804600F070
:1034700025FA064600F006F8044602F0F9F8401C6A
:10348000E8E700002DE9F041C1F30A52A2F2FF364D
:103490002F4A304B0D460446142E2FDA002E12DA36
:1034A00001F096FE0022134602F090FA4CD2002D55
:1034B000A4BF0024254647DA25F00040204318BF6A
:1034C000254D41D018E0DFF894C02CFA06F705EA44
:1034D000070C5CEA040C08BFBDE8F08101F078FE3F
:1034E0000022134602F072FA2ED2002D03DA4FF4B6
:1034F0008010F0400544BD43002425E0332EC8BFB2
:10350000BDE8F081A6F1140C4FF0FF3727FA0CF755
:103510003C4208BFBDE8F08102F08EFA002213465B
:1035200002F054FA10D2002D0DDA142E08BF6D1CD3
:1035300009D0C6F13400012101FA00F02044A04274
:1035400038BF6D1C0446BC4329462046BDE8F081C7
:103550009C7500883CE4377E0000F0BFFFFF0F0041
:103560002DE9F04DC84A002490B0914205DA21F0CF
:103570000043934201D805D120B110B0BDE8F04D11
:10358000FFF758BFB1F5801F1BDA53EA000209D0DC
:10359000002911DA0120FCF7CDFF10B0BDE8F04D95
:1035A000FFF74BBF0220FCF7C5FFFFF73BFF10B052
:1035B00081F00041BDE8F08D6FF03504362202F055
:1035C000B4FC04EB2152C1F31308B049A2F2FF335B
:1035D000414401F4801282F07F6103EB225281F0BA
:1035E0004051009241EA08010022A94B02F030FA52
:1035F000044608F10200A74EC0F313000D467E44B6
:10360000032867D2D6E90023204601F0F5FF1ED13A
:103610000098002802BFD6E9000110B0BDE8F08D87
:1036200002F083F807460C469B4A9C4B02F0D0F808
:1036300006460D469A4A9B4B3846214602F0C8F88A
:1036400010B032462B46BDE8F04D01F0C1BD4FF041
:103650005532954B2046294602F0BAF80022934B8A
:1036600002F0EAF906460F4622462B461046194656
:1036700002F0AEF832463B4602F0AAF80646009841
:103680000F46F0B102F051F880468A46824A834BD9
:1036900002F09EF832463B4602F0CEF922462B4617
:1036A00002F0D6F905460C467D4A7E4B404651460F
:1036B00002F08EF810B02A462346BDE8F04D02F025
:1036C000C7B90B4610B0324620462946BDE8F04D3A
:1036D00002F0BEB900224FF08043204601F078FD91
:1036E00002460B462046294601F02EFE06460F46AE
:1036F000009802F01AF8CDE9040132463B46104624
:10370000394602F065F80C9069480C9A40440190E3
:1037100009910B46104602F05BF882460246654866
:103720008B46C8F151080B4608F5D7280321784489
:10373000FFF723FE52465B4602F04AF80A905E48C5
:103740000D9152465B4604217844FFF716FE099B13
:103750000C9A02F03DF8844601980D9B40EA080857
:1037600060460A9A01F034FD83460891B8F1000FD3
:103770004EDD4FF0FF322046294602F0D6FB2246AE
:103780002B4602F025F8804600988A4660B3DDE9B2
:103790000401414A414B02F01BF8099100905A463E
:1037A00040465146089B01F013FD32463B4602F06D
:1037B0000FF8099B009A01F00BFD4246534602F0B8
:1037C0003BF922462B4602F043F904460D46DDE95B
:1037D0000401334A334B01F0FBFF10B022462B4665
:1037E000BDE8F04D02F034B95A464046089B01F05E
:1037F000EFFC32463B4601F0EBFF4246534602F0F7
:103800001BF910B022462B46BDE8F04D02F014B96A
:10381000009840B3DDE904011F4A204B01F0D8FFB6
:1038200080468A465A4620462946089B02F010F9EF
:1038300032463B4601F0CCFF4246534602F008F9BF
:1038400022462B4602F004F904460D46DDE9040148
:10385000134A144B01F0BCFF10B022462B46BDE8C2
:10386000F04D02F0F5B80B465A462046294602F0C4
:10387000EFF832463B4601F0ABFF10B022462B4634
:10388000BDE8F04D02F0D8B80000F07F645F090099
:103890000000F03FF63D0000763C7935EF39EA3D17
:1038A0000000E0FE422EE63F5555D53F0000E03FC8
:1038B00086EBF9FF8E3C00008C3C00002DE9F041C6
:1038C000044630480025814205DA21F00042824258
:1038D00001D805D124B12046BDE8F041FFF7AABDCB
:1038E000B1F5801F1BDA52EA040008D000290FDA74
:1038F0000120FCF71FFEBDE8F041FFF79EBD02204E
:10390000FCF718FEFFF78EFD81F00041BDE8F08165
:103910006FF035053622204602F007FB044605EB22
:103920002150A0F2FF32D00F40F2FF331B1A0D4698
:1039300063F31F55104401F0F8FE06460F46294672
:103940002046FFF70DFE104A104B01F041FF0446E0
:103950000D460F4A0F4B3046394601F039FF2246DB
:103960002B4601F035FC05460C460B4A0B4B304606
:10397000394601F02DFF2A462346BDE8F04101F00B
:1039800027BC00000000F07F0EE526157BCBDB3F57
:10399000362BF111F3FE593D00609F501344D33F85
:1039A00010B5FEF771FD4FF48030FEF7B9FD00BF92
:1039B0003120FEF78FFD0028FAD04FF4E0114FF4CC
:1039C0008030FEF7D9FD0120FEF7D0FD00BF392081
:1039D000FEF780FD0028FAD00220FEF7DBFD00BFD5
:1039E000FEF796FD0828FBD1FDF7ADFBFFF716F8B3
:1039F000FDF714FAFDF7EAFFFEF7D6FE002010BD32
:103A00002DE9F04105460E4626480768264800681D
:103A1000001D00F001FD50B92348006890F82C10FB
:103A20000120884021490968814320480160681CC1
:103A3000D8B9D6B11E4948681B49096888601A4937
:103A400082680968CA6018490968091D826851605E
:103A500015490968091D8160154A134909684A61B9
:103A600011460968491C11601AE07C190E4800686B
:103A70004460BC4207D20C480168091D0D4800682B
:103A800000F0F4FC0CE008480168091D0A480068D1
:103A900000F0ECFC09480068844201D20748046049
:103AA000BDE8F081540100204001002058010020B1
:103AB0008C0A0020480100204401002070010020F1
:103AC00010B5044600F0F8FC2F480068401C2E4951
:103AD00008602E48006840B92C4804600846006819
:103AE00001280DD100F0D0F90AE02948006838B962
:103AF00026480068C06AE16A884201D82348046009
:103B000024480068401C2349086094F82C100120C8
:103B100088402149096808431F490860E16A01EBB0
:103B200081011E4A02EB81014868A0608268E26060
:103B3000211D826851608160E16A01EB8101174AB1
:103B400002EB81026261E16A01EB8101134A52F8E2
:103B50002110491CE26A02EB8202104B43F822104A
:103B600000F0BCFC0A48006868B108480068C06AF8
:103B7000E16A884207D24FF0805009490860BFF3DC
:103B80004F8FBFF36F8F10BD500100204001002008
:103B90005C0100206C01002058010020D8090020A1
:103BA00004ED00E010B500F087FC0C48006890B907
:103BB0000B4800F04BFC0B4800F048FC08480A4951
:103BC000086008480949086000220C210A2000F01A
:103BD0004BFE0249086000F081FC10BD8801002006
:103BE000A00A0020B40A00208001002084010020E7
:103BF00010B516E000F060FC0C48C068C468201DD9
:103C000000F00AFC0A480068401E0949086009489B
:103C10000068401E0749086000F060FC204600F084
:103C200055F8044800680028E4D110BD780A002047
:103C3000500100204C01002070B504460D46206C58
:103C400070B1216CE0680144E160D4E9021088425F
:103C500001D32168E1602846226CE168FCF753FB40
:103C600070BD2DE9F04104460F4615464FF000089F
:103C7000A66B206C28B37DB93946226C6068FCF7CE
:103C800042FB216C606808446060D4E9010188420D
:103C900017D32068606014E03946226CE068FCF7B6
:103CA00032FB216CE068411AE1602168E0688842DB
:103CB00003D2216CA068411AE160022D01D106B146
:103CC000761E701CA0634046BDE8F08110B5044626
:103CD000206B00F013FC204600F010FC10BD00002B
:103CE0000146084A126812680AB9012200E000225F
:103CF0000A600A6822B9034A1268D268106800E0B4
:103D0000002070478001002030B54FF480531548E3
:103D100000F007042CB1C01D20F00700114C041B5B
:103D20001B1B0246104C226000240F4D6C60D01803
:103D3000083820F007000D4C206000240B4D2D6842
:103D40006C600A4D2D682C601146441A4C60074C7B
:103D500024680C60064D4C682C60064D4C682C6045
:103D600030BD0000C80A0020940100209C01002002
:103D7000A4010020A001002000BFFFF739FF064882
:103D800000680128F9D94FF0805004490860BFF35A
:103D90004F8FBFF36F8FF0E7D809002004ED00E0EC
:103DA0002DE9F04106460D4617469846069C0DB98A
:103DB000246000E02760E66325640121204600F0CE
:103DC00079FDBDE8F0812DE9F05F81460E4617468A
:103DD0009A46DDF828800C9CB900A522206BFCF7E0
:103DE000D7FA781E216B01EB800B2BF0070B7EB10D
:103DF000002507E0715D04F134004155705D00B9A4
:103E000002E06D1C102DF5D300BF002143200155A9
:103E1000B8F1050F01D34FF00408C4F82C80201D21
:103E200000F021FB04F1180000F01DFB2461C8F133
:103E30000500A061646252464946584600F0DAFA2D
:103E400020600B9808B10B980460BDE8F09F2DE945
:103E5000F04705460E4617469846DDE90894FFF7F9
:103E6000A1FE2560A661C4F81C80C4F82090201D26
:103E700000F0F9FA2FB194F8240040F0040084F81F
:103E80002400BDE8F087000010B5002407E004EB33
:103E900084010F4A02EB810000F0D8FA641C052C63
:103EA000F5D30C4800F0D2FA0B4800F0CFFA0B48DB
:103EB00000F0CCFA0A4800F0C9FA0A4800F0C6FA45
:103EC00004480949086004480849086010BD00001A
:103ED000D80900203C0A0020500A0020640A002073
:103EE000780A00208C0A00204401002048010020AC
:103EF00010B50146164800E0006803688B42FBD30A
:103F00000246436813448B4204D143684C682344FF
:103F1000436001460A464B6813440468A34211D12A
:103F20000C4C03682468A34208D04B68046864689A
:103F300023444B6003681B680B6005E0054B1B685E
:103F40000B6001E003680B60884200D0016010BD87
:103F5000940100209C0100202DE9F04104460D460B
:103F600016461F464FF0000865602461B5420CD824
:103F7000F01BA169884202D34FF0010811E0211D16
:103F80000948006800F072FA0BE0BE4204D2BD425C
:103F900002D34FF0010804E0211D0448006800F03E
:103FA00065FA4046BDE8F0818401002080010020D0
:103FB00070B5054600F080FAA86B08B9012400E04E
:103FC000002400F08BFA204670BD70B5054600F065
:103FD00073FAA86BE96B884201D1012400E0002448
:103FE00000F07CFA204670BD70B505460E460E48BE
:103FF0000068C068C468201D00F00EFA94F8240020
:1040000000F0040028B132462946204600F0C4F8EA
:1040100005E094F8240000F0FE0084F82400204617
:10402000216A884770BD0000800100207FB56EE0E6
:10403000019800286BDB039C606908B9012000E04F
:10404000002010B9201D00F0E7F9684600F0D0F814
:10405000054601980A2858D2DFE800F05705072ED8
:10406000364706082F3700BF00BF00BF94F8240072
:1040700040F0010084F824000298A26981180346E8
:104080002A462046FFF768FFA8B194F8240000F004
:10409000040038B10298A26981182A46204600F02F
:1040A0007BF805E094F8240000F0FE0084F824007A
:1040B0002046216A884729E000BF94F8240000F0D8
:1040C000FE0084F8240021E000BF94F8240040F0B2
:1040D000010084F824000298A061A06941192B46D0
:1040E0002A462046FFF738FF10E094F8240000F03D
:1040F000020018B9204600F001FA05E094F8240007
:1041000000F0FE0084F8240000E000BF00BF0022A1
:1041100001A90348006800F0F5FC002888D17FBDA4
:1041200088010020F8B505460C4600F045FB6846BE
:1041300000F05EF80646009820BB44B9B54206D8A8
:1041400000F028FF31462846FFF74EFF1CE03CB147
:104150000E480068006808B9012000E0002004460D
:10416000A91B22460A48006800F0F9F900F012FF86
:1041700050B94FF0805007490860BFF34F8FBFF32D
:104180006F8F01E000F006FFF8BD00008401002001
:104190008801002004ED00E070B504460D46164687
:1041A00004E0A06905442046216A8847A0694119B6
:1041B0002B4632462046FFF7CFFE0028F1D170BDD6
:1041C00009480068006808B9012000E0002020B11B
:1041D0004FF0FF300549086005E003480068C068FB
:1041E0000068024908607047440100207001002007
:1041F00070B5044600F07CFD05460748006885421E
:1042000004D200F00BF80120206001E000202060C3
:1042100001480560284670BD9001002070B508E097
:104220000D480068C06804684FF0FF312046FFF772
:10423000DBFE09480068006808B9012000E00020A2
:104240000028EDD004480568044800680249086069
:104250000248056070BD000080010020840100203C
:1042600000BF502080F31188BFF34F8FBFF36F8FD3
:1042700000BF00BFFEE708B500BF6846FFF730FD8E
:10428000044620460099FFF74DFFFFF7CFFEF4E705
:1042900070B5044600F010F994F9455010E0606ADA
:1042A00008B9012000E0002038B904F1240000F032
:1042B000EDFD18B100F008FA00E003E0681E45B219
:1042C000002DECDC00BFFF2084F8450000F006F96B
:1042D00000F0F2F894F9445010E0206908B9012088
:1042E00000E0002048B904F1100000F0CFFD08B153
:1042F00000F0EAF9681E45B200E001E0002DECDCB8
:1043000000BFFF2084F8440000F0E8F870BD000012
:104310002DE9F04705464FF0000900F04DFA30480E
:10432000006808B9FFF7F0FC75B105F00700C0F1AF
:104330001008C8F1FF30A84201D2012000E000209F
:1043400008B9454400E00025012000EBE570002895
:1043500041D0002D3FD02348006885423BD8224EF3
:104360003046046801E0264624686068A84202D20C
:1043700020680028F7D11A48006884422BD03068A2
:1043800000F10809206830606068401B102807D9D8
:1043900067196068401B786065603846FFF7A8FDC4
:1043A000104960680968081A0E49086008460068E4
:1043B0000E490968884203D20A4800680B49086020
:1043C000606840F00040606000202060084800689D
:1043D000401C0749086000F0DDFD4846BDE8F08755
:1043E0009C010020A001002094010020A4010020D5
:1043F000A8010020001F4FF080730360001F21F010
:1044000001030360001F034B03601438026020386F
:10441000704700006142000801460A69D1E9013095
:104420009860D1E9010358605068884201D18868DA
:104430005060002008611068401E106010687047CE
:1044400001480068704700005001002000F1080199
:1044500041604FF0FF31816000F10801C1600161EE
:1044600000210160704700210161704710B50246CC
:104470000B685C1C0CB9106907E002F1080000E051
:104480004068446824689C42FAD944684C604C688F
:10449000A160886041600A611468641C146010BDEA
:1044A00042684A6093688B609368596091600861C4
:1044B00003685B1C0360704700BF502080F31188C5
:1044C000BFF34F8FBFF36F8F00BF03480068401CDE
:1044D0000149086070470000B001002006480068EC
:1044E000401E054908600846006820B9002080F396
:1044F000118800BF00BF7047B001002070B50646AC
:104500003546E6B1083D2C466068C00FB8B120685A
:10451000A8B9606820F00040606000F04DF90849DB
:10452000606809680844064908602046FFF7E0FC17
:1045300004480068401C0349086000F02BFD70BD72
:10454000A0010020AC01002000204FF0E021086114
:10455000886148F69F4048610720086170472DE94F
:10456000F04105460E4617462C46FFF7A5FF94F985
:104570004400401C10B9002084F8440094F9450020
:10458000401C10B9002084F84500FFF7A7FFA06B7E
:1045900028B93A46314604F1240000F0ABF8204631
:1045A000FFF776FEBDE8F08170B50446002544B102
:1045B00000F002F900212046FFF722FA00F0EAFCA1
:1045C00005463DB94FF0805003490860BFF34F8F57
:1045D000BFF36F8F70BD000004ED00E070B50546BD
:1045E000FFF76AFF15B92948006800E0284604462D
:1045F000201DFFF711FF78B9E06A00EB8000244925
:1046000051F8200040B994F82C100120884021492D
:10461000096881431F480160A06A18B104F11800BD
:10462000FFF7FAFE1C480068401C1B490860174849
:104630000068844209D1211D1848FFF731FF18484E
:104640000068401C1649086006E016480068401ED5
:1046500014490860FFF7B4FDFFF740FF0B480068FE
:10466000844202D02046FFF731FB0F48006858B162
:1046700006480068844207D14FF080500B4908601B
:10468000BFF34F8FBFF36F8F70BD0000400100205C
:10469000D8090020580100206C010020780A002071
:1046A0004C010020500100205C01002004ED00E0DE
:1046B00003490968016003490968416070470000C7
:1046C0006801002054010020012001490860704762
:1046D0006401002070B505460C4605480168183194
:1046E0002846FFF7C3FE01212046FFF789F970BD78
:1046F0004001002070B504460E46154660680F491B
:104700000968C8610D49826809680A620B4909682D
:104710001831826851600949096818318160074978
:1047200009688C622168491C21600DB14FF0FF3689
:1047300029463046FFF764F970BD000040010020B3
:104740001CB5154800210B464022CDE9001013A1ED
:10475000144800F089FA0446012C02D100F0E4FC70
:104760000446012C14D100BF502080F31188BFF300
:104770004F8FBFF36F8F00BF4FF0FF300A490860C3
:1047800001200A49086000200949086000F052F839
:10479000084800681CBD00007401002049444C45D5
:1047A00000000000793D0008700100205C0100203D
:1047B000540100207801002002480068401C014993
:1047C000086070477C0100201248006818B1012081
:1047D000114908601DE000200F4908600F4800687B
:1047E000B0FA80F0C0F11F0101EB81020C4B03EB2A
:1047F000820042685268426000F1080243689342B6
:1048000002D14268526842604268D268054B1A6021
:1048100000BF70477C010020640100205801002087
:10482000D8090020400100200148006870470000BE
:10483000A001002010B50A48006840F47000084943
:1048400008600846006840F070400860FFF77CFE92
:10485000002004490860FBF7CDFC002010BD0000DB
:1048600020ED00E0B00100202DE9F84304460E469B
:1048700017460025DCB1681EB0FBF4F0B04216D339
:1048800004FB06F010F1490F11D804FB06F909F1F9
:104890004800FFF73DFD05464DB1A84608F1480820
:1048A0003B464246314620460095FFF779FA2846B6
:1048B000BDE8F8832DE9F04105460E4601272C4658
:1048C000002C41D0E06B00283ED0B91EE06BB1FB5C
:1048D000F0F0216C884237D3FFF7EEFDD4E90F12D8
:1048E000206801FB0200A0600020A06320686060D7
:1048F000E06B401E226C216800FB0211E160FF208A
:1049000084F8440084F845009EB9206908B9012064
:1049100000E00020A8B904F1100000F0B7FA80B15F
:104920004FF080500A490860BFF34F8FBFF36F8F7D
:1049300007E004F11000FFF789FD04F12400FFF700
:1049400085FDFFF7CBFD00E000273846BDE8F0818C
:1049500004ED00E02DE9FF4383B0074688461D467D
:104960004FF000093C4600BFFFF7A6FDA06BE16BCE
:10497000884201D3022D28D12A4641462046FFF71E
:1049800070F90646606A08B9012000E0002068B9A5
:1049900004F1240000F07AFA88B14FF080503249D7
:1049A0000860BFF34F8FBFF36F8F08E03EB14FF049
:1049B00080502D490860BFF34F8FBFF36F8FFFF713
:1049C0008DFD012007B0BDE8F083059818B9FFF709
:1049D00085FD0020F6E7B9F1000F04D101A8FFF72B
:1049E00067FE4FF00109FFF779FDFFF7E5FEFFF7DE
:1049F00063FD94F94400401C10B9002084F8440081
:104A000094F94500401C10B9002084F84500FFF7D8
:104A100065FD05A901A800F0F7F8F0B92046FFF7F9
:104A2000D4FAA0B104F110000599FFF753FE204617
:104A3000FFF72EFC00F0AEFA002895D14FF0805021
:104A400009490860BFF34F8FBFF36F8F8CE7204693
:104A5000FFF71EFC00F09EFA86E72046FFF718FCE1
:104A600000F098FA0020ADE704ED00E02DE9FF4FDB
:104A700081B0054616461F462C4600BF5021EFF375
:104A8000118081F31188BFF34F8FBFF36F8F00BF89
:104A90008146A06BE16B884201D3022F28D194F9A3
:104AA00045A0A06B00903A4620460299FFF7D9F83E
:104AB0000AF1010070B9606A08B9012000E0002025
:104AC00038B904F1240000F0E1F910B10EB1012071
:104AD00030600AE0FFF7B4FC8346DA4504D20AF1FD
:104AE000010040B284F8450000BF4FF0010801E02A
:104AF0004FF0000800BF89F3118800BF404605B0A1
:104B0000BDE8F08F2DE9F74183B005460F464FF021
:104B100000082C4600BFFFF7CFFCA66BF6B1394664
:104B20002046FFF789F8701EA063206908B90120AC
:104B300000E0002060B904F1100000F0A7F938B1DE
:104B40004FF080502F490860BFF34F8FBFF36F8F36
:104B5000FFF7C4FC012006B0BDE8F081059818B944
:104B6000FFF7BCFC0020F6E7B8F1000F04D101A864
:104B7000FFF79EFD4FF00108FFF7B0FCFFF71CFEAA
:104B8000FFF79AFC94F94400401C10B9002084F807
:104B9000440094F94500401C10B9002084F84500F9
:104BA000FFF79CFC05A901A800F02EF8F0B92046FB
:104BB000FFF7FEF9A0B104F124000599FFF78AFD83
:104BC0002046FFF765FB00F0E5F90028A3D14FF080
:104BD00080500C490860BFF34F8FBFF36F8F9AE787
:104BE0002046FFF755FB00F0D5F994E72046FFF784
:104BF0004FFB00F0CFF92046FFF7DAF900288AD002
:104C00000020A8E704ED00E070B506460C46FFF76B
:104C100053FC134802687068131A2068401C08B9D6
:104C2000002519E00F4930680968884206D070688D
:104C3000904203D80125002020600DE020689842B2
:104C400007D92068C01A20603046FFF731FD0025E3
:104C500002E0002020600125FFF740FC284670BDDF
:104C600054010020680100202DE9FF4F85B08046E7
:104C700089461746DDE912ABB800FFF749FB064647
:104C800076B14C20FFF744FB04462CB14C21204662
:104C9000FBF7A8FB266304E03046FFF72FFC00E09B
:104CA00000247CB10020CDE900ABCDE902403A46BA
:104CB00049464046089BFFF786F82046FEF700FF6E
:104CC000012501E04FF0FF35284609B0BDE8F08F1F
:104CD0000549096809B9012005E00449096809B9CD
:104CE000022000E0002070475C0100207C010020D1
:104CF0000149086870470000540100202DE9F04187
:104D000000275748006800287ED156480068451C97
:104D1000544805608DB95448D0F800805348006865
:104D2000514908605148C0F8008051480068401C53
:104D30004F490860FFF744FA00BF4E4800688542BB
:104D400076D300BF48480068006808B9012000E039
:104D5000002020B14FF0FF304649086067E042482C
:104D60000068C068C4686668B54202D241480660FF
:104D70005DE06069D4E902128A60D4E902214A60E8
:104D8000211D42688A4201D1E168416000226261CE
:104D90000168491E0160A06A98B1A06AD4E90712AF
:104DA0008A60D4E907214A6004F1180142688A4206
:104DB00001D1216A41600022A2620168491E01609E
:104DC00000BF94F82C10012088402B490968084343
:104DD00029490860E16A01EB8101284A02EB81015F
:104DE0004868A0608268E260211D8268516081602D
:104DF000E16A01EB8101214A02EB81026261E16A11
:104E000001EB81011D4A00E022E052F82110491C0B
:104E1000E26A02EB8202194B43F822101849E06A59
:104E20000968C96A88428DD901278BE700E000BF75
:104E300013480068C06A00EB8000104951F8200058
:104E4000012800D901270F48006800B1012704E0BC
:104E50000D480068401C0C4908603846BDE8F081E8
:104E60007C01002054010020440100204801002062
:104E7000680100207001002058010020D80900209E
:104E800040010020640100206001002070B503464D
:104E9000D868C168886AD1E90745A560D1E9075497
:104EA000656001F118044568A54201D10C6A4460AF
:104EB00000258D620468641E046030480068002884
:104EC0003DD14869D1E90245A560D1E90254656048
:104ED0000C1D4568A54201D1CC68446000254D6198
:104EE0000468641E046091F82C400120A040244C0A
:104EF00024682043224C2060CC6A04EB8404214DBA
:104F000005EB8404606888608568CD600C1D856849
:104F10006C608460CC6A04EB84041A4D05EB840554
:104F20004D61CC6A04EB8404164D55F82440641C92
:104F3000CD6A05EB8505134E46F8254010E0124C6E
:104F40006068C86185680D6201F1180485686C604D
:104F500084600D4D8D622C462468641C2C6000BF5B
:104F60000A4CC86A2468E46AA04204D901220120DC
:104F7000074C206000E00022104670BD7C0100203C
:104F800058010020D8090020640A002040010020B8
:104F90006401002070B500240026FFF78DFA4B480D
:104FA0000068401E494908600846006800287DD115
:104FB00047480068002879D05BE04648C068C4686C
:104FC000A06AD4E907128A60D4E907214A6004F193
:104FD000180142688A4201D1216A41600022A2621E
:104FE0000168491E01606069D4E902128A60D4E94F
:104FF00002214A60211D42688A4201D1E168416074
:10500000002262610168491E016094F82C100120A1
:1050100088403149096808432F490860E16A01EB7B
:1050200081012E4A02EB81014868A0608268E2603B
:10503000211D826851608160E16A01EB8101274A8C
:1050400002EB81026261E16A01EB8101234A52F8BD
:105050002110491CE26A02EB8202204B43F8221025
:105060001F49E06A0968C96A884202D301201D49C4
:1050700008601848006808B9012000E000200028F6
:105080009BD00CB1FFF79CF81748056865B100BFCD
:10509000FFF734FE10B10120124908606D1E002D8B
:1050A000F6D10020104908600E4800E009E00068D1
:1050B00038B1012630070D490860BFF34F8FBFF3A9
:1050C0006F8FFFF70BFA304670BD00007C010020A7
:1050D00050010020640A002058010020D809002057
:1050E00040010020640100206001002004ED00E088
:1050F0002DE9FC4705460E4617469846DDF82890F0
:105100002820FFF705F9044654B1002084F8240054
:1051100043463A4631462846CDE90094FEF797FECD
:105120002046BDE8FC8700001CB50024FEF73AFDD0
:105130000748006850B10748042100233222CDE916
:10514000001005A10648FFF78FFD044620461CBD50
:10515000880100208C010020546D7220537663007A
:10516000774200082DE9FE4305460C4616461F46C9
:10517000DDF828804FF000091448006810B300944F
:1051800001960295062C15DAFFF7A2FD022808D138
:105190000023424669460D480068FFF7DBFB814665
:1051A00010E000231A46694608480068FFF7D2FB62
:1051B000814607E000233A46694604480068FFF745
:1051C00055FC81464846BDE8FE830000880100206A
:1051D00010B591EA030F48BF83F0004300F140840B
:1051E000841A71EB030C05D2121943EB0C03001B5C
:1051F00061EB0C01DFF824E14FEA1154A4EB135CDE
:105200001EEA430F18BF9EEA445F73D023EA0E03E1
:10521000DCF1200E21EA045143F4801332D322FA48
:105220000CFE10EB0E0023FA0CFE41EB0E01CCF14C
:10523000200E03FA0EFE10EB0E0051F10001B1F545
:10524000801FCCF1200E32D201EB045112FA0EF283
:10525000BDE8104058BF7047401C38BF5FEA4202AB
:1052600018BF7047002814BF20F0010041F1000171
:105270004FEA410313F5001F38BF7047A1F1C04149
:1052800000F09EBB012A43EB0302ACF1200CDCF1E1
:105290001F0E32BF4FF0000E23FA0CF310EB030089
:1052A00041EB0451B4EB115FD0D0A1EB045101F5F7
:1052B000801149085FEA300001EB04510ED350F130
:1052C000000038BF12FA0EFE08D1BDE81040C9E751
:1052D000401C38BF5FEA4202CAD1C3E7BDE81040B4
:1052E0004FEA410313F5001F38BF7047A1F1C041D9
:1052F00000F066BB9EEA445F08D011EA5E0FBDE88D
:10530000104004BF01F0004100207047BDE810408C
:1053100070B500F007FB00BF64FBBE3E0000E0FF7D
:1053200002494FF0000000F0CEBD00BF0000F87F42
:10533000491058BFC1F140415B1058BFC3F1404311
:105340008B42EFF3008070472DE9C04130B4DFF8A5
:10535000A0C23CEA111418BF3CEA131400F0EC8020
:1053600081EA03051CEA111444EAD57418BF1CEA4B
:10537000131500F0C780A4EB05044FF0004545EA83
:10538000C12145EAC32341EA505143EA525304F193
:105390007F74994204F500344FEAC0204FEAC222DC
:1053A00008BF904200F09C804FEA13650FF2401650
:1053B000765D4FEA134506FB05F7C7F1807706FBDC
:1053C00007F74FEAD737A7FB03687642C8F580385E
:1053D000A7FB06CE38BFA8F1010807FB08E64FF08F
:1053E000000EA6FB028CE6FB03CEDCF1000CCEF136
:1053F000004E38BFAEF1010EA6FB0C584FF000076F
:105400004FF00005E6FB0E87A1FB08C6A0FB07CE08
:1054100016EB0E0645F10005E1FB076515F1E04EC0
:105420007EBFA4F580345FEA46066D4116F1800721
:1054300045F100054FEA17274FEA066647EA056778
:10544000A6F1DE46B6F1805F4FEA15251FD9384632
:1054500024F0010C05EBC471BCF1FE6F01EB0C11E3
:1054600002D8F0BCBDE8008124425CBF01F5801E7B
:105470009EEAC47F02D4F0BCBDE80081244238D447
:10548000F0BCA1F1C041BDE8004100F099BA4FEA7B
:10549000D22242EA43524FEAD323A7FB02864FEAC5
:1054A000D02040EA415007FB03661EEA0E0F4FEA88
:1054B000D12105FB026658BFA6EB0056B6EB00569D
:1054C0004FEA520E4EEAC37E18EB0E0E56EB530E09
:1054D000BDD518EB02085E417F1C55F10005B6E70B
:1054E0004FF480154FF000074FF000064FF0000812
:1054F000ADE7F0BC4FF0000001F1C04101F0004108
:10550000BDE8008111EA0C1F0CEA131500D00CE075
:1055100013EA0C1F00F025804FF00000F0BC81EA78
:10552000030101F00041BDE80081F0BCBDE800418D
:1055300081EA030100F044BAF0BCBDE8004170B557
:1055400000F0F0F9097EFC3E00F007B881EA0301A3
:105550004FF0000001F00041704781EA030100F0C4
:105560002FBAF0BCBDE800414FF000002149704760
:10557000FFFDFBF9F7F5F4F2F0EEEDEBE9E8E6E418
:10558000E3E1E0DEDDDBDAD8D7D5D4D3D1D0CFCD9F
:10559000CCCBCAC8C7C6C5C4C2C1C0BFBEBDBCBBD8
:1055A000BAB9B8B7B6B5B4B3B2B1B0AFAEADACABD3
:1055B000AAA9A8A8A7A6A5A4A3A3A2A1A09F9F9EAD
:1055C0009D9C9C9B9A99999897979695959493935F
:1055D000929191908F8F8E8E8D8C8C8B8B8A8989F6
:1055E0008888878786858584848383828281818079
:1055F0000000FF070000F87F51EA030C17D41CF5E8
:10560000801F58BFBCF5801F00F10680994218BF6B
:10561000704708BF9042704707D711F5801F58BFE9
:1056200013F5801F19D499427047894270471CF5C1
:10563000801F08D5BCF5801FF7D58B4218BF704777
:1056400008BF824270474FF4001C1CEB410F38BF6B
:105650001CEB430F01D28B42704770B500F062F92A
:10566000922449004FF000514FF08053FFF760BE85
:105670004FEA41034FEA5353A3F58063D3F11E036E
:10568000C8BFD3F1210C0CDD4FF0004242EAC12229
:1056900042EA505232FA03FC8CEAE17CACEBE17056
:1056A0007047102BC4BF0020704703F5787CBCF115
:1056B000FF3F04D06FF0004282EA2100704770B5CE
:1056C00000F030F94992248000207047F2E7000092
:1056D0004FEA1153A3F58063D3F11E03A8BFD3F1A2
:1056E000200C08DB4FF0004242EAC12252EA50523D
:1056F00032FA03F0704709420BD4102BC4BF0020CC
:10570000704703F5787CBCF1FF3F05D04FF0FF30C8
:1057100070474FF00000704770B500F003F900BF0C
:105720004992248000207047F0E710F0004248BF03
:105730004042B0FA80F310FA03F10AD0C3F11D031E
:1057400003F580634FEA415002EB035202EBD12193
:1057500070474FF00000704751EA030C17D41CF556
:10576000801F58BFBCF5801F00F10680994218BF0A
:10577000704708BF9042704707D711F5801F58BF88
:1057800013F5801F19D499427047894270471CF560
:10579000801F08D5BCF5801FF7D58B4218BF704716
:1057A00008BF824270474FF4001C1CEB410F38BF0A
:1057B0001CEB430F01D28B42704770B500F0B2F87A
:1057C000922449004FF000514FF08053FFF7B0BDD5
:1057D000DFF848C170B51CEA111E1EBF1CEA131584
:1057E0009EEA0C0F95EA0C0F00F06F8081EA03042B
:1057F00023EA4C134EEAD47E21EA4C1141F4801185
:1058000043F48013AE44A1FB024CA0FB0365AEF150
:105810007F7E361955EB0C05A1FB034C4CF10003C0
:10582000A0FB021C16EB0C06654153F10003094274
:1058300018BF46F0010613F4007F0BD14FEA033185
:105840004FEA0530340341EA155140EA16506FF033
:1058500003020AE04FEAC3214FEAC520F40241EAFD
:10586000555140EA56506FF0020202EB2E4201EB16
:10587000025585EACE710AD05FEA440C18BF24F0C5
:10588000004450F1000041F1000120EAD47040F2E0
:10589000FE7C624500D270BDA84214BF4FF0804428
:1058A0004FF04044002E08BF0024BEF1806FA8BF17
:1058B000A1F1C041BDE8704080F282804FF000004D
:1058C00001F1C04101F0004170479EEA0C0F0CEA63
:1058D000131518BF95EA0C0F06D04FF0000081EAAF
:1058E000030E0EF0004170BD00F01CF88900013E6F
:1058F00000F007B800F009B84FEA430C5FEA5C5CBF
:1059000008D081EA030100F05BB84FEA410C5FEA7E
:105910005C5CF6D14FF00000014970470000FF07C2
:105920000000F87F0EF1020E2EF0030E5EF8046BFD
:10593000364205D4012A43EB030515F5001F12D8A2
:10594000012841EB010C1CF5001F0CD80ED14FEAC9
:10595000D17C15F5001F0CEB4C0C0CF1020C08BFB0
:105960004CEBD37C04E04FF0080C01E04FEAD37C11
:105970000CEB4C0526FA05F606F00706B6F1040C0A
:1059800006D20EEB860CBDE870404CF0010C60476F
:10599000DFE80CF0090B02024FF000414FF000006D
:1059A000A1F5002170BD19461046012851EB0104F4
:1059B00018BFD4F5001484BF002001F0004170BD71
:1059C0000808A0F500114FEA3101704753EA010CB5
:1059D00017D41CF5801F58BFBCF5801F00F106804E
:1059E0008B4218BF704708BF8242704707D713F534
:1059F000801F58BF11F5801F19D48B4270479B42FE
:105A000070471CF5801F08D5BCF5801FF7D599425B
:105A100018BF704708BF904270474FF4001C1CEB42
:105A2000430F38BF1CEB410F01D2994270470FB4AE
:105A30000CBC03BCFFF7C1BE91EA030F10B581F0A7
:105A400000413FF5CDAB83F0004300F009B8000002
:105A500010B591EA030F48BF83F000433FF5C0AB98
:105A6000841A71EB030C07D212198CF0004C43EB33
:105A70000C03001B61EB0C01DFF8A4E14FEA1154A9
:105A8000A4EB135C1EEA430F18BF9EEA445F00F0CC
:105A9000B08023EA6E03524221EA0451C3EB6E0345
:105AA00038BF5B1EDCF1200E25D322FA0CFE10EB72
:105AB0000E0043FA0CFE41EB0E01CCF1200E03FA6E
:105AC0000EFE10EB0E0051F10001CCF1200E29D496
:105AD00012FA0EF201EB0451BDE8104058BF7047B6
