:020000040800F2
:10000000C020002069020008B11500081B0E00087E
:100010009D0F0008D90B00083D29000800000000D2
:10002000000000000000000000000000D1010008F6
:10003000DD0B00080000000015020008C11D0008CB
:10004000830200088302000883020008830200087C
:10005000830200088302000883020008830200086C
:10006000830200088302000883020008830200085C
:10007000830200088302000883020008830200084C
:10008000830200088302000883020008830200083C
:10009000830200088302000883020008830200082C
:1000A000830200088302000883020008830200081C
:1000B000F91E000883020008000000008302000807
:1000C0008302000800000000000000008302000816
:1000D0000000000083020008830200080000000006
:1000E00083020008830200088302000800F002F87F
:1000F00000F05EF80AA090E8000C82448344AAF164
:100100000107DA4501D100F053F8AFF2090EBAE861
:100110000F0013F0010F18BFFB1A43F0010318473B
:10012000D0640000F06400000A444FF0000C10F8A6
:10013000013B13F0070408BF10F8014B1D1108BF65
:1001400010F8015B641E05D010F8016B641E01F805
:10015000016BF9D113F0080F1EBF10F8014BAD1C55
:100160000C1B09D16D1E58BF01F801CBFAD505E073
:1001700014F8016B01F8016B6D1EF9D59142D6D3CD
:10018000704700000023002400250026103A28BFF5
:1001900078C1FBD8520728BF30C148BF0B607047F9
:1001A0001FB59DE8030000F01FF91FBD10B510BD7D
:1001B00000F0ACF91146FFF7F3FF02F0D5FE00F0B6
:1001C000CAF903B4FFF7F2FF03BC00F0FBF900002B
:1001D000224B19680868B0E8F00F80F30988BFF374
:1001E0006F8F4FF0000080F311884EF00D0E7047B6
:1001F0000000000006480068006880F3088862B6C6
:1002000061B6BFF34F8FBFF36F8F00DF00BF00BF3A
:1002100008ED00E0EFF30980BFF36F8F0F4B1A6812
:1002200020E9F00F106008B54FF0500080F31188FE
:10023000BFF34F8FBFF36F8F03F0A4FA4FF00000AE
:1002400080F31188BDE8084019680868B0E8F00F2D
:1002500080F30988BFF36F8F704700BF380100201B
:10026000EFF30580704700000948804709480047C0
:10027000FEE7FEE7FEE7FEE7FEE7FEE7FEE7FEE756
:10028000FEE7FEE704480549054A064B70470000B3
:10029000F51D0008ED000008C0160020C020002059
:1002A000C01B0020C01B002070B5064600F080F87F
:1002B000056806F10B0020F00704B4429CBF002043
:1002C00070BD2B466A68BAB11068A04210D304F121
:1002D000080188423CBF5068586007D35168101924
:1002E00041601168091B016058601460101D70BDE9
:1002F00013465268002AE7D12146284600F060F8EC
:100300000028DED170BD02F0FF0343EA032242EA77
:10031000024200F002B84FF000020429C0F012803F
:1003200010F0030C00F01B80CCF1040CBCF1020FA8
:1003300018BF00F8012BA8BF20F8022BA1EB0C017D
:1003400000F00DB85FEAC17C24BF00F8012B00F873
:10035000012B48BF00F8012B70474FF0000200B599
:10036000134694469646203922BFA0E80C50A0E8D8
:100370000C50B1F12001BFF4F7AF090728BFA0E886
:100380000C5048BF0CC05DF804EB890028BF40F852
:10039000042B08BF704748BF20F8022B11F0804F94
:1003A00018BF00F8012B7047704770477047000076
:1003B00000487047681600207047704770477047C4
:1003C00038B504460A4600206946AFF3008000288D
:1003D00008BF38BD02460099204600F075F801209C
:1003E00038BD012000F08AB8F8B5AFF300800546AB
:1003F00000200C46102000BF0646A819A0420DD9C7
:10040000324669460020AFF30080070008BF00F0C5
:1004100075F80098A04218BF0546C419FFF7C8FF39
:1004200005600746F01D20F007004619284600F039
:100430000AF8B44208BFF8BDA21B31463868BDE8CF
:10044000F84000F041B800210160C0E90110704798
:100450001020704770B50446051FFFF7A9FF00681C
:10046000002C14BF446870BD002C18BFAC423CBFC8
:1004700020466468F8D301680A18AA4218BF45608C
:1004800003D12A6805461144016028684119A14238
:100490001CBF6C6070BD6168696021680844286099
:1004A00070BD10B500F00CF8006810BD10B5044622
:1004B00000F006F8046010BD004870476016002088
:1004C0000048704760160020034640688C460028AC
:1004D00018BF88423CBF03464068F8D318681844E8
:1004E000884207D00CF1030020F00700001D411ADC
:1004F000521A0146081D0A60FFF7ACBF10B500F0A4
:1005000039F8BDE8104000F02FB870477546FFF786
:10051000D3FFAE4605006946534620F007008546E6
:1005200018B020B5FFF7AEFEBDE820404FF0000642
:100530004FF000074FF000084FF0000B21F00701CB
:10054000AC46ACE8C009ACE8C009ACE8C009ACE80E
:10055000C0098D46704710B50446AFF300802046B1
:10056000BDE81040FFF72DBE002801D000F02AB8EA
:100570007047000010B5012805D0002103A000F04D
:1005800027F8012010BD09A1F8E7000053494752A0
:10059000544D454D3A204F7574206F662068656153
:1005A00070206D656D6F7279000000003A2048651B
:1005B0006170206D656D6F727920636F72727570F6
:1005C0007465640001491820ABBEFEE726000200F6
:1005D00070B505460C460A2000E06D1C00F011F8CD
:1005E00035B128780028F8D102E0641C00F009F841
:1005F00014B120780028F8D1BDE870400A20AFF38C
:10060000008008B569468DF800000320ABBE08BD28
:1006100010B509480078022801D100F0AFF806486B
:100620000078012801D100F009F803480078032878
:1006300001D100F031F910BD2F01002010B500F0FC
:100640000BF8034801680348007801F0F5FE10BD7F
:10065000100100202C01002010B5012000F06CFCDE
:1006600001280FD10221314800F0B4FA304909685D
:1006700088683049097800F079FF2F490860012027
:1006800000F03FFC022000F057FC012817D12B4856
:100690000078401E294908702949087827490978B7
:1006A00000F060F825490870084601782548006880
:1006B00000F046FF1E490860022000F022FC0320E3
:1006C00000F03AFC012817D11C480078401C1B4957
:1006D00008701B4908781949097800F043F8174950
:1006E0000870084601781748006800F029FF104993
:1006F0000860032000F005FC012000F01DFC02282A
:1007000009D0022000F018FC022804D0032000F0D9
:1007100013FC022808D1012000F0F3FB022000F0B6
:10072000F0FB032000F0EDFB10BD00002F010020C6
:10073000300100202D010020340100202C01002078
:10074000070100201001002010B5012103480068B6
:1007500000F0F6FE0249086010BD00001001002004
:10076000300100200246914201DD10467047002909
:1007700001DC0120FAE70846F8E7000070B500F058
:1007800011F806480068846804480068C5682A783B
:1007900021460348007801F093FE70BD300100202F
:1007A0002D01002010B538480068C468012000F011
:1007B000C3FB012806D10321344800F00BFA0120C5
:1007C00000F09FFB012000F0B7FB02280AD10121B5
:1007D0002E4800F0FFF901212D4800F0FBF901201F
:1007E00000F08FFB022000F0A7FB012816D128485B
:1007F0000078401E2649087020780978FFF7B2FF7C
:10080000234908702049096888682149097800F05F
:10081000ADFE20490860022000F073FB032000F0C9
:100820008BFB012816D11A480078401C1849087023
:1008300020780978FFF796FF154908701249096872
:1008400088681349097800F091FE12490860032076
:1008500000F057FB012000F06FFB022809D00220B6
:1008600000F06AFB022804D0032000F065FB022898
:1008700008D1012000F045FB022000F042FB0320DC
:1008800000F03FFB10BD0000300100202F010020D0
:100890002D0100203401002010B500F003F800F015
:1008A00019F810BD10B50A480068047A012C04D06C
:1008B000022C08D0032C09D102E000F015F905E064
:1008C00000F050F902E000F04BF800BF00BF10BD8F
:1008D0003401002070B586B01F480068057A012DEC
:1008E00004D0022D1BD0032D33D10AE01A48006832
:1008F00004692668184909684868314601F0A8FF6C
:1009000027E0154800680469606800680590124A8D
:1009100021681268506805AA01F0D4FF19E00E485A
:1009200000680469206800680590606800680490A9
:10093000A068006803902669084800780649CDE958
:100940000060096803AB04AA486805A901F0AEFE7F
:1009500000BF00BF06B070BD340100202E01002092
:1009600070B5012000F0E8FA022806D102212B48D8
:1009700000F030F9012000F0C4FA022000F0DCFAA7
:10098000012804D100F080F8022000F0BAFA032018
:1009900000F0D2FA012804D100F046F8032000F05C
:1009A000B0FA022000F0C8FA022814D11C480068EE
:1009B0000469257B5DB11B480078401E1949087009
:1009C000084601780320FFF7CDFE16490870022083
:1009D00000F097FA00BF032000F0AEFA022814D10D
:1009E0000F4800680469257B5DB10E480078401C03
:1009F0000C490870084601780320FFF7B3FE094947
:100A00000870032000F07DFA00BF012000F094FA86
:100A1000012801D100F075FA70BD00002F010020FF
:100A2000340100202E01002030B5154C24682269C5
:100A3000106853689168134C2478012C04D0022C60
:100A40000DD0032C1AD10EE00468641C0460046805
:100A50001D68AC4202DD0468641E04600EE01C6880
:100A6000641C1C600AE00C68641C0C600C6805685F
:100A7000AC4202DD0C68641E0C6000BF00BF30BDDC
:100A8000340100202E01002030B5154C2468226965
:100A9000106851689368134C2478012C04D0022C00
:100AA0000DD0032C1AD115E00468641E046004689C
:100AB0001D68AC4202DA0468641C04600EE00C6835
:100AC000641E0C600C680568AC4202DA0C68641C99
:100AD0000C6003E01C68641E1C6000BF00BF30BDDA
:100AE000340100202E01002070B51C480068046904
:100AF0002568012000F020FA022806D102211848BA
:100B000000F068F8012000F0FCF9022000F014FA6F
:100B1000022806D10121284600F05CF8022000F0EE
:100B2000F0F9032000F008FA022806D10021284637
:100B300000F050F8032000F0E4F9022000F0FCF986
:100B4000012804D0032000F0F7F9012805D1022084
:100B500000F0D7F9032000F0D4F970BD3401002073
:100B60002F01002010B5012000F0E6F9022806D17F
:100B70000221174800F02EF8022000F0C2F90120EF
:100B800000F0DAF9012809D0022000F0D5F9012897
:100B900004D0032000F0D0F9012808D1012000F092
:100BA000B0F9022000F0ADF9032000F0AAF902200C
:100BB00000F0C2F9022804D0032000F0BDF9022899
:100BC00005D1022000F09DF9032000F09AF910BD34
:100BD0002F0100200170704700BFFEE77047000042
:100BE00008B50121042001F067F84FF40070ADF85A
:100BF00000001C208DF8030003208DF802006946D8
:100C0000014800F003F808BD000801402DE9F0415B
:100C1000024600250026002000230024002791F82A
:100C200003C00CF00F0591F803C00CF0100CBCF1E0
:100C3000000F03D091F802C04CEA050591F800C0FE
:100C4000BCF1000F31D0146800202BE04FF0010CF4
:100C50000CFA00F3B1F800C00CEA03069E4220D162
:100C600083004FF00F0C0CFA03F7BC4305FA03FCAA
:100C70004CEA040491F803C0BCF1280F06D14FF0F0
:100C8000010C0CFA00FCC2F814C00AE091F803C091
:100C9000BCF1480F05D14FF0010C0CFA00FCC2F872
:100CA00010C0401C0828D1D31460B1F800C0BCF1BA
:100CB000FF0F34DD546800202EE000F1080C4FF0E7
:100CC000010808FA0CF3B1F800C00CEA03069E42D2
:100CD00021D183004FF00F0C0CFA03F7BC4305FA47
:100CE00003FC4CEA040491F803C0BCF1280F05D1C1
:100CF00000F1080C08FA0CF8C2F8148091F803C04F
:100D0000BCF1480F07D100F1080C4FF0010808FAB8
:100D10000CF8C2F81080401C0828CED35460BDE8FF
:100D2000F08110B500F05EF8FFF75AFF00F002F80E
:100D300010BD000008B50121042000F0BDFF012115
:100D4000082000F0B9FF0220ADF8000048208DF81F
:100D5000030003208DF8020069460F48FFF756FF95
:100D60000120ADF8000048208DF8030003208DF825
:100D7000020069460848FFF749FF0120ADF800006E
:100D800048208DF8030003208DF8020069460348CF
:100D9000FFF73CFF08BD0000000C014000080140C7
:100DA0000246002093680B400BB1012000E00020B8
:100DB0007047000010B502210148FFF7F1FF10BD98
:100DC000000C014010B501210148FFF7E9FF10BDFB
:100DD000000C014010B501210148FFF7E1FF10BDF3
:100DE0000008014008B50121042000F065FF4FF420
:100DF0008050ADF8000014208DF8030003208DF81A
:100E0000020069460148FFF701FF08BD00080140E4
:100E10000AB1016100E04161704700BFFEE710B513
:100E20000024FFF7C7FFF8B9052002F0E9FBFFF740
:100E3000C1FFC8B909E0601C84B2012002F0E0FBE8
:100E40004EF66020844200DB0446FFF7B3FF002823
:100E5000F1D0322C04DB0221012000F087F803E0FE
:100E60000121084600F082F810BD10B50024FFF7FC
:100E7000A9FFF8B9052002F0C3FBFFF7A3FFC8B92B
:100E800009E0601C84B2012002F0BAFB4EF660203B
:100E9000844200DB0446FFF795FF0028F1D0322C96
:100EA00004DB0221084600F061F803E00121022082
:100EB00000F05CF810BD10B50024FFF78BFFF8B907
:100EC000052002F09DFBFFF785FFC8B909E0601C13
:100ED00084B2012002F094FB4EF66020844200DBD5
:100EE0000446FFF777FF0028F1D0322C04DB022103
:100EF000032000F03BF803E00121032000F036F866
:100F000010BD00B50346012B04D0022B07D0032BE4
:100F10000FD109E00021012000F028F809E00021AC
:100F2000022000F023F804E00021032000F01EF866
:100F300000BF00BF00BD00000146012904D0022906
:100F400005D0032909D105E0054800787047054818
:100F50000078FBE704480078F8E7FF20F6E7000098
:100F6000000000200100002002000020012804D021
:100F7000022805D0032809D105E0054A117005E0D3
:100F8000044A117002E0044A117000BF00BF7047AC
:100F900000000020010000200200002000BFFEE74A
:100FA0007FB5194800F022F9184908600320012193
:100FB000174A184BCDE90032CDE90210164B174AFB
:100FC0001749184800F042F904460323164A174906
:100FD000174800F07BF905460323164A16491748BF
:100FE00000F074F9064621460848006800F061FAEE
:100FF00029460648006800F05CFA3146034800685C
:1010000000F057FA7FBD0000F20000201C01002014
:10101000CC000020B8000020B4000020B000002068
:1010200060000020FB530008A700002055000020AE
:10103000BF530008A80000206A00002037540008B1
:101040002DE9F04100F05AF81B4908601B4B1C4881
:101050001C4902681C4800F05BF804461B4B1C4806
:101060001C4902681C4800F053F805461B4B1C48FD
:101070001C4902681C4800F04BF806461B4B1C48F4
:101080001C4902681C4800F043F8074621460A48FC
:10109000006800F002FA29460748006800F0FDF9F0
:1010A00031460548006800F0F8F939460248006802
:1010B00000F0F3F9BDE8F081100100200B010020E1
:1010C00020010020DE000020DB5500080801002080
:1010D00014010020E50000206B57000809010020E2
:1010E00018010020EB0000208B5A00080A010020A4
:1010F0001C010020F20000201B5C000810B500233A
:101100001A461946184600F003F80446204610BD5A
:101110002DE9F04105460F46164698461820FFF780
:10112000C3F8044614B90020BDE8F081256067606B
:10113000A660C4F80C802046F6E72DE9F047054686
:101140000E4617469846DDE908A92420FFF7ACF8BB
:10115000044614B90020BDE8F0872560C4F8049067
:101160002672E760C4F8108084F814A0C4F81890C0
:101170002046F0E710B500F009F800F045F8FFF759
:101180000FFF00F0BFF8FFF75BFF10BD70B50F4811
:1011900000F02CF80E49086003230E4A0E490F4850
:1011A00000F094F8044603230D4A0E490E4800F05F
:1011B0008DF8054621460648006800F07AF9294670
:1011C0000348006800F075F970BD0000E5000020DC
:1011D00014010020A500002044000020475300080F
:1011E000A60000204D000020835300087CB5044673
:1011F0000020034602460146CDE90004FFF79DFFAB
:10120000054628467CBD000038B50A48FFF7EEFFCA
:10121000094908600120094B094A0A4900900A4817
:1012200000F0E8F8044621460348006800F041F960
:1012300038BD0000EB00002018010020AC000020A9
:10124000D600002055000020BF5300082DE9FC5FA8
:1012500081460D4616461F46DDF83CB0DDF834A049
:10126000CDF800A0394630460E9B0C9A00F015F8D8
:101270008046B8F1000F02D10020BDE8FC9F434634
:10128000002202214846CDE900B5FFF756FF04468B
:101290000CB90020F1E72046EFE72DE9F0470546BD
:1012A0000E4617469846DDF820901420FEF7FCFF06
:1012B000044614B90020BDE8F08725606660A76089
:1012C00084F80C80C4F810902046F4E72DE9FC4720
:1012D00081460D4616461F46304600F05DF904462D
:1012E00014B90020BDE8FC872346002201214846AE
:1012F000CDE90075FFF721FF80460CB90020F1E72A
:101300004046EFE72DE9FF412548FFF76FFF2549EC
:1013100008600023244A25492548FFF7D7FF0646E1
:101320000020244A244BCDE9012000930390234B55
:10133000234A24492448FFF789FF04460023234A0F
:1013400023492448FFF7C2FF07460023224A2349C6
:101350002348FFF7BBFF80460020224B224A234947
:101360000090234800F046F8054631460D480068D5
:1013700000F09FF821460B48006800F09AF83946C3
:101380000848006800F095F841460648006800F0FB
:1013900090F829460348006800F08BF8BDE8FF810B
:1013A000DE00002020010020A900002074000020A1
:1013B00073540008D1000020C4000020C0000020A9
:1013C000BC0000207C000020AF540008AA000020D0
:1013D00087000020EB540008AB0000208E000020A6
:1013E00027550008C8000020D900002095000020E3
:1013F000635500082DE9FC4781460D4616461F46F9
:10140000DDF828A03946304600F015F88046B8F1DE
:10141000000F02D10020BDE8FC87434600220321D3
:101420004846CDE900A5FFF788FE04460CB9002028
:10143000F1E72046EFE770B505460E460820FEF7B7
:1014400033FF04460CB9002070BD2560666020465D
:10145000FAE70146084600E040694269002AFBD1EC
:101460007047014600204A6902E0431C58B25269A5
:10147000002AFAD170470146084600E0006A026A75
:10148000002AFBD17047014600200A6A02E0431C93
:1014900058B2126A002AFAD1704730B505460B4699
:1014A0002846FFF7D6FF044663611C61002058619F
:1014B00030BD30B505460B462846FFF7DCFF044635
:1014C0002362DC610020186230BD10B5FFF752FEC8
:1014D00000F002F810BD000000B50F480068FFF7EB
:1014E000D2FF0E4908700E480068FFF7CCFF0D4987
:1014F00008700D480068FFF7C6FF0C4908700C48DB
:101500000068FFF7C0FF0B4908700B480068FFF741
:10151000A8FF0A49087000BD14010020080100203E
:1015200018010020090100201C0100200A010020F0
:10153000200100200B0100201001002007010020E5
:1015400010B502460B460AB1002B01DC002010BD8D
:101550000124516906E0A34201D10846F7E7601C67
:10156000C4B249690029F6D10020F0E710B502465F
:101570000B460AB1002B01DC002010BD0124116ACA
:1015800006E0A34201D10846F7E7601CC4B2096A2D
:101590000029F6D10020F0E770B505460420FEF7DB
:1015A00083FE04460CB9002070BD25602046FBE791
:1015B0007047000070B5002100230F22C47804B3E7
:1015C000154C246804F4E064C4F5E064210AC1F118
:1015D0000403CA40447804FA03F184781440214398
:1015E00009010E4C0678A155047804F01F0501246A
:1015F000AC4005786D11AD0005F1E025C5F800415E
:1016000009E0047804F01F050124AC40044D06787D
:10161000761145F8264070BD0CED00E000E400E0D6
:1016200080E100E002490143024A11607047000076
:101630000000FA050CED00E000200CE0002106E0BF
:101640000022064B03EBC0135A544A1CD1B2802926
:10165000F6DB421CD0B20828F0DB7047980100206E
:101660002DE9F04304460D4616461F467F2C01DD4A
:10167000BDE8F0833F2D00DDFAE7A119802902DDE6
:10168000C4F18001CEB2E919402902DDC5F1400163
:10169000CFB2284630E0234629E04FEAE07C00EB59
:1016A0005C7C4FEAEC0CDFF85C8008EBCC1C1CF88F
:1016B00003C002464FEAE07800EB58784FEAE808AA
:1016C000A0EBC8094FF0010808FA09F82CEA080C49
:1016D00001464FEAE07800EB58784FEAE808DFF877
:1016E000249009EBC81808F803C0591CCBB2A11903
:1016F0009942D2DC411CC8B2E9198142CBDC00BF5F
:10170000B6E700009801002070B503467F2B00DD8E
:1017100070BD3F2900DDFBE7CC1701EB5474E410EA
:101720000C4D05EBC414E45C0A46CD1701EB55756E
:10173000ED10A1EBC5060125B5402C430846CD1799
:1017400001EB5575ED10034E06EBC515EC5400BFCB
:10175000DEE70000980100202DE9F04705460E461F
:1017600017469846DDF820A0BAF1000F24D12C4688
:101770000CE031462046FFF7C7FF06EB0800401E8D
:10178000C1B22046FFF7C0FF601CC4B2E819A042F6
:10179000EFDC34460BE021462846FFF7B5FFE91998
:1017A000491EC8B22146FFF7AFFF601CC4B206EB6A
:1017B0000800A042EFDC14E02C460FE0B14607E041
:1017C00049462046FFF7A0FF09F1010000F0FF099C
:1017D00006EB08004845F3DC601CC4B2E819A042DF
:1017E000ECDCBDE8F087000038B5002406E00025F9
:1017F00000E06D1CB5F57A7FFBD3641CB4F57A7FED
:10180000F5D30121082000F057FA14208DF80300C9
:1018100003208DF802004020ADF80000694608481A
:10182000FFF7F4F98020ADF8000069460448FFF79F
:10183000EDF9012000F0F4F9012000F0FBF938BDCA
:10184000000C014070B50546002411E080212141C3
:10185000294009B1012100E00021084600F0EAF921
:10186000012000F0DDF9002000F0DAF9601CC4B2BC
:10187000082CEBDB012000F0D3F9002000F0D0F9B8
:1018800070BD10B5012000F0D5F9012000F0C8F9B5
:10189000002000F0CFF9002000F0C2F910BD10B513
:1018A000002000F0C7F9012000F0BAF9012000F093
:1018B000C1F910BD10B5FFF797FFAE2000F0C4F9D5
:1018C000D52000F0C1F9802000F0BEF9A82000F07A
:1018D000BBF93F2000F0B8F9D32000F0B5F90020A3
:1018E00000F0B2F9402000F0AFF9A12000F0ACF90F
:1018F000C82000F0A9F9DA2000F0A6F9122000F0C3
:10190000A3F9812000F0A0F9FF2000F09DF9D92073
:1019100000F09AF9F12000F097F9DB2000F094F93B
:10192000302000F091F9A42000F08EF9A62000F0FC
:101930008BF98D2000F088F9142000F085F9AF2094
:1019400000F082F9FFF778FE00F052F910BD10B5F3
:101950000246012000E050430B1EA1F10101FAD123
:1019600010BD70B505460C4645F0B00000F06CF9AE
:10197000102141EA141000F067F904F00F0000F0A4
:1019800063F970BDF8B506460F4614461D46082D8E
:101990000CD1A4F120000E4901EB00101023082205
:1019A00039460090304600F017F80FE0062D0DD1B3
:1019B000A4F1200000EB4000064901EB40000823A1
:1019C000062239460090304600F006F8F8BD0000C7
:1019D00052490008424F00082DE9F04707460C46DF
:1019E00090469946DDF820A07F2F01DDBDE8F08705
:1019F0003F2C00DDFAE74B46424621463846FFF7CA
:101A00002FFE002570E0002669E0B8197F2800DD70
:101A100067E0E11704EB517105EBE101072900DDF7
:101A2000E4E72046E21704EB527205EBE202344B86
:101A300003EBC212BB19D25C2146E31704EB5373CC
:101A4000DB10A4EBC30305FB086C1AF80CC00CFAFE
:101A500003FC42EA0C02E31704EB537305EBE303C8
:101A6000DFF89CC00CEBC31307EB060C03F80C204B
:101A7000E11704EB517105EBE101491C072900DD79
:101A80002BE02046E21704EB527205EBE202521CF7
:101A90001B4B03EBC212BB19D25C2146E31704EBCC
:101AA0005373DB10A4EBC303C3F1080305FB086CFD
:101AB0001AF80CC04CFA03FC42EA0C02E31704EBE0
:101AC000537305EBE3035B1CDFF834C00CEBC3136B
:101AD00007EB060C03F80C2000BF701CC6B246458D
:101AE00093DB00BF681CC5B2A9F10100C11700EB70
:101AF0005171012202EBE101A94284DC00BF75E7CC
:101B0000980100202DE9F0470646894617461D46F4
:101B1000DDF82080002417E0281B411E0A20FFF773
:101B200016FFB7FBF0F00A21B0FBF1F201FB120047
:101B300000F1300A04FB0861C8B2434652464946E8
:101B4000FFF720FF601CC4B2AC42E5DBBDE8F087C4
:101B50002DE9F04F80468A4615461E46DDF8249052
:101B6000002D07DB4B462B2251464046FFF70AFF6C
:101B70002F4606E04B462D2251464046FFF702FF16
:101B80006F42002418E0301B411E0A20FFF7DFFEE1
:101B9000B7FBF0F00A21B0FBF1F201FB120000F1FB
:101BA000300B611C01FB0981C8B24B465A465146B5
:101BB000FFF7E8FE601CC4B2B442E4DBBDE8F08F7E
:101BC0002DE9F0410646884615461F46002409E0E7
:101BD0002A5D04FB0761C8B23B464146FFF7D2FECF
:101BE000601CC4B2285D0028F2D1BDE8F08100007D
:101BF00010B501F0B1FC00240BE000212046FFF7F6
:101C0000B0FE064901EBC410802100F02DF8601CE5
:101C1000C4B2082CF1DB01F0B1FC10BD980100202A
:101C200010B50446224640210148FFF7F1F810BDE7
:101C3000000C014010B50446224680210148FFF700
:101C4000E7F810BD000C014010B50446FFF719FE7F
:101C50007820FFF7F7FD0020FFF7F4FD2046FFF79F
:101C6000F1FDFFF71CFE10BD70B505460E46FFF7EF
:101C700008FE7820FFF7E6FD4020FFF7E3FD002493
:101C800004E0285DFFF7DEFD601CC4B2B442F8DB5F
:101C9000FFF705FE70BD000029B1064AD269024374
:101CA000044BDA6104E0034AD2698243014BDA61F2
:101CB000704700000010024029B1064A92690243B1
:101CC000044B9A6104E0034A92698243014B9A6192
:101CD000704700000010024010B500F001F810BD80
:101CE0000CB50020019000903348006840F480302B
:101CF0003149086000BF3048006800F400300090AF
:101D00000198401C0190009818B90198B0F5A06F97
:101D1000F1D12948006800F4003010B10120009092
:101D200001E0002000900098012843D1234800687A
:101D300040F01000214908600846006820F00300C8
:101D400008600846006840F0020008601A484068D1
:101D5000194948600846406848600846406840F4B1
:101D6000806048600846406820F47C10486008465F
:101D7000406840F4E81048600846006840F0807011
:101D8000086000BF0C48006800F000700028F9D01F
:101D90000948406820F00300074948600846406849
:101DA00040F00200486000BF0348406800F00C00AB
:101DB0000828F9D10CBD00000010024000200240AC
:101DC00010B500BF502080F31188BFF34F8FBFF3D1
:101DD0006F8F00BF01F054FD18B14FF080500449DF
:101DE000086000BF002080F3118800BF10BD000014
:101DF00004ED00E010B51348006840F001001149FF
:101E0000086008464068104908400E494860084686
:101E100000680E4908400B4908600846006820F435
:101E2000802008600846406820F4FE0048604FF4B7
:101E30001F008860FFF750FF4FF000600449086002
:101E400010BD0000001002400000FFF8FFFFF6FE8A
:101E500008ED00E001E0FEF7E2FFFCE700BFFEE76F
:101E600000BFFEE700BFFEE700BFFEE700BFFEE7E2
:101E700000BFFEE701E0FEF7F8FFFCE701E0FFF737
:101E80001AF8FCE7FFF716FD062306A20021084614
:101E9000FFF796FEFFF7ACFE03E0FEF7B9FBFFF796
:101EA000A7FEFAE76E6169686170690000BFFEE72E
:101EB00000BFFEE700BFFEE700BFFEE700BFFEE792
:101EC0001CB54FF44070FFF7ADFB0648012100231D
:101ED0008022CDE9001004A1064801F09DFC01F02C
:101EE00013FC1CBD400000205461736B5F53746190
:101EF000727400000922000810B50121880700F063
:101F0000B3F8012806D10021800700F01DF8012058
:101F1000034908700121880700F013F810BD000084
:101F20000300002021B1028842F08002028004E018
:101F300002884FF67F731A4002807047CA430282BC
:101F40007047CA430282704721B1028842F0010201
:101F5000028004E002884FF6FE731A400280704748
:101F600031B1B0F8442042F40042A0F8442005E02A
:101F7000B0F84420C2F30E02A0F8442070471FB509
:101F800001210846FFF788FE0020ADF80A00ADF8F1
:101F90000600ADF808002320ADF8040000208DF8FD
:101FA0000C0001A94FF0804000F0DCF80121880707
:101FB000FFF7C4FF01221146900700F066F81C20CD
:101FC0008DF8000001208DF8030002208DF801003B
:101FD0006846FFF7EFFA00214FF0804000F0C0F8AC
:101FE00000214FF08040FFF7AFFF1FBD00B587B065
:101FF0000121C802FFF760FE0020ADF81600ADF821
:10200000120040F2E730ADF814004720ADF81000A0
:1020100000208DF8180004A9124800F0A3F87020E1
:10202000ADF800000020ADF808000120ADF8020076
:102030000020ADF8060069460A4800F03FF8082184
:10204000084800F031F801210648FFF76BFF012135
:102050000448FFF785FF01210248FFF775FF07B02D
:1020600000BD0000002C014030B5024600200023D6
:102070000024158A05EA0103958905EA010413B1D4
:102080000CB1012000E0002030BD1AB183890B4360
:10209000838102E083898B438381704710B5FFF70A
:1020A0006EFFFFF7A3FF10BD0A460021018B4FF61C
:1020B000F7731940114301837047000070B5002485
:1020C00000220023058C4FF6EF7635400584028C04
:1020D0008388048B48F6FF752C404FF6FF452C4053
:1020E0000D884FF6FF7606EA05252C434FF6DF757F
:1020F0002A400D8906EA05152A434D8806EA05158A
:102100002A43154DA84202D0144DA8421DD14FF6C6
:102110007F752A404D894FF6FF7606EA05152A435A
:102120004FF6BF752A408D8806EA05152A434FF6FB
:10213000FF352B404FF2FF752B408D8906EA850550
:102140002B43CD8906EA85052B4383800483CD8804
:102150000587028470BD0000002C0140003401405E
:1021600081847047002202881D4B98420ED01D4B7F
:1021700098420BD0B0F1804F08D01B4B984205D04D
:102180001A4B984202D01A4B984204D14FF68F73E3
:102190001A404B881A43174B984207D0164B984267
:1021A00004D04FF6FF431A40CB881A4302808B8835
:1021B00083850B8803850A4B98420BD0094B9842C4
:1021C00008D00E4B984205D00D4B984202D00D4BD3
:1021D000984201D10B7A0386012383827047000065
:1021E000002C014000340140000400400008004081
:1021F000000C00400010004000140040004001406E
:1022000000440140004801401CB5044601F0A4F917
:102210004D48012100238022CDE900104BA14D48FB
:1022200001F0FAFA4C48012100238022CDE9001088
:102230004AA14C4801F0F0FA4B48012100238022CA
:10224000CDE9001049A14B4801F0E6FA4A480121C6
:1022500000238022CDE9001048A14A4801F0DCFAB1
:102260004948012100238022CDE9001047A14948B7
:1022700001F0D2FA4848012100238022CDE9001064
:1022800046A1484801F0C8FA4748012100238022AE
:10229000CDE9001045A1474801F0BEFA46480121AA
:1022A00000238022CDE9001044A1464801F0B4FA91
:1022B0004548012100238022CDE9001043A1454873
:1022C00001F0AAFA4448012100238022CDE9001040
:1022D00042A1444801F0A0FA434801210023802292
:1022E000CDE9001041A1434801F096FA424801218E
:1022F00000238022CDE9001040A1424801F08CFA71
:102300004148012100238022CDE900103FA141482E
:1023100001F082FA4048012100238022CDE900101B
:102320003EA1404801F078FA3F4801210023802275
:10233000CDE900103DA13F4801F06EFA002001F008
:1023400079F901F01BF91CBD040000205441534BE6
:1023500031000000551E0008080000205441534B76
:1023600032000000751E00080C0000205441534B41
:10237000330000007D1E0008100000205441534B24
:1023800034000000851E0008140000205441534B07
:1023900035000000AD1E0008180000205441534BCA
:1023A00036000000B11E00081C0000205441534BB1
:1023B00037000000B51E0008200000205441534B98
:1023C00038000000B91E0008240000205441534B7F
:1023D00039000000BD1E0008280000205441534B66
:1023E000313000005D1E00082C0000205441534B8A
:1023F00031310000611E0008300000205441534B71
:1024000031320000651E0008340000205441534B57
:1024100031330000691E0008380000205441534B3E
:10242000313400006D1E00083C0000205441534B25
:1024300031350000711E0008F8B504460E461E48EE
:1024400090F90000844200DDF8BDFFF7F5F8214661
:102450003046FFF775F805460823002101206A6819
:10246000FFF7AEFB2868282350221421009001209A
:10247000FFF7B2FA002028235022142100900120F7
:10248000FFF76AF90820022322460A210090612002
:10249000FFF738FB062309A21C216420FFF790FBFD
:1024A000082002230090044890F900202421612094
:1024B000FFF728FB00BFC7E7070100202F0000003F
:1024C000F8B504460E461746FFF7B6F80823002174
:1024D00001207268FFF774FB062371A200216020BF
:1024E000FFF76EFB06236EA200217820FFF768FB42
:1024F000082002232246002100906820FFF702FBFB
:1025000000200C231A46162100906E20FFF724F9B4
:1025100000200C231A462B2100906E20FFF71CF997
:10252000BC4237D1204604EBD0714910A4EB4101E5
:1025300001292FD121463046FFF718F805462868B3
:1025400014231A46122100900120FFF745FA0020BB
:1025500014231A46122100900120FFF7FDF80823EA
:10256000142117206A68FFF72BFB01200C231A4661
:10257000162100906E20FFF7EFF80C231A462B214E
:102580006E20FFF76DF8062346A22D213020FFF7BD
:1025900017FB84E0204604EBD0714910A4EB410105
:1025A00000293AD121463046FEF7E0FF054628686B
:1025B00014231A46282100900120FFF70DFA00206D
:1025C00014231A46282100900120FFF7C5F808239C
:1025D0002A2117206A68FFF7F3FAED6901200C231E
:1025E0001A462B2100906E20FFF7B6F828681423B6
:1025F0001A46122100900120FFF7EEF90020142363
:102600001A46122100900120FFF7A6F80823142192
:1026100017206A68FFF7D4FA41E0204604EBD07136
:102620004910A4EB4101012939D121463046FEF77A
:102630009DFF0546286814231A46122100900120A8
:10264000FFF7CAF9002014231A4612210090012036
:10265000FFF782F80823142117206A68FFF7B0FA01
:1026600001200C231A46162100906E20FFF774F803
:102670002D6A286814231A46282100900120FFF7AC
:10268000ABF9002014231A46282100900120FFF7FF
:1026900063F808232A2117206A68FFF791FAF8BD2A
:1026A0002D0000002D456E642D0000002DE9F04F37
:1026B00087B082460E4691461D460024D9F8000098
:1026C0002968401A069030682968401A05900698D3
:1026D00002F064F80190059802F060F8009001990A
:1026E00001F09AFF834601F06BFF0022504BCDE9C9
:1026F000020101F03BFD074601F0B8FCC0B20490B6
:10270000FEF79AFF00203D237D220221009008461B
:10271000FFF722F80623524600210F20FFF750FA58
:10272000062338210F20109AFFF74AFA3068002854
:1027300006DBD9F80000002802DB2868002801DA4F
:10274000122410E00A2400200A236E222A2100907D
:102750001846FFF701F801200A2300902A211846A5
:10276000049AFEF7F9FF062332A221462D20FFF737
:1027700027FA04F10A00C1B2062330A22D20FFF788
:102780001FFA04F11400C1B206232EA22D20FFF778
:1027900017FA306800F03BF9C7B2062000903B46BC
:1027A00021464B203268FFF7D3F9D9F8000000F03A
:1027B0002EF9C7B20620009004F10A00C1B23B46D0
:1027C0004B20D9F80020FFF7C3F9286800F01FF963
:1027D000C7B20620009004F11400C1B23B464B2062
:1027E0002A68FFF7B5F91198012804D0022809D00A
:1027F000032819D10FE0062314A221461E20FFF75B
:10280000DFF911E004F10A00C1B206230FA21E2075
:10281000FFF7D6F908E004F11400C1B206230BA2B9
:102820001E20FFF7CDF900BF00BF07B0BDE8F08F55
:1028300000805B406E6F773A000000006D61783A6F
:10284000000000006D696E693A0000002D3E000036
:1028500038B505460C46FEF7EFFE00203D237D22ED
:10286000022100900846FEF777FF06232A46002142
:102870000F20FFF7A5F9207801280ED1002028238A
:102880001E220F2100900846FEF766FF08230BA2C8
:1028900019211720FFF794F90FE0207868B900207C
:1028A000282346220F2100902C20FEF755FF0823F5
:1028B00003A219214320FFF783F938BD4F4E0000D2
:1028C0004F464600F8B504460D461646FEF7B4FEE0
:1028D00000203D237D22022100900846FEF73CFFA8
:1028E0000623224600210F20FFF76AF906230DA2D6
:1028F00011210A20FFF764F906230EA226210A20DF
:10290000FFF75EF906232A4611215320FFF758F9F5
:10291000082000900523202137203268FFF718F99E
:10292000F8BD00006465736372697074696F6E3A14
:102930000000000076616C75653A000000BFFEE79C
:102940002DE9F0414F1E00EBC7010446D1E900011B
:1029500015461E4637F006020DD02A46334601F0D2
:1029600005FC7F1E04EBC703D3E9002301F0FEF84A
:1029700037F00602F1D1022F25D0042F13D0062FF5
:1029800018BFBDE8F0812A46334601F0EFFBD4E9D9
:102990000A2301F0EBF82A46334601F0E7FBD4E9BD
:1029A000082301F0E3F82A46334601F0DFFBD4E9BF
:1029B000062301F0DBF82A46334601F0D7FBD4E9C1
:1029C000042301F0D3F82A46334601F0CFFBD4E9C3
:1029D000022301F0CBF82A46334601F0C7FBD4E9C5
:1029E0000023BDE8F04101F0C1B800000022134609
:1029F0001046014901F076B90000F03F012201F0D4
:102A000062BF002213461046114601F06BB92DE952
:102A1000F05F8246BAF1000F02D10120BDE8F09FBD
:102A2000BAF1000B01DB594601E0CBF10001084689
:102A300001F049FB804600F025FA064600F006F852
:102A4000044601F0E3FA401CE8E700002DE9F041FC
:102A5000C1F30A52A2F2FF362F4A304B0D4604460C
:102A6000142E2FDA002E12DA01F080F8002213461D
:102A700001F07AFC4CD2002DA4BF0024254647DA91
:102A800025F00040204318BF254D41D018E0DFF865
:102A900094C02CFA06F705EA070C5CEA040C08BFA0
:102AA000BDE8F08101F062F80022134601F05CFC01
:102AB0002ED2002D03DA4FF48010F0400544BD43C0
:102AC000002425E0332EC8BFBDE8F081A6F1140C28
:102AD0004FF0FF3727FA0CF73C4208BFBDE8F08102
:102AE00001F078FC0022134601F03EFC10D2002DCC
:102AF0000DDA142E08BF6D1C09D0C6F13400012177
:102B000001FA00F02044A04238BF6D1C0446BC43CB
:102B100029462046BDE8F0819C7500883CE4377E5C
:102B20000000F0BFFFFF0F002DE9F04DC84A002460
:102B300090B0914205DA21F00043934201D805D1CB
:102B400020B110B0BDE8F04DFFF758BFB1F5801FC0
:102B50001BDA53EA000209D0002911DA0120FDF73F
:102B6000A5FC10B0BDE8F04DFFF74BBF0220FDF70C
:102B70009DFCFFF73BFF10B081F00041BDE8F08DF8
:102B80006FF03504362201F09EFE04EB2152C1F3B2
:102B90001308B049A2F2FF33414401F4801282F0DD
:102BA0007F6103EB225281F04051009241EA08011B
:102BB0000022A94B01F01AFC044608F10200A74EBE
:102BC000C0F313000D467E44032867D2D6E90023E4
:102BD000204601F0DFF91ED10098002802BFD6E997
:102BE000000110B0BDE8F08D01F06DFA07460C460B
:102BF0009B4A9C4B01F0BAFA06460D469A4A9B4BFB
:102C00003846214601F0B2FA10B032462B46BDE8F4
:102C1000F04D00F0ABBF4FF05532954B20462946A2
:102C200001F0A4FA0022934B01F0D4FB06460F46B4
:102C300022462B461046194601F098FA32463B468A
:102C400001F094FA064600980F46F0B101F03BFA05
:102C500080468A46824A834B01F088FA32463B46D8
:102C600001F0B8FB22462B4601F0C0FB05460C469E
:102C70007D4A7E4B4046514601F078FA10B02A4614
:102C80002346BDE8F04D01F0B1BB0B4610B0324613
:102C900020462946BDE8F04D01F0A8BB00224FF0C8
:102CA0008043204600F062FF02460B46204629463C
:102CB00001F018F806460F46009801F004FACDE935
:102CC000040132463B461046394601F04FFA0C905B
:102CD00069480C9A4044019009910B46104601F056
:102CE00045FA8246024665488B46C8F151080B46B4
:102CF00008F5D72803217844FFF722FE52465B46A9
:102D000001F034FA0A905E480D9152465B46042168
:102D10007844FFF715FE099B0C9A01F027FA8446C8
:102D200001980D9B40EA080860460A9A00F01EFFD1
:102D300083460891B8F1000F4EDD4FF0FF32204678
:102D4000294601F0C0FD22462B4601F00FFA8046CD
:102D500000988A4660B3DDE90401414A414B01F025
:102D600005FA099100905A4640465146089B00F0EA
:102D7000FDFE32463B4601F0F9F9099B009A00F04E
:102D8000F5FE4246534601F025FB22462B4601F054
:102D90002DFB04460D46DDE90401334A334B01F0B7
:102DA000E5F910B022462B46BDE8F04D01F01EBB00
:102DB0005A464046089B00F0D9FE32463B4601F099
:102DC000D5F94246534601F005FB10B022462B468A
:102DD000BDE8F04D01F0FEBA009840B3DDE9040112
:102DE0001F4A204B01F0C2F980468A465A462046C7
:102DF0002946089B01F0FAFA32463B4601F0B6F943
:102E00004246534601F0F2FA22462B4601F0EEFA12
:102E100004460D46DDE90401134A144B01F0A6F9FE
:102E200010B022462B46BDE8F04D01F0DFBA0B464C
:102E30005A462046294601F0D9FA32463B4601F06F
:102E400095F910B022462B46BDE8F04D01F0C2BA0C
:102E50000000F07F645F09000000F03F1E3A0000B0
:102E6000763C7935EF39EA3D0000E0FE422EE63F40
:102E70005555D53F0000E03F86EBF9FFB63800001E
:102E8000B43800002DE9F041044630480025814265
:102E900005DA21F00042824201D805D124B1204652
:102EA000BDE8F041FFF7AABDB1F5801F1BDA52EA79
:102EB000040008D000290FDA0120FDF7F7FABDE879
:102EC000F041FFF79EBD0220FDF7F0FAFFF78EFDFF
:102ED00081F00041BDE8F0816FF0350536222046D3
:102EE00001F0F1FC044605EB2150A0F2FF32D00FB7
:102EF00040F2FF331B1A0D4663F31F55104401F0D7
:102F0000E2F806460F4629462046FFF70DFE104A16
:102F1000104B01F02BF904460D460F4A0F4B30467B
:102F2000394601F023F922462B4600F01FFE0546E4
:102F30000C460B4A0B4B3046394601F017F92A462E
:102F40002346BDE8F04100F011BE00000000F07F14
:102F50000EE526157BCBDB3F362BF111F3FE593DF9
:102F600000609F501344D33F10B5FDF7DAFEFFF722
:102F700095F8FEF7AAFAFDF7E7FBFEF7A1FF0020A0
:102F800010BD00002DE9F04105460E4626480768B1
:102F900026480068001D00F095FA50B923480068E3
:102FA00090F82C100120884021490968814320486D
:102FB0000160681CD8B9D6B11E4948681B49096828
:102FC00088601A4982680968CA6018490968091D39
:102FD0008268516015490968091D8160154A1349C5
:102FE00009684A6111460968491C11601AE07C1998
:102FF0000E4800684460BC4207D20C480168091DB5
:103000000D48006800F082FA0CE008480168091DCC
:103010000A48006800F07AFA09480068844201D240
:1030200007480460BDE8F0814C0100203801002011
:10303000500100204C060020400100203C010020EF
:103040006801002010B5044600F086FA2F48006899
:10305000401C2E4908602E48006840B92C48046086
:103060000846006801280DD100F01CF90AE0294843
:10307000006838B926480068C06AE16A884201D809
:103080002348046024480068401C2349086094F8E1
:103090002C10012088402149096808431F49086015
:1030A000E16A01EB81011E4A02EB81014868A060E0
:1030B0008268E260211D826851608160E16A01EBF3
:1030C0008101174A02EB81026261E16A01EB810131
:1030D000134A52F82110491CE26A02EB8202104B9B
:1030E00043F8221000F04AFA0A48006868B108481C
:1030F0000068C06AE16A884207D24FF080500949EF
:103100000860BFF34F8FBFF36F8F10BD48010020E1
:1031100038010020540100206401002050010020EB
:103120009805002004ED00E010B516E000F014FA58
:103130000C48C068C468201D00F0C4F90A48006843
:10314000401E0949086009480068401E0749086098
:1031500000F014FA204600F00BF80448006800283C
:10316000E4D110BD380600204801002044010020B1
:1031700010B50446206B00F011FA204600F00EFA5C
:1031800010BD000030B54FF48053154800F007041F
:103190002CB1C01D20F00700114C041B1B1B024664
:1031A000104C226000240F4D6C60D018083820F0BD
:1031B00007000D4C206000240B4D2D686C600A4DFB
:1031C0002D682C601146441A4C60074C24680C6032
:1031D000064D4C682C60064D4C682C6030BD0000DC
:1031E0006006002078010020800100208801002076
:1031F0008401002000BFFFF797FF06480068012800
:10320000F9D94FF0805004490860BFF34F8FBFF3E6
:103210006F8FF0E79805002004ED00E02DE9F05FE6
:1032200081460E4617469A46DDF828800C9CB90068
:10323000A522206BFDF767F8781E216B01EB800B50
:103240002BF0070B7EB1002507E0715D04F134001F
:103250004155705D00B902E06D1C102DF5D300BF23
:10326000002143200155B8F1050F01D34FF00408A8
:10327000C4F82C80201D00F046F904F1180000F07D
:1032800042F92461C8F10500A061646252464946D2
:10329000584600F005F920600B9808B10B980460BF
:1032A000BDE8F09F10B5002407E004EB84010F4A4D
:1032B00002EB810000F01AF9641C052CF5D30C48D0
:1032C00000F014F90B4800F011F90B4800F00EF96A
:1032D0000A4800F00BF90A4800F008F904480949C7
:1032E000086004480849086010BD000098050020E7
:1032F000FC050020100600202406002038060020CF
:103300004C0600203C0100204001002010B5014681
:10331000164800E0006803688B42FBD3024643680E
:1033200013448B4204D143684C68234443600146F4
:103330000A464B6813440468A34211D10C4C03683D
:103340002468A34208D04B680468646823444B6037
:1033500003681B680B6005E0054B1B680B6001E010
:1033600003680B60884200D0016010BD7801002026
:103370008001002009480068006808B9012000E0C9
:10338000002020B14FF0FF300549086005E00348F8
:103390000068C06800680249086070473C0100206E
:1033A0006801002000BF502080F31188BFF34F8FC9
:1033B000BFF36F8F00BF00BFFEE700002DE9F047AD
:1033C00005464FF0000900F0D5F93048006808B90B
:1033D000FFF7D8FE75B105F00700C0F11008C8F17D
:1033E000FF30A84201D2012000E0002008B9454486
:1033F00000E00025012000EBE570002841D0002D01
:103400003FD02348006885423BD8224E30460468AE
:1034100001E0264624686068A84202D2206800289D
:10342000F7D11A48006884422BD0306800F10809AF
:10343000206830606068401B102807D967196068F1
:10344000401B786065603846FFF760FF1049606890
:103450000968081A0E490860084600680E4909689C
:10346000884203D20A4800680B490860606840F04F
:10347000004060600020206008480068401C074948
:10348000086000F0C5FA4846BDE8F08780010020DA
:103490008401002078010020880100208C01002098
:1034A000001F4FF080730360001F21F001030360D1
:1034B000001F034B0360143802602038704700007F
:1034C000A533000801460A69D1E901309860D1E9C5
:1034D000010358605068884201D18868506000201C
:1034E00008611068401E10601068704700F1080104
:1034F00041604FF0FF31816000F10801C16001615E
:1035000000210160704700210161704710B502463B
:103510000B685C1C0CB9106907E002F1080000E0C0
:103520004068446824689C42FAD944684C604C68FE
:10353000A160886041600A611468641C146010BD59
:1035400042684A6093688B60936859609160086133
:1035500003685B1C0360704700BF502080F3118834
:10356000BFF34F8FBFF36F8F00BF03480068401C4D
:103570000149086070470000940100200648006877
:10358000401E054908600846006820B9002080F305
:10359000118800BF00BF70479401002070B5064637
:1035A0003546E6B1083D2C466068C00FB8B12068CA
:1035B000A8B9606820F00040606000F0DBF80849BE
:1035C000606809680844064908602046FFF79EFEC7
:1035D00004480068401C0349086000F019FA70BDF7
:1035E000840100209001002000204FF0E0210861BC
:1035F0008861024848610720086170473F1901004F
:1036000070B50446002544B100F0B4F8002120460E
:10361000FFF7B8FC00F0FCF905463DB94FF08050CB
:1036200003490860BFF34F8FBFF36F8F70BD000079
:1036300004ED00E070B50546FFF78EFF15B9294887
:10364000006800E028460446201DFFF73BFF78B9DC
:10365000E06A00EB8000244951F8200040B994F85A
:103660002C10012088402149096881431F480160CE
:10367000A06A18B104F11800FFF724FF1C48006885
:10368000401C1B49086017480068844209D1211D6D
:103690001848FFF755FF18480068401C1649086095
:1036A00006E016480068401E14490860FFF762FEF5
:1036B000FFF764FF0B480068844202D02046FFF702
:1036C00057FD0F48006858B106480068844207D18A
:1036D0004FF080500B490860BFF34F8FBFF36F8FDF
:1036E00070BD000038010020980500205001002026
:1036F0006401002038060020440100204801002019
:103700005401002004ED00E01CB5124800210B46D6
:103710004022CDE9001010A1114800F07DF80446C8
:10372000012C14D100BF502080F31188BFF34F8FBC
:10373000BFF36F8F00BF4FF0FF300A4908600120D0
:103740000949086000200949086000F04BF8084862
:1037500000681CBD6C01002049444C45000000007D
:10376000F531000868010020540100204C010020C0
:103770007001002002480068401C01490860704741
:10378000740100201248006818B101201149086036
:103790001DE000200F4908600F480068B0FA80F073
:1037A000C0F11F0101EB81020C4B03EB8200426868
:1037B0005268426000F108024368934202D14268B5
:1037C000526842604268D268054B1A6000BF704779
:1037D000740100205C0100205001002098050020A9
:1037E0003801002010B50A48006840F4700008490C
:1037F00008600846006840F070400860FFF7F4FE7B
:10380000002004490860FCF7F5FC002010BD000012
:1038100020ED00E0940100202DE9FF4F85B08046A7
:1038200089461746DDE912ABB800FFF7C7FD06462B
:1038300076B14C20FFF7C2FD04462CB14C21204646
:10384000FCF78BFD266304E03046FFF7A7FE00E09F
:1038500000247CB10020CDE900ABCDE902403A461E
:1038600049464046089BFFF7D9FC2046FFF7EAFB94
:10387000012501E04FF0FF35284609B0BDE8F08F83
:103880002DE9F04100275748006800287ED15648AE
:103890000068451C544805608DB95448D0F8008034
:1038A00053480068514908605148C0F800805148A9
:1038B0000068401C4F490860FFF75CFD00BF4E48A0
:1038C0000068854276D300BF48480068006808B9A0
:1038D000012000E0002020B14FF0FF304649086091
:1038E00067E042480068C068C4686668B54202D2B2
:1038F000414806605DE06069D4E902128A60D4E95B
:1039000002214A60211D42688A4201D1E16841607A
:10391000002262610168491E0160A06A98B1A06A34
:10392000D4E907128A60D4E907214A6004F118013A
:1039300042688A4201D1216A41600022A262016884
:10394000491E016000BF94F82C10012088402B49CB
:103950000968084329490860E16A01EB8101284AA6
:1039600002EB81014868A0608268E260211D8268E4
:1039700051608160E16A01EB8101214A02EB810221
:103980006261E16A01EB81011D4A00E022E052F828
:103990002110491CE26A02EB8202194B43F8221003
:1039A0001849E06A0968C96A88428DD901278BE7FE
:1039B00000E000BF13480068C06A00EB80001049B7
:1039C00051F82000012800D901270F48006800B1F4
:1039D000012704E00D480068401C0C490860384687
:1039E000BDE8F081740100204C0100203C01002062
:1039F00040010020600100206801002050010020EB
:103A000098050020380100205C01002058010020AA
:103A100070B500240026FFF79FFD4B480068401E4C
:103A2000494908600846006800287DD14748006879
:103A3000002879D05BE04648C068C468A06AD4E931
:103A400007128A60D4E907214A6004F1180142682C
:103A50008A4201D1216A41600022A2620168491EA6
:103A600001606069D4E902128A60D4E902214A60E7
:103A7000211D42688A4201D1E168416000226261F1
:103A80000168491E016094F82C10012088403149DA
:103A9000096808432F490860E16A01EB81012E4A59
:103AA00002EB81014868A0608268E260211D8268A3
:103AB00051608160E16A01EB8101274A02EB8102DA
:103AC0006261E16A01EB8101234A52F82110491C2D
:103AD000E26A02EB8202204B43F822101F49E06A9F
:103AE0000968C96A884202D301201D490860184844
:103AF000006808B9012000E0002000289BD00CB12C
:103B0000FFF738FC1748056865B100BFFFF7B8FE3E
:103B100010B10120124908606D1E002DF6D1002061
:103B2000104908600E4800E009E0006838B101263D
:103B300030070D490860BFF34F8FBFF36F8FFFF75A
:103B40001DFD304670BD00007401002048010020BA
:103B50002406002050010020980500203801002094
:103B60005C0100205801002004ED00E010B591EA4E
:103B7000030F48BF83F0004300F14084841A71EBC7
:103B8000030C05D2121943EB0C03001B61EB0C0173
:103B9000DFF824E14FEA1154A4EB135C1EEA430F53
:103BA00018BF9EEA445F73D023EA0E03DCF1200EB7
:103BB00021EA045143F4801332D322FA0CFE10EBB5
:103BC0000E0023FA0CFE41EB0E01CCF1200E03FA9D
:103BD0000EFE10EB0E0051F10001B1F5801FCCF18B
:103BE000200E32D201EB045112FA0EF2BDE8104061
:103BF00058BF7047401C38BF5FEA420218BF704789
:103C0000002814BF20F0010041F100014FEA4103F8
:103C100013F5001F38BF7047A1F1C04100F09EBBF3
:103C2000012A43EB0302ACF1200CDCF11F0E32BF82
:103C30004FF0000E23FA0CF310EB030041EB04519C
:103C4000B4EB115FD0D0A1EB045101F5801149080C
:103C50005FEA300001EB04510ED350F1000038BF91
:103C600012FA0EFE08D1BDE81040C9E7401C38BF6B
:103C70005FEA4202CAD1C3E7BDE810404FEA410300
:103C800013F5001F38BF7047A1F1C04100F066BBBB
:103C90009EEA445F08D011EA5E0FBDE8104004BF01
:103CA00001F0004100207047BDE8104070B500F001
:103CB00007FB00BF64FBBE3E0000E0FF02494FF07F
:103CC000000000F0CEBD00BF0000F87F491058BFD3
:103CD000C1F140415B1058BFC3F140438B42EFF349
:103CE000008070472DE9C04130B4DFF8A0C23CEA43
:103CF000111418BF3CEA131400F0EC8081EA0305AC
:103D00001CEA111444EAD57418BF1CEA131500F01C
:103D1000C780A4EB05044FF0004545EAC12145EA00
:103D2000C32341EA505143EA525304F17F7499424C
:103D300004F500344FEAC0204FEAC22208BF904287
:103D400000F09C804FEA13650FF24016765D4FEA53
:103D5000134506FB05F7C7F1807706FB07F74FEA27
:103D6000D737A7FB03687642C8F58038A7FB06CE95
:103D700038BFA8F1010807FB08E64FF0000EA6FBCC
:103D8000028CE6FB03CEDCF1000CCEF1004E38BF16
:103D9000AEF1010EA6FB0C584FF000074FF00005E6
:103DA000E6FB0E87A1FB08C6A0FB07CE16EB0E06AE
:103DB00045F10005E1FB076515F1E04E7EBFA4F576
:103DC00080345FEA46066D4116F1800745F1000533
:103DD0004FEA17274FEA066647EA0567A6F1DE466F
:103DE000B6F1805F4FEA15251FD9384624F0010C43
:103DF00005EBC471BCF1FE6F01EB0C1102D8F0BCF5
:103E0000BDE8008124425CBF01F5801E9EEAC47FAC
:103E100002D4F0BCBDE80081244238D4F0BCA1F14A
:103E2000C041BDE8004100F099BA4FEAD22242EA0F
:103E300043524FEAD323A7FB02864FEAD02040EA41
:103E4000415007FB03661EEA0E0F4FEAD12105FB26
:103E5000026658BFA6EB0056B6EB00564FEA520E6C
:103E60004EEAC37E18EB0E0E56EB530EBDD518EB83
:103E700002085E417F1C55F10005B6E74FF480153E
:103E80004FF000074FF000064FF00008ADE7F0BC20
:103E90004FF0000001F1C04101F00041BDE8008198
:103EA00011EA0C1F0CEA131500D00CE013EA0C1FEA
:103EB00000F025804FF00000F0BC81EA030101F022
:103EC0000041BDE80081F0BCBDE8004181EA03018A
:103ED00000F044BAF0BCBDE8004170B500F0F0F964
:103EE000097EFC3E00F007B881EA03014FF00000B4
:103EF00001F00041704781EA030100F02FBAF0BCE5
:103F0000BDE800414FF0000021497047FFFDFBF97B
:103F1000F7F5F4F2F0EEEDEBE9E8E6E4E3E1E0DEFC
:103F2000DDDBDAD8D7D5D4D3D1D0CFCDCCCBCAC86E
:103F3000C7C6C5C4C2C1C0BFBEBDBCBBBAB9B8B795
:103F4000B6B5B4B3B2B1B0AFAEADACABAAA9A8A888
:103F5000A7A6A5A4A3A3A2A1A09F9F9E9D9C9C9B56
:103F60009A99999897979695959493939291919001
:103F70008F8F8E8E8D8C8C8B8B8A89898888878792
:103F80008685858484838382828181800000FF0707
:103F90000000F87F51EA030C17D41CF5801F58BFAE
:103FA000BCF5801F00F10680994218BF704708BF1A
:103FB0009042704707D711F5801F58BF13F5801F37
:103FC00019D499427047894270471CF5801F08D563
:103FD000BCF5801FF7D58B4218BF704708BF8242DF
:103FE00070474FF4001C1CEB410F38BF1CEB430F14
:103FF00001D28B42704770B500F062F992244900FB
:104000004FF000514FF08053FFF760BE4FEA41037D
:104010004FEA5353A3F58063D3F11E03C8BFD3F116
:10402000210C0CDD4FF0004242EAC12242EA50521C
:1040300032FA03FC8CEAE17CACEBE1707047102BA8
:10404000C4BF0020704703F5787CBCF1FF3F04D06B
:104050006FF0004282EA2100704770B500F030F93D
:104060004992248000207047F2E700004FEA115384
:10407000A3F58063D3F11E03A8BFD3F1200C08DBA6
:104080004FF0004242EAC12252EA505232FA03F0A3
:10409000704709420BD4102BC4BF0020704703F5B2
:1040A000787CBCF1FF3F05D04FF0FF3070474FF0F8
:1040B0000000704770B500F003F900BF49922480FA
:1040C00000207047F0E710F0004248BF4042B0FACD
:1040D00080F310FA03F10AD0C3F11D0303F58063E6
:1040E0004FEA415002EB035202EBD12170474FF0EF
:1040F0000000704751EA030C17D41CF5801F58BF0D
:10410000BCF5801F00F10680994218BF704708BFB8
:104110009042704707D711F5801F58BF13F5801FD5
:1041200019D499427047894270471CF5801F08D501
:10413000BCF5801FF7D58B4218BF704708BF82427D
:1041400070474FF4001C1CEB410F38BF1CEB430FB2
:1041500001D28B42704770B500F0B2F8922449004A
:104160004FF000514FF08053FFF7B0BDDFF848C16A
:1041700070B51CEA111E1EBF1CEA13159EEA0C0F37
:1041800095EA0C0F00F06F8081EA030423EA4C13D8
:104190004EEAD47E21EA4C1141F4801143F480139D
:1041A000AE44A1FB024CA0FB0365AEF17F7E361945
:1041B00055EB0C05A1FB034C4CF10003A0FB021CCA
:1041C00016EB0C06654153F10003094218BF46F097
:1041D000010613F4007F0BD14FEA03314FEA05309B
:1041E000340341EA155140EA16506FF003020AE029
:1041F0004FEAC3214FEAC520F40241EA555140EA93
:1042000056506FF0020202EB2E4201EB025585EA96
:10421000CE710AD05FEA440C18BF24F0004450F17C
:10422000000041F1000120EAD47040F2FE7C6245BA
:1042300000D270BDA84214BF4FF080444FF04044FC
:10424000002E08BF0024BEF1806FA8BFA1F1C041BD
:10425000BDE8704080F282804FF0000001F1C04163
:1042600001F0004170479EEA0C0F0CEA131518BFCD
:1042700095EA0C0F06D04FF0000081EA030E0EF015
:10428000004170BD00F01CF88900013E00F007B845
:1042900000F009B84FEA430C5FEA5C5C08D081EAA1
:1042A000030100F05BB84FEA410C5FEA5C5CF6D1B9
:1042B0004FF00000014970470000FF070000F87F41
:1042C0000EF1020E2EF0030E5EF8046B364205D49A
:1042D000012A43EB030515F5001F12D8012841EB15
:1042E000010C1CF5001F0CD80ED14FEAD17C15F53E
:1042F000001F0CEB4C0C0CF1020C08BF4CEBD37CF8
:1043000004E04FF0080C01E04FEAD37C0CEB4C05C5
:1043100026FA05F606F00706B6F1040C06D20EEBF7
:10432000860CBDE870404CF0010C6047DFE80CF0F3
:10433000090B02024FF000414FF00000A1F50021EF
:1043400070BD19461046012851EB010418BFD4F581
:10435000001484BF002001F0004170BD0808A0F5E2
:1043600000114FEA3101704753EA010C17D41CF5D4
:10437000801F58BFBCF5801F00F106808B4218BF1C
:10438000704708BF8242704707D713F5801F58BF98
:1043900011F5801F19D48B4270479B4270471CF562
:1043A000801F08D5BCF5801FF7D5994218BF70470C
:1043B00008BF904270474FF4001C1CEB430F38BFFE
:1043C0001CEB410F01D2994270470FB40CBC03BCE7
:1043D000FFF7C1BE91EA030F10B581F000413FF530
:1043E000CDAB83F0004300F009B8000010B591EAAE
:1043F000030F48BF83F000433FF5C0AB841A71EB55
:10440000030C07D212198CF0004C43EB0C03001B79
:1044100061EB0C01DFF8A4E14FEA1154A4EB135C4B
:104420001EEA430F18BF9EEA445F00F0B08023EA03
:104430006E03524221EA0451C3EB6E0338BF5B1E88
:10444000DCF1200E25D322FA0CFE10EB0E0043FA0D
:104450000CFE41EB0E01CCF1200E03FA0EFE10EB28
:104460000E0051F10001CCF1200E29D412FA0EF207
:1044700001EB0451BDE8104058BF7047401C1CBF01
:10448000B2F1004F704700280CBF491C20F001001A
:10449000704712EB020E43EB030218BF4FF0010E00
:1044A0004EEA4202ACF1200CDCF11E0E54D943FA64
:1044B0000CFE10EB0E0051F1FF31CCF11E0ED5D5E4
:1044C0000EF1010E12FA0EFE404141EB010101EB2B
:1044D000445C5FEA5C5C10D910EBDE7001EB0451C8
:1044E00038BFBEF1004FBDE8104018BF704700282C
:1044F0000CBF491C20F00100704730D24FEAD42C89
:1045000011F5001124F400641BD0B1FA81F20B3ACA
:10451000A41AA41ED2F12003914030FA03F31943E8
:10452000904001EBCC71002C01EB0451BDE8104030
:10453000A8BF704701F1C0414FF0000001F00041F9
:104540007047B0FA80F310FA03F100D110BDE41AFD
:10455000173C4805C90AE4E701EB045110BD4910B6
:1045600001EB0451BDE810404FEA300002E04FF08B
:10457000000170474A0008BF0042F8D0B2F5001FA2
:1045800028BF704701F000414FF0000070479EEADD
:10459000445F07D011EA5E0FBDE8104004BF002160
:1045A00000207047BDE8104070B5FFF789FE00BFDE
:1045B00040DFF63E83F00041104670470000E0FF08
:1045C00043004FEAD30C4FEA3C0C43401FBF400767
:1045D0000CF1605113F0FE4F70471CF0006F03D1D7
:1045E00000200CF0004170470CF0004343EA50708B
:1045F00010B540EACC0000F0E9F800BF00000092DE
:104600004FEA0001FFF7AABE4FF000414FF0000053
:10461000A1F50021704700004FF47F0C1CEAD01276
:104620001EBF1CEAD11392EA0C0F93EA0C0F00F0A4
:10463000858090EA010F48BF42F4807240F4000C7C
:1046400041F400002CF07F4120F07F4000B5814212
:10465000A2EB03020FF2081CACEB504EC0F10000BD
:104660009EF800E04FEA4E0E00FB0EFC38BF4900FA
:104670004FEA2C1C02F5FA020CFB0EF34FEACE1E99
:104680004FEA112C4FEAC1210EEB635E42EB22424E
:104690000EFB0CFC4FEA1C5300FB03114FEA112CDC
:1046A0004FEA01310EFB0CFC4FEADC4C00FB0C1115
:1046B000C14228BF09184CEB03335DF804EB10EB43
:1046C000410143EBC250B2F57C0F38BF704729D58A
:1046D00012F0F00F1CBF00F1C04000F00040704726
:1046E000008182838485868788898B8C8D8E8F91CB
:1046F0009293959697999A9C9D9FA0A2A3A5A7A8EF
:10470000AAACAEB0B2B3B5B7B9BCBEC0C2C5C7C91A
:10471000CCCED1D4D7D9DCDFE2E6E9ECF0F3F7FA7E
:10472000FE0000004FEA400C0CF1807CBCF17E4F93
:1047300028BF7047B0F1C04000F08EB890EA010F7A
:104740000CEAD11348BF42F48072624538BF63451A
:1047500007D213F47F0F16D080EA010000F000406A
:10476000704710B500F032F8097EFC3E00F005B845
:1047700080EA010000F00040704780EA010000F08C
:10478000004000F069B812F47F0F04BF0248704780
:1047900080EA010000F060B80000C07F10F0004126
:1047A00048BF4042B0FA80F310FA03F2C3F19D0310
:1047B0000BD051EAC35101EB1220530638BF7047AA
:1047C00000F1010008BF20F0010070470EF1020E59
:1047D0002EF0030E5EF8044B244204D44FEA41024B
:1047E000B2F17F4F11D84FEA4003B3F17F4F0CD89D
:1047F0000ED14FEAD07CB2F17F4F0CEB4C0C0CF198
:10480000020C08BF4CEBD17C04E04FF0080C01E037
:104810004FEAD17C0CEB4C0324FA03F404F00704B8
:10482000B4F1040C06D20EEB840CBDE810404CF041
:10483000010C6047DFE80CF0070802024FF000406F
:10484000A0F5800010BD0846420018BFD2F180726A
:1048500088BF00F0004010BDFF2141EAD050C005E4
:1048600070470CF00F03092B08BF082000F0598097
:104870000A2B0BD0082B18BF704708BF1CF0400F45
:104880000AD04FF000004FF0000170471CF0400FBD
:1048900018BF4FF0004070471CF0100F08D020F0F8
:1048A000704300F07F4242EAD3014FEA4370704701
:1048B00000F0604021F07F4242EA000201F07F40B8
:1048C00040EA727070474FF0FF0C4CF4E06C1CEA49
:1048D00011531CBF9CEA030C9445C2BFDA4201EBA2
:1048E00002517047002B0DD0BCF1000F0FD0002AF1
:1048F00001F00041A4BF41F0E04141F07F614FF081
:104900000000704701F000414FF00000704750EA8E
:1049100001334FF09B0C18BF4CF0806C7FF4CEA994
:1049200070471CF4801F11D01CF4E02F03D06FEAF5
:10493000CC31490070474FF04050EFF3008222F035
:10494000704242EA000282F3008870474FF0000094
:1049500070470000000000000000000000000000A0
:104960000000000000F800000000000000333000EC
:10497000000000160E00160E0000000000000000EF
:10498000000040C07840C0784000043F04043F0469
:104990000400007088FC08300000001820FF211E71
:1049A0000000F008F000E018000000211C031E21A8
:1049B0001E0000F00888700000001E212324192723
:1049C0002110000000160E00000000000000000092
:1049D0000000000000E0180402000000000718209A
:1049E000400000020418E00000000040201807000A
:1049F0000000404080F0804040000202010F0102B0
:104A00000200000000F0000000000101011F010190
:104A10000100000000000000000000B07000000075
:104A20000000000000000000000000010101010181
:104A30000101000000000000000000303000000014
:104A400000000000000080601804006018060100EB
:104A5000000000E010080810E000000F10202010F7
:104A60000F00001010F8000000000020203F202060
:104A700000000070080808887000003028242221F7
:104A800030000030088888483000001820202011AD
:104A90000E000000C02010F8000000070424243F8E
:104AA000240000F808888808080000192120201137
:104AB0000E0000E0108888180000000F112020115F
:104AC0000E0000380808C83808000000003F000049
:104AD00000000070880808887000001C2221212234
:104AE0001C0000E010080810E00000003122221134
:104AF0000F00000000C0C0000000000000303000C7
:104B00000000000000C0C0000000000080B0700085
:104B1000000000008040201008000001020408107E
:104B2000200040404040404040000404040404048D
:104B3000040000081020408000000020100804023B
:104B40000100007048080808F0000000003036013D
:104B50000000C030C828E810E000071827242314FC
:104B60000B000000C038E0000000203C23020227B8
:104B7000382008F8888888700000203F2020201105
:104B80000E00C03008080808380007182020201040
:104B9000080008F808080810E000203F2020201036
:104BA0000F0008F88888E8081000203F2020232004
:104BB000180008F88888E8081000203F200003004B
:104BC0000000C03008080838000007182020221E06
:104BD000020008F808000008F808203F2101012120
:104BE0003F20000808F8080800000020203F20208F
:104BF000000000000808F8080800C08080807F00DE
:104C0000000008F888C028180800203F2001263836
:104C1000200008F8080000000000203F202020208D
:104C2000300008F8F800F8F80800203F003F003F87
:104C3000200008F830C00008F808203F20000718BE
:104C40003F00E01008080810E0000F10202020109E
:104C50000F0008F808080808F000203F21010101B2
:104C60000000E01008080810E0000F182424385055
:104C70004F0008F8888888887000203F2000030CC7
:104C800030200070880808083800003820212122D0
:104C90001C00180808F8080818000000203F200031
:104CA000000008F808000008F808001F2020202055
:104CB0001F000878880000C83808000007380E0177
:104CC0000000F80800F80008F800033C0700073C63
:104CD0000300081868808068180820302C03032C13
:104CE00030200838C800C83808000000203F2000E5
:104CF000000010080808C8380800203826212020A5
:104D00001800000000FE020202000000007F404088
:104D10004000000C30C00000000000000001063818
:104D2000C00000020202FE000000004040407F0080
:104D300000000020100804081020000000000000FF
:104D40000000000000000000000080808080808063
:104D50008080000204080000000000000000000045
:104D600000000000808080800000001924222222A0
:104D70003F2008F8008080000000003F1120201133
:104D80000E000000008080800000000E1120202016
:104D90001100000000808088F800000E1120201013
:104DA0003F200000808080800000001F22222222FD
:104DB0001300008080F0888888180020203F202081
:104DC00000000000808080808000006B94949493A9
:104DD000600008F8008080800000203F2100002053
:104DE0003F2000809898000000000020203F2020F5
:104DF0000000000000809898000000C08080807F44
:104E0000000008F8000080808000203F24022D3040
:104E10002000000808F8000000000020203F2020AB
:104E200000008080808080808000203F20003F2024
:104E3000003F008080008080000000203F21002093
:104E40003F200000808080800000001F2020202064
:104E50001F00808000808000000080FFA1202011C2
:104E60000E000000008080808000000E112020A035
:104E7000FF80808080008080800020203F212000F3
:104E800001000000808080808000003324242424DE
:104E90001900008080E0808000000000001F2020BA
:104EA00000008080000000808000001F2020201073
:104EB0003F20808080000080808000010E30080646
:104EC000010080800080008080800F300C030C3057
:104ED0000F0000808000808080000020312E0E3185
:104EE0002000808080000080808080818E70180685
:104EF000010000808080808080000021302C2221F1
:104F0000300000000000807C020200000000003F32
:104F1000404000000000FF00000000000000FF0013
:104F200000000002027C800000000040403F0000C2
:104F30000000008040408000008000000000000170
:104F400001000000000000000000002F0000000031
:104F50000700070000147F147F1400242A7F2A1200
:104F600000231308646200364955225000000007F0
:104F7000000000001C224100000041221C0000141F
:104F8000083E08140008083E0808000000A0600061
:104F900000080808080800006060000000201008F1
:104FA0000402003E5149453E0000427F400000425D
:104FB00061514946002141454B31001814127F10C0
:104FC000002745454539003C4A49493000017109EF
:104FD000050300364949493600064949291E0000A3
:104FE000363600000000563600000008142241004A
:104FF000001414141414000041221408000201517A
:105000000906003E4955592E007C1211127C007F82
:1050100049494936003E41414122007F4141221C1D
:10502000007F49494941007F09090901003E414982
:10503000497A007F0808087F0000417F4100002076
:1050400040413F01007F08142241007F4040404022
:10505000007F020C027F007F0408107F003E414168
:10506000413E007F09090906003E4151215E007F53
:10507000091929460046494949310001017F0101CA
:10508000003F4040403F001F2040201F003F40386D
:10509000403F0063140814630007087008070061AC
:1050A0005149454300007F4141000002040810209F
:1050B000000041417F000004020102040040404022
:1050C0004040000001020400002054545478007F46
:1050D0004844443800384444442000384444487F1D
:1050E00000385454541800087E0901020018A4A482
:1050F000A47C007F080404780000447D4000004048
:1051000080847D00007F102844000000417F400023
:10511000007C04180478007C0804047800384444B7
:10512000443800FC242424180018242418FC007C93
:105130000804040800485454542000043F4440200C
:10514000003C4040207C001C2040201C003C4030A3
:10515000403C004428102844001CA0A0A07C00442F
:1051600064544C440000087F41000000007F0000B0
:105170000000417F0800000804081008EFBC8C0004
:10518000000000000000000000000000000000001F
:10519000000058380000000000000000000000007F
:1051A000E38082000000000000000000000000001A
:1051B0000000000000001824241800000000000077
:1051C00000000000E4BDA000008060F80740201847
:1051D0000F08C80808281800010000FF00100C0381
:1051E00040807F0001061800E5A5BD001010F01FEB
:1051F00010F000808282E2928A86800040221508A8
:105200001661000040807F0000000000E4B89600B6
:10521000202020FE2020FF202020FF202020200012
:105220000000007F40404744444447404040000065
:10523000E7958C00000000FE929292FE929292FE00
:105240000000000008080484621E010001FE020440
:105250000408080000000000FF01010131090909EC
:1052600009897101010101FFFF80808080808096A3
:1052700081808080808080FFFF01818181FD899114
:10528000A1C1FD81818101FFFF808080809F888492
:1052900082819F80808080FF000000000080C0E04D
:1052A000F0F8F8FCFCFCFEFEFEFEFEFEFEFEFCFC42
:1052B000FCF8F0F0E0C080000000000000E0FCFE20
:1052C000FFFFFFFFFFFFFF0FCFFFFFFFFFFF0FEF0E
:1052D000FFFFFFEFEFFFFFFFFFFFFEF8C000000042
:1052E0001FFFFFFFFFFFFFFFFF83F8FDFDFDFDBD7B
:1052F00081FCFFFF9F80FEFFFFFFFFFFFFFFFF1FFF
:105300000000000000030F1F3F7F7FFFFFFFFFFF34
:10531000FFFFFFFFFFFFFFFFFFFFFFFFFFFFFFFF9D
:10532000030000000000000000000000000000007A
:105330000101030303030303030303030303030341
:1053400003030300000000FF01818101010109F94D
:105350000101FD05010101818101FFFF0000E1471D
:10536000A4A0A0AFA0A0AFA0A0AC47E10000FF0F99
:1053700008080808080808080808080808080808AD
:1053800008080FFF01391129292929292929292943
:10539000292929113901FFFF00000040701C070076
:1053A0003C7E0000061C30600000FF0F0808080863
:1053B00008080808080808080808080808080FFF6F
:1053C00001012111F91121010101010101F901017D
:1053D0000101FFFF0000C0405F4040C00000C0442A
:1053E000485F48C40000FF0F0809090909090909B5
:1053F000090909090909090909080FFF01E111094A
:1054000085C5652525252565C5850911E101FFFFB0
:10541000007F800007000030381C06000007008075
:105420007F00FF0F080808090A0A0A0A0A0A0A0A7E
:105430000A0A090808080FFF011DFDFDF9F9F9F92D
:10544000F1F1F1E1E1E1C1C18101FFFF0000033FA2
:10545000FFFFFFFF7F1F0707030303010000FF0F8C
:1054600008080808090B09090808080808080808B6
:1054700008080F0000FC3C1C0C040404F4F4F4E4E1
:10548000E4CC9C3CFC00000000FFC0800000000059
:10549000FFFFFF7F3F1F8FC0FF00000000030303DB
:1054A00003030202020202020203030303000000DC
:1054B00000001838B0C0E0E06C6CE0E0C0B0381814
:1054C00000000000000686C0DF3F797060607079E0
:1054D0003FDFC08606000000000001010000000060
:1054E0000303000000000101000000000000008034
:1054F0000000FCFC0000FCFC00008000000000003C
:1055000000060F1F0F0FFFFF0000FFFF0F0F1F0F01
:105510000600000000000000000003030000030379
:1055200000000000000000000000000000187CFCEB
:10553000FCFCFC7C180000000000000006060606CB
:105540000686E6F6F6F6F6E6860606060606000087
:105550000000000000010303030303030100000037
:10556000000000000000FCFC040404040404040C1B
:10557000183060C0800000000000FFFF00FFFFD374
:10558000FBDBFBEBFFFF00FFFF000000000003035D
:1055900002020202020202020202020301000000F1
:1055A0000080F0F8F878F8F0F0F0F0F8F878F8F01B
:1055B00080000000007FFFFFFEF87E3E3F3F3F7D02
:1055C000FFF7FFFD3F0000000000010101000000A7
:1055D0000000000000010101000000FF01FD0515B1
:1055E000B5B585B5B5B5B5B5A5858585858585057B
:1055F00005FD05F5151515151515151515151515B3
:10560000151515151515151515151515151515154A
:10561000151515151515151515151515151515153A
:10562000151515151515F505FD01FFFF00FF0063A4
:10563000949464046464640464646424246464036B
:1056400000FF00FF000000000000007F020C107F40
:10565000007F0808087F007F0909090600003E4115
:105660004141413E00064949494949310000000095
:10567000000000000000FF00FF00FFFF00FF001817
:10568000A4A41800181800181808181818180000F2
:1056900000FF0007040404040404040404040404D4
:1056A00004040404040404040404040404040404BA
:1056B000040404047454D40414F41404F424F4040A
:1056C0005454F404D4547700FF00FFFF00FF00C3DC
:1056D0002424C300C38003C3C3C143C28383030024
:1056E00000FF0000000000000000000000000000BB
:1056F000000000E494949800788484780000FC20F2
:10570000500000207121010078959460011C11FC6B
:10571000110101FC21510100FF00FFFF80878484FB
:105720008585848484848484848484848484848437
:1057300084878484848484B4B4B4B4B4B4B4B4B476
:10574000B4B4B4B4B4B4B4B4B4B4B4B4B4B4848479
:105750008484848484848484848484848484848409
:1057600084848484848484848780FF0098F6120073
:1057700000001E0EC040404040404040404040407D
:105780004040404040404040404040404458505CD1
:10579000505C5848444040404040404040404C5895
:1057A000505C505C50584C40404040404040C0002D
:1057B000007E1000000000BCE0000000818700FEB9
:1057C000FEFEC0C0FF00FF02FAFADADADADADADA4D
:1057D000FAFA02FF000000FF010101010101090DB9
:1057E0000D0D0D0901010101010101010101010975
:1057F0000D0D0D0D0901010101010101FF00FFC0A7
:10580000C0FEFEFE0000477D00000000FF81003F5B
:105810003F3F0101FF80BF90979796969696969688
:10582000979790BF808080BFA0A0A0A0A8ACA8A0A0
:10583000A0A0A0A0A0A0A0A0A0A8ACA8A0A0A0A04C
:10584000A0A0A0A0A0A8ACA8A0A0A0A0BF80FF017D
:10585000013F3F3F000000FE000000FC04A4A4A4A0
:10586000A4A40404E424242424246444C484040458
:10587000FC00000000000000F0180C0600FE000E06
:1058800038E00000000098FC0600FE000E98F000D2
:105890000000C0701E00FE001E70C00000000C085A
:1058A000F8000004FC0000711F0000FF8092969435
:1058B000969480809F909090909098888887808020
:1058C000FF000000000000000100000000070000D1
:1058D00000030000000001000000030000010000C0
:1058E00000000300000003000000030000000000AF
:1058F0007F00000E1B600000000000FF010181819D
:105900008181818181010101010101010101010107
:105910000101014141414141C18181010101010177
:105920000101010101010101010101010101010167
:10593000010101010101010101010101FF01FD0559
:10594000050525F525050505FD01FFFF0000EFEF25
:10595000EFEFEFEFEFE7E2E0E0E0E0E0E0E0E0E0F3
:10596000E0E0E0C08505051B32063D010E38000071
:1059700000000000000000003844C4544444445473
:10598000C44438000000000000000000FF00F714CD
:10599000141414D514141414F700FFFF0000FBFBBB
:1059A000FBFBFBFBFBFBFBFBFBFBFBFB7323030397
:1059B00003030301000000000000000000000000DD
:1059C00000F804F8213F2121313939393121393D9D
:1059D00021393121213F217C827C0000FF00EF280A
:1059E00028A8292B29282828EF00FFFF00003E3E89
:1059F0003E3E3E3E3E3E3E3E3E3E3E3E3E3E3E3EC7
:105A00003E3E3E3E3E3E3E3E3E3E1C0800000808F6
:105A1000000A0B0A0A02000404040404080A0A0A21
:105A2000050500020606060509090804FF00DF5007
:105A30005153515151515150DF00FFFF81BDA5A578
:105A4000A5A5A5A5A5A5A5A5A5A5A5A5A5A5A5A506
:105A5000A5A5A5A5A5A5A5A5A5A5A5A5A5A5A5A5F6
:105A6000A5A5A5A5A5A5A5A5A5A5A5A5A5A5BD81F2
:105A7000BDA5A5A5A5A5A5A5A5A5BD81FF80BFA080
:105A8000A4A4A4A4A4AEA4A0BF80FFFF0101F909AF
:105A9000090909F901017989A9A9A9A9A9A989A9C6
:105AA000A9A989A9A9A9A9A9A989F901010101019E
:105AB00001010101010101010101010101010101D6
:105AC00001010101010101010101010101010101C6
:105AD00001010101010101010101FFFF0000F909BC
