:020000040800F2
:1000000050270020690200083D230008E51300087E
:10001000F9180008A10D000855360008000000007E
:10002000000000000000000000000000D1010008F6
:10003000A50D00080000000015020008012B0008B3
:10004000830200088302000883020008830200087C
:10005000830200088302000883020008830200086C
:10006000830200088302000883020008830200085C
:10007000830200088302000883020008830200084C
:10008000830200088302000883020008830200083C
:10009000830200088302000883020008830200082C
:1000A000830200088302000883020008830200081C
:1000B0004D2C0008830200080000000083020008A5
:1000C0008302000800000000000000008302000816
:1000D0000000000083020008830200080000000006
:1000E00083020008830200088302000800F002F87F
:1000F00000F05EF80AA090E8000C82448344AAF164
:100100000107DA4501D100F053F8AFF2090EBAE861
:100110000F0013F0010F18BFFB1A43F0010318473B
:10012000E8790000087A00000A444FF0000C10F84B
:10013000013B13F0070408BF10F8014B1D1108BF65
:1001400010F8015B641E05D010F8016B641E01F805
:10015000016BF9D113F0080F1EBF10F8014BAD1C55
:100160000C1B09D16D1E58BF01F801CBFAD505E073
:1001700014F8016B01F8016B6D1EF9D59142D6D3CD
:10018000704700000023002400250026103A28BFF5
:1001900078C1FBD8520728BF30C148BF0B607047F9
:1001A0001FB59DE8030000F08FF91FBD10B510BD0D
:1001B00000F04EFA1146FFF7F3FF03F0B3FD00F035
:1001C0006CFA03B4FFF7F2FF03BC00F09DFA0000E5
:1001D000224B19680868B0E8F00F80F30988BFF374
:1001E0006F8F4FF0000080F311884EF00D0E7047B6
:1001F0000000000006480068006880F3088862B6C6
:1002000061B6BFF34F8FBFF36F8F00DF00BF00BF3A
:1002100008ED00E0EFF30980BFF36F8F0F4B1A6812
:1002200020E9F00F106008B54FF0500080F31188FE
:10023000BFF34F8FBFF36F8F04F004FC4FF000004B
:1002400080F31188BDE8084019680868B0E8F00F2D
:1002500080F30988BFF36F8F704700BF64010020EF
:10026000EFF30580704700000948804709480047C0
:10027000FEE7FEE7FEE7FEE7FEE7FEE7FEE7FEE756
:10028000FEE7FEE704480549054A064B70470000B3
:10029000352B0008ED000008501D002050270020DD
:1002A000502200205022002070B5064600F0F0F8E1
:1002B000056806F10B0020F00704B4429CBF002043
:1002C00070BD2B466A68BAB11068A04210D304F121
:1002D000080188423CBF5068586007D35168101924
:1002E00041601168091B016058601460101D70BDE9
:1002F00013465268002AE7D12146284600F0D0F87C
:100300000028DED170BD40EA010310B59B070FD174
:10031000042A0DD310C808C9121F9C42F8D020BA75
:1003200019BA884201D9012010BD4FF0FF3010BD2D
:100330001AB1D30703D0521C07E0002010BD10F8FB
:10034000013B11F8014B1B1B07D110F8013B11F8C1
:10035000014B1B1B01D1921EF1D1184610BD032A7F
:1003600040F2308010F0030C00F0158011F8013BD2
:10037000BCF1020F624498BF11F801CB00F8013BB9
:1003800038BF11F8013BA2F1040298BF00F801CB7D
:1003900038BF00F8013B11F0030300F0FD80083A7C
:1003A000C0F0088051F8043B083A51F804CBA0E8AB
:1003B0000810F5E7121D5CBF51F8043B40F8043B00
:1003C000AFF30080D20724BF11F8013B11F801CB35
:1003D00048BF11F8012B24BF00F8013B00F801CB06
:1003E00048BF00F8012B704702F0FF0343EA0322E5
:1003F00042EA024200F002B84FF000020429C0F0C5
:10040000128010F0030C00F01B80CCF1040CBCF146
:10041000020F18BF00F8012BA8BF20F8022BA1EB98
:100420000C0100F00DB85FEAC17C24BF00F8012B7D
:1004300000F8012B48BF00F8012B70474FF0000275
:1004400000B5134694469646203922BFA0E80C50CA
:10045000A0E80C50B1F12001BFF4F7AF090728BFA5
:10046000A0E80C5048BF0CC05DF804EB890028BF21
:1004700040F8042B08BF704748BF20F8022B11F04A
:10048000804F18BF00F8012B7047704770477047C6
:1004900000487047F41C0020704770477047704751
:1004A00038B504460A4600206946AFF300800028AC
:1004B00008BF38BD02460099204600F0A7F8012089
:1004C00038BD012000F0BCB8F8B5AFF30080054698
:1004D00000200C46102000BF0646A819A0420DD9E6
:1004E000324669460020AFF30080070008BF00F0E5
:1004F000A7F80098A04218BF0546C419FFF7C8FF27
:1005000005600746F01D20F007004619284600F058
:100510000AF8B44208BFF8BDA21B31463868BDE8EE
:10052000F84000F073B800210160C0E90110704785
:100530001020704770B50446051FFFF7A9FF00683B
:10054000002C14BF446870BD002C18BFAC423CBFE7
:1005500020466468F8D301680A18AA4218BF4560AB
:1005600003D12A6805461144016028684119A14257
:100570001CBF6C6070BD61686960216808442860B8
:1005800070BD10B500F03EF8006810BD10B504460F
:1005900000F038F8046010BD10B5203AC0F00B80B0
:1005A000B1E81850203AA0E81850B1E81850A0E877
:1005B0001850BFF4F5AF5FEA027C24BFB1E81850D1
:1005C000A0E8185044BF18C918C0BDE810405FEA41
:1005D000827C24BF51F8043B40F8043B08BF7047BD
:1005E000D20728BF31F8023B48BF11F8012B28BFC2
:1005F00020F8023B48BF00F8012B704700487047C5
:10060000EC1C002000487047EC1C002003464068AA
:100610008C46002818BF88423CBF03464068F8D388
:1006200018681844884207D00CF1030020F0070036
:10063000001D411A521A0146081D0A60FFF77ABFD1
:1006400010B500F039F8BDE8104000F02FB8704741
:100650007546FFF7D3FFAE4605006946534620F0C6
:100660000700854618B020B5FFF70CFEBDE8204016
:100670004FF000064FF000074FF000084FF0000B5E
:1006800021F00701AC46ACE8C009ACE8C009ACE811
:10069000C009ACE8C0098D46704710B50446AFF3F9
:1006A00000802046BDE81040FFF78BBD002801D038
:1006B00000F02AB87047000010B5012805D00021CD
:1006C00003A000F027F8012010BD09A1F8E7000001
:1006D00053494752544D454D3A204F7574206F662B
:1006E0002068656170206D656D6F72790000000093
:1006F0003A2048656170206D656D6F727920636F77
:10070000727275707465640001491820ABBEFEE713
:100710002600020070B505460C460A2000E06D1C5C
:1007200000F011F835B128780028F8D102E0641CF7
:1007300000F009F814B120780028F8D1BDE8704025
:100740000A20AFF3008008B569468DF80000032049
:10075000ABBE08BD10B50C480078032801D100F0ED
:100760006FF909480078022801D100F0DBF806484B
:100770000078012801D100F009F803480078052825
:1007800001D100F095F810BD4B00002010B500F02D
:100790000BF8034801680348007802F0A1FC10BD83
:1007A000480100204800002010B5012001F072F837
:1007B00001280FD10221314800F0F0FA30490968D0
:1007C00088683049097801F0B4F92F4908600120A0
:1007D00001F046F8022001F05DF8012817D12B48FE
:1007E0000078401E29490870294908782749097866
:1007F00000F052F82549087008460178254800683D
:1008000001F081F91E490860022001F029F8032057
:1008100001F040F8012817D11C480078401C1B4902
:1008200008701B4908781949097800F035F817490C
:100830000870084601781748006801F064F910490B
:100840000860032001F00CF8012001F023F80228D1
:1008500009D0022001F01EF8022804D0032001F084
:1008600019F8022808D1012000F0FAFF022000F058
:10087000F7FF032000F0F4FF10BD00004B00002044
:100880004C000020490000205000002048000020BB
:1008900041010020480100200246914201DD10463E
:1008A0007047002901DC0120FAE70846F8E700005C
:1008B00010B500F007F80249087802F04BFD10BDB2
:1008C000BC00002010B5012000F0E4FF012809D091
:1008D000022000F0DFFF012804D0032000F0DAFF3F
:1008E000012811D101210D4800F058FA01210C48CE
:1008F00000F054FA012000F0B3FF022000F0B0FF36
:10090000032000F0ADFF08E0012000F0A9FF022065
:1009100000F0A6FF032000F0A3FF10BD4B00002055
:100920004900002070B500F011F80648006884689E
:1009300004480068C5682A7821460348007802F018
:1009400013FC70BD4C0000204900002010B5384851
:100950000068C468012000F09DFF012806D1032132
:10096000344800F01BFA012000F07AFF012000F06B
:1009700091FF02280AD101212E4800F00FFA01212F
:100980002D4800F00BFA012000F06AFF022000F071
:1009900081FF012816D128480078401E264908709A
:1009A00020780978FFF778FF234908702049096803
:1009B00088682149097801F0BCF8204908600220C4
:1009C00000F04EFF032000F065FF012816D11A4801
:1009D0000078401C1849087020780978FFF75CFF00
:1009E000154908701249096888681349097801F0A7
:1009F000A0F812490860032000F032FF012000F047
:100A000049FF022809D0022000F044FF022804D048
:100A1000032000F03FFF022808D1012000F020FF52
:100A2000022000F01DFF032000F01AFF10BD00009F
:100A30004C0000204B000020490000205000002006
:100A400010B500F003F800F019F810BD10B50A4811
:100A50000068047A012C04D0022C08D0032C09D1A0
:100A600002E000F019F905E000F054F902E000F0AE
:100A70004BF800BF00BF10BD5000002070B586B01D
:100A80001F480068057A012D04D0022D1BD0032DCC
:100A900033D10AE01A4800680469266818490968D1
:100AA0004868314602F064FD27E015480068046993
:100AB000606800680590124A21681268506805AAAB
:100AC00002F090FD19E00E48006804692068006893
:100AD0000590606800680490A0680068039026692B
:100AE000084800780649CDE90060096803AB04AA0C
:100AF000486805A902F06AFC00BF00BF06B070BDDF
:100B0000500000204A00002070B5012000F0C2FE15
:100B100002280AD102212D4800F040F901212C4879
:100B200000F03CF9012000F09BFE022000F0B2FE34
:100B3000012804D100F080F8022000F091FE03208B
:100B400000F0A8FE012804D100F046F8032000F0D0
:100B500087FE022000F09EFE022814D11D48006886
:100B60000469257B5DB11A480078401E1849087059
:100B7000084601780320FFF78FFE15490870022010
:100B800000F06EFE00BF032000F084FE022814D1A6
:100B9000104800680469257B5DB10D480078401C51
:100BA0000B490870084601780320FFF775FE0849D5
:100BB0000870032000F054FE00BF012000F06AFE20
:100BC000012801D100F04CFE70BD00004B00002058
:100BD0004A0000205000002030B5154C24682269DE
:100BE000106853689168134C2478012C04D0022CAF
:100BF0000DD0032C1AD10EE00468641C0460046854
:100C00001D68AC4202DD0468641E04600EE01C68CE
:100C1000641C1C600AE00C68641C0C600C680568AD
:100C2000AC4202DD0C68641E0C6000BF00BF30BD2A
:100C3000500000204A00002030B5154C246822697D
:100C4000106851689368134C2478012C04D0022C4E
:100C50000DD0032C1AD115E00468641E04600468EA
:100C60001D68AC4202DA0468641C04600EE00C6883
:100C7000641E0C600C680568AC4202DA0C68641CE7
:100C80000C6003E01C68641E1C6000BF00BF30BD28
:100C9000500000204A00002070B51C48006804691C
:100CA0002568012000F0F6FD022806D1022118482F
:100CB00000F074F8012000F0D3FD022000F0EAFDFE
:100CC000022806D10121284600F068F8022000F031
:100CD000C7FD032000F0DEFD022806D100212846D2
:100CE00000F05CF8032000F0BBFD022000F0D2FD14
:100CF000012804D0032000F0CDFD012805D10220F9
:100D000000F0AEFD032000F0ABFD70BD50000020F0
:100D10004B00002010B5012000F0BCFD022806D1D8
:100D20000221174800F03AF8012000F099FD012057
:100D300000F0B0FD012809D0022000F0ABFD012831
:100D400004D0032000F0A6FD012808D1012000F006
:100D500087FD022000F084FD032000F081FD0220C9
:100D600000F098FD022804D0032000F093FD022833
:100D700005D1022000F074FD032000F071FD10BDCC
:100D80004B00002010B504460121204600F0BBFEB8
:100D90000149086010BD00004C0000200170704740
:100DA00000BFFEE77047000010B5044600BF0B48C7
:100DB00000780028FBD1A1B24FF0804002F079F812
:100DC0000121880701F05EFF00BF04480078002879
:100DD000FBD000200149087010BD00001A0000205F
:100DE00030B5044604254FF4302000F06FF8054676
:100DF000042D17D10C48006940F002000A4908612F
:100E000008464461006940F0400008614FF430201A
:100E100000F05CF805460448006941F6FD710840A1
:100E200001490861284630BD0020024004200B49DA
:100E3000C96801F0010109B101200EE00749C96844
:100E400001F0040109B1022007E00449C96801F07A
:100E5000100109B1032000E0042070470020024087
:100E60000348006940F080000149086170470000B4
:100E70000020024070B504460D460426F00200F042
:100E800025F80646042E11D10948006940F00100FA
:100E9000074908612580F00200F018F8064604486A
:100EA000006941F6FE71084001490861304670BD95
:100EB00000200240024803494860034848607047E8
:100EC0002301674500200240AB89EFCD00B5024603
:100ED0000423FFF7ABFF034603E0FFF7A7FF03463A
:100EE000521E012B01D1002AF7D102B90523184661
:100EF00000BD000010B580220749084800F03AF80C
:100F0000054800884AF6BB21884201D000F0A6F8C7
:100F100000F044F810BD0000D8010020007D00085A
:100F200010B54FF4807204490448FFF7ECF908B19A
:100F3000002010BD0120FCE7D8020020D8010020CD
:100F400010B50446FFF7B6FF2046FFF749FFFFF74D
:100F500087FF10BD10B5FFF7E3FF08B900F07EF87A
:100F6000802202490248FFF7FAF910BDD80100209B
:100F7000D802002030B503460C461546002207E093
:100F800003EB420000F007F824F81200501C82B274
:100F9000AA42F5DB30BD01460888704700B58022C3
:100FA0001E491F48FFF7E6FF1C4800881D490880BE
:100FB0001A4840881C490860184800791B49087085
:100FC000164880791A4908701448007A194908703F
:100FD00012484089184908601048007B174908707A
:100FE0000E48C089164908600C48008A15490860F7
:100FF0000A48408A144908600848007D134908706F
:101000000648807D124908700448007E1149087026
:101010000248408B1049086000BD0000D801002044
:10102000007D000814000020F8000020B700002018
:10103000B8000020B9000020C8000020B300002044
:10104000D4000020E0000020EC000020B4000020CC
:10105000B5000020B6000020BC00002010B503F051
:1010600067FB1A48FFF76CFF194800881949088088
:101070001948008848801948007888801848007806
:10108000C8801848007808811748008848811748A8
:101090000078888116480088C88116480088088230
:1010A00015480088488215480078888214480078DE
:1010B000C882144800780883134800884883802237
:1010C000024800F023F803F045FB10BD007D000846
:1010D00014000020D8010020F8000020B7000020F4
:1010E000B8000020B9000020C8000020B300002094
:1010F000D4000020E0000020EC000020B40000201C
:10110000B5000020B6000020BC0000202DE9F04111
:1011100005460E461746002407E036F8141005EB86
:10112000440000F006F8601C84B2BC42F5DBBDE868
:10113000F08170B504460D46FFF7BCFE29462046F7
:10114000FFF798FEFFF78CFE70BD000008B5012187
:10115000042001F0E7FB4FF48070ADF80000182088
:101160008DF8030003208DF802006946014800F065
:1011700003F808BD000801402DE9F04102460025B2
:101180000026002000230024002791F803C00CF063
:101190000F0591F803C00CF0100CBCF1000F03D048
:1011A00091F802C04CEA050591F800C0BCF1000FAF
:1011B00031D0146800202BE04FF0010C0CFA00F342
:1011C000B1F800C00CEA03069E4220D183004FF024
:1011D0000F0C0CFA03F7BC4305FA03FC4CEA0404B9
:1011E00091F803C0BCF1280F06D14FF0010C0CFAA6
:1011F00000FCC2F814C00AE091F803C0BCF1480F2B
:1012000005D14FF0010C0CFA00FCC2F810C0401CD4
:101210000828D1D31460B1F800C0BCF1FF0F34DD51
:10122000546800202EE000F1080C4FF0010808FA85
:101230000CF3B1F800C00CEA03069E4221D18300F2
:101240004FF00F0C0CFA03F7BC4305FA03FC4CEA11
:10125000040491F803C0BCF1280F05D100F1080C7B
:1012600008FA0CF8C2F8148091F803C0BCF1480FDA
:1012700007D100F1080C4FF0010808FA0CF8C2F889
:101280001080401C0828CED35460BDE8F08110B512
:1012900000F07EF8FFF75AFF00F004F800F038F88D
:1012A00010BD000008B50121042001F03BFB012125
:1012B000082001F037FB0220ADF8000048208DF82F
:1012C000030003208DF8020069460F48FFF754FF22
:1012D0000120ADF8000048208DF8030003208DF8B0
:1012E000020069460848FFF747FF0120ADF80000FB
:1012F00048208DF8030003208DF80200694603485A
:10130000FFF73AFF08BD0000000C01400008014053
:1013100008B50121480501F0F5FA0121082001F086
:1013200001FB1C208DF80300C020ADF80000032055
:101330008DF8020069460248FFF71EFF08BD000055
:10134000000C01400246002093680B400BB10120C5
:1013500000E00020704741617047000010B5022195
:101360000148FFF7EFFF10BD000C014010B501214F
:101370000148FFF7E7FF10BD000C014010B5012147
:101380000148FFF7DFFF10BD000801400161704711
:1013900008B50121042001F0C5FA4FF48050ADF8E2
:1013A000000014208DF8030003208DF80200694628
:1013B0000148FFF7E1FE08BD0008014010B50446F2
:1013C00034B1012C0AD101030548FFF7DFFF05E026
:1013D0004FF480510248FFF7BEFF00BF00BF10BDB1
:1013E0000008014000BFFEE770B50246002400255A
:1013F00000230020958A138B1B0445EA030626F080
:101400007F4404EA01068E4201D1012000E0002061
:1014100070BD002221F07F42D3438382704721B107
:10142000028842F00102028004E002884FF6FE7357
:101430001A400280704721B1028842F48072028013
:1014400004E002884FF6FF631A400280704721B122
:10145000028842F40072028004E002884FF6FF53D3
:101460001A40028070470CB5024600200023019309
:10147000009300920B0F019321F07F41019B1BB160
:10148000009B1433009303E0090C009B1833009376
:10149000009B1B680B400BB1012000E000200CBD3D
:1014A0002DE9F04385B004460D460026B1460427D9
:1014B000DFF8CC80A6884FF6C0700640684601F081
:1014C00041FADDF808802F48B8FBF0F01FFA80F9E8
:1014D00046EA0906A68020884FF6FE710840208063
:1014E00000262949286888420CD828684000B8FBA3
:1014F000F0F087B2042F00DA04273E4309F101001F
:10150000208427E0E8884BF6FF71884206D12868DE
:1015100000EB4000B8FBF0F087B209E0286800EB70
:10152000C00101EB0010B8FBF0F087B247F4804730
:10153000C7F30B0008B947F0010747F40040064322
:101540004FF4967009FB00F04FF47A7190FBF1F0C4
:10155000401C2084A683208840F00100208026883B
:101560004FF6F5300640A88869890843064326806F
:10157000A88929890843208105B0BDE8F0830000CF
:1015800000127A0040420F00A086010012B141F023
:10159000010102E04FF6FE7319400182704701829B
:1015A0007047000010B5044601211348FFF743FFC0
:1015B0001249114800F05EF8002278210E48FFF72A
:1015C000E5FF0F490C4800F055F800210A48FFF7E5
:1015D000E6FF0B49891C084800F04CF821460648F4
:1015E000FFF7DDFF0649891E034800F043F801219B
:1015F0000148FFF72CFF10BD00540040010003001C
:101600008200070070B505460E4601211648FFF717
:1016100012FF1649144800F02DF8002278211248D4
:10162000FFF7B4FF1249104800F024F840210E489B
:10163000FFF7B5FF0E49891C0B4800F01BF800248A
:101640000AE0295D0848FFF7AAFF0949891E0648F4
:1016500000F010F8601CC4B2B442F2DB0121024871
:10166000FFF7F5FE70BD00000054004001000300CC
:101670008200070070B504460D4641F2883633E01B
:101680001D492046FFF7EFFE28B11B492046FFF712
:10169000C0FE022070BD19492046FFF7E4FE28B1C4
:1016A00016492046FFF7B5FE0320F3E7144920460C
:1016B000FFF7D9FE28B112492046FFF7AAFE042001
:1016C000E8E710492046FFF7CEFE28B10D49204635
:1016D000FFF79FFE0520DDE7301EA6F1010603D1CE
:1016E00000F012F80020D5E729462046FFF77CFEDF
:1016F0000128C5D100BFCDE7000100100002001095
:1017000000040010000800101FB50020ADF8040010
:101710000C4800904BF6FF70ADF806004FF4806067
:10172000ADF80A000001ADF80C000020ADF808008B
:1017300069460548FFF7B4FE01210348FFF76FFE35
:101740001FBD000020A107000054004010B5002478
:10175000FFF704FEF8B9052003F064F8FFF7FEFD7B
:10176000C8B910480078401C0E49087009E0601C98
:1017700084B2012003F056F84EF66020844200DB6C
:101780000446FFF7EBFD0028F1D0322C04DB0221E8
:10179000012000F099F803E00121084600F094F8D8
:1017A00010BD00001900002010B50024FFF7DEFD79
:1017B000F8B9052003F036F8FFF7D8FDC8B910488E
:1017C0000078401C0E49087009E0601C84B20120BA
:1017D00003F028F84EF66020844200DB0446FFF751
:1017E000C5FD0028F1D0322C04DB0221084600F0B0
:1017F0006BF803E00121022000F066F810BD000044
:101800001900002010B50024FFF7B8FDF8B9052035
:1018100003F008F8FFF7B2FDC8B910480078401C83
:101820000E49087009E0601C84B2012002F0FAFF42
:101830004EF66020844200DB0446FFF79FFD00283F
:10184000F1D0322C04DB0221032000F03DF803E04C
:101850000121032000F038F810BD0000190000201D
:1018600000B50346012B04D0022B07D0032B0FD168
:1018700009E00021012000F027F809E00021022002
:1018800000F022F804E00021032000F01DF800BF62
:1018900000BF00BD0146012904D0022905D003295B
:1018A00009D105E005480078704705480078FBE756
:1018B00004480078F8E7FF20F6E700001600002053
:1018C0001700002018000020012804D0022805D0AD
:1018D000032809D105E0054A117005E0044A11709A
:1018E00002E0044A117000BF00BF704716000020DC
:1018F000170000201800002000BFFEE710B50023ED
:101900001A461946184600F003F80446204610BD52
:101910002DE9F04105460F46164698461820FEF779
:10192000C3FC044614B90020BDE8F081256067605F
:10193000A660C4F80C802046F6E72DE9F04705467E
:101940000E4617469846DDF820902020FEF7ACFCA6
:10195000044614B90020BDE8F0872560C4F804905F
:101960002672E760C4F81080C4F814902046F2E7AD
:1019700038B5044600231A46194618460094FFF766
:10198000DCFF0546284638BD2DE9F84F81460D4657
:1019900016461F46DDE90AABCDF800B0524639467F
:1019A00030460C9B00F014F88046B8F1000F02D1CD
:1019B0000020BDE8F88F43460022022148460095EA
:1019C000FFF7BBFF04460CB90020F2E72046F0E722
:1019D0002DE9F04705460E4617469846DDF820905B
:1019E0001420FEF761FC044614B90020BDE8F0871E
:1019F00025606660A76084F80C80C4F810902046CB
:101A0000F4E72DE9F84380460D461646304600F0CF
:101A1000A6F8044614B90020BDE8F8832346002246
:101A2000012140460095FFF788FF07460CB90020CA
:101A3000F2E73846F0E72DE9F84381460D461646B1
:101A40001F463946304600F014F88046B8F1000FC2
:101A500002D10020BDE8F883434600220321484616
:101A60000095FFF76AFF04460CB90020F2E7204614
:101A7000F0E770B505460E460820FEF715FC044653
:101A80000CB9002070BD256066602046FAE701466B
:101A9000084600E040694269002AFBD170470146D0
:101AA00000204A6902E0431C58B25269002AFAD168
:101AB00070470146084600E0C069C269002AFBD1B0
:101AC000704701460020CA6902E0431C58B2D2693F
:101AD000002AFAD1704730B505460B462846FFF775
:101AE000D6FF044663611C610020586130BD30B5EB
:101AF00005460B462846FFF7DCFF0446E3619C6180
:101B00000020D86130BD10B502460B460AB1002B4B
:101B100001DC002010BD0124516906E0A34201D17F
:101B20000846F7E7601CC4B249690029F6D10020D5
:101B3000F0E710B502460B460AB1002B01DC00208D
:101B400010BD0124D16906E0A34201D10846F7E7A0
:101B5000601CC4B2C9690029F6D10020F0E770B555
:101B600005460420FEF7A0FB04460CB9002070BD1A
:101B700025602046FBE7000010B50F480068FFF71E
:101B8000A0FF0E4908700E480068FFF79AFF0D4944
:101B900008700D480068FFF794FF0C4908700C4866
:101BA0000068FFF78EFF0B4908700B480068FFF7CD
:101BB00076FF0A49087010BD4C0100204201002048
:101BC0005001002043010020540100204401002066
:101BD000580100204501002048010020410100205B
:101BE0002DE9F041FFF78AFE1B4908601B4B1C489A
:101BF0001C4902681C48FFF78BFE04461B4B1C481F
:101C00001C4902681C48FFF783FE05461B4B1C4815
:101C10001C4902681C48FFF77BFE06461B4B1C480C
:101C20001C4902681C48FFF773FE074621460A4814
:101C30000068FFF750FF294607480068FFF74BFF91
:101C4000314605480068FFF746FF394602480068FC
:101C5000FFF741FFBDE8F08148010020420100206C
:101C60004C010020300100202B70000843010020AF
:101C70005001002037010020BB7100084401002002
:101C8000540100203B0100204B7300084501002057
:101C9000580100202B010020DB74000810B500F073
:101CA00003F900F007F800F03FF800F0C3F8FFF781
:101CB00097FF10BD3EB51148FFF75AFE1049086066
:101CC000104A11491148FFF79CFE054600201049B3
:101CD000104A114BCDE900210290104A10491148D9
:101CE000FFF752FE0446294605480068FFF7FFFE4D
:101CF000214603480068FFF7FAFE3EBD3701002089
:101D000050010020B300002054000020A76C000800
:101D10000F010020D0000020CC000020C8000020CF
:101D20005A000020E36C00082DE9FE432948FFF724
:101D30001FFE29490860294A29492A48FFF761FE00
:101D40000746294A29492A48FFF75BFE80460020BA
:101D50002849294A294BCDE900210290284A2949DE
:101D60002948FFF711FE044600202249274A284B44
:101D7000CDE900210290274A27492848FFF704FEB1
:101D8000054600201B49264A264BCDE9002102903A
:101D9000254A26492648FFF7F7FD064639460E48EC
:101DA0000068FFF7A4FE41460B480068FFF79FFE5E
:101DB000214609480068FFF79AFE29460648006850
:101DC000FFF795FE314604480068FFF790FEBDE836
:101DD000FE8300003B01002054010020B4000020DD
:101DE00060000020876E0008B5000020660000201B
:101DF000C36E000815010020DC000020D800002080
:101E0000D40000206B000020FF6E0008E8000020D6
:101E1000E4000020E00000206F0000203B6F00087D
:101E2000F4000020F0000020EC00002075000020ED
:101E3000776F00083EB51148FFF79AFD104908601A
:101E4000104A11491148FFF7DCFD054600201049F2
:101E5000104A114BCDE900210290104A1049114857
:101E6000FFF792FD0446294605480068FFF73FFE4C
:101E7000214603480068FFF73AFE3EBD2B010020D3
:101E800058010020B60000207A000020EF6F000803
:101E900008010020C0000020C4000020BC00002079
:101EA00080000020B36F00082DE9FE432248FFF7B1
:101EB0005FFD22490860224A22492348FFF7A1FD1D
:101EC000054600202149224A224BCDE900210290FB
:101ED000214A22492248FFF757FD0446214A224958
:101EE0002248FFF78EFD0646214A22492248FFF785
:101EF00088FD0746214B224A22492348FFF79BFDD4
:101F0000804629460D480068FFF7F1FD21460B4841
:101F10000068FFF7ECFD314608480068FFF7E7FD71
:101F2000394606480068FFF7E2FD4146034800686D
:101F3000FFF7DDFDBDE8FE83300100204C010020ED
:101F4000B7000020870000205B6D00082001002002
:101F500000010020FC000020F80000208F0000207D
:101F6000976D0008B80000209A000020D36D00088B
:101F7000B9000020A10000200F6E0008040100201D
:101F800026010020A80000204B6E000810B5FFF7C6
:101F900085FEFFF7F1FD02480068FEF7F3FE10BD75
:101FA0004801002010B50848007818B9002000F05A
:101FB000F7FE07E00549097801EB81018906080E63
:101FC00000F0EEFE10BD0000B3000020C8000020AD
:101FD00010B51948007808B31848007820B900F007
:101FE00037F80120154908701548007810B100F045
:101FF00033F813E0134B1B7803EB83035B061A0ED5
:10200000114B1B7803EB83035B06190E0F4B1B78F8
:1020100003EB83035B06180E00F0C6F80648007851
:1020200038B900221146104600F0BEF800200349DE
:10203000087000F0D1F810BDB40000205F0100204E
:10204000B5000020EC000020E0000020D4000020BB
:1020500000B500F091F800BD70B50521FA22052306
:1020600041480078904202DB0020404C20703E48FE
:102070000078984202DC01203C4C20703A484078BD
:10208000904202DB00203A4C20703748407898425A
:1020900002DC0120364C207033488078904202DB0D
:1020A0000020344C207030488078984202DC0120B7
:1020B000304C2070002054E02C4C2478012C08D1A6
:1020C00000EB4004284D2C5D0C4400EB4005264EEF
:1020D0007455264C247844B900EB4004224D2C5D05
:1020E000641A00EB4005204E7455214C2478012CD5
:1020F0000AD100EB40041C4D2C4464780C4400EBE6
:102100004005194E35446C70194C247854B900EBD5
:102110004004154D2C446478641A00EB4005124EBF
:1021200035446C70134C2478012C0AD100EB400428
:102130000D4D2C44A4780C4400EB40050A4E354468
:10214000AC700C4C247854B900EB4004064D2C4480
:10215000A478641A00EB4005034E3544AC70441C6F
:10216000E0B20C28A8DB70BDD80700205C0100207D
:102170005D0100205E010020002010E0322100EB14
:102180004002084B9954962100EB40021A445170CA
:10219000FA2100EB40021A449170411CC8B20C288D
:1021A000ECDB7047D807002030B5034600200DE077
:1021B00000EB4004074D2B5500EB40042C446170AC
:1021C00000EB40042C44A270441CE0B20C28EFDB6E
:1021D00030BD0000D807002070B502F0A9FA002435
:1021E00010E004EB44000A4D2844837804EB4400DB
:1021F0002844427804EB4400295C204601F069FA47
:10220000601CC4B20C2CECDB02F0A4FA70BD000020
:10221000D807002010B502F045FC0149086010BD48
:102220000401002010B50B48007868B10A48007816
:102230000A490978884207D105210948FEF7AEFD11
:1022400001200849087003E003480078034908703A
:1022500010BD0000B600002019000020620100201F
:102260004B0000206101002010B5104800680128D3
:1022700004D0022809D0032815D10DE0812000F0F8
:1022800033FB012000F030FB0DE0812000F02CFB3F
:10229000322000F029FB06E0812000F025FBFF2022
:1022A00000F022FB00BF00BF10BD0000F8000020BE
:1022B00010B50848007810B1012808D103E0A62025
:1022C00000F012FB03E0A72000F00EFB00BF00BFF0
:1022D00010BD0000B700002010B50848007810B10C
:1022E000012808D103E0A12000F0FEFA03E0A020BD
:1022F00000F0FAFA00BF00BF10BD0000B8000020D7
:1023000010B50848007810B1012808D103E0C820B2
:1023100000F0EAFA03E0C02000F0E6FA00BF00BFD8
:1023200010BD0000B900002010B5FFF7C1FFFFF796
:102330009BFFFFF7D1FFFFF7E3FF10BD70470000E1
:1023400070B5002100230F22C47804B3154C246813
:1023500004F4E064C4F5E064210AC1F10403CA4056
:10236000447804FA03F184781440214309010E4CA7
:102370000678A155047804F01F050124AC400578C7
:102380006D11AD0005F1E025C5F8004109E00478C4
:1023900004F01F050124AC40044D0678761145F881
:1023A000264070BD0CED00E000E400E080E100E0BC
:1023B00002490143024A1160704700000000FA051B
:1023C0000CED00E000200CE0002106E00022064BAE
:1023D00003EBC0135A544A1CD1B28029F6DB421CCD
:1023E000D0B20828F0DB7047D80300202DE9F04375
:1023F00004460D4616461F467F2C01DDBDE8F083DE
:102400003F2D00DDFAE7A119802902DDC4F180012A
:10241000CEB2E919402902DDC5F14001CFB228460C
:1024200030E0234629E04FEAE07C00EB5C7C4FEA99
:10243000EC0CDFF85C8008EBCC1C1CF803C00246F7
:102440004FEAE07800EB58784FEAE808A0EBC809BB
:102450004FF0010808FA09F82CEA080C01464FEA87
:10246000E07800EB58784FEAE808DFF8249009EBB1
:10247000C81808F803C0591CCBB2A1199942D2DC84
:10248000411CC8B2E9198142CBDC00BFB6E70000AD
:10249000D803002070B503467F2B00DD70BD3F29B7
:1024A00000DDFBE7CC1701EB5474E4100C4D05EB99
:1024B000C414E45C0A46CD1701EB5575ED10A1EB91
:1024C000C5060125B5402C430846CD1701EB5575CF
:1024D000ED10034E06EBC515EC5400BFDEE700001F
:1024E000D80300202DE9F04705460E4617469846CA
:1024F000DDF820A0BAF1000F24D12C460CE03146C3
:102500002046FFF7C7FF06EB0800401EC1B2204679
:10251000FFF7C0FF601CC4B2E819A042EFDC3446EC
:102520000BE021462846FFF7B5FFE919491EC8B25E
:102530002146FFF7AFFF601CC4B206EB0800A042C3
:10254000EFDC14E02C460FE0B14607E04946204698
:10255000FFF7A0FF09F1010000F0FF0906EB0800FA
:102560004845F3DC601CC4B2E819A042ECDCBDE8CD
:10257000F08710B502F0DCF8AE2000F0B5F9D520F8
:1025800000F0B2F9802000F0AFF9A82000F0ACF91B
:102590003F2000F0A9F9D32000F0A6F9002000F0B8
:1025A000A3F9402000F0A0F9A12000F09DF9C82077
:1025B00000F09AF9DA2000F097F9122000F094F96F
:1025C000812000F091F9FF2000F08EF9D92000F071
:1025D0008BF9F12000F088F9DB2000F085F930203C
:1025E00000F082F9A42000F07FF9A62000F07CF929
:1025F0008D2000F079F9142000F076F9AF2000F07A
:1026000073F902F0A7F8FFF7DDFE00F053F910BDF3
:1026100010B50246012000E050430B1EA1F101015C
:10262000FAD110BD70B505460C4645F0B00000F07B
:102630005BF9102141EA141000F056F904F00F0084
:1026400000F052F970BD0000F8B506460F4614467A
:102650001D46082D0CD1A4F120000E4901EB0010FD
:102660001023082239460090304600F017F80FE09A
:10267000062D0DD1A4F1200000EB4000064901EB2E
:1026800040000823062239460090304600F006F844
:10269000F8BD0000BE5F0008AE6500082DE9F047F8
:1026A00007460C4690469946DDF820A07F2F01DDB5
:1026B000BDE8F0873F2C00DDFAE74B464246214655
:1026C0003846FFF793FE002570E0002669E0B81950
:1026D0007F2800DD67E0E11704EB517105EBE101B4
:1026E000072900DDE4E72046E21704EB527205EB10
:1026F000E202344B03EBC212BB19D25C2146E31752
:1027000004EB5373DB10A4EBC30305FB086C1AF84E
:102710000CC00CFA03FC42EA0C02E31704EB5373FF
:1027200005EBE303DFF89CC00CEBC31307EB060CCF
:1027300003F80C20E11704EB517105EBE101491C92
:10274000072900DD2BE02046E21704EB527205EB6F
:10275000E202521C1B4B03EBC212BB19D25C214696
:10276000E31704EB5373DB10A4EBC303C3F10803BB
:1027700005FB086C1AF80CC04CFA03FC42EA0C0288
:10278000E31704EB537305EBE3035B1CDFF834C082
:102790000CEBC31307EB060C03F80C2000BF701CF6
:1027A000C6B2464593DB00BF681CC5B2A9F1010063
:1027B000C11700EB5171012202EBE101A94284DC57
:1027C00000BF75E7D80300202DE9F047064689468B
:1027D00017461D46DDF82080002417E0281B411E07
:1027E0000A20FFF715FFB7FBF0F00A21B0FBF1F26A
:1027F00001FB120000F1300A04FB0861C8B2434635
:1028000052464946FFF720FF601CC4B2AC42E5DBEC
:10281000BDE8F0872DE9F04F80468A4615461E46F2
:10282000DDF82490002D07DB4B462B225146404615
:10283000FFF70AFF2F4606E04B462D225146404641
:10284000FFF702FF6F42002418E0301B411E0A20F0
:10285000FFF7DEFEB7FBF0F00A21B0FBF1F201FB5F
:10286000120000F1300B611C01FB0981C8B24B461C
:102870005A465146FFF7E8FE601CC4B2B442E4DB9E
:10288000BDE8F08F2DE9F0410646884615461F4603
:10289000002409E02A5D04FB0761C8B23B464146BB
:1028A000FFF7D2FE601CC4B2285D0028F2D1BDE85B
:1028B000F081000010B501F03BFFFFF735FD00246B
:1028C0000BE000212046FFF7ADFE064901EBC410E6
:1028D000802100F00FF8601CC4B2082CF1DB01F07D
:1028E00039FF10BDD803002010B504462046FEF77E
:1028F00059FE10BD70B504460D4629462046FEF728
:1029000081FE70BD29B1064AD2690243044BDA61E7
:1029100004E0034AD2698243014BDA617047000048
:102920000010024029B1064A92690243044B9A61A1
:1029300004E0034A92698243014B9A6170470000A8
:102940000010024030B500210022002400232D4D4C
:102950006D6805F00C0121B1042905D0082923D1A7
:1029600005E0294D056022E0274D05601FE0254D5B
:102970006D6805F47012234D6D6805F480340225EE
:1029800005EB92421CB9214D554305600BE01D4DEE
:102990006D6805F400351DB11C4D5543056002E01E
:1029A000194D5543056002E0174D056000BF00BF9B
:1029B000144D6D6805F0F0010909154D6B5C056853
:1029C000DD4045600F4D6D6805F4E061090A104D6A
:1029D0006B5C4568DD4085600A4D6D6805F46051AB
:1029E000C90A0B4D6B5C4568DD40C560054D6D68DF
:1029F00005F44041890B074D6B5CC568B5FBF3F5E9
:102A0000056130BD0010024000127A0000093D004F
:102A1000000000201000002010B500F001F810BDEB
:102A20000CB50020019000903348006840F48030DD
:102A30003149086000BF3048006800F40030009061
:102A40000198401C0190009818B90198B0F5A06F4A
:102A5000F1D12948006800F4003010B10120009045
:102A600001E0002000900098012843D1234800682D
:102A700040F01000214908600846006820F003007B
:102A800008600846006840F0020008601A48406884
:102A9000194948600846406848600846406840F464
:102AA000806048600846406820F47C104860084612
:102AB000406840F4E81048600846006840F08070C4
:102AC000086000BF0C48006800F000700028F9D0D2
:102AD0000948406820F003000749486008464068FC
:102AE00040F00200486000BF0348406800F00C005E
:102AF0000828F9D10CBD000000100240002002405F
:102B000010B500BF502080F31188BFF34F8FBFF383
:102B10006F8F00BF02F048F918B14FF080500449A0
:102B2000086000BF002080F3118800BF10BD0000C6
:102B300004ED00E010B51348006840F001001149B1
:102B4000086008464068104908400E494860084639
:102B500000680E4908400B4908600846006820F4E8
:102B6000802008600846406820F4FE0048604FF46A
:102B70001F008860FFF750FF4FF0006004490860B5
:102B800010BD0000001002400000FFF8FFFFF6FE3D
:102B900008ED00E001E0FEF7D9FDFCE702E00120CE
:102BA00001F040FEFBE701E0FEF7FEFDFCE701E07F
:102BB000FEF728FEFCE7FFF7DCFC03E0FDF7CAFDAB
:102BC000FFF778FEFAE7FFF743FA04E0FFF700FAB1
:102BD000322001F027FEF9E707E0FEF7BBF9FFF727
:102BE00019FB4FF4FA7001F01DFEF6E704E0FFF761
:102BF000D9F9642001F016FEF9E705E041F28830CA
:102C000001F010FEFFF70EFBF8E702E0012001F0F3
:102C100009FEFBE71CB54FF44070FFF7C9FB0648FF
:102C2000012100234022CDE9001004A1064802F052
:102C300081F801F0C3FE1CBD440000205461736B99
:102C40005F53746172740000652F000810B5012194
:102C5000880700F0AFF8012806D10021800700F0B6
:102C600011F80120034908700121880700F007F8D6
:102C700010BD00001A000020CA4302827047CA43F8
:102C80000282704721B1028842F00102028004E012
:102C900002884FF6FE731A400280704731B1B0F8D7
:102CA000442042F40042A0F8442005E0B0F844205B
:102CB000C2F30E02A0F8442070471FB50121084658
:102CC000FFF720FE0020ADF80A00ADF80600ADF8D1
:102CD00008002320ADF8040000208DF80C0001A9A5
:102CE0004FF0804000F0ECF801218807FFF7C4FFA7
:102CF00001221146900700F06EF81C208DF80000AC
:102D000001208DF8030002208DF801006846FFF7CE
:102D100017FB00214FF0804000F0CFF800214FF06A
:102D20008040FFF7AFFF1FBD00B587B00121C8028B
:102D3000FFF7F8FD684600F0B2F80020ADF8160085
:102D4000ADF812006320ADF814002320ADF8100098
:102D500000208DF8180004A9104800F0B1F80121F6
:102D60000E48FFF79BFF6020ADF800000020ADF893
:102D700008000120ADF802001420ADF806006946F5
:102D8000064800F037F80821044800F07FF80121D8
:102D90000248FFF777FF07B000BD0000002C01409C
:102DA00010B504462146024800F085F810BD000029
:102DB000002C014030B50246002000230024158A73
:102DC00005EA0103958905EA010413B10CB101205C
:102DD00000E0002030BD1AB183890B43838102E0FB
:102DE00083898B438381704710B5FFF766FFFFF738
:102DF0009BFF10BD70B5002400220023058C4FF608
:102E0000FE7635400584028C8388048B4FF68F75DF
:102E10002C40B51E2C400D882C43751E2A400D8970
:102E20002A434D882A43144DA8420BD0134DA84283
:102E300008D0134DA84205D0124DA84202D0124D21
:102E4000A84213D14FF6F7752A404D892A434FF611
:102E5000FB752A408D882A434FF6FF652B404FF6BD
:102E6000FF552B408D892B43CD892B4383800483D1
:102E7000CD888586028470BD002C0140003401405D
:102E80000040014000440140004801400A46002142
:102E9000018B4FF6F77319401143018370470021EE
:102EA000018041808180C180018141818181C18116
:102EB0007047818570478186704781847047000024
:102EC000002202881D4B98420ED01D4B98420BD019
:102ED000B0F1804F08D01B4B984205D01A4B984256
:102EE00002D01A4B984204D14FF68F731A404B8888
:102EF0001A43174B984207D0164B984204D04FF60E
:102F0000FF431A40CB881A4302808B8883850B8845
:102F100003850A4B98420BD0094B984208D00E4BC0
:102F2000984205D00D4B984202D00D4B984201D1EA
:102F30000B7A03860123838270470000002C014036
:102F4000003401400004004000080040000C004034
:102F500000100040001400400040014000440140C7
:102F6000004801401CB5044601F0E2FB3448012151
:102F700000234022CDE9001032A1344801F0DAFEEE
:102F80003348012100234022CDE9001031A133480C
:102F900001F0D0FE3248012100234022CDE900108B
:102FA00030A1324801F0C6FE3148012100238022C1
:102FB000CDE900102FA1314801F0BCFE30480121BD
:102FC00000234022CDE900102EA1304801F0B2FECE
:102FD0002F48012100234022CDE900102DA12F48C8
:102FE00001F0A8FE2E48012100234022CDE9001067
:102FF0002CA12E4801F09EFE2D48012100234022E5
:10300000CDE900102BA12D4801F094FE2C480121A0
:1030100000234022CDE900102AA12C4801F08AFEAD
:103020002B48012100234022CDE9001029A12B4883
:1030300001F080FE002001F00FFC01F08BFB1CBDB5
:103040001C0000205441534B31000000952B000818
:10305000200000205441534B32000000A72B0008F1
:10306000240000205441534B33000000AF2B0008D4
:10307000280000205441534B34000000B72B0008B7
:103080002C0000205441534B35000000C72B000892
:10309000300000205441534B36000000D92B00086B
:1030A000340000205441534B37000000ED2B000842
:1030B000380000205441534B38000000FB2B00081F
:1030C0003C0000205441534B390000000B2C0008F9
:1030D000400000205441534B313000009D2B00082C
:1030E000F8B504460E463046FEF7D9FCA04200DA99
:1030F000F8BDFFF767F921463046FEF704FD0546A7
:103100000823002101206A68FFF7BCFB28682823F8
:103110005022142100900120FFF7C0FA002028233C
:103120005022142100900120FFF7DCF9082002232F
:1031300022460A2100906120FFF746FB062309A2E0
:103140001C216420FFF79EFB3046FEF7A8FC0746D3
:10315000082002233A46242100906120FFF734FB27
:1031600000BFC5E72F000000F8B504460E4617461D
:10317000FFF728F90823002101207268FFF782FB7E
:10318000062371A200216020FFF77CFB06236EA2BC
:1031900000217820FFF776FB082002232246002139
:1031A00000906820FFF710FB00200C231A46162120
:1031B00000906E20FFF796F900200C231A462B2171
:1031C00000906E20FFF78EF9BC4237D1204604EB09
:1031D000D0714910A4EB410101292FD1214630467D
:1031E000FEF7A7FC0546286814231A461221009012
:1031F0000120FFF753FA002014231A4612210090F1
:103200000120FFF76FF90823142117206A68FFF7E0
:1032100039FB01200C231A46162100906E20FFF77F
:1032200061F90C231A462B216E20FFF7DFF80623E5
:1032300046A22D213020FFF725FB84E0204604EB39
:10324000D0714910A4EB410100293AD12146304602
:10325000FEF76FFC0546286814231A4628210090C3
:103260000120FFF71BFA002014231A4628210090A2
:103270000120FFF737F908232A2117206A68FFF792
:1032800001FBAD6901200C231A462B2100906E2012
:10329000FFF728F9286814231A461221009001200C
:1032A000FFF7FCF9002014231A4612210090012098
:1032B000FFF718F90823142117206A68FFF7E2FACC
:1032C00041E0204604EBD0714910A4EB41010129F3
:1032D00039D121463046FEF72CFC054628681423D8
:1032E0001A46122100900120FFF7D8F9002014237C
:1032F0001A46122100900120FFF7F4F80823142148
:1033000017206A68FFF7BEFA01200C231A4616211F
:1033100000906E20FFF7E6F8ED69286814231A463E
:10332000282100900120FFF7B9F9002014231A4644
:10333000282100900120FFF7D5F808232A21172023
:103340006A68FFF79FFAF8BD2D0000002D456E64F6
:103350002D00000038B50446FFF734F8052C2BD2B9
:10336000DFE804F027030C151E00144820231A463A
:103370000F2100903020FFF791F91DE01048202325
:103380001A460F2100903020FFF788F914E00D480D
:1033900020231A460F2100903020FFF77FF90BE021
:1033A000094820231A460F2100903020FFF776F9B4
:1033B00002E0FFF707F800BF00BF38BDC378000880
:1033C00043790008C3790008437A00082DE9F04FDB
:1033D00087B082460E4691461D460024D9F800006B
:1033E0002968401A069030682968401A05900698A6
:1033F00002F00AFD0190059802F006FD0090019987
:1034000002F040FC834602F011FC0022504BCDE953
:10341000020102F0E1F9074602F05EF9C0B2049041
:10342000FEF7D0FF00203D237D22022100900846B8
:10343000FFF758F80623524600210F20FFF722FA23
:10344000062338210F20109AFFF71CFA3068002855
:1034500006DBD9F80000002802DB2868002801DA22
:10346000122410E00A2400200A236E222A21009050
:103470001846FFF737F801200A2300902A21184642
:10348000049AFFF72FF8062332A221462D20FFF7DA
:10349000F9F904F10A00C1B2062330A22D20FFF78A
:1034A000F1F904F11400C1B206232EA22D20FFF77A
:1034B000E9F9306800F089F9C7B2062000903B4670
:1034C00021464B203268FFF7A5F9D9F8000000F03B
:1034D0007CF9C7B20620009004F10A00C1B23B4655
:1034E0004B20D9F80020FFF795F9286800F06DF916
:1034F000C7B20620009004F11400C1B23B464B2035
:103500002A68FFF787F91198012804D0022809D00A
:10351000032819D10FE0062314A221461E20FFF72D
:10352000B1F911E004F10A00C1B206230FA21E2076
:10353000FFF7A8F908E004F11400C1B206230BA2BA
:103540001E20FFF79FF900BF00BF07B0BDE8F08F56
:1035500000805B406E6F773A000000006D61783A42
:10356000000000006D696E693A0000002D3E000009
:1035700038B505460C46FEF725FF00203D237D2289
:10358000022100900846FEF7ADFF06232A460021DF
:103590000F20FFF777F9207801280ED1002028238B
:1035A0001E220F2100900846FEF79CFF08230BA265
:1035B00019211720FFF766F90FE0207868B900207D
:1035C000282346220F2100902C20FEF78BFF082392
:1035D00003A219214320FFF755F938BD4F4E0000D3
:1035E0004F464600F8B504460D461646FEF7EAFE7D
:1035F00000203D237D22022100900846FEF772FF45
:103600000623224600210F20FFF73CF906230DA2D6
:1036100011210A20FFF736F906230CA226210A20E1
:10362000FFF730F906232A4611212820FFF72AF94F
:10363000082000900523202137203268FFF7EAF8A0
:10364000F8BD00006D6F72653A00000076616C7520
:10365000653A000000BFFEE770B50446002600256D
:103660001DE004F080065EB10120FDF7A7FE0120F9
:10367000FDF79AFB4FF480510A48FDF76CFE0AE013
:103680004FF480510748FDF781FE0020FDF796FEBC
:103690000120FDF789FB6006040E681CC5B2082DE9
:1036A000DFDB70BD00080140F8B505460E46174641
:1036B0008DF800608DF801508DF80270002405E04F
:1036C0001DF80400FFF7C8FF601CC4B2032CF7DB31
:1036D000F8BD2DE9F04104460D4616461F464FF051
:1036E000000808E03A4631462846FFF7DDFF08F1BA
:1036F000010000F0FF08A045F4DBBDE8F0812DE9F2
:10370000F0414F1E00EBC7010446D1E90001154608
:103710001E4637F006020DD02A46334602F05CF80A
:103720007F1E04EBC703D3E9002301F055FD37F0FA
:103730000602F1D1022F25D0042F13D0062F18BF77
:10374000BDE8F0812A46334602F046F8D4E90A2360
:1037500001F042FD2A46334602F03EF8D4E9082340
:1037600001F03AFD2A46334602F036F8D4E9062342
:1037700001F032FD2A46334602F02EF8D4E9042344
:1037800001F02AFD2A46334602F026F8D4E9022346
:1037900001F022FD2A46334602F01EF8D4E9002348
:1037A000BDE8F04101F018BD002213461046014962
:1037B00001F0CEBD0000F03F012202F0BABB0022B2
:1037C00013461046114601F0C3BD2DE9F05F824655
:1037D000BAF1000F02D10120BDE8F09FBAF1000B51
:1037E00001DB594601E0CBF10001084601F0A1FFE1
:1037F000804600F025FA064600F006F8044601F07F
:103800003BFF401CE8E700002DE9F041C1F30A52FC
:10381000A2F2FF362F4A304B0D460446142E2FDA03
:10382000002E12DA01F0D8FC0022134602F0D2F882
:103830004CD2002DA4BF0024254647DA25F00040D5
:10384000204318BF254D41D018E0DFF894C02CFA72
:1038500006F705EA070C5CEA040C08BFBDE8F08136
:1038600001F0BAFC0022134602F0B4F82ED2002D6B
:1038700003DA4FF48010F0400544BD43002425E0F6
:10388000332EC8BFBDE8F081A6F1140C4FF0FF370E
:1038900027FA0CF73C4208BFBDE8F08102F0D0F8EF
:1038A0000022134602F096F810D2002D0DDA142EE5
:1038B00008BF6D1C09D0C6F13400012101FA00F0E7
:1038C0002044A04238BF6D1C0446BC432946204614
:1038D000BDE8F0819C7500883CE4377E0000F0BFB5
:1038E000FFFF0F002DE9F04DC84A002490B091422F
:1038F00005DA21F00043934201D805D120B110B080
:10390000BDE8F04DFFF758BFB1F5801F1BDA53EA51
:10391000000209D0002911DA0120FCF737FE10B0AF
:10392000BDE8F04DFFF74BBF0220FCF72FFEFFF77D
:103930003BFF10B081F00041BDE8F08D6FF0350421
:10394000362202F0F6FA04EB2152C1F31308B04913
:10395000A2F2FF33414401F4801282F07F6103EB55
:10396000225281F04051009241EA08010022A94B05
:1039700002F072F8044608F10200A74EC0F31300EB
:103980000D467E44032867D2D6E90023204601F085
:1039900037FE1ED10098002802BFD6E9000110B002
:1039A000BDE8F08D01F0C5FE07460C469B4A9C4BD6
:1039B00001F012FF06460D469A4A9B4B38462146B7
:1039C00001F00AFF10B032462B46BDE8F04D01F081
:1039D00003BC4FF05532954B2046294601F0FCFEC2
:1039E0000022934B02F02CF806460F4622462B4647
:1039F0001046194601F0F0FE32463B4601F0ECFE5F
:103A0000064600980F46F0B101F093FE80468A46C4
:103A1000824A834B01F0E0FE32463B4602F010F84A
:103A200022462B4602F018F805460C467D4A7E4B8E
:103A30004046514601F0D0FE10B02A462346BDE86C
:103A4000F04D02F009B80B4610B032462046294628
:103A5000BDE8F04D02F000B800224FF08043204650
:103A600001F0BAFB02460B462046294601F070FCE5
:103A700006460F46009801F05CFECDE9040132468F
:103A80003B461046394601F0A7FE0C9069480C9A57
:103A90004044019009910B46104601F09DFE82467C
:103AA000024665488B46C8F151080B4608F5D728F1
:103AB00003217844FFF723FE52465B4601F08CFE5B
:103AC0000A905E480D9152465B4604217844FFF708
:103AD00016FE099B0C9A01F07FFE844601980D9B0F
:103AE00040EA080860460A9A01F076FB834608918E
:103AF000B8F1000F4EDD4FF0FF322046294602F0AC
:103B000018FA22462B4601F067FE804600988A4646
:103B100060B3DDE90401414A414B01F05DFE0991CA
:103B200000905A4640465146089B01F055FB3246EC
:103B30003B4601F051FE099B009A01F04DFB4246C5
:103B4000534601F07DFF22462B4601F085FF0446D7
:103B50000D46DDE90401334A334B01F03DFE10B060
:103B600022462B46BDE8F04D01F076BF5A4640464E
:103B7000089B01F031FB32463B4601F02DFE4246E8
:103B8000534601F05DFF10B022462B46BDE8F04DD4
:103B900001F056BF009840B3DDE904011F4A204BF5
:103BA00001F01AFE80468A465A4620462946089B5E
:103BB00001F052FF32463B4601F00EFE42465346AC
:103BC00001F04AFF22462B4601F046FF04460D460F
:103BD000DDE90401134A144B01F0FEFD10B022464A
:103BE0002B46BDE8F04D01F037BF0B465A46204644
:103BF000294601F031FF32463B4601F0EDFD10B0A1
:103C000022462B46BDE8F04D01F01ABF0000F07FC0
:103C1000645F09000000F03F7A410000763C79358E
:103C2000EF39EA3D0000E0FE422EE63F5555D53F14
:103C30000000E03F86EBF9FF12400000104000005A
:103C40002DE9F041044630480025814205DA21F093
:103C50000042824201D805D124B12046BDE8F0419E
:103C6000FFF7AABDB1F5801F1BDA52EA040008D0A5
:103C700000290FDA0120FCF789FCBDE8F041FFF7CD
:103C80009EBD0220FCF782FCFFF78EFD81F0004113
:103C9000BDE8F0816FF035053622204602F049F983
:103CA000044605EB2150A0F2FF32D00F40F2FF3363
:103CB0001B1A0D4663F31F55104401F03AFD0646EA
:103CC0000F4629462046FFF70DFE104A104B01F023
:103CD00083FD04460D460F4A0F4B3046394601F02E
:103CE0007BFD22462B4601F077FA05460C460B4A2F
:103CF0000B4B3046394601F06FFD2A462346BDE89E
:103D0000F04101F069BA00000000F07F0EE52615D1
:103D10007BCBDB3F362BF111F3FE593D00609F500A
:103D20001344D33F10B5FDF7B2FAFFF75DF8FDF786
:103D3000E1F8FDF7E9FCFEF729F9FEF76BFF00203B
:103D400010BD00002DE9F04105460E4626480768E3
:103D500026480068001D00F0A1FC50B92348006807
:103D600090F82C100120884021490968814320489F
:103D70000160681CD8B9D6B11E4948681B4909685A
:103D800088601A4982680968CA6018490968091D6B
:103D90008268516015490968091D8160154A1349F7
:103DA00009684A6111460968491C11601AE07C19CA
:103DB0000E4800684460BC4207D20C480168091DE7
:103DC0000D48006800F08EFC0CE008480168091DF1
:103DD0000A48006800F086FC09480068844201D265
:103DE00007480460BDE8F0817801002064010020EC
:103DF0007C010020B00800206C0100206801002038
:103E00009401002010B5044600F092FC2F48006891
:103E1000401C2E4908602E48006840B92C480460B8
:103E20000846006801280DD100F07EF90AE0294813
:103E3000006838B926480068C06AE16A884201D83B
:103E40002348046024480068401C2349086094F813
:103E50002C10012088402149096808431F49086047
:103E6000E16A01EB81011E4A02EB81014868A06012
:103E70008268E260211D826851608160E16A01EB25
:103E80008101174A02EB81026261E16A01EB810163
:103E9000134A52F82110491CE26A02EB8202104BCD
:103EA00043F8221000F056FC0A48006868B1084840
:103EB0000068C06AE16A884207D24FF08050094921
:103EC0000860BFF34F8FBFF36F8F10BD74010020E8
:103ED0006401002080010020900100207C0100206E
:103EE000FC07002004ED00E010B500F021FC0C48B8
:103EF000006890B90B4800F0E5FB0B4800F0E2FBCE
:103F000008480A49086008480949086000220C214D
:103F10000A2000F0E7FD0249086000F01BFC10BD1C
:103F2000AC010020C4080020D8080020A401002013
:103F3000A801002010B516E000F0FAFB0C48C0689C
:103F4000C468201D00F0AAFB0A480068401E094909
:103F5000086009480068401E0749086000F0FAFB45
:103F6000204600F020F8044800680028E4D110BD85
:103F70009C080020740100207001002070B50446E8
:103F80000D46206C70B1216CE0680144E160D4E919
:103F90000210884201D32168E1602846226CE16862
:103FA000FCF7DDF970BD10B50446206B00F0E2FBB4
:103FB000204600F0DFFB10BD0146084A1268126877
:103FC0000AB9012200E000220A600A6822B9034A05
:103FD0001268D268106800E000207047A401002039
:103FE00030B54FF4A053154800F007042CB1C01DA4
:103FF00020F00700114C041B1B1B0246104C2260D2
:1040000000240F4D6C60D018083820F007000D4CCC
:10401000206000240B4D2D686C600A4D2D682C60CB
:104020001146441A4C60074C24680C60064D4C68DD
:104030002C60064D4C682C6030BD0000EC08002060
:10404000B8010020C0010020C8010020C4010020E8
:1040500000BFFFF76FFF064800680128F9D94FF04D
:10406000805004490860BFF34F8FBFF36F8FF0E7B4
:10407000FC07002004ED00E02DE9F04106460D4666
:1040800017469846069C0DB9246000E02760E66359
:1040900025640121204600F04BFDBDE8F0812DE9AB
:1040A000F05F81460E4617469A46DDF828800C9C44
:1040B000B900A522206BFCF797F9781E216B01EB64
:1040C000800B2BF0070B7EB1002507E0715D04F13A
:1040D00034004155705D00B902E06D1C102DF5D320
:1040E00000BF002143200155B8F1050F01D34FF067
:1040F0000408C4F82C80201D00F0F1FA04F1180027
:1041000000F0EDFA2461C8F10500A0616462524636
:104110004946584600F0B0FA20600B9808B10B9859
:104120000460BDE8F09F000010B5002407E004EB38
:1041300084010F4A02EB810000F0C4FA641C052CD4
:10414000F5D30C4800F0BEFA0B4800F0BBFA0B4860
:1041500000F0B8FA0A4800F0B5FA0A4800F0B2FADE
:1041600004480949086004480849086010BD000077
:10417000FC07002060080020740800208808002048
:104180009C080020B0080020680100206C0100207D
:1041900010B50146164800E0006803688B42FBD367
:1041A0000246436813448B4204D143684C6823445D
:1041B000436001460A464B6813440468A34211D188
:1041C0000C4C03682468A34208D04B6804686468F8
:1041D00023444B6003681B680B6005E0054B1B68BC
:1041E0000B6001E003680B60884200D0016010BDE5
:1041F000B8010020C00100202DE9F04104460D4621
:1042000016461F464FF0000865602461B5420CD881
:10421000F01BA169884202D34FF0010811E0211D73
:104220000948006800F05EFA0BE0BE4204D2BD42CD
:1042300002D34FF0010804E0211D0448006800F09B
:1042400051FA4046BDE8F081A8010020A4010020F9
:1042500070B5054600F06CFAA86B08B9012400E0BF
:10426000002400F077FA204670BD000070B50546C6
:104270000E460E480068C068C468201D00F00EFAA3
:1042800094F8240000F0040028B132462946204664
:1042900000F0C4F805E094F8240000F0FE0084F873
:1042A00024002046216A884770BD0000A401002038
:1042B0007FB56EE0019800286BDB039C606908B94C
:1042C000012000E0002010B9201D00F0E7F9684649
:1042D00000F0D0F8054601980A2858D2DFE800F02F
:1042E0005705072E364706082F3700BF00BF00BF0F
:1042F00094F8240040F0010084F824000298A26998
:10430000811803462A462046FFF776FFA8B194F8A5
:10431000240000F0040038B10298A26981182A46EE
:10432000204600F07BF805E094F8240000F0FE0041
:1043300084F824002046216A884729E000BF94F8C9
:10434000240000F0FE0084F8240021E000BF94F86F
:10435000240040F0010084F824000298A061A069C4
:1043600041192B462A462046FFF746FF10E094F8F5
:10437000240000F0020018B9204600F0FBF905E027
:1043800094F8240000F0FE0084F8240000E000BF50
:1043900000BF002201A90348006800F019FC0028B2
:1043A00088D17FBDAC010020F8B505460C4600F071
:1043B00041FB684600F05EF80646009820BB44B911
:1043C000B54206D800F03CFE31462846FFF74EFFC6
:1043D0001CE03CB10E480068006808B9012000E00C
:1043E00000200446A91B22460A48006800F0F4F9A0
:1043F00000F026FE50B94FF0805007490860BFF327
:104400004F8FBFF36F8F01E000F01AFEF8BD000080
:10441000A8010020AC01002004ED00E070B50446C6
:104420000D46164604E0A06905442046216A8847E7
:10443000A06941192B4632462046FFF7DDFE0028D1
:10444000F1D170BD09480068006808B9012000E09A
:10445000002020B14FF0FF300549086005E0034817
:104460000068C06800680249086070476801002061
:104470009401002070B5044600F090FC0546074802
:104480000068854204D200F00BF80120206001E0B2
:104490000020206001480560284670BDB40100205E
:1044A00070B508E00D480068C06804684FF0FF313F
:1044B0002046FFF7DBFE09480068006808B90120C4
:1044C00000E000200028EDD004480568044800689A
:1044D000024908600248056070BD0000A401002088
:1044E000A801002000BF502080F31188BFF34F8F38
:1044F000BFF36F8F00BF00BFFEE708B500BF68467F
:10450000FFF75AFD044620460099FFF74DFFFFF7DD
:10451000CFFEF4E770B5044600F00AF994F945506F
:1045200010E0606A08B9012000E0002038B904F109
:10453000240000F001FD18B100F004FA00E003E0EF
:10454000681E45B2002DECDC00BFFF2084F845005A
:1045500000F000F900F0ECF894F9445010E0206904
:1045600008B9012000E0002048B904F1100000F073
:10457000E3FC08B100F0E6F9681E45B200E001E096
:10458000002DECDC00BFFF2084F8440000F0E2F8CE
:1045900070BD00002DE9F04705464FF0000900F01E
:1045A00049FA3048006808B9FFF71AFD75B105F0FF
:1045B0000700C0F11008C8F1FF30A84201D2012065
:1045C00000E0002008B9454400E00025012000EB90
:1045D000E570002841D0002D3FD023480068854277
:1045E0003BD8224E3046046801E0264624686068C5
:1045F000A84202D220680028F7D11A4800688442F5
:104600002BD0306800F10809206830606068401BDA
:10461000102807D967196068401B786065603846C4
:10462000FFF7B6FD104960680968081A0E4908606E
:10463000084600680E490968884203D20A480068A3
:104640000B490860606840F0004060600020206016
:1046500008480068401C0749086000F0F1FC484623
:10466000BDE8F087C0010020C4010020B80100208F
:10467000C8010020CC010020001F4FF080730360B0
:10468000001F21F001030360001F034B0360143877
:104690000260203870470000E544000801460A69BE
:1046A000D1E901309860D1E901035860506888422F
:1046B00001D188685060002008611068401E1060B9
:1046C0001068704700F1080141604FF0FF318160D0
:1046D00000F10801C1600161002101607047002103
:1046E0000161704710B502460B685C1C0CB910697B
:1046F00007E002F1080000E04068446824689C423A
:10470000FAD944684C604C68A160886041600A61D5
:104710001468641C146010BD42684A6093688B6022
:10472000936859609160086103685B1C036070477F
:1047300000BF502080F31188BFF34F8FBFF36F8FFE
:1047400000BF03480068401C014908607047000032
:10475000D401002006480068401E0549086008464C
:10476000006820B9002080F3118800BF00BF7047A7
:10477000D401002070B506463546E6B1083D2C460A
:104780006068C00FB8B12068A8B9606820F0004028
:10479000606000F04FF908496068096808440649FC
:1047A00008602046FFF7F4FC04480068401C0349F9
:1047B000086000F045FC70BDC4010020D00100205D
:1047C00000204FF0E021086188610248486107201D
:1047D000086170473F1901002DE9F04105460E467A
:1047E00017462C46FFF7A4FF94F94400401C10B96B
:1047F000002084F8440094F94500401C10B90020C2
:1048000084F84500FFF7A6FFA06B28B93A46314669
:1048100004F1240000F0ACF82046FFF77BFEBDE871
:10482000F081000070B50446002544B100F002F9A3
:1048300000212046FFF786FA00F002FC05463DB94C
:104840004FF0805003490860BFF34F8FBFF36F8F65
:1048500070BD000004ED00E070B50546FFF768FF8D
:1048600015B92948006800E028460446201DFFF7D6
:1048700015FF78B9E06A00EB8000244951F8200068
:1048800040B994F82C1001208840214909688143DF
:104890001F480160A06A18B104F11800FFF7FEFE7E
:1048A0001C480068401C1B49086017480068844287
:1048B00009D1211D1848FFF72FFF18480068401C38
:1048C0001649086006E016480068401E1449086052
:1048D000FFF7B8FDFFF73EFF0B480068844202D0A7
:1048E0002046FFF760FB0F48006858B10648006893
:1048F000844207D14FF080500B490860BFF34F8FBF
:10490000BFF36F8F70BD000064010020FC07002022
:104910007C010020900100209C08002070010020F4
:10492000740100208001002004ED00E003490968C3
:104930000160034909684160704700008C01002054
:10494000780100200120014908607047880100209B
:1049500070B505460C460548016818312846FFF732
:10496000C1FE01212046FFF7EDF970BD6401002072
:1049700070B504460E46154660680F490968C8615F
:104980000D49826809680A620B4909681831826812
:1049900051600949096818318160074909688C62CA
:1049A0002168491C21600DB14FF0FF362946304681
:1049B000FFF7C8F970BD0000640100201CB5154860
:1049C00000210B464022CDE9001013A1144800F04D
:1049D000B1F90446012C02D100F0E0FB0446012CA1
:1049E00014D100BF502080F31188BFF34F8FBFF365
:1049F0006F8F00BF4FF0FF300A49086001200A495D
:104A0000086000200949086000F052F80848006872
:104A10001CBD00009801002049444C4500000000E6
:104A200051400008940100208001002078010020FE
:104A30009C01002002480068401C01490860704742
:104A4000A00100201248006818B101201149086037
:104A50001DE000200F4908600F480068B0FA80F0A0
:104A6000C0F11F0101EB81020C4B03EB8200426895
:104A70005268426000F108024368934202D14268E2
:104A8000526842604268D268054B1A6000BF7047A6
:104A9000A0010020880100207C010020FC070020EC
:104AA000640100200148006870470000C401002034
:104AB00010B50A48006840F47000084908600846CC
:104AC000006840F070400860FFF77AFE002004495B
:104AD0000860FBF78FFB002010BD000020ED00E018
:104AE000D40100202DE9F84304460E461746002560
:104AF000DCB1681EB0FBF4F0B04216D304FB06F044
:104B000010F1490F11D804FB06F909F14800FFF72D
:104B100041FD05464DB1A84608F148083B464246CE
:104B2000314620460095FFF7A7FA2846BDE8F883EE
:104B30002DE9F04105460E4601272C46002C41D0B8
:104B4000E06B00283ED0B91EE06BB1FBF0F0216CA9
:104B5000884237D3FFF7ECFDD4E90F12206801FB40
:104B60000200A0600020A06320686060E06B401E2F
:104B7000226C216800FB0211E160FF2084F84400F0
:104B800084F845009EB9206908B9012000E00020A2
:104B9000A8B904F1100000F0CFF980B14FF08050B7
:104BA0000A490860BFF34F8FBFF36F8F07E004F12E
:104BB0001000FFF787FD04F12400FFF783FDFFF7E6
:104BC000C9FD00E000273846BDE8F08104ED00E0B3
:104BD0002DE9F74183B005460F464FF000082C46FB
:104BE00000BFFFF7A5FDA66BF6B139462046FFF7DB
:104BF000C5F9701EA063206908B9012000E00020FB
:104C000060B904F1100000F097F938B14FF080500E
:104C10002F490860BFF34F8FBFF36F8FFFF79AFDE7
:104C2000012006B0BDE8F081059818B9FFF792FDA4
:104C30000020F6E7B8F1000F04D101A8FFF776FED7
:104C40004FF00108FFF786FDFFF7F4FEFFF770FD58
:104C500094F94400401C10B9002084F8440094F9F1
:104C60004500401C10B9002084F84500FFF772FD94
:104C700005A901A800F02EF8F0B92046FFF7E8FAE0
:104C8000A0B104F124000599FFF762FE2046FFF76A
:104C900041FC00F0D5F90028A3D14FF080500C4919
:104CA0000860BFF34F8FBFF36F8F9AE72046FFF77F
:104CB00031FC00F0C5F994E72046FFF72BFC00F02B
:104CC000BFF92046FFF7C4FA00288AD00020A8E7E1
:104CD00004ED00E070B506460C46FFF729FD1348C9
:104CE00002687068131A2068401C08B9002519E092
:104CF0000F4930680968884206D07068904203D82E
:104D00000125002020600DE02068984207D9206826
:104D1000C01A20603046FFF709FE002502E000209F
:104D200020600125FFF716FD284670BD78010020A0
:104D30008C0100202DE9FF4F85B08046894617463B
:104D4000DDE912ABB800FFF725FC064676B14C2032
:104D5000FFF720FC04462CB14C212046FBF76EFBEC
:104D6000266304E03046FFF705FD00E000247CB137
:104D70000020CDE900ABCDE902403A464946404625
:104D8000089BFFF78CF92046FFF73CF8012501E06E
:104D90004FF0FF35284609B0BDE8F08F014908689B
:104DA00070470000780100202DE9F04100275748A6
:104DB000006800287ED156480068451C54480560AC
:104DC0008DB95448D0F800805348006851490860B4
:104DD0005148C0F8008051480068401C4F490860A5
:104DE000FFF730FB00BF4E480068854276D300BF16
:104DF00048480068006808B9012000E0002020B1A0
:104E00004FF0FF304649086067E042480068C068DC
:104E1000C4686668B54202D2414806605DE06069D8
:104E2000D4E902128A60D4E902214A60211D426855
:104E30008A4201D1E1684160002262610168491E35
:104E40000160A06A98B1A06AD4E907128A60D4E927
:104E500007214A6004F1180142688A4201D1216A9F
:104E600041600022A2620168491E016000BF94F8FF
:104E70002C10012088402B49096808432949086003
:104E8000E16A01EB8101284A02EB81014868A060D8
:104E90008268E260211D826851608160E16A01EBF5
:104EA0008101214A02EB81026261E16A01EB810129
:104EB0001D4A00E022E052F82110491CE26A02EB90
:104EC0008202194B43F822101849E06A0968C96A3E
:104ED00088428DD901278BE700E000BF13480068A6
:104EE000C06A00EB8000104951F82000012800D969
:104EF00001270F48006800B1012704E00D48006851
:104F0000401C0C4908603846BDE8F081A001002033
:104F100078010020680100206C0100208C01002035
:104F2000940100207C010020FC0700206401002087
:104F3000880100208401002070B50346D868C1684C
:104F4000886AD1E90745A560D1E90754656001F198
:104F500018044568A54201D10C6A446000258D62A1
:104F60000468641E04603048006800283DD1486928
:104F7000D1E90245A560D1E9025465600C1D456880
:104F8000A54201D1CC68446000254D610468641ECF
:104F9000046091F82C400120A040244C2468204358
:104FA000224C2060CC6A04EB8404214D05EB840480
:104FB000606888608568CD600C1D85686C60846061
:104FC000CC6A04EB84041A4D05EB84054D61CC6A70
:104FD00004EB8404164D55F82440641CCD6A05EB9F
:104FE0008505134E46F8254010E0124C6068C861F4
:104FF00085680D6201F1180485686C6084600D4D50
:105000008D622C462468641C2C6000BF0A4CC86A60
:105010002468E46AA04204D901220120074C2060E0
:1050200000E00022104670BDA00100207C0100209D
:10503000FC0700208808002064010020880100206F
:1050400070B500240026FFF773FB4B480068401E34
:10505000494908600846006800287DD14748006833
:10506000002879D05BE04648C068C468A06AD4E9EB
:1050700007128A60D4E907214A6004F118014268E6
:105080008A4201D1216A41600022A2620168491E60
:1050900001606069D4E902128A60D4E902214A60A1
:1050A000211D42688A4201D1E168416000226261AB
:1050B0000168491E016094F82C1001208840314994
:1050C000096808432F490860E16A01EB81012E4A13
:1050D00002EB81014868A0608268E260211D82685D
:1050E00051608160E16A01EB8101274A02EB810294
:1050F0006261E16A01EB8101234A52F82110491CE7
:10510000E26A02EB8202204B43F822101F49E06A58
:105110000968C96A884202D301201D4908601848FD
:10512000006808B9012000E0002000289BD00CB1E5
:10513000FFF788F91748056865B100BFFFF734FE2F
:1051400010B10120124908606D1E002DF6D100201B
:10515000104908600E4800E009E0006838B10126F7
:1051600030070D490860BFF34F8FBFF36F8FFFF714
:10517000F1FA304670BD0000A0010020740100204B
:10518000880800207C010020FC070020640100202A
:10519000880100208401002004ED00E01CB50024FB
:1051A000FEF7A2FE0748006850B10748042100231B
:1051B0003222CDE9001005A10648FFF7BBFD0446E9
:1051C00020461CBDAC010020B0010020546D7220AF
:1051D00053766300FB44000810B591EA030F48BF03
:1051E00083F0004300F14084841A71EB030C05D274
:1051F000121943EB0C03001B61EB0C01DFF824E1F7
:105200004FEA1154A4EB135C1EEA430F18BF9EEA49
:10521000445F73D023EA0E03DCF1200E21EA04512F
:1052200043F4801332D322FA0CFE10EB0E0023FA63
:105230000CFE41EB0E01CCF1200E03FA0EFE10EB3A
:105240000E0051F10001B1F5801FCCF1200E32D2D9
:1052500001EB045112FA0EF2BDE8104058BF70473E
:10526000401C38BF5FEA420218BF7047002814BFD5
:1052700020F0010041F100014FEA410313F5001F46
:1052800038BF7047A1F1C04100F09EBB012A43EB3B
:105290000302ACF1200CDCF11F0E32BF4FF0000E08
:1052A00023FA0CF310EB030041EB0451B4EB115F54
:1052B000D0D0A1EB045101F5801149085FEA30001C
:1052C00001EB04510ED350F1000038BF12FA0EFE6C
:1052D00008D1BDE81040C9E7401C38BF5FEA420270
:1052E000CAD1C3E7BDE810404FEA410313F5001FE0
:1052F00038BF7047A1F1C04100F066BB9EEA445F31
:1053000008D011EA5E0FBDE8104004BF01F0004173
:1053100000207047BDE8104070B500F007FB00BFEB
:1053200064FBBE3E0000E0FF02494FF0000000F0C9
:10533000CEBD00BF0000F87F491058BFC1F1404109
:105340005B1058BFC3F140438B42EFF300807047BE
:105350002DE9C04130B4DFF8A0C23CEA111418BFF7
:105360003CEA131400F0EC8081EA03051CEA1114F6
:1053700044EAD57418BF1CEA131500F0C780A4EBEB
:1053800005044FF0004545EAC12145EAC32341EA3F
:10539000505143EA525304F17F74994204F50034AA
:1053A0004FEAC0204FEAC22208BF904200F09C8022
:1053B0004FEA13650FF24016765D4FEA134506FB80
:1053C00005F7C7F1807706FB07F74FEAD737A7FB4A
:1053D00003687642C8F58038A7FB06CE38BFA8F12F
:1053E000010807FB08E64FF0000EA6FB028CE6FB67
:1053F00003CEDCF1000CCEF1004E38BFAEF1010E51
:10540000A6FB0C584FF000074FF00005E6FB0E8797
:10541000A1FB08C6A0FB07CE16EB0E0645F1000562
:10542000E1FB076515F1E04E7EBFA4F580345FEA2D
:1054300046066D4116F1800745F100054FEA172732
:105440004FEA066647EA0567A6F1DE46B6F1805FD9
:105450004FEA15251FD9384624F0010C05EBC4711D
:10546000BCF1FE6F01EB0C1102D8F0BCBDE800816D
:1054700024425CBF01F5801E9EEAC47F02D4F0BCCA
:10548000BDE80081244238D4F0BCA1F1C041BDE8A0
:10549000004100F099BA4FEAD22242EA43524FEA61
:1054A000D323A7FB02864FEAD02040EA415007FBF6
:1054B00003661EEA0E0F4FEAD12105FB026658BFB4
:1054C000A6EB0056B6EB00564FEA520E4EEAC37EEC
:1054D00018EB0E0E56EB530EBDD518EB02085E41CD
:1054E0007F1C55F10005B6E74FF480154FF000071B
:1054F0004FF000064FF00008ADE7F0BC4FF00000A1
:1055000001F1C04101F00041BDE8008111EA0C1F2A
:105510000CEA131500D00CE013EA0C1F00F02580F4
:105520004FF00000F0BC81EA030101F00041BDE84A
:105530000081F0BCBDE8004181EA030100F044BAFB
:10554000F0BCBDE8004170B500F0F0F9097EFC3E0A
:1055500000F007B881EA03014FF0000001F00041BC
:10556000704781EA030100F02FBAF0BCBDE80041AA
:105570004FF0000021497047FFFDFBF9F7F5F4F209
:10558000F0EEEDEBE9E8E6E4E3E1E0DEDDDBDAD8DE
:10559000D7D5D4D3D1D0CFCDCCCBCAC8C7C6C5C43C
:1055A000C2C1C0BFBEBDBCBBBAB9B8B7B6B5B4B353
:1055B000B2B1B0AFAEADACABAAA9A8A8A7A6A5A43E
:1055C000A3A3A2A1A09F9F9E9D9C9C9B9A99999802
:1055D0009797969595949393929191908F8F8E8EA5
:1055E0008D8C8C8B8B8A8989888887878685858432
:1055F00084838382828181800000FF070000F87F1E
:1056000051EA030C17D41CF5801F58BFBCF5801F4E
:1056100000F10680994218BF704708BF904270475A
:1056200007D711F5801F58BF13F5801F19D4994271
:105630007047894270471CF5801F08D5BCF5801F54
:10564000F7D58B4218BF704708BF824270474FF4AE
:10565000001C1CEB410F38BF1CEB430F01D28B42E7
:10566000704770B500F062F9922449004FF0005184
:105670004FF08053FFF760BE4FEA41034FEA5353A8
:10568000A3F58063D3F11E03C8BFD3F1210C0CDD59
:105690004FF0004242EAC12242EA505232FA03FC81
:1056A0008CEAE17CACEBE1707047102BC4BF0020AA
:1056B000704703F5787CBCF1FF3F04D06FF00042E7
:1056C00082EA2100704770B500F030F949922480D9
:1056D00000207047F2E700004FEA1153A3F5806302
:1056E000D3F11E03A8BFD3F1200C08DB4FF000421A
:1056F00042EAC12252EA505232FA03F0704709429C
:105700000BD4102BC4BF0020704703F5787CBCF18C
:10571000FF3F05D04FF0FF3070474FF0000070475B
:1057200070B500F003F900BF499224800020704753
:10573000F0E710F0004248BF4042B0FA80F310FAA0
:1057400003F10AD0C3F11D0303F580634FEA415012
:1057500002EB035202EBD12170474FF0000070477B
:1057600051EA030C17D41CF5801F58BFBCF5801FED
:1057700000F10680994218BF704708BF90427047F9
:1057800007D711F5801F58BF13F5801F19D4994210
:105790007047894270471CF5801F08D5BCF5801FF3
:1057A000F7D58B4218BF704708BF824270474FF44D
:1057B000001C1CEB410F38BF1CEB430F01D28B4286
:1057C000704770B500F0B2F8922449004FF00051D4
:1057D0004FF08053FFF7B0BDDFF848C170B51CEA49
:1057E000111E1EBF1CEA13159EEA0C0F95EA0C0F42
:1057F00000F06F8081EA030423EA4C134EEAD47E62
:1058000021EA4C1141F4801143F48013AE44A1FB12
:10581000024CA0FB0365AEF17F7E361955EB0C05FB
:10582000A1FB034C4CF10003A0FB021C16EB0C0681
:10583000654153F10003094218BF46F0010613F415
:10584000007F0BD14FEA03314FEA0530340341EAC0
:10585000155140EA16506FF003020AE04FEAC321E7
:105860004FEAC520F40241EA555140EA56506FF024
:10587000020202EB2E4201EB025585EACE710AD0FC
:105880005FEA440C18BF24F0004450F1000041F1DD
:10589000000120EAD47040F2FE7C624500D270BD67
:1058A000A84214BF4FF080444FF04044002E08BF80
:1058B0000024BEF1806FA8BFA1F1C041BDE87040D7
:1058C00080F282804FF0000001F1C04101F0004100
:1058D00070479EEA0C0F0CEA131518BF95EA0C0FDF
:1058E00006D04FF0000081EA030E0EF0004170BDBB
:1058F00000F01CF88900013E00F007B800F009B87C
:105900004FEA430C5FEA5C5C08D081EA030100F0D7
:105910005BB84FEA410C5FEA5C5CF6D14FF00000E7
:10592000014970470000FF070000F87F0EF1020EEA
:105930002EF0030E5EF8046B364205D4012A43EBC9
:10594000030515F5001F12D8012841EB010C1CF5C9
:10595000001F0CD80ED14FEAD17C15F5001F0CEBBF
:105960004C0C0CF1020C08BF4CEBD37C04E04FF064
:10597000080C01E04FEAD37C0CEB4C0526FA05F647
:1059800006F00706B6F1040C06D20EEB860CBDE855
:1059900070404CF0010C6047DFE80CF0090B02028C
:1059A0004FF000414FF00000A1F5002170BD1946F5
:1059B0001046012851EB010418BFD4F5001484BF30
:1059C000002001F0004170BD0808A0F500114FEA69
:1059D0003101704753EA010C17D41CF5801F58BFE2
:1059E000BCF5801F00F106808B4218BF704708BFCE
:1059F0008242704707D713F5801F58BF11F5801FEB
:105A000019D48B4270479B4270471CF5801F08D504
:105A1000BCF5801FF7D5994218BF704708BF904268
:105A200070474FF4001C1CEB430F38BF1CEB410FB9
:105A300001D2994270470FB40CBC03BCFFF7C1BE42
:105A400091EA030F10B581F000413FF5CDAB83F033
:105A5000004300F009B8000010B591EA030F48BFF9
:105A600083F000433FF5C0AB841A71EB030C07D2FF
:105A700012198CF0004C43EB0C03001B61EB0C0182
:105A8000DFF8A4E14FEA1154A4EB135C1EEA430FC4
:105A900018BF9EEA445F00F0B08023EA6E035242D2
:105AA00021EA0451C3EB6E0338BF5B1EDCF1200E0C
:105AB00025D322FA0CFE10EB0E0043FA0CFE41EB4C
:105AC0000E01CCF1200E03FA0EFE10EB0E0051F188
:105AD0000001CCF1200E29D412FA0EF201EB045190
