:020000040800F2
:10000000C0200020690200084D1100088B0900087B
:100010000D0B00084B070008ED1F00080000000052
:10002000000000000000000000000000D1010008F6
:100030004F0700080000000015020008ED18000836
:10004000830200088302000883020008830200087C
:10005000830200088302000883020008830200086C
:10006000830200088302000883020008830200085C
:10007000830200088302000883020008830200084C
:10008000830200088302000883020008830200083C
:10009000830200088302000883020008830200082C
:1000A000830200088302000883020008830200081C
:1000B000251A0008830200080000000083020008DF
:1000C0008302000800000000000000008302000816
:1000D0000000000083020008830200080000000006
:1000E00083020008830200088302000800F002F87F
:1000F00000F05EF80AA090E8000C82448344AAF164
:100100000107DA4501D100F053F8AFF2090EBAE861
:100110000F0013F0010F18BFFB1A43F0010318473B
:100120002C4700004C4700000A444FF0000C10F828
:10013000013B13F0070408BF10F8014B1D1108BF65
:1001400010F8015B641E05D010F8016B641E01F805
:10015000016BF9D113F0080F1EBF10F8014BAD1C55
:100160000C1B09D16D1E58BF01F801CBFAD505E073
:1001700014F8016B01F8016B6D1EF9D59142D6D3CD
:10018000704700000023002400250026103A28BFF5
:1001900078C1FBD8520728BF30C148BF0B607047F9
:1001A0001FB59DE8030000F01FF91FBD10B510BD7D
:1001B00000F09EF91146FFF7F3FF01F019FF00F080
:1001C000BCF903B4FFF7F2FF03BC00F0EDF9000047
:1001D000224B19680868B0E8F00F80F30988BFF374
:1001E0006F8F4FF0000080F311884EF00D0E7047B6
:1001F0000000000006480068006880F3088862B6C6
:1002000061B6BFF34F8FBFF36F8F00DF00BF00BF3A
:1002100008ED00E0EFF30980BFF36F8F0F4B1A6812
:1002200020E9F00F106008B54FF0500080F31188FE
:10023000BFF34F8FBFF36F8F02F0E8FA4FF000006B
:1002400080F31188BDE8084019680868B0E8F00F2D
:1002500080F30988BFF36F8F704700BF380100201B
:10026000EFF30580704700000948804709480047C0
:10027000FEE7FEE7FEE7FEE7FEE7FEE7FEE7FEE756
:10028000FEE7FEE704480549054A064B70470000B3
:1002900021190008ED000008C0160020C020002031
:1002A000C01B0020C01B002070B5064600F080F87F
:1002B000056806F10B0020F00704B4429CBF002043
:1002C00070BD2B466A68BAB11068A04210D304F121
:1002D000080188423CBF5068586007D35168101924
:1002E00041601168091B016058601460101D70BDE9
:1002F00013465268002AE7D12146284600F060F8EC
:100300000028DED170BD02F0FF0343EA032242EA77
:10031000024200F002B84FF000020429C0F012803F
:1003200010F0030C00F01B80CCF1040CBCF1020FA8
:1003300018BF00F8012BA8BF20F8022BA1EB0C017D
:1003400000F00DB85FEAC17C24BF00F8012B00F873
:10035000012B48BF00F8012B70474FF0000200B599
:10036000134694469646203922BFA0E80C50A0E8D8
:100370000C50B1F12001BFF4F7AF090728BFA0E886
:100380000C5048BF0CC05DF804EB890028BF40F852
:10039000042B08BF704748BF20F8022B11F0804F94
:1003A00018BF00F8012B7047704770477047000076
:1003B00000487047681600207047704770477047C4
:1003C00038B504460A4600206946AFF3008000288D
:1003D00008BF38BD02460099204600F067F80120AA
:1003E00038BD012000F07CB8F8B5AFF300800546B9
:1003F00000200C46102000BF0646A819A0420DD9C7
:10040000324669460020AFF30080070008BF00F0C5
:1004100067F80098A04218BF0546C419FFF7C8FF47
:1004200005600746F01D20F007004619284600F039
:100430000AF8B44208BFF8BDA21B31463868BDE8CF
:10044000F84000F033B800210160C0E901107047A6
:100450001020704770B50446051FFFF7A9FF00681C
:10046000002C14BF446870BD002C18BFAC423CBFC8
:1004700020466468F8D301680A18AA4218BF45608C
:1004800003D12A6805461144016028684119A14238
:100490001CBF6C6070BD6168696021680844286099
:1004A00070BD000000487047601600200346406899
:1004B0008C46002818BF88423CBF03464068F8D3EA
:1004C00018681844884207D00CF1030020F0070098
:1004D000001D411A521A0146081D0A60FFF7BABFF3
:1004E00010B500F039F8BDE8104000F02FB87047A3
:1004F0007546FFF7D7FFAE4605006946534620F024
:100500000700854618B020B5FFF7BCFEBDE82040C7
:100510004FF000064FF000074FF000084FF0000BBF
:1005200021F00701AC46ACE8C009ACE8C009ACE872
:10053000C009ACE8C0098D46704710B50446AFF35A
:1005400000802046BDE81040FFF73BBE002801D0E8
:1005500000F02AB87047000010B5012805D000212E
:1005600003A000F027F8012010BD09A1F8E7000062
:1005700053494752544D454D3A204F7574206F668C
:100580002068656170206D656D6F727900000000F4
:100590003A2048656170206D656D6F727920636FD8
:1005A000727275707465640001491820ABBEFEE775
:1005B0002600020070B505460C460A2000E06D1CBE
:1005C00000F011F835B128780028F8D102E0641C59
:1005D00000F009F814B120780028F8D1BDE8704087
:1005E0000A20AFF3008008B569468DF800000320AB
:1005F000ABBE08BD10B503480078012801D100F05A
:1006000003F810BD2F01002010B500F00BF80348CF
:1006100001680348007801F0A5FC10BD100100201E
:100620002C01002010B5012000F03EFA01280FD166
:100630000221314800F087F830490968886830495C
:10064000097800F061FD2F490860012000F011FADF
:10065000022000F029FA012817D12B480078401E0B
:1006600029490870294908782749097800F060F875
:1006700025490870084601782548006800F02EFDDD
:100680001E490860022000F0F4F9032000F00CFA83
:10069000012817D11C480078401C1B4908701B49D1
:1006A00008781949097800F043F817490870084696
:1006B00001781748006800F011FD10490860032018
:1006C00000F0D7F9012000F0EFF9022809D002204C
:1006D00000F0EAF9022804D0032000F0E5F902282E
:1006E00008D1012000F0C5F9022000F0C2F9032072
:1006F00000F0BFF910BD00002F01002030010020E4
:100700002D010020340100202C01002007010020D1
:100710001001002010B501210348006800F0DEFC44
:100720000249086010BD00001001002030010020C7
:100730000246914201DD10467047002901DC01208C
:10074000FAE70846F8E70170704700BFFEE7704718
:1007500008B50121042001F045F84FF40070ADF810
:1007600000001C208DF8030003208DF8020069466C
:10077000014800F003F808BD000801402DE9F041F0
:10078000024600250026002000230024002791F8BF
:1007900003C00CF00F0591F803C00CF0100CBCF175
:1007A000000F03D091F802C04CEA050591F800C093
:1007B000BCF1000F31D0146800202BE04FF0010C89
:1007C0000CFA00F3B1F800C00CEA03069E4220D1F7
:1007D00083004FF00F0C0CFA03F7BC4305FA03FC3F
:1007E0004CEA040491F803C0BCF1280F06D14FF085
:1007F000010C0CFA00FCC2F814C00AE091F803C026
:10080000BCF1480F05D14FF0010C0CFA00FCC2F806
:1008100010C0401C0828D1D31460B1F800C0BCF14E
:10082000FF0F34DD546800202EE000F1080C4FF07B
:10083000010808FA0CF3B1F800C00CEA03069E4266
:1008400021D183004FF00F0C0CFA03F7BC4305FADB
:1008500003FC4CEA040491F803C0BCF1280F05D155
:1008600000F1080C08FA0CF8C2F8148091F803C0E3
:10087000BCF1480F07D100F1080C4FF0010808FA4D
:100880000CF8C2F81080401C0828CED35460BDE894
:10089000F08110B500F05EF8FFF75AFF00F002F8A3
:1008A00010BD000008B50121042000F09BFF0121CC
:1008B000082000F097FF0220ADF8000048208DF8D6
:1008C000030003208DF8020069460F48FFF756FF2A
:1008D0000120ADF8000048208DF8030003208DF8BA
:1008E000020069460848FFF749FF0120ADF8000003
:1008F00048208DF8030003208DF802006946034864
:10090000FFF73CFF08BD0000000C0140000801405B
:100910000246002093680B400BB1012000E000204C
:100920007047000010B502210148FFF7F1FF10BD2C
:10093000000C014010B501210148FFF7E9FF10BD8F
:10094000000C014010B501210148FFF7E1FF10BD87
:100950000008014008B50121042000F043FF4FF4D6
:100960008050ADF8000014208DF8030003208DF8AE
:10097000020069460148FFF701FF08BD0008014079
:100980000AB1016100E04161704700BFFEE710B5A8
:100990000024FFF7C7FFF8B9052001F075FEFFF747
:1009A000C1FFC8B909E0601C84B2012001F06CFEEF
:1009B0004EF66020844200DB0446FFF7B3FF0028B8
:1009C000F1D0322C04DB0221012000F087F803E093
:1009D0000121084600F082F810BD10B50024FFF791
:1009E000A9FFF8B9052001F04FFEFFF7A3FFC8B932
:1009F00009E0601C84B2012001F046FE4EF6602042
:100A0000844200DB0446FFF795FF0028F1D0322C2A
:100A100004DB0221084600F061F803E00121022016
:100A200000F05CF810BD10B50024FFF78BFFF8B99B
:100A3000052001F029FEFFF785FFC8B909E0601C19
:100A400084B2012001F020FE4EF66020844200DBDB
:100A50000446FFF777FF0028F1D0C82C04DB022101
:100A6000032000F03BF803E00121032000F036F8FA
:100A700010BD00B50346012B04D0022B07D0032B79
:100A80000FD109E00021012000F028F809E0002141
:100A9000022000F023F804E00021032000F01EF8FB
:100AA00000BF00BF00BD00000146012904D002299B
:100AB00005D0032909D105E00548007870470548AD
:100AC0000078FBE704480078F8E7FF20F6E700002D
:100AD000000000200100002002000020012804D0B6
:100AE000022805D0032809D105E0054A117005E068
:100AF000044A117002E0044A117000BF00BF704741
:100B000000000020010000200200002000BFFEE7DE
:100B10007FB5194800F038F9184908600320002112
:100B2000174A184BCDE90032CDE90210164B174A8F
:100B30001749184800F058F904460323164A174984
:100B4000174800F091F905460323164A164917483D
:100B500000F08AF9064621460848006800F077FA56
:100B600029460648006800F072FA314603480068DA
:100B700000F06DFA7FBD0000F20000201C01002093
:100B8000CC000020B8000020B4000020B0000020FD
:100B9000600000209D360008A700002055000020BE
:100BA00061360008A80000206A000020D93600083D
:100BB0002DE9F04100F070F822490860224B2348EB
:100BC00023490268234800F071F80446224B234869
:100BD00023490268234800F069F80546224B234860
:100BE00023490268234800F061F80646224B234857
:100BF00023490268234800F059F80746224B23484E
:100C000023490268234800F051F8804621460D48E8
:100C1000006800F010FA29460A48006800F00BFA54
:100C200031460848006800F006FA39460548006871
:100C300000F001FA41460348006800F0FCF9BDE805
:100C4000F0810000100100200B0100202001002095
:100C5000DE0000207D3800080C0100202801002063
:100C600000010020DD4100080801002014010020DF
:100C7000E50000200D3A00080901002018010020BD
:100C8000EB0000202D3D00080A0100201C0100207F
:100C9000F2000020BD3E000810B500231A46194698
:100CA000184600F003F80446204610BD2DE9F04137
:100CB00005460F46164698461820FFF7F5FA0446F3
:100CC00014B90020BDE8F08125606760A660C4F813
:100CD0000C802046F6E72DE9F04705460E461746FC
:100CE0009846DDE908A92420FFF7DEFA044614B986
:100CF0000020BDE8F0872560C4F804902672E76004
:100D0000C4F8108084F814A0C4F818902046F0E7C6
:100D100010B500F009F800F045F8FFF7F9FE00F013
:100D2000BFF8FFF745FF10BD70B50F4800F02CF875
:100D30000E49086003230E4A0E490F4800F094F84C
:100D4000044603230D4A0E490E4800F08DF805466F
:100D500021460648006800F07AF9294603480068F1
:100D600000F075F970BD0000E500002014010020BE
:100D7000A500002044000020E9350008A60000205E
:100D80004D000020253600087CB5044600200346AF
:100D900002460146CDE90004FFF79DFF05462846BF
:100DA0007CBD000038B50A48FFF7EEFF094908602E
:100DB0000120094B094A0A4900900A4800F0E8F866
:100DC000044621460348006800F041F938BD0000A0
:100DD000EB00002018010020AC000020D60000200D
:100DE00055000020613600082DE9FC5F81460D4664
:100DF00016461F46DDF83CB0DDF834A0CDF800A063
:100E0000394630460E9B0C9A00F015F88046B8F132
:100E1000000F02D10020BDE8FC9F434600220221C2
:100E20004846CDE900B5FFF756FF04460CB900204F
:100E3000F1E72046EFE72DE9F04705460E46174655
:100E40009846DDF820901420FFF72EFA044614B9D6
:100E50000020BDE8F08725606660A76084F80C80FC
:100E6000C4F810902046F4E72DE9FC4781460D4672
:100E700016461F46304600F05DF9044614B90020BE
:100E8000BDE8FC872346002201214846CDE90075D4
:100E9000FFF721FF80460CB90020F1E74046EFE75D
:100EA0002DE9FF412548FFF76FFF25490860002322
:100EB000244A25492548FFF7D7FF06460020244A43
:100EC000244BCDE9012000930390234B234A24496E
:100ED0002448FFF789FF04460023234A2349244876
:100EE000FFF7C2FF07460023224A23492348FFF7A2
:100EF000BBFF80460020224B224A23490090234812
:100F000000F046F8054631460D48006800F09FF8AD
:100F100021460B48006800F09AF8394608480068F6
:100F200000F095F841460648006800F090F8294620
:100F30000348006800F08BF8BDE8FF81DE00002068
:100F400020010020A90000207400002015370008AF
:100F5000D1000020C4000020C0000020BC00002000
:100F60007C00002051370008AA00002087000020E4
:100F70008D370008AB0000208E000020C937000824
:100F8000C8000020D9000020950000200538000886
:100F90002DE9FC4781460D4616461F46DDF828A080
:100FA0003946304600F015F88046B8F1000F02D1FE
:100FB0000020BDE8FC874346002203214846CDE9D6
:100FC00000A5FFF788FE04460CB90020F1E7204693
:100FD000EFE770B505460E460820FFF765F90446B1
:100FE0000CB9002070BD256066602046FAE7014616
:100FF000084600E040694269002AFBD1704701467B
:1010000000204A6902E0431C58B25269002AFAD112
:1010100070470146084600E0006A026A002AFBD1D8
:101020007047014600200A6A02E0431C58B2126A67
:10103000002AFAD1704730B505460B462846FFF71F
:10104000D6FF044663611C610020586130BD30B595
:1010500005460B462846FFF7DCFF04462362DC61A9
:101060000020186230BD10B5FFF752FE00F002F804
:1010700010BD000000B50F480068FFF7D2FF0E4911
:1010800008700E480068FFF7CCFF0D4908700D4846
:101090000068FFF7C6FF0C4908700C480068FFF7AE
:1010A000C0FF0B4908700B480068FFF7A8FF0A490A
:1010B000087000BD14010020080100201801002064
:1010C000090100201C0100200A010020200100204D
:1010D0000B010020100100200701002010B502467E
:1010E0000B460AB1002B01DC002010BD0124516920
:1010F00006E0A34201D10846F7E7601CC4B2496983
:101100000029F6D10020F0E710B502460B460AB1DF
:10111000002B01DC002010BD0124116A06E0A3426F
:1011200001D10846F7E7601CC4B2096A0029F6D16C
:101130000020F0E770B505460420FFF7B5F8044637
:101140000CB9002070BD25602046FBE77047000009
:1011500070B5002100230F22C47804B3154C246815
:1011600004F4E064C4F5E064210AC1F10403CA4058
:10117000447804FA03F184781440214309010E4CA9
:101180000678A155047804F01F050124AC400578C9
:101190006D11AD0005F1E025C5F8004109E00478C6
:1011A00004F01F050124AC40044D0678761145F883
:1011B000264070BD0CED00E000E400E080E100E0BE
:1011C00002490143024A1160704700000000FA051D
:1011D0000CED00E000200CE0002106E00022064BB0
:1011E00003EBC0135A544A1CD1B28029F6DB421CCF
:1011F000D0B20828F0DB7047980100202DE9F043B9
:1012000004460D4616461F467F2C01DDBDE8F083DF
:101210003F2D00DDFAE7A119802902DDC4F180012C
:10122000CEB2E919402902DDC5F14001CFB228460E
:1012300030E0234629E04FEAE07C00EB5C7C4FEA9B
:10124000EC0CDFF85C8008EBCC1C1CF803C00246F9
:101250004FEAE07800EB58784FEAE808A0EBC809BD
:101260004FF0010808FA09F82CEA080C01464FEA89
:10127000E07800EB58784FEAE808DFF8249009EBB3
:10128000C81808F803C0591CCBB2A1199942D2DC86
:10129000411CC8B2E9198142CBDC00BFB6E70000AF
:1012A0009801002070B503467F2B00DD70BD3F29FB
:1012B00000DDFBE7CC1701EB5474E4100C4D05EB9B
:1012C000C414E45C0A46CD1701EB5575ED10A1EB93
:1012D000C5060125B5402C430846CD1701EB5575D1
:1012E000ED10034E06EBC515EC5400BFDEE7000021
:1012F000980100202DE9F04705460E46174698460E
:10130000DDF820A0BAF1000F24D12C460CE03146C4
:101310002046FFF7C7FF06EB0800401EC1B220467B
:10132000FFF7C0FF601CC4B2E819A042EFDC3446EE
:101330000BE021462846FFF7B5FFE919491EC8B260
:101340002146FFF7AFFF601CC4B206EB0800A042C5
:10135000EFDC14E02C460FE0B14607E0494620469A
:10136000FFF7A0FF09F1010000F0FF0906EB0800FC
:101370004845F3DC601CC4B2E819A042ECDCBDE8CF
:10138000F087000038B5002406E0002500E06D1C61
:10139000B5F57A7FFBD3641CB4F57A7FF5D30121D0
:1013A000082000F01FFA14208DF8030003208DF8A8
:1013B00002004020ADF8000069460848FFF7DEF95A
:1013C0008020ADF8000069460448FFF7D7F90120F6
:1013D00000F0BCF9012000F0C3F938BD000C014059
:1013E00070B50546002411E080212141294009B152
:1013F000012100E00021084600F0B2F9012000F0D0
:10140000A5F9002000F0A2F9601CC4B2082CEBDBA7
:10141000012000F09BF9002000F098F970BD10B594
:10142000012000F09DF9012000F090F9002000F06B
:1014300097F9002000F08AF910BD10B5002000F0E7
:101440008FF9012000F082F9012000F089F910BD28
:1014500010B5FFF797FFAE2000F08CF9D52000F013
:1014600089F9802000F086F9A82000F083F93F2058
:1014700000F080F9D32000F07DF9002000F07AF927
:10148000402000F077F9A12000F074F9C82000F0A6
:1014900071F9DA2000F06EF9122000F06BF981206A
:1014A00000F068F9FF2000F065F9D92000F062F93A
:1014B000F12000F05FF9DB2000F05CF9302000F053
:1014C00059F9A42000F056F9A62000F053F98D2018
:1014D00000F050F9142000F04DF9AF2000F04AF967
:1014E000FFF778FE00F01AF910BD10B50246012092
:1014F00000E050430B1EA1F10101FAD110BD70B5FF
:1015000005460C4645F0B00000F034F9102141EAE0
:10151000141000F02FF904F00F0000F02BF970BD4B
:10152000F8B506460F4614461D46082D0CD1A4F109
:1015300020000E4901EB00101023082239460090CC
:10154000304600F017F80FE0062D0DD1A4F1200071
:1015500000EB4000064901EB400008230622394613
:101560000090304600F006F8F8BD0000F42B0008AB
:10157000E43100082DE9F04707460C4690469946AD
:10158000DDF820A07F2F01DDBDE8F0873F2C00DDD6
:10159000FAE74B46424621463846FFF72FFE002524
:1015A00070E0002669E0B8197F2800DD67E0E117E8
:1015B00004EB517105EBE101072900DDE4E720466A
:1015C000E21704EB527205EBE202344B03EBC2125A
:1015D000BB19D25C2146E31704EB5373DB10A4EB79
:1015E000C30305FB086C1AF80CC00CFA03FC42EAB2
:1015F0000C02E31704EB537305EBE303DFF89CC025
:101600000CEBC31307EB060C03F80C20E11704EBFB
:10161000517105EBE101491C072900DD2BE0204653
:10162000E21704EB527205EBE202521C1B4B03EB78
:10163000C212BB19D25C2146E31704EB5373DB10D3
:10164000A4EBC303C3F1080305FB086C1AF80CC034
:101650004CFA03FC42EA0C02E31704EB537305EB6C
:10166000E3035B1CDFF834C00CEBC31307EB060C81
:1016700003F80C2000BF701CC6B2464593DB00BFC8
:10168000681CC5B2A9F10100C11700EB517101221C
:1016900002EBE101A94284DC00BF75E7980100205C
:1016A0002DE9F0470646894617461D46DDF820809D
:1016B000002417E0281B411E0A20FFF716FFB7FB86
:1016C000F0F00A21B0FBF1F201FB120000F1300A48
:1016D00004FB0861C8B2434652464946FFF720FF63
:1016E000601CC4B2AC42E5DBBDE8F0872DE9F041F7
:1016F0000646884615461F46002409E02A5D04FB7D
:101700000761C8B23B464146FFF70AFF601CC4B2FE
:10171000285D0028F2D1BDE8F081000010B500F08E
:101720005FFF00240BE000212046FFF7E8FE06499A
:1017300001EBC410802100F02DF8601CC4B2082C0D
:10174000F1DB00F05FFF10BD9801002010B50446EA
:10175000224640210148FFF713F910BD000C01405B
:1017600010B50446224680210148FFF709F910BD53
:10177000000C014010B50446FFF751FE7820FFF73A
:101780002FFE0020FFF72CFE2046FFF729FEFFF773
:1017900054FE10BD70B505460E46FFF740FE78209A
:1017A000FFF71EFE4020FFF71BFE002404E0285D2B
:1017B000FFF716FE601CC4B2B442F8DBFFF73DFE33
:1017C00070BD000029B1064AD2690243044BDA61B8
:1017D00004E0034AD2698243014BDA61704700009A
:1017E0000010024029B1064A92690243044B9A61F3
:1017F00004E0034A92698243014B9A6170470000FA
:101800000010024010B500F001F810BD0CB500202A
:10181000019000903348006840F4803031490860FE
:1018200000BF3048006800F4003000900198401C70
:101830000190009818B90198B0F5A06FF1D129482E
:10184000006800F4003010B10120009001E0002099
:1018500000900098012843D12348006840F0100010
:10186000214908600846006820F003000860084627
:10187000006840F0020008601A4840681949486052
:101880000846406848600846406840F48060486008
:101890000846406820F47C1048600846406840F4E0
:1018A000E81048600846006840F08070086000BF9B
:1018B0000C48006800F000700028F9D00948406822
:1018C00020F00300074948600846406840F00200E5
:1018D000486000BF0348406800F00C000828F9D1B8
:1018E0000CBD0000001002400020024010B500BFF7
:1018F000502080F31188BFF34F8FBFF36F8F00BF6D
:1019000001F002F818B14FF080500449086000BFA0
:10191000002080F3118800BF10BD000004ED00E03E
:1019200010B51348006840F00100114908600846EE
:101930004068104908400E494860084600680E4952
:1019400008400B4908600846006820F480200860C1
:101950000846406820F4FE0048604FF41F0088608D
:10196000FFF750FF4FF000600449086010BD000011
:10197000001002400000FFF8FFFFF6FE08ED00E057
:1019800001E0FFF704F8FCE700BFFEE700BFFEE759
:1019900000BFFEE700BFFEE700BFFEE700BFFEE7B7
:1019A00001E0FFF71AF8FCE701E0FFF73CF8FCE77D
:1019B000FFF74EFD062306A200210846FFF796FE1C
:1019C000FFF7ACFE03E0FEF715FEFFF7A7FEFAE710
:1019D0006E6169686170690000BFFEE700BFFEE7E5
:1019E00000BFFEE700BFFEE700BFFEE71CB54FF4F7
:1019F0004070FFF7E5FB0648012100238022CDE976
:101A0000001004A1064800F04BFF00F0C1FE1CBD11
:101A1000400000205461736B5F5374617274000066
:101A2000351D000810B50121880700F0B3F8012822
:101A300006D10021800700F01DF80120034908703D
:101A40000121880700F013F810BD000003000020FA
:101A500021B1028842F08002028004E002884FF641
:101A60007F731A4002807047CA4302827047CA439C
:101A70000282704721B1028842F00102028004E034
:101A800002884FF6FE731A400280704731B1B0F8F9
:101A9000442042F40042A0F8442005E0B0F844207D
:101AA000C2F30E02A0F8442070471FB5012108467A
:101AB000FFF788FE0020ADF80A00ADF80600ADF88B
:101AC00008002320ADF8040000208DF80C0001A9C7
:101AD0004FF0804000F0DCF801218807FFF7C4FFD9
:101AE00001221146900700F066F81C208DF80000D6
:101AF00001208DF8030002208DF801006846FFF7F1
:101B000027FB00214FF0804000F0C0F800214FF08B
:101B10008040FFF7AFFF1FBD00B587B00121C802AD
:101B2000FFF760FE0020ADF81600ADF8120040F29D
:101B3000E730ADF814004720ADF8100000208DF814
:101B4000180004A9124800F0A3F87020ADF80000B6
:101B50000020ADF808000120ADF802000020ADF82B
:101B6000060069460A4800F03FF80821084800F0DE
:101B700031F801210648FFF76BFF01210448FFF708
:101B800085FF01210248FFF775FF07B000BD000087
:101B9000002C014030B50246002000230024158AA5
:101BA00005EA0103958905EA010413B10CB101208E
:101BB00000E0002030BD1AB183890B43838102E02D
:101BC00083898B438381704710B5FFF76EFFFFF762
:101BD000A3FF10BD0A460021018B4FF6F773194091
:101BE000114301837047000070B5002400220023D8
:101BF000058C4FF6EF7635400584028C8388048B84
:101C000048F6FF752C404FF6FF452C400D884FF6E7
:101C1000FF7606EA05252C434FF6DF752A400D892D
:101C200006EA05152A434D8806EA05152A43154D8F
:101C3000A84202D0144DA8421DD14FF67F752A400C
:101C40004D894FF6FF7606EA05152A434FF6BF7514
:101C50002A408D8806EA05152A434FF6FF352B40AA
:101C60004FF2FF752B408D8906EA85052B43CD8900
:101C700006EA85052B4383800483CD88058702848B
:101C800070BD0000002C0140003401408184704789
:101C9000002202881D4B98420ED01D4B98420BD05B
:101CA000B0F1804F08D01B4B984205D01A4B984298
:101CB00002D01A4B984204D14FF68F731A404B88CA
:101CC0001A43174B984207D0164B984204D04FF650
:101CD000FF431A40CB881A4302808B8883850B8888
:101CE00003850A4B98420BD0094B984208D00E4B03
:101CF000984205D00D4B984202D00D4B984201D12D
:101D00000B7A03860123838270470000002C014078
:101D1000003401400004004000080040000C004076
:101D20000010004000140040004001400044014009
:101D3000004801401CB5044600F052FC4D4801210A
:101D400000238022CDE900104BA14D4800F0A8FDF2
:101D50004C48012100238022CDE900104AA14C48C3
:101D600000F09EFD4B48012100238022CDE90010A8
:101D700049A14B4800F094FD4A48012100238022EC
:101D8000CDE9001048A14A4800F08AFD49480121E8
:101D900000238022CDE9001047A1494800F080FDD2
:101DA0004848012100238022CDE9001046A148487F
:101DB00000F076FD4748012100238022CDE9001084
:101DC00045A1474800F06CFD4648012100238022D0
:101DD000CDE9001044A1464800F062FD45480121CC
:101DE00000238022CDE9001043A1454800F058FDB2
:101DF0004448012100238022CDE9001042A144483B
:101E000000F04EFD4348012100238022CDE900105F
:101E100041A1434800F044FD4248012100238022B3
:101E2000CDE9001040A1424800F03AFD41480121AF
:101E300000238022CDE900103FA1414800F030FD91
:101E40004048012100238022CDE900103EA14048F6
:101E500000F026FD3F48012100238022CDE900103B
:101E60003DA13F4800F01CFD002000F027FC00F0E1
:101E7000C9FB1CBD040000205441534B310000003D
:101E800081190008080000205441534B3200000023
:101E9000A11900080C0000205441534B33000000EE
:101EA000A9190008100000205441534B34000000D1
:101EB000B1190008140000205441534B35000000B4
:101EC000D9190008180000205441534B3600000077
:101ED000DD1900081C0000205441534B370000005E
:101EE000E1190008200000205441534B3800000045
:101EF000E5190008240000205441534B390000002C
:101F0000E9190008280000205441534B31300000EB
:101F1000891900082C0000205441534B3131000036
:101F20008D190008300000205441534B313200001D
:101F300091190008340000205441534B3133000004
:101F400095190008380000205441534B31340000EB
:101F5000991900083C0000205441534B31350000D2
:101F60009D190008F8B504460E461E4890F9000079
:101F7000844200DDF8BDFFF72DF921463046FFF71A
:101F8000ADF805460823002101206A68FFF7AEFB83
:101F9000286828235022142100900120FFF7EAFA34
:101FA000002028235022142100900120FFF7A2F9DD
:101FB0000820022322460A2100906120FFF770FBCF
:101FC000062309A21C216420FFF790FB08200223AE
:101FD0000090044890F9002024216120FFF760FB65
:101FE00000BFC7E7070100202F00000000BFFEE789
:101FF00010B5FEF74EFCFFF7E7FDFFF734F8FEF7EC
:1020000089FBFFF7F3FC002010BD00002DE9F04133
:1020100005460E462648076826480068001D00F061
:1020200095FA50B92348006890F82C100120884098
:1020300021490968814320480160681CD8B9D6B19C
:102040001E4948681B49096888601A4982680968FE
:10205000CA6018490968091D8268516015490968F4
:10206000091D8160154A134909684A6111460968CA
:10207000491C11601AE07C190E4800684460BC429B
:1020800007D20C480168091D0D48006800F082FA6B
:102090000CE008480168091D0A48006800F07AFA57
:1020A00009480068844201D207480460BDE8F08115
:1020B0004C01002038010020500100204C06002077
:1020C000400100203C0100206801002010B50446BA
:1020D00000F086FA2F480068401C2E4908602E4800
:1020E000006840B92C4804600846006801280DD1FA
:1020F00000F01CF90AE02948006838B92648006851
:10210000C06AE16A884201D8234804602448006814
:10211000401C2349086094F82C1001208840214974
:10212000096808431F490860E16A01EB81011E4A02
:1021300002EB81014868A0608268E260211D82682C
:1021400051608160E16A01EB8101174A02EB810273
:102150006261E16A01EB8101134A52F82110491CC6
:10216000E26A02EB8202104B43F8221000F04AFAB6
:102170000A48006868B108480068C06AE16A884295
:1021800007D24FF0805009490860BFF34F8FBFF36B
:102190006F8F10BD4801002038010020540100203D
:1021A00064010020500100209805002004ED00E0AB
:1021B00010B516E000F014FA0C48C068C468201D81
:1021C00000F0C4F90A480068401E0949086009483F
:1021D0000068401E0749086000F014FA204600F02D
:1021E0000BF8044800680028E4D110BD3806002030
:1021F000480100204401002010B50446206B00F087
:1022000011FA204600F00EFA10BD000030B54FF470
:102210008053154800F007042CB1C01D20F00700C2
:10222000114C041B1B1B0246104C226000240F4D56
:102230006C60D018083820F007000D4C2060002496
:102240000B4D2D686C600A4D2D682C601146441AA8
:102250004C60074C24680C60064D4C682C60064DA1
:102260004C682C6030BD0000600600207801002022
:1022700080010020880100208401002000BFFFF7BA
:1022800097FF064800680128F9D94FF080500449AB
:102290000860BFF34F8FBFF36F8FF0E79805002002
:1022A00004ED00E02DE9F05F81460E4617469A46A0
:1022B000DDF828800C9CB900A522206BFEF723F8DE
:1022C000781E216B01EB800B2BF0070B7EB10025F4
:1022D00007E0715D04F134004155705D00B902E022
:1022E0006D1C102DF5D300BF002143200155B8F11E
:1022F000050F01D34FF00408C4F82C80201D00F016
:1023000046F904F1180000F042F92461C8F1050013
:10231000A061646252464946584600F005F92060C3
:102320000B9808B10B980460BDE8F09F10B500242D
:1023300007E004EB84010F4A02EB810000F01AF978
:10234000641C052CF5D30C4800F014F90B4800F080
:1023500011F90B4800F00EF90A4800F00BF90A4891
:1023600000F008F904480949086004480849086071
:1023700010BD000098050020FC050020100600207C
:1023800024060020380600204C0600203C010020D6
:102390004001002010B50146164800E000680368BF
:1023A0008B42FBD30246436813448B4204D14368FB
:1023B0004C682344436001460A464B681344046852
:1023C000A34211D10C4C03682468A34208D04B6887
:1023D0000468646823444B6003681B680B6005E075
:1023E000054B1B680B6001E003680B60884200D05E
:1023F000016010BD780100208001002009480068BC
:10240000006808B9012000E0002020B14FF0FF3043
:102410000549086005E003480068C0680068024993
:10242000086070473C0100206801002000BF502078
:1024300080F31188BFF34F8FBFF36F8F00BF00BFD2
:10244000FEE700002DE9F04705464FF0000900F0D7
:10245000D5F93048006808B9FFF7D8FE75B105F026
:102460000700C0F11008C8F1FF30A84201D20120D6
:1024700000E0002008B9454400E00025012000EB01
:10248000E570002841D0002D3FD0234800688542E8
:102490003BD8224E3046046801E026462468606836
:1024A000A84202D220680028F7D11A480068844266
:1024B0002BD0306800F10809206830606068401B4C
:1024C000102807D967196068401B78606560384636
:1024D000FFF760FF104960680968081A0E49086034
:1024E000084600680E490968884203D20A48006815
:1024F0000B490860606840F0004060600020206088
:1025000008480068401C0749086000F0C5FA4846C2
:10251000BDE8F087800100208401002078010020C0
:10252000880100208C010020001F4FF080730360A1
:10253000001F21F001030360001F034B03601438E8
:1025400002602038704700002D24000801460A6907
:10255000D1E901309860D1E90103586050688842A0
:1025600001D188685060002008611068401E10602A
:102570001068704700F1080141604FF0FF31816041
:1025800000F10801C1600161002101607047002174
:102590000161704710B502460B685C1C0CB91069EC
:1025A00007E002F1080000E04068446824689C42AB
:1025B000FAD944684C604C68A160886041600A6147
:1025C0001468641C146010BD42684A6093688B6094
:1025D000936859609160086103685B1C03607047F1
:1025E00000BF502080F31188BFF34F8FBFF36F8F70
:1025F00000BF03480068401C0149086070470000A4
:102600009401002006480068401E054908600846FD
:10261000006820B9002080F3118800BF00BF704718
:102620009401002070B506463546E6B1083D2C46BB
:102630006068C00FB8B12068A8B9606820F0004099
:10264000606000F0DBF808496068096808440649E2
:1026500008602046FFF79EFE04480068401C0349BE
:10266000086000F019FA70BD84010020900100207C
:1026700000204FF0E021086188610248486107208E
:10268000086170473F19010070B50446002544B148
:1026900000F0B4F800212046FFF7B8FC00F0FCF988
:1026A00005463DB94FF0805003490860BFF34F8F96
:1026B000BFF36F8F70BD000004ED00E070B50546FC
:1026C000FFF78EFF15B92948006800E02846044648
:1026D000201DFFF73BFF78B9E06A00EB800024493A
:1026E00051F8200040B994F82C100120884021496D
:1026F000096881431F480160A06A18B104F11800FD
:10270000FFF724FF1C480068401C1B49086017485D
:102710000068844209D1211D1848FFF755FF184869
:102720000068401C1649086006E016480068401E14
:1027300014490860FFF762FEFFF764FF0B4800686A
:10274000844202D02046FFF757FD0F48006858B179
:1027500006480068844207D14FF080500B4908605A
:10276000BFF34F8FBFF36F8F70BD000038010020A3
:102770009805002050010020640100203806002048
:1027800044010020480100205401002004ED00E035
:102790001CB5124800210B464022CDE9001010A1C3
:1027A000114800F07DF80446012C14D100BF5020E0
:1027B00080F31188BFF34F8FBFF36F8F00BF4FF0CF
:1027C000FF300A49086001200949086000200949D2
:1027D000086000F04BF8084800681CBD6C01002040
:1027E00049444C45000000007D220008680100209B
:1027F000540100204C0100207001002002480068B4
:10280000401C0149086070477401002012480068AC
:1028100018B10120114908601DE000200F4908602F
:102820000F480068B0FA80F0C0F11F0101EB81028F
:102830000C4B03EB820042685268426000F10802D0
:102840004368934202D14268526842604268D2684B
:10285000054B1A6000BF7047740100205C01002026
:1028600050010020980500203801002010B50A48CA
:10287000006840F47000084908600846006840F0AD
:1028800070400860FFF7F4FE002004490860FDF77F
:10289000B1FC002010BD000020ED00E094010020FC
:1028A0002DE9FF4F85B0804689461746DDE912AB1A
:1028B000B800FFF7C7FD064676B14C20FFF7C2FD12
:1028C00004462CB14C212046FDF747FD266304E069
:1028D0003046FFF7A7FE00E000247CB10020CDE9E0
:1028E00000ABCDE902403A4649464046089BFFF717
:1028F000D9FC2046FFF7EAFB012501E04FF0FF3548
:10290000284609B0BDE8F08F2DE9F041002757486F
:10291000006800287ED156480068451C5448056070
:102920008DB95448D0F80080534800685149086078
:102930005148C0F8008051480068401C4F49086069
:10294000FFF75CFD00BF4E480068854276D300BFAC
:1029500048480068006808B9012000E0002020B164
:102960004FF0FF304649086067E042480068C068A1
:10297000C4686668B54202D2414806605DE060699D
:10298000D4E902128A60D4E902214A60211D42681A
:102990008A4201D1E1684160002262610168491EFA
:1029A0000160A06A98B1A06AD4E907128A60D4E9EC
:1029B00007214A6004F1180142688A4201D1216A64
:1029C00041600022A2620168491E016000BF94F8C4
:1029D0002C10012088402B490968084329490860C8
:1029E000E16A01EB8101284A02EB81014868A0609D
:1029F0008268E260211D826851608160E16A01EBBA
:102A00008101214A02EB81026261E16A01EB8101ED
:102A10001D4A00E022E052F82110491CE26A02EB54
:102A20008202194B43F822101849E06A0968C96A02
:102A300088428DD901278BE700E000BF134800686A
:102A4000C06A00EB8000104951F82000012800D92D
:102A500001270F48006800B1012704E00D48006815
:102A6000401C0C4908603846BDE8F0817401002024
:102A70004C0100203C0100204001002060010020AA
:102A80006801002050010020980500203801002036
:102A90005C0100205801002070B500240026FFF7DB
:102AA0009FFD4B480068401E494908600846006881
:102AB00000287DD147480068002879D05BE046486F
:102AC000C068C468A06AD4E907128A60D4E9072103
:102AD0004A6004F1180142688A4201D1216A4160CA
:102AE0000022A2620168491E01606069D4E90212F5
:102AF0008A60D4E902214A60211D42688A4201D1DC
:102B0000E1684160002262610168491E016094F839
:102B10002C10012088403149096808432F4908607A
:102B2000E16A01EB81012E4A02EB81014868A06055
:102B30008268E260211D826851608160E16A01EB78
:102B40008101274A02EB81026261E16A01EB8101A6
:102B5000234A52F82110491CE26A02EB8202204B00
:102B600043F822101F49E06A0968C96A884202D303
:102B700001201D4908601848006808B9012000E0DC
:102B8000002000289BD00CB1FFF738FC17480568DF
:102B900065B100BFFFF7B8FE10B10120124908600F
:102BA0006D1E002DF6D10020104908600E4800E08F
:102BB00009E0006838B1012630070D490860BFF30D
:102BC0004F8FBFF36F8FFFF71DFD304670BD0000C4
:102BD000740100204801002024060020500100203C
:102BE00098050020380100205C01002058010020D9
:102BF00004ED00E000000000000000000000000004
:102C000000000000000000F8000000000000003399
:102C10003000000000160E00160E0000000000003C
:102C20000000000040C07840C0784000043F040429
:102C30003F040400007088FC08300000001820FFEA
:102C4000211E0000F008F000E018000000211C0325
:102C50001E211E0000F00888700000001E212324A1
:102C600019272110000000160E00000000000000CF
:102C700000000000000000E018040200000000074F
:102C80001820400000020418E00000000040201856
:102C900007000000404080F0804040000202010F29
:102CA00001020200000000F0000000000101011F0D
:102CB00001010100000000000000000000B07000F1
:102CC0000000000000000000000000000001010101
:102CD0000101010100000000000000000030300090
:102CE000000000000000000080601804006018066A
:102CF0000100000000E010080810E000000F1020A4
:102D000020100F00001010F8000000000020203FED
:102D10002020000000700808088870000030282477
:102D20002221300000300888884830000018202018
:102D300020110E000000C02010F80000000704243D
:102D4000243F240000F80888880808000019212082
:102D500020110E0000E0108888180000000F1120DC
:102D600020110E0000380808C83808000000003F95
:102D7000000000000070880808887000001C2221F4
:102D800021221C0000E010080810E00000003122A1
:102D900022110F00000000C0C00000000000003041
:102DA00030000000000000C0C0000000000080B043
:102DB00070000000000080402010080000010204A4
:102DC00008102000404040404040400004040404FB
:102DD00004040400000810204080000000201008B7
:102DE00004020100007048080808F00000000030EC
:102DF00036010000C030C828E810E000071827247A
:102E000023140B000000C038E0000000203C230227
:102E10000227382008F8888888700000203F20208A
:102E200020110E00C03008080808380007182020BC
:102E30002010080008F808080810E000203F2020B3
:102E400020100F0008F88888E8081000203F202094
:102E50002320180008F88888E8081000203F200088
:102E600003000000C03008080838000007182020C0
:102E7000221E020008F808000008F808203F21017F
:102E800001213F20000808F8080800000020203F2A
:102E90002020000000000808F8080800C08080809A
:102EA0007F00000008F888C028180800203F200193
:102EB0002638200008F8080000000000203F2020ED
:102EC0002020300008F8F800F8F80800203F003F04
:102ED000003F200008F830C00008F808203F20001C
:102EE00007183F00E01008080810E0000F1020202D
:102EF00020100F0008F808080808F000203F210102
:102F000001010000E01008080810E0000F18242458
:102F100038504F0008F8888888887000203F2000CB
:102F2000030C302000708808080838000038202181
:102F300021221C00180808F8080818000000203F8B
:102F40002000000008F808000008F808001F2020F2
:102F500020201F000878880000C8380800000738C3
:102F60000E010000F80800F80008F800033C070014
:102F7000073C0300081868808068180820302C037C
:102F8000032C30200838C800C83808000000203F53
:102F90002000000010080808C83808002038262142
:102FA00020201800000000FE020202000000007F46
:102FB00040404000000C30C0000000000000000154
:102FC0000638C00000020202FE000000004040403F
:102FD0007F000000002010080408102000000000FE
:102FE00000000000000000000000000080808080E1
:102FF00080808080000204080000000000000000C3
:103000000000000000008080808000000019242261
:1030100022223F2008F8008080000000003F11209D
:1030200020110E000000008080800000000E1120A2
:1030300020201100000000808088F800000E112080
:1030400020103F200000808080800000001F22228E
:1030500022221300008080F0888888180020203FFA
:10306000202000000000808080808000006B94940D
:103070009493600008F8008080800000203F2100C9
:1030800000203F2000809898000000000020203F92
:1030900020200000000000809898000000C0808080
:1030A000807F000008F8000080808000203F24021C
:1030B0002D302000000808F8000000000020203F0C
:1030C000202000008080808080808000203F2000C1
:1030D0003F20003F008080008080000000203F21D2
:1030E00000203F200000808080800000001F202002
:1030F00020201F00808000808000000080FFA12031
:1031000020110E000000008080808000000E112041
:1031100020A0FF80808080008080800020203F21D0
:103120002000010000008080808080000033242483
:1031300024241900008080E0808000000000001F2F
:10314000202000008080000000808000001F2020E0
:1031500020103F20808080000080808000010E30A1
:103160000806010080800080008080800F300C0302
:103170000C300F0000808000808080000020312E05
:103180000E312000808080000080808080818E70E1
:103190001806010000808080808080000021302C93
:1031A0002221300000000000807C020200000000AC
:1031B000003F404000000000FF0000000000000051
:1031C000FF0000000002027C800000000040403F41
:1031D00000000000008040408000008000000000EF
:1031E000000101000000000000000000002F0000AE
:1031F00000000700070000147F147F1400242A7FBA
:103200002A12002313086462003649552250000038
:103210000007000000001C224100000041221C00A9
:103220000014083E08140008083E0808000000A02A
:103230006000000808080808000060600000002026
:1032400010080402003E5149453E0000427F400004
:10325000004261514946002141454B31001814128A
:103260007F10002745454539003C4A494930000157
:103270007109050300364949493600064949291EA6
:103280000000363600000000563600000008142208
:103290004100001414141414000041221408000208
:1032A00001510906003E4955592E007C1211127C2D
:1032B000007F49494936003E41414122007F41415A
:1032C000221C007F49494941007F09090901003E4C
:1032D0004149497A007F0808087F0000417F41008A
:1032E000002040413F01007F08142241007F404000
:1032F0004040007F020C027F007F0408107F003EE8
:103300004141413E007F09090906003E4151215ECD
:10331000007F091929460046494949310001017FCA
:103320000101003F4040403F001F2040201F003F60
:103330004038403F00631408146300070870080712
:1033400000615149454300007F41410000020408EB
:103350001020000041417F000004020102040040EF
:1033600040404040000001020400002054545478C2
:10337000007F4844443800384444442000384444E2
:10338000487F00385454541800087E090102001880
:10339000A4A4A47C007F080404780000447D4000BD
:1033A000004080847D00007F102844000000417FA1
:1033B0004000007C04180478007C0804047800387D
:1033C0004444443800FC242424180018242418FC05
:1033D000007C0804040800485454542000043F446E
:1033E0004020003C4040207C001C2040201C003C31
:1033F0004030403C004428102844001CA0A0A07C81
:10340000004464544C440000087F41000000007FE9
:1034100000000000417F0800000804081008EFBC0D
:103420008C00000000000000000000000000000010
:1034300000000000583800000000000000000000FC
:103440000000E38082000000000000000000000097
:1034500000000000000000001824241800000000F4
:10346000000000000000E4BDA000008060F80740FC
:1034700020180F08C80808281800010000FF0010D5
:103480000C0340807F0001061800E5A5BD00101068
:10349000F01F10F000808282E2928A868000402233
:1034A00015081661000040807F0000000000E4B8AD
:1034B0009600202020FE2020FF202020FF2020201A
:1034C00020000000007F40404744444447404040C3
:1034D0000000E7958C00000000FE929292FE92920E
:1034E00092FE0000000008080484621E010001FE34
:1034F00002040408080000000000FF010101310976
:10350000090909897101010101FFFF808080808024
:10351000809681808080808080FFFF01818181FD95
:103520008991A1C1FD81818101FFFF808080809F01
:10353000888482819F80808080FF0000000000805E
:10354000C0E0F0F8F8FCFCFCFEFEFEFEFEFEFEFE17
:10355000FCFCFCF8F0F0E0C080000000000000E09F
:10356000FCFEFFFFFFFFFFFFFF0FCFFFFFFFFFFF8F
:103570000FEFFFFFFFEFEFFFFFFFFFFFFEF8C000C1
:1035800000001FFFFFFFFFFFFFFFFF83F8FDFDFDB2
:10359000FDBD81FCFFFF9F80FEFFFFFFFFFFFFFFE0
:1035A000FF1F0000000000030F1F3F7F7FFFFFFF92
:1035B000FFFFFFFFFFFFFFFFFFFFFFFFFFFFFFFF1B
:1035C000FFFF0300000000000000000000000000FA
:1035D00000000101030303030303030303030303C5
:1035E000030303030300000000FF018181010101C7
:1035F00009F90101FD05010101818101FFFF0000C1
:10360000E147A4A0A0AFA0A0AFA0A0AC47E10000FC
:10361000FF0F08080808080808080808080808082C
:10362000080808080FFF0139112929292929292902
:103630002929292929113901FFFF00000040701CA8
:1036400007003C7E0000061C30600000FF0F0808E9
:1036500008080808080808080808080808080808EA
:103660000FFF01012111F91121010101010101F9EE
:1036700001010101FFFF0000C0405F4040C00000A9
:10368000C044485F48C40000FF0F08090909090940
:103690000909090909090909090909080FFF01E1CF
:1036A000110985C5652525252565C5850911E10112
:1036B000FFFF007F800007000030381C0600000775
:1036C00000807F00FF0F080808090A0A0A0A0A0A90
:1036D0000A0A0A0A090808080FFF011DFDFDF9F989
:1036E000F9F9F1F1F1E1E1E1C1C18101FFFF000070
:1036F000033FFFFFFFFF7F1F0707030303010000D6
:10370000FF0F08080808090B090908080808080835
:10371000080808080F0000FC3C1C0C040404F4F426
:10372000F4E4E4CC9C3CFC00000000FFC0800000FE
:103730000000FFFFFF7F3F1F8FC0FF00000000035E
:103740000303030302020202020202030303030053
:10375000000000001838B0C0E0E06C6CE0E0C0B0E1
:10376000381800000000000686C0DF3F79706060F6
:1037700070793FDFC08606000000000001010000F4
:103780000000030300000000010100000000000031
:1037900000800000FCFC0000FCFC00008000000039
:1037A000000000060F1F0F0FFFFF0000FFFF0F0FAD
:1037B0001F0F0600000000000000000003030000CF
:1037C00003030000000000000000000000000018DB
:1037D0007CFCFCFCFC7C18000000000000000606DD
:1037E00006060686E6F6F6F6F6E6860606060606F9
:1037F00000000000000000010303030303030100B5
:103800000000000000000000FCFC040404040404A8
:10381000040C183060C0800000000000FFFF00FFB3
:10382000FFD3FBDBFBEBFFFF00FFFF00000000000E
:103830000303020202020202020202020203010068
:1038400000000080F0F8F878F8F0F0F0F0F8F87880
:10385000F8F080000000007FFFFFFEF87E3E3F3F53
:103860003F7DFFF7FFFD3F00000000000101010068
:1038700000000000000000010101000000FF01FD48
:103880000515B5B585B5B5B5B5B5A5858585858568
:10389000850505FD05F515151515151515151515D0
:1038A00015151515151515151515151515151515C8
:1038B00015151515151515151515151515151515B8
:1038C0001515151515151515F505FD01FFFF00FF5B
:1038D00000639494640464646404646464242464ED
:1038E000640300FF00FF000000000000007F020CE6
:1038F000107F007F0808087F007F09090906000083
:103900003E414141413E0006494949494931000093
:103910000000000000000000FF00FF00FFFF00FFAC
:103920000018A4A418001818001818081818181857
:10393000000000FF00070404040404040404040459
:103940000404040404040404040404040404040437
:103950000404040404047454D40414F41404F42477
:10396000F4045454F404D4547700FF00FFFF00FF24
:1039700000C32424C300C38003C3C3C143C28383E1
:10398000030000FF00000000000000000000000035
:103990000000000000E4949498007884847800008B
:1039A000FC20500000207121010078959460011CDA
:1039B00011FC110101FC21510100FF00FFFF808774
:1039C00084848585848484848484848484848484B5
:1039D000848484878484848484B4B4B4B4B4B4B454
:1039E000B4B4B4B4B4B4B4B4B4B4B4B4B4B4B4B497
:1039F0008484848484848484848484848484848487
:103A0000848484848484848484848780FF0098F6FA
:103A1000120000001E0EC040404040404040404068
:103A2000404040404040404040404040404044587A
:103A3000505C505C5848444040404040404040400A
:103A40004C58505C505C50584C40404040404040C6
:103A5000C000007E1000000000BCE0000000818774
:103A600000FEFEFEC0C0FF00FF02FAFADADADADA80
:103A7000DADAFAFA02FF000000FF01010101010198
:103A8000090D0D0D0D0901010101010101010101E6
:103A900001090D0D0D0D0901010101010101FF00D9
:103AA000FFC0C0FEFEFE0000477D00000000FF8159
:103AB000003F3F3F0101FF80BF90979796969696F3
:103AC0009696979790BF808080BFA0A0A0A0A8AC3A
:103AD000A8A0A0A0A0A0A0A0A0A0A0A8ACA8A0A0C2
:103AE000A0A0A0A0A0A0A0A8ACA8A0A0A0A0BF80BB
:103AF000FF01013F3F3F000000FE000000FC04A466
:103B0000A4A4A4A40404E424242424246444C48495
:103B10000404FC00000000000000F0180C0600FE89
:103B2000000E38E00000000098FC0600FE000E9831
:103B3000F0000000C0701E00FE001E70C0000000FB
:103B40000C08F8000004FC0000711F0000FF8092C8
:103B50009694969480809F90909090909888888773
:103B60008080FF000000000000000100000000074E
:103B7000000000030000000001000000030000013D
:103B8000000000000300000003000000030000002C
:103B900000007F00000E1B600000000000FF01011C
:103BA0008181818181818101010101010101010185
:103BB00001010101014141414141C18181010101F5
:103BC00001010101010101010101010101010101E5
:103BD0000101010101010101010101010101FF01D7
:103BE000FD05050525F525050505FD01FFFF00007F
:103BF000EFEFEFEFEFEFEFE7E2E0E0E0E0E0E0E053
:103C0000E0E0E0E0E0C08505051B32063D010E382E
:103C1000000000000000000000003844C454444488
:103C20004454C44438000000000000000000FF00BD
:103C3000F714141414D514141414F700FFFF000023
:103C4000FBFBFBFBFBFBFBFBFBFBFBFBFBFB732324
:103C50000303030303010000000000000000000054
:103C6000000000F804F8213F212131393939312190
:103C7000393D21393121213F217C827C0000FF0028
:103C8000EF2828A8292B29282828EF00FFFF00006B
:103C90003E3E3E3E3E3E3E3E3E3E3E3E3E3E3E3E44
:103CA0003E3E3E3E3E3E3E3E3E3E3E3E1C08000008
:103CB0000808000A0B0A0A02000404040404080AA3
:103CC0000A0A050500020606060509090804FF00A0
:103CD000DF505153515151515150DF00FFFF81BD11
:103CE000A5A5A5A5A5A5A5A5A5A5A5A5A5A5A5A584
:103CF000A5A5A5A5A5A5A5A5A5A5A5A5A5A5A5A574
:103D0000A5A5A5A5A5A5A5A5A5A5A5A5A5A5A5A563
:103D1000BD81BDA5A5A5A5A5A5A5A5A5BD81FF801E
:103D2000BFA0A4A4A4A4A4AEA4A0BF80FFFF0101CF
:103D3000F909090909F901017989A9A9A9A9A9A973
:103D400089A9A9A989A9A9A9A9A9A989F9010101EB
:103D50000101010101010101010101010101010153
:103D60000101010101010101010101010101010143
:103D7000010101010101010101010101FFFF000039
:103D8000F909090909F900017888A8A8A8A888A84C
:103D9000A8A888A8A8A8A8A8A8A8A8A8A8A8A8A8C3
:103DA00088A8A888A8A8A8A8A8A888F80000000043
:103DB0000000000000000000000000000000000003
:103DC000000000000000000000000000FFFF0000F5
:103DD000010101010101000100000000F888A8A80C
:103DE00088A8A8A888A8A8A8A8A8A8A8A8A8A8A893
:103DF000A8A8A8A8A888A8A8A8A8A8A888A888A8A3
:103E000088A8A8A8A888A8A8A8A888A8A8A8A8A892
:103E100088780000F808080808F80000FFFF000094
:103E20008080808080800000F808E888E808E8A8A2
:103E3000A808E8080808E8080808E828E8080808C2
:103E4000080808E8088808E808E828E808E8A8E872
:103E500008E8080808E828C808F800000000000082
:103E6000000001000101010101010000FFFF80804D
:103E70009F909090909F809087888B888B888B8A6A
:103E80008A888B8A8A888B8A8A888B8A8B88888999
:103E90008B8888898A898A89888B8A8B888B898A8A
:103EA000888B8A8A888B8A89888F808080808080AE
:103EB000808080808080808080808080FFFF010102
:103EC00001F9010179010101010101010101010172
:103ED00001010101010101010101010101010101D2
:103EE00001010101010101010101010101010101C2
:103EF00001010101010101010101010101010101B2
:103F0000010101FD0101C10179010101FFFF000073
:103F1000E007000000F808080808F8000000FC04AA
:103F200014141414141414141414141414D47454F1
:103F30007454745474D41494949494949494949461
:103F40009494949494F494F4949404FC000000F8F1
:103F500008080808F8000F0000F80000FFFF000044
:103F6000038000F800FF00000000F3121212FF149B
:103F7000141414141414141414141414143F2029B5
:103F80002C2D2821203F143F2E2E202A2A20242E9B
:103F9000A4A0A0AAAAA2A0AE203F14FF121212F35E
:103FA00000000000FF00003F0000F000FFFF0000E5
:103FB000FC0704F424C724F40404070484640704FD
:103FC00064949494140404FC141414141414141419
:103FD00014141414141414141414141414141414A1
:103FE0007F4243424243427F1414101F0000000FDF
:103FF00008C808080F000000FE000100FFFF8080D5
:104000009F9090979091909790909093909090908F
:10401000929494949390909F808080808080808000
:104020008080808080808080808080808080808090
:1040300080808080808080808080808080BF808041
:1040400080878080809F808081808080FFFF012129
:104050000111010D81C14161311119090D8505273A
:1040600013131B0B01018181E161713111190909E0
:104070000D45472303031311098981C161213119BA
:10408000094D25371303010191C9692935151B0D08
:10409000050703010101818141416121FFFFE070BA
:1040A0003896030101F808080808F8000080FC04AD
:1040B00014141414161715141414141414D474545A
:1040C0007454745474D616979595949494949494C7
:1040D0009494949494F496F7959404FC80C060F8BA
:1040E000080C0E0AFB010018080C2020FFFF111815
:1040F0000081C00000FF00000000F3121313FF1442
:10410000141414141414141414141414143F202923
:104110002C2D2821203F143F2E2E202A2A20242E09
:10412000A4A0A0AAAAA2A0AE203F14FF121212F3CC
:1041300000000000FF0082C161607030FFFF300CA2
:10414000000080C0703B1E4E4662030000001F103E
:1041500094D4547434B4D4547434141414141414FF
:104160009494D474341414141414141414141414CF
:104170007FC2C3424243427F1414101F0080C06FAD
:10418000283818080F83515000000000FFFFC0F0CE
:10419000B88E87808080808080C0E4BC8E868283D9
:1041A000998C80808181909880E0B292888C8683FF
:1041B0008180C0E0B0908080848682C2F0988C823A
:1041C000818D829088A08486C2F0F89C868381804D
:1041D000B0808383888C868280808080FF00FE028E
:1041E00002F212121212121212121292525252D2DF
:1041F000D2D2D2D2921252121212121212121212DF
:10420000F20202020202020202020202020202029E
:10421000020202020202020202020202020202027E
:10422000020202020202C242424242FE0000FF00BB
:1042300000FF00F80848E8480808FA0A0ACA8A0A8B
:10424000F80A4A888A8A0AF8080888C88808F8009C
:10425000FF00000000000094949494969290909433
:1042600084040692000000000000008080808080AE
:104270000000800000007F4040405FFF0000FF0022
:10428000001F909794949494949417149494941475
:104290001714949495949497149514949514171056
:1042A0001F000000000000000000000000000000EF
:1042B000000000000000000000005048411D1911DE
:1042C000133B0B0B00000000000000FF0000FF008C
:1042D00000F21212121212121212121212121210F2
:1042E0001010F00202F21212121212121012121018
:1042F000101010F00000F01010101010101010101E
:1043000010101010101010F00000F010101010100D
:104310001010101010101010F00000FF00007F406F
:10432000404F48484848484848484848484848480E
:1043300048484F40404F48484848484848484848FF
:104340004848484F40404F484848484848484848EF
:10435000484848484848484F40404F4848484848DF
:1043600048484848484848484F40407F000000F8C7
:10437000FCFCFE1E1E1E1E1E1E1E9EDEFEDE9E1E61
:104380001E1E1E1E9E9E9E1E1E1E1E1E1E1EFEFC0F
:10439000FCF80000000000FFFFFFFF30787878781D
:1043A0007C7F3F0F071F7FFEF8E0F8FE7F1F1F3F57
:1043B0007CF8F0F0F000FFFFFFFF0000000000FFBE
:1043C000FFFFFF00000000000000000000000001EF
:1043D0000707070380C0C0E0E0F0F0F0F0E0E7EF8F
:1043E000CF870000000000FFFFFFFF00000000007B
:1043F0000000000000000000000078FEFFFF070141
:10440000393CFEFEFE3C3903CFFFFFFC0000000FED
:104410001F3F3F3C3C3C3C3C3C3C3C3C3C3C3C3CF3
:104420003C3C0003070F1F1E3C3C3D3F3D3C1E1F14
:104430000F0F03010000000000C0E0F0F8F87878EA
:1044400078787878787878787878787878787878EC
:10445000787878F8F0F0E0800000000000000000BC
:10446000FFFFFFFFFB00387C783800387C7C7C7CC9
:104470007C7C7C7C7C7C7C7C7C380000FFFFFFFFAC
:104480000000000000000000FFFFFFFFFF001C3CD9
:104490003C18003C3C3E3E3E3E3E3E3E3E3E3E3EA6
:1044A0003C1C00007FFFFF7F8080808000000000B8
:1044B0007FFFFFFFDF001E1E1E0C001E1E1E1E1EA5
:1044C0001E1E0C000070F8F0E0C0C0E0F0F8FC7FA9
:1044D0001F0F0703000000000001070F0F0F1F1F31
:1044E0001F1F1F1F1F1F1F1F1F1F1F1F0E00000149
:1044F00003070F0F03010000000000000000F8FC9C
:10450000FC1C1C1C1C1C1C1C1C1C1C1C1C1C1C1C0B
:104510001C1C1C1C1C1C3C7CFCFCDC9C1C1C1CFC7B
:10452000FCF800000000FFFFFF00000000DCDCDC06
:10453000DCDCDCDCDCDCDCDCDCDCDCDCDCDC8C00E7
:1045400000010307070E1CFFFFFF00000000FFFF34
:10455000FF000000003939393939393939393939E9
:104560000101018181C1E1E0E0E0E0E0E0E0F0FF95
:10457000FFFF00000000FFFFFF0000000000000040
:10458000000000000000000000FCFEFFFFFFF3E35E
:10459000C70F0F0F07E3E3F3FFFFFEFC0000070761
:1045A00007060606060606060606060606060606AA
:1045B00007070F1F3F7F7978F8FCFEFEFC78793BF8
:1045C0003F1F0F03003F3E3C38302000000000003A
:1045D0000080C0C0E0F0F0F8FCFCFEFE000000002F
:1045E0000000060F1F1F3F7F7FFFFFFFFFFFFFFF42
:1045F00000000000000000000000000000000101B9
:1046000003070707000000000000FEFEFEFCF8F8AC
:10461000F0E0E0C080800000000000000000FFFF2C
:10462000FFFFFFFFFF7F3F3F1F0F0F06000000004F
:104630000000070703030100000000000000000065
:1046400000000000000000000080E0F0F8F8F0C07A
:104650008000000000000000C0E0F8FCFFFFFFFF4A
:10466000FFFFFFFFFFFEFCF0E08000000101010101
:10467000010101010101010101010101010100002C
:104680001878F8F8F8F8F8F8F8F8F8F8F8F8F8F80A
:104690007818000000000003071F3FFFFFFFFF3FE7
:1046A0001F070100000000000000000000000000E3
:1046B00001010000000000000000000000000000F8
:1046C00000E0F0F8F8787878787878787878787802
:1046D00078780000000000000000000000000000EA
:1046E000000000000000000000FFFFFFFF000000CE
:1046F0000000000000000000000000000070F8F85A
:10470000F0E0C08000000000000000000000000099
:1047100000FFFFFFFF00000000003C3C3E3E3E3E2D
:104720003E3E3E3E3E3E3EBDFFFFFFFF7F3E1C0045
:10473000000000000000000000FFFFFFFF0000007D
:10474000000000000000000000000000000E0F0F3D
:104750000F07010000000000000000000000000042
:104760000003070F0F0F0F0F0F0F0F0F0F0F0F0F7C
:104770000F0F00000000000000000000000000001B
:104780000000000000000000000000000000000029
:104790000000000000000080C0E0F0F0F8F8F8F839
:1047A000F0F0E0C080000000000000000000000009
:1047B000000000000000000000C0F0F8FCFEFF7FD9
:1047C000BF0F070301010181C3FFFFFFFFFF0000CF
:1047D000000000000000000080C0E0F0FCFEFE7E53
:1047E0003C1F7FFFFFFFFE7FFFFFFFFCF83E7F7F48
:1047F0003F1F0F0703000000000000000000003C06
:10480000FFFFFFFFFFC1808080C0E0F0F9FDFEFFE9
:104810007F3F0F07010000000000000000000000C3
:104820000000000000000000000307070F0F1F1F1B
:104830001F0F0F0F07030100000000000000000021
:104840000000000000000000000000006C480008AC
:104850000000002098010000280100081849000805
:1048600098010020281F0000840100080144280945
:104870004C454446726F6E74091552656172100B97
:10488000556C747261536F756E6458094372756923
:10489000537065650A157461746510084469737016
:1048A0006C6179180B4272696768746E6573731373
:1048B0003D722D4C520713544210094672656548EB
:1048C00065617007184D616E75616C32023203725A
:1048D0000115636D2F732A478113636D1B42796A3B
:1048E0001753797374656D164C49474854175345EF
:1048F0004E534F521743525549534517434952435C
:104900004C4507264E4F524D414C1A0101014002C1
:0849100023041AAA01000000B3
:04000005080000ED02
:00000001FF
