:020000040800F2
:10000000D018002021020008230500081B05000865
:100010001F0500087B030008C10B0008000000005A
:10002000000000000000000000000000890100083E
:100030007F03000800000000CD010008D106000881
:100040003B0200083B0200083B0200083B0200089C
:100050003B0200083B0200083B0200083B0200088C
:100060003B0200083B0200083B0200083B0200087C
:100070003B0200083B0200083B0200083B0200086C
:100080003B0200083B0200083B0200083B0200085C
:100090003B0200083B0200083B0200083B0200084C
:1000A0003B0200083B0200083B0200083B0200083C
:1000B000F10700083B020008000000003B020008B6
:1000C0003B02000800000000000000003B020008A6
:1000D000000000003B0200083B0200080000000096
:1000E0003B0200083B0200083B02000800F002F857
:1000F00000F03AF80AA090E8000C82448344AAF188
:100100000107DA4501D100F02FF8AFF2090EBAE885
:100110000F0013F0010F18BFFB1A43F0010318473B
:100120007815000098150000103A24BF78C878C1EF
:10013000FAD8520724BF30C830C144BF04680C60ED
:10014000704700000023002400250026103A28BF35
:1001500078C1FBD8520728BF30C148BF0B60704739
:100160001FB51FBD10B510BD00F0CEF81146FFF74A
:10017000F7FF00F027FD00F0ECF803B4FFF7F2FF03
:1001800003BC00F0F3F80000224B19680868B0E8DF
:10019000F00F80F30988BFF36F8F4FF0000080F3FA
:1001A00011884EF00D0E70470000000006480068F0
:1001B000006880F3088862B661B6BFF34F8FBFF363
:1001C0006F8F00DF00BF00BF08ED00E0EFF3098094
:1001D000BFF36F8F0F4B1A6820E9F00F106008B55E
:1001E0004FF0500080F31188BFF34F8FBFF36F8F34
:1001F00001F05EF84FF0000080F31188BDE8084080
:1002000019680868B0E8F00F80F30988BFF36F8FB2
:10021000704700BF44000020EFF3058070470000E6
:100220000948804709480047FEE7FEE7FEE7FEE78A
:10023000FEE7FEE7FEE7FEE7FEE7FEE704480549C6
:10024000054A064B7047000005070008ED0000084E
:10025000D0110020D0180020D0130020D01300208F
:1002600002F0FF0343EA032242EA024200F002B82E
:100270004FF000020429C0F0128010F0030C00F0CF
:100280001B80CCF1040CBCF1020F18BF00F8012B4D
:10029000A8BF20F8022BA1EB0C0100F00DB85FEA1B
:1002A000C17C24BF00F8012B00F8012B48BF00F8E7
:1002B000012B70474FF0000200B513469446964656
:1002C000203922BFA0E80C50A0E80C50B1F1200169
:1002D000BFF4F7AF090728BFA0E80C5048BF0CC017
:1002E0005DF804EB890028BF40F8042B08BF704775
:1002F00048BF20F8022B11F0804F18BF00F8012BE7
:100300007047704770477047754600F02BF8AE464F
:1003100005006946534620F00700854618B020B511
:10032000FFF78CFFBDE820404FF000064FF00007BC
:100330004FF000084FF0000B21F00701AC46ACE88D
:10034000C009ACE8C009ACE8C009ACE8C0098D46FA
:10035000704710B50446AFF300802046BDE810405A
:10036000FFF70BBF004870476C11002001491820AF
:10037000ABBEFEE726000200704700BFFEE77047F5
:10038000044A1168014400BF024A12688A42FBD342
:1003900070470000000000202DE9F04102460025D2
:1003A0000026002000230024002791F803C00CF051
:1003B0000F0591F803C00CF0100CBCF1000F03D036
:1003C00091F802C04CEA050591F800C0BCF1000F9D
:1003D00031D0146800202BE04FF0010C0CFA00F330
:1003E000B1F800C00CEA03069E4220D183004FF012
:1003F0000F0C0CFA03F7BC4305FA03FC4CEA0404A7
:1004000091F803C0BCF1280F06D14FF0010C0CFA93
:1004100000FCC2F814C00AE091F803C0BCF1480F18
:1004200005D14FF0010C0CFA00FCC2F810C0401CC2
:100430000828D1D31460B1F800C0BCF1FF0F34DD3F
:10044000546800202EE000F1080C4FF0010808FA73
:100450000CF3B1F800C00CEA03069E4221D18300E0
:100460004FF00F0C0CFA03F7BC4305FA03FC4CEAFF
:10047000040491F803C0BCF1280F05D100F1080C69
:1004800008FA0CF8C2F8148091F803C0BCF1480FC8
:1004900007D100F1080C4FF0010808FA0CF8C2F877
:1004A0001080401C0828CED35460BDE8F08110B500
:1004B00000F002F810BD000008B50121082000F08E
:1004C00083F810208DF803000001ADF80000032030
:1004D0008DF8020069460348FFF75EFF00F004F85C
:1004E00008BD0000000C014010B500224FF48071DF
:1004F000014800F00DF810BD000C014010B50122BC
:100500001102024800F004F810BD0000000C014088
:100510000AB1016100E04161704700BFFEE700BF22
:10052000FEE7704770B5002100230F22C47804B3A2
:10053000154C246804F4E064C4F5E064210AC1F1B8
:100540000403CA40447804FA03F184781440214338
:1005500009010E4C0678A155047804F01F0501240A
:10056000AC4005786D11AD0005F1E025C5F80041FE
:1005700009E0047804F01F050124AC40044D06781E
:10058000761145F8264070BD0CED00E000E400E077
:1005900080E100E002490143024A11607047000017
:1005A0000000FA050CED00E029B1064AD2690243C9
:1005B000044BDA6104E0034AD2698243014BDA61F9
:1005C000704700000010024029B1064A92690243B8
:1005D000044B9A6104E0034A92698243014B9A6199
:1005E000704700000010024010B500F001F810BD87
:1005F0000CB50020019000903348006840F4803032
:100600003149086000BF3048006800F400300090B5
:100610000198401C0190009818B90198B0F5A06F9E
:10062000F1D12948006800F4003010B10120009099
:1006300001E0002000900098012843D12348006881
:1006400040F01000214908600846006820F00300CF
:1006500008600846006840F0020008601A484068D8
:10066000194948600846406848600846406840F4B8
:10067000806048600846406820F47C104860084666
:10068000406840F4E81048600846006840F0807018
:10069000086000BF0C48006800F000700028F9D026
:1006A0000948406820F00300074948600846406850
:1006B00040F00200486000BF0348406800F00C00B2
:1006C0000828F9D10CBD00000010024000200240B3
:1006D00010B500BF502080F31188BFF34F8FBFF3D8
:1006E0006F8F00BF00F062FE18B14FF080500449D8
:1006F000086000BF002080F3118800BF10BD00001B
:1007000004ED00E010B51348006840F00100114905
:10071000086008464068104908400E49486008468D
:1007200000680E4908400B4908600846006820F43C
:10073000802008600846406820F4FE0048604FF4BE
:100740001F008860FFF750FF4FF000600449086009
:1007500010BD0000001002400000FFF8FFFFF6FE91
:1007600008ED00E00BE0FFF7C9FE4FF4FA70FFF769
:1007700007FEFFF7B9FE4FF4FA70FFF701FEF2E74C
:1007800000BFFEE700BFFEE700BFFEE700BFFEE7D9
:1007900000BFFEE700BFFEE700BFFEE700BFFEE7C9
:1007A00000BFFEE700BFFEE700BFFEE700BFFEE7B9
:1007B00000BFFEE700BFFEE71CB54FF44070FFF737
:1007C000E9FE0648012100238022CDE9001004A1A2
:1007D000064800F0B7FD00F02DFD1CBD40000020D4
:1007E0005461736B5F537461727400009109000867
:1007F00010B50121880700F059F8012804D10548F7
:100800000068401C034908600121880700F007F8D0
:1008100010BD000000000020CA4302827047CA4396
:100820000282704721B1028842F00102028004E096
:1008300002884FF6FE731A40028070471FB50121EF
:100840000846FFF7B1FE0020ADF80A00ADF806003B
:1008500040F2E730ADF808004720ADF80400002072
:100860008DF80C0001A94FF0804000F03FF8012105
:100870008807FFF7D1FF01221146900700F027F803
:100880001C208DF8000001208DF8030002208DF857
:1008900001006846FFF746FE00214FF0804000F05F
:1008A00023F801218807FFF7BDFF1FBD30B50246C1
:1008B000002000230024158A05EA0103958905EA32
:1008C000010413B10CB1012000E0002030BD1AB1C9
:1008D00083890B43838102E083898B438381704743
:1008E00010B5FFF7ABFF10BD81847047002202886E
:1008F0001D4B98420ED01D4B98420BD0B0F1804F4B
:1009000008D01B4B984205D01A4B984202D01A4B84
:10091000984204D14FF68F731A404B881A43174BF5
:10092000984207D0164B984204D04FF6FF431A4026
:10093000CB881A4302808B8883850B8803850A4BFA
:1009400098420BD0094B984208D00E4B984205D0E4
:100950000D4B984202D00D4B984201D10B7A038681
:100960000123838270470000002C014000340140C5
:100970000004004000080040000C0040001000404F
:100980000014004000400140004401400048014084
:100990001CB5044600F090FB4D4801210023802245
:1009A000CDE900104BA14D4800F0CCFC4C48012192
:1009B00000238022CDE900104AA14C4800F0C2FC7F
:1009C0004B48012100238022CDE9001049A14B486A
:1009D00000F0B8FC4A48012100238022CDE9001034
:1009E00048A14A4800F0AEFC49480121002380227A
:1009F000CDE9001047A1494800F0A4FC4848012176
:100A000000238022CDE9001046A1484800F09AFC5E
:100A10004748012100238022CDE9001045A1474825
:100A200000F090FC4648012100238022CDE900100F
:100A300044A1464800F086FC45480121002380225D
:100A4000CDE9001043A1454800F07CFC4448012159
:100A500000238022CDE9001042A1444800F072FC3E
:100A60004348012100238022CDE9001041A14348E1
:100A700000F068FC4248012100238022CDE90010EB
:100A800040A1424800F05EFC414801210023802241
:100A9000CDE900103FA1414800F054FC404801213D
:100AA00000238022CDE900103EA1404800F04AFC1E
:100AB0003F48012100238022CDE900103DA13F489D
:100AC00000F040FC002000F04BFB00F007FB1CBDD9
:100AD000040000205441534B31000000650700081A
:100AE000080000205441534B3200000099070008D1
:100AF0000C0000205441534B330000009D070008B8
:100B0000100000205441534B34000000A10700089E
:100B1000140000205441534B35000000A507000885
:100B2000180000205441534B36000000A90700086C
:100B30001C0000205441534B37000000AD07000853
:100B4000200000205441534B38000000B10700083A
:100B5000240000205441534B39000000B507000821
:100B6000280000205441534B313000008107000819
:100B70002C0000205441534B313100008507000800
:100B8000300000205441534B3132000089070008E7
:100B9000340000205441534B313300008D070008CE
:100BA000380000205441534B3134000091070008B5
:100BB0003C0000205441534B31350000950700089C
:100BC00000BFFEE710B5FFF772FCFFF789FEFFF7E5
:100BD000F3FD002010BD000010B5044600F06CFAD3
:100BE0002F480068401C2E4908602E48006840B914
:100BF0002C4804600846006801280DD100F01CF95B
:100C00000AE02948006838B926480068C06AE16AE5
:100C1000884201D82348046024480068401C2349C6
:100C2000086094F82C100120884021490968084385
:100C30001F490860E16A01EB81011E4A02EB810154
:100C40004868A0608268E260211D8268516081600E
:100C5000E16A01EB8101174A02EB81026261E16AFC
:100C600001EB8101134A52F82110491CE26A02EBA0
:100C70008202104B43F8221000F030FA0A48006854
:100C800068B108480068C06AE16A884207D24FF03C
:100C9000805009490860BFF34F8FBFF36F8F10BDBD
:100CA000540000204400002060000020700000205C
:100CB0005C000020A400002004ED00E010B516E068
:100CC00000F0FAF90C48C068C468201D00F0C4F9AF
:100CD0000A480068401E0949086009480068401E2B
:100CE0000749086000F0FAF9204600F00BF80448C4
:100CF00000680028E4D110BD440100205400002009
:100D00005000002010B50446206B00F0F7F9204693
:100D100000F0F4F910BD000030B54FF480531548D1
:100D200000F007042CB1C01D20F00700114C041B7B
:100D30001B1B0246104C226000240F4D6C60D01823
:100D4000083820F007000D4C206000240B4D2D6862
:100D50006C600A4D2D682C601146441A4C60074C9B
:100D600024680C60064D4C682C60064D4C682C6065
:100D700030BD00006C010020840000208C000020A9
:100D8000940000209000002000BFFFF797FF064866
:100D900000680128F9D94FF0805004490860BFF37A
:100DA0004F8FBFF36F8FF0E7A400002004ED00E049
:100DB0002DE9F05F81460E4617469A46DDF82880F9
:100DC0000C9CB900A522206BFFF74AFA781E216B14
:100DD00001EB800B2BF0070B7EB1002507E0715D66
:100DE00004F134004155705D00B902E06D1C102D16
:100DF000F5D300BF002143200155B8F1050F01D301
:100E00004FF00408C4F82C80201D00F046F904F1CE
:100E1000180000F042F92461C8F10500A061646285
:100E200052464946584600F005F920600B9808B133
:100E30000B980460BDE8F09F10B5002407E004EBB8
:100E400084010F4A02EB810000F01AF9641C052CA2
:100E5000F5D30C4800F014F90B4800F011F90B48D9
:100E600000F00EF90A4800F00BF90A4800F008F902
:100E700004480949086004480849086010BD00009A
:100E8000A4000020080100201C01002030010020E7
:100E90004401002058010020480000204C000020A0
:100EA00010B50146164800E0006803688B42FBD38A
:100EB0000246436813448B4204D143684C68234480
:100EC000436001460A464B6813440468A34211D1AB
:100ED0000C4C03682468A34208D04B68046864681B
:100EE00023444B6003681B680B6005E0054B1B68DF
:100EF0000B6001E003680B60884200D0016010BD08
:100F0000840000208C00002009480068006808B9AF
:100F1000012000E0002020B14FF0FF3005490860BB
:100F200005E003480068C06800680249086070472F
:100F3000480000207400002000BF502080F311887A
:100F4000BFF34F8FBFF36F8F00BF00BFFEE70000FE
:100F50002DE9F04705464FF0000900F0A1F93048AF
:100F6000006808B9FFF7D8FE75B105F00700C0F1B9
:100F70001008C8F1FF30A84201D2012000E0002093
:100F800008B9454400E00025012000EBE570002889
:100F900041D0002D3FD02348006885423BD8224EE7
:100FA0003046046801E0264624686068A84202D200
:100FB00020680028F7D11A48006884422BD0306896
:100FC00000F10809206830606068401B102807D9CC
:100FD00067196068401B786065603846FFF760FFFE
:100FE000104960680968081A0E49086008460068D8
:100FF0000E490968884203D20A4800680B49086014
:10100000606840F000406060002020600848006890
:10101000401C0749086000F091FA4846BDE8F08797
:101020008C0000209000002084000020940000200C
:1010300098000020001F4FF080730360001F21F014
:1010400001030360001F034B036014380260203863
:1010500070470000390F000801460A69D1E90130E4
:101060009860D1E9010358605068884201D18868CE
:101070005060002008611068401E106010687047C2
:1010800000F1080141604FF0FF31816000F108017B
:10109000C16001610021016070470021016170475A
:1010A00042684A6093688B609368596091600861F8
:1010B00003685B1C0360704700BF502080F31188F9
:1010C000BFF34F8FBFF36F8F00BF03480068401C12
:1010D0000149086070470000A00000200648006831
:1010E000401E054908600846006820B9002080F3CA
:1010F000118800BF00BF7047A000002070B50646F1
:101100003546E6B1083D2C466068C00FB8B120688E
:10111000A8B9606820F00040606000F0C1F808499C
:10112000606809680844064908602046FFF7B8FE71
:1011300004480068401C0349086000F0FFF970BDD6
:10114000900000209C00002000204FF0E02108616A
:101150008861024848610720086170473F19010013
:1011600070B50546FFF7A8FF15B92948006800E0EB
:1011700028460446201DFFF76FFF78B9E06A00EBB0
:101180008000244951F8200040B994F82C10012027
:1011900088402149096881431F480160A06A18B14D
:1011A00004F11800FFF758FF1C480068401C1B4959
:1011B000086017480068844209D1211D1848FFF7CC
:1011C0006FFF18480068401C1649086006E0164882
:1011D0000068401E14490860FFF796FEFFF77EFF87
:1011E0000B480068844202D02046FFF78BFD0F4871
:1011F000006858B106480068844207D14FF080501B
:101200000B490860BFF34F8FBFF36F8F70BD0000B5
:1012100044000020A40000205C000020700000209A
:1012200044010020500000205400002060000020F5
:1012300004ED00E01CB5124800210B464022CDE928
:10124000001010A1114800F07DF80446012C14D1C3
:1012500000BF502080F31188BFF34F8FBFF36F8F13
:1012600000BF4FF0FF300A490860012009490860BB
:1012700000200949086000F04BF8084800681CBDD0
:101280007800002049444C4500000000890D00080A
:101290007400002060000020580000207C00002026
:1012A00002480068401C0149086070478000002027
:1012B0001248006818B10120114908601DE00020A3
:1012C0000F4908600F480068B0FA80F0C0F11F01B4
:1012D00001EB81020C4B03EB8200426852684260D2
:1012E00000F108024368934202D1426852684260AA
:1012F0004268D268054B1A6000BF7047800000202A
:10130000680000205C000020A400002044000020B1
:1013100010B50A48006840F47000084908600846A3
:10132000006840F070400860FFF70EFF002004499D
:101330000860FEF73BFF002010BD000020ED00E03C
:10134000A00000202DE9FF4F85B080468946174652
:10135000DDE912ABB800FFF7FBFD064676B14C2085
:10136000FFF7F6FD04462CB14C212046FEF7A2FF04
:10137000266304E03046FFF7C1FE00E000247CB1A4
:101380000020CDE900ABCDE902403A46494640464F
:10139000089BFFF70DFD2046FFF71EFC012501E02D
:1013A0004FF0FF35284609B0BDE8F08F2DE9F04138
:1013B00000275748006800287ED156480068451C21
:1013C000544805608DB95448D0F8008053480068EF
:1013D000514908605148C0F8008051480068401CDD
:1013E0004F490860FFF790FD00BF4E4800688542F6
:1013F00076D300BF48480068006808B9012000E0C3
:10140000002020B14FF0FF304649086067E04248B5
:101410000068C068C4686668B54202D24148066088
:101420005DE06069D4E902128A60D4E902214A6071
:10143000211D42688A4201D1E16841600022626157
:101440000168491E0160A06A98B1A06AD4E9071238
:101450008A60D4E907214A6004F1180142688A428F
:1014600001D1216A41600022A2620168491E016027
:1014700000BF94F82C10012088402B4909680843CC
:1014800029490860E16A01EB8101284A02EB8101E8
:101490004868A0608268E260211D826851608160B6
:1014A000E16A01EB8101214A02EB81026261E16A9A
:1014B00001EB81011D4A00E022E052F82110491C95
:1014C000E26A02EB8202194B43F822101849E06AE3
:1014D0000968C96A88428DD901278BE700E000BFFF
:1014E00013480068C06A00EB8000104951F82000E2
:1014F000012800D901270F48006800B1012704E046
:101500000D480068401C0C4908603846BDE8F08171
:101510008000002058000020480000204C000020DF
:101520006C000020740000205C000020A40000205B
:1015300044000020680000206400002070B50024F2
:101540000026FFF7B9FD4B480068401E4949086076
:101550000846006800287DD147480068002879D0F7
:101560005BE04648C068C468A06AD4E907128A6094
:10157000D4E907214A6004F1180142688A4201D186
:10158000216A41600022A2620168491E016060690F
:10159000D4E902128A60D4E902214A60211D42681E
:1015A0008A4201D1E1684160002262610168491EFE
:1015B000016094F82C1001208840314909680843E3
:1015C0002F490860E16A01EB81012E4A02EB81019B
:1015D0004868A0608268E260211D82685160816075
:1015E000E16A01EB8101274A02EB81026261E16A53
:1015F00001EB8101234A52F82110491CE26A02EBF7
:101600008202204B43F822101F49E06A0968C96A28
:10161000884202D301201D4908601848006808B9B3
:10162000012000E0002000289BD00CB1FFF76CFCEB
:101630001748056865B100BFFFF7B8FE10B101207B
:10164000124908606D1E002DF6D100201049086077
:101650000E4800E009E0006838B1012630070D4966
:101660000860BFF34F8FBFF36F8FFFF737FD304632
:1016700070BD0000800000205400002030010020D8
:101680005C000020A400002044000020680000202E
:101690006400002004ED00E0B816000800000020FF
:1016A000A4000000280100085C170008A400002026
:1016B0002C18000044010008000000000000000099
:1016C000000000000000000000000000000000001A
:1016D000000000000000000000000000000000000A
:1016E00000000000000000000000000000000000FA
:1016F00000000000000000000000000000000000EA
:1017000000000000000000000000000000000000D9
:1017100000000000000000000000000000000000C9
:1017200000000000000000000000000000000000B9
:1017300000000000040000000000000000000000A5
:101740000000000000000000000000000000000099
:0C1750000000000000000000AAAAAAAAE5
:04000005080000ED02
:00000001FF
