:020000040800F2
:10000000882000206902000881170008870E000878
:1000100009100008DD0B0008152B00080000000087
:10002000000000000000000000000000D1010008F6
:10003000E10B00080000000015020008951F0008F1
:10004000830200088302000883020008830200087C
:10005000830200088302000883020008830200086C
:10006000830200088302000883020008830200085C
:10007000830200088302000883020008830200084C
:10008000830200088302000883020008830200083C
:10009000830200088302000883020008830200082C
:1000A000830200088302000883020008830200081C
:1000B000E12000088302000800000000830200081D
:1000C0008302000800000000000000008302000816
:1000D0000000000083020008830200080000000006
:1000E00083020008830200088302000800F002F87F
:1000F00000F05EF80AA090E8000C82448344AAF164
:100100000107DA4501D100F053F8AFF2090EBAE861
:100110000F0013F0010F18BFFB1A43F0010318473B
:10012000305C0000505C00000A444FF0000C10F8F6
:10013000013B13F0070408BF10F8014B1D1108BF65
:1001400010F8015B641E05D010F8016B641E01F805
:10015000016BF9D113F0080F1EBF10F8014BAD1C55
:100160000C1B09D16D1E58BF01F801CBFAD505E073
:1001700014F8016B01F8016B6D1EF9D59142D6D3CD
:10018000704700000023002400250026103A28BFF5
:1001900078C1FBD8520728BF30C148BF0B607047F9
:1001A0001FB59DE8030000F01FF91FBD10B510BD7D
:1001B00000F0ACF91146FFF7F3FF03F00DF800F083
:1001C000CAF903B4FFF7F2FF03BC00F0FBF900002B
:1001D000224B19680868B0E8F00F80F30988BFF374
:1001E0006F8F4FF0000080F311884EF00D0E7047B6
:1001F0000000000006480068006880F3088862B6C6
:1002000061B6BFF34F8FBFF36F8F00DF00BF00BF3A
:1002100008ED00E0EFF30980BFF36F8F0F4B1A6812
:1002200020E9F00F106008B54FF0500080F31188FE
:10023000BFF34F8FBFF36F8F03F0DAFB4FF0000077
:1002400080F31188BDE8084019680868B0E8F00F2D
:1002500080F30988BFF36F8F704700BFDC00002078
:10026000EFF30580704700000948804709480047C0
:10027000FEE7FEE7FEE7FEE7FEE7FEE7FEE7FEE756
:10028000FEE7FEE704480549054A064B70470000B3
:10029000C91F0008ED0000088816002088200020F3
:1002A000881B0020881B002070B5064600F080F8EF
:1002B000056806F10B0020F00704B4429CBF002043
:1002C00070BD2B466A68BAB11068A04210D304F121
:1002D000080188423CBF5068586007D35168101924
:1002E00041601168091B016058601460101D70BDE9
:1002F00013465268002AE7D12146284600F060F8EC
:100300000028DED170BD02F0FF0343EA032242EA77
:10031000024200F002B84FF000020429C0F012803F
:1003200010F0030C00F01B80CCF1040CBCF1020FA8
:1003300018BF00F8012BA8BF20F8022BA1EB0C017D
:1003400000F00DB85FEAC17C24BF00F8012B00F873
:10035000012B48BF00F8012B70474FF0000200B599
:10036000134694469646203922BFA0E80C50A0E8D8
:100370000C50B1F12001BFF4F7AF090728BFA0E886
:100380000C5048BF0CC05DF804EB890028BF40F852
:10039000042B08BF704748BF20F8022B11F0804F94
:1003A00018BF00F8012B7047704770477047000076
:1003B00000487047301600207047704770477047FC
:1003C00038B504460A4600206946AFF3008000288D
:1003D00008BF38BD02460099204600F075F801209C
:1003E00038BD012000F08AB8F8B5AFF300800546AB
:1003F00000200C46102000BF0646A819A0420DD9C7
:10040000324669460020AFF30080070008BF00F0C5
:1004100075F80098A04218BF0546C419FFF7C8FF39
:1004200005600746F01D20F007004619284600F039
:100430000AF8B44208BFF8BDA21B31463868BDE8CF
:10044000F84000F041B800210160C0E90110704798
:100450001020704770B50446051FFFF7A9FF00681C
:10046000002C14BF446870BD002C18BFAC423CBFC8
:1004700020466468F8D301680A18AA4218BF45608C
:1004800003D12A6805461144016028684119A14238
:100490001CBF6C6070BD6168696021680844286099
:1004A00070BD10B500F00CF8006810BD10B5044622
:1004B00000F006F8046010BD0048704728160020C0
:1004C0000048704728160020034640688C460028E4
:1004D00018BF88423CBF03464068F8D318681844E8
:1004E000884207D00CF1030020F00700001D411ADC
:1004F000521A0146081D0A60FFF7ACBF10B500F0A4
:1005000039F8BDE8104000F02FB870477546FFF786
:10051000D3FFAE4605006946534620F007008546E6
:1005200018B020B5FFF7AEFEBDE820404FF0000642
:100530004FF000074FF000084FF0000B21F00701CB
:10054000AC46ACE8C009ACE8C009ACE8C009ACE80E
:10055000C0098D46704710B50446AFF300802046B1
:10056000BDE81040FFF72DBE002801D000F02AB8EA
:100570007047000010B5012805D0002103A000F04D
:1005800027F8012010BD09A1F8E7000053494752A0
:10059000544D454D3A204F7574206F662068656153
:1005A00070206D656D6F7279000000003A2048651B
:1005B0006170206D656D6F727920636F72727570F6
:1005C0007465640001491820ABBEFEE726000200F6
:1005D00070B505460C460A2000E06D1C00F011F8CD
:1005E00035B128780028F8D102E0641C00F009F841
:1005F00014B120780028F8D1BDE870400A20AFF38C
:10060000008008B569468DF800000320ABBE08BD28
:1006100010B509480078032801D100F02FF90648E9
:100620000078022801D100F09BF8034800780128E7
:1006300001D100F003F810BD4700002010B500F014
:100640000BF8034801680348007801F0E1FF10BD92
:10065000CC0000204400002010B5012000F0A2FCD6
:1006600001280FD10221314800F0B6FA304909685B
:1006700088683049097800F0E4FD2F4908600120BE
:1006800000F075FC022000F08DFC012817D12B48EA
:100690000078401E294908702949087827490978B7
:1006A00000F052F82549087008460178254800688E
:1006B00000F0B1FD1E490860022000F058FC032044
:1006C00000F070FC012817D11C480078401C1B4921
:1006D00008701B4908781949097800F035F817495E
:1006E0000870084601781748006800F094FD10492A
:1006F0000860032000F03BFC012000F053FC0228BE
:1007000009D0022000F04EFC022804D0032000F0A3
:1007100049FC022808D1012000F029FC022000F049
:1007200026FC032000F023FC10BD00004700002041
:1007300048000020450000204C000020440000201C
:10074000C8000020CC0000200246914201DD104686
:100750007047002901DC0120FAE70846F8E70000AD
:1007600070B500F011F80648006884680448006815
:10077000C5682A7821460348007801F08DFF70BDD6
:10078000480000204500002010B538480068C468C3
:10079000012000F007FC012806D10321344800F0B5
:1007A0001BFA012000F0E3FB012000F0FBFB022814
:1007B0000AD101212E4800F00FFA01212D4800F046
:1007C0000BFA012000F0D3FB022000F0EBFB012824
:1007D00016D128480078401E2649087020780978EC
:1007E000FFF7B2FF2349087020490968886821494A
:1007F000097800F026FD20490860022000F0B7FBD0
:10080000032000F0CFFB012816D11A480078401CC5
:100810001849087020780978FFF796FF1549087085
:100820001249096888681349097800F00AFD1249DD
:100830000860032000F09BFB012000F0B3FB0228BE
:1008400009D0022000F0AEFB022804D0032000F003
:10085000A9FB022808D1012000F089FB022000F04A
:1008600086FB032000F083FB10BD00004800002041
:1008700047000020450000204C00002010B500F08B
:1008800003F800F019F810BD10B50A480068047AA2
:10089000012C04D0022C08D0032C09D102E000F076
:1008A00019F905E000F054F902E000F04BF800BF40
:1008B00000BF10BD4C00002070B586B01F48006816
:1008C000057A012D04D0022D1BD0032D33D10AE06F
:1008D0001A4800680469266818490968486831465A
:1008E00002F0A2F827E01548006804696068006813
:1008F0000590124A21681268506805AA02F0CEF8E5
:1009000019E00E4800680469206800680590606876
:1009100000680490A0680068039026690848007881
:100920000649CDE90060096803AB04AA486805A937
:1009300001F0A8FF00BF00BF06B070BD4C00002052
:100940004600002070B5012000F02CFB02280AD1DF
:1009500002212D4800F040F901212C4800F03CF91B
:10096000012000F004FB022000F01CFB012804D150
:1009700000F080F8022000F0FAFA032000F012FBE9
:10098000012804D100F046F8032000F0F0FA02201C
:1009900000F008FB022814D11D4800680469257B7B
:1009A0005DB11A480078401E184908700846017861
:1009B0000320FFF7C9FE15490870022000F0D7FA9E
:1009C00000BF032000F0EEFA022814D1104800689E
:1009D0000469257B5DB10D480078401C0B49087007
:1009E000084601780320FFF7AFFE0849087003208E
:1009F00000F0BDFA00BF012000F0D4FA012801D1B7
:100A000000F0B5FA70BD000047000020460000204D
:100A10004C00002030B5154C2468226910685368DA
:100A20009168134C2478012C04D0022C0DD0032C97
:100A30001AD10EE00468641C046004681D68AC42AE
:100A400002DD0468641E04600EE01C68641C1C6007
:100A50000AE00C68641C0C600C680568AC4202DD9E
:100A60000C68641E0C6000BF00BF30BD4C0000204D
:100A70004600002030B5154C246822691068516882
:100A80009368134C2478012C04D0022C0DD0032C35
:100A90001AD115E00468641E046004681D68AC4245
:100AA00002DA0468641C04600EE00C68641E0C60CA
:100AB0000C680568AC4202DA0C68641C0C6003E048
:100AC0001C68641E1C6000BF00BF30BD4C000020CD
:100AD0004600002070B51C480068046925680120A4
:100AE00000F060FA022806D10221184800F074F8DC
:100AF000012000F03CFA022000F054FA022806D14E
:100B00000121284600F068F8022000F030FA0320A6
:100B100000F048FA022806D10021284600F05CF8CF
:100B2000032000F024FA022000F03CFA012804D04F
:100B3000032000F037FA012805D1022000F017FA4F
:100B4000032000F014FA70BD4C0000204700002084
:100B500010B5012000F026FA022806D1022117481C
:100B600000F03AF8022000F002FA012000F01AFA30
:100B7000012809D0022000F015FA012804D0032032
:100B800000F010FA012808D1012000F0F0F902204D
:100B900000F0EDF9032000F0EAF9022000F002FA7B
:100BA000022804D0032000F0FDF9022805D102201C
:100BB00000F0DDF9032000F0DAF910BD4700002055
:100BC00010B504460121204600F025FB01490860CC
:100BD00010BD0000480000200170704700BFFEE714
:100BE0007047000010B5044600BF0B48007800288D
:100BF000FBD1A1B24FF0804001F09BFB012188079F
:100C000001F08AFA00BF044800780028FBD00020D9
:100C10000149087010BD00000300002008B5012143
:100C2000042001F033F94FF48070ADF80000182073
:100C30008DF8030003208DF802006946014800F09A
:100C400003F808BD000801402DE9F04102460025E7
:100C50000026002000230024002791F803C00CF098
:100C60000F0591F803C00CF0100CBCF1000F03D07D
:100C700091F802C04CEA050591F800C0BCF1000FE4
:100C800031D0146800202BE04FF0010C0CFA00F377
:100C9000B1F800C00CEA03069E4220D183004FF059
:100CA0000F0C0CFA03F7BC4305FA03FC4CEA0404EE
:100CB00091F803C0BCF1280F06D14FF0010C0CFADB
:100CC00000FCC2F814C00AE091F803C0BCF1480F60
:100CD00005D14FF0010C0CFA00FCC2F810C0401C0A
:100CE0000828D1D31460B1F800C0BCF1FF0F34DD87
:100CF000546800202EE000F1080C4FF0010808FABB
:100D00000CF3B1F800C00CEA03069E4221D1830027
:100D10004FF00F0C0CFA03F7BC4305FA03FC4CEA46
:100D2000040491F803C0BCF1280F05D100F1080CB0
:100D300008FA0CF8C2F8148091F803C0BCF1480F0F
:100D400007D100F1080C4FF0010808FA0CF8C2F8BE
:100D50001080401C0828CED35460BDE8F08110B547
:100D600000F062F8FFF75AFF00F002F810BD000033
:100D700008B50121042001F089F80121082001F0C3
:100D800085F80220ADF8000048208DF8030003200C
:100D90008DF8020069460F48FFF756FF0120ADF8B5
:100DA000000048208DF8030003208DF802006946FA
:100DB0000848FFF749FF0120ADF8000048208DF8F2
:100DC000030003208DF8020069460348FFF73CFF4B
:100DD00008BD0000000C0140000801400246002050
:100DE00093680B400BB1012000E000207047416187
:100DF0007047000010B502210148FFF7EFFF10BD5A
:100E0000000C014010B501210148FFF7E7FF10BDBC
:100E1000000C014010B501210148FFF7DFFF10BDB4
:100E2000000801400161704708B50121042001F06C
:100E30002DF84FF48050ADF8000014208DF8030019
:100E400003208DF8020069460148FFF7FDFE08BD4A
:100E50000008014010B5044634B1012C0AD1010349
:100E60000548FFF7DFFF05E04FF480510248FFF728
:100E7000BEFF00BF00BF10BD000801400AB1016104
:100E800000E04161704700BFFEE710B50024FFF7A6
:100E9000B1FFF8B9052002F0E9FCFFF7ABFFC8B9D4
:100EA00009E0601C84B2012002F0E0FC4EF66020F4
:100EB000844200DB0446FFF79DFF0028F1D0322C6E
:100EC00004DB0221012000F087F803E0012108463D
:100ED00000F082F810BD10B50024FFF793FFF8B9B9
:100EE000052002F0C3FCFFF78DFFC8B909E0601CC4
:100EF00084B2012002F0BAFC4EF66020844200DB8E
:100F00000446FFF77FFF0028F1D0322C04DB0221DA
:100F1000084600F061F803E00121022000F05CF8CF
:100F200010BD10B50024FFF775FFF8B9052002F0D9
:100F30009DFCFFF76FFFC8B909E0601C84B2012077
:100F400002F094FC4EF66020844200DB0446FFF77A
:100F500061FF0028F1D0322C04DB0221032000F0D5
:100F60003BF803E00121032000F036F810BD00B586
:100F70000346012B04D0022B07D0032B0FD109E02D
:100F80000021012000F028F809E00021022000F0F3
:100F900023F804E00021032000F01EF800BF00BF8A
:100FA00000BD00000146012904D0022905D0032913
:100FB00009D105E005480078704705480078FBE74F
:100FC00004480078F8E7FF20F6E700000000002062
:100FD0000100002002000020012804D0022805D0D2
:100FE000032809D105E0054A117005E0044A117093
:100FF00002E0044A117000BF00BF704700000020EB
:10100000010000200200002000BFFEE710B5002311
:101010001A461946184600F003F80446204610BD4B
:101020002DE9F04105460F46164698461820FFF771
:101030003BF9044614B90020BDE8F08125606760E3
:10104000A660C4F80C802046F6E72DE9F047054677
:101050000E4617469846DDF820902020FFF724F929
:10106000044614B90020BDE8F0872560C4F8049058
:101070002672E760C4F81080C4F814902046F2E7A6
:1010800038B5044600231A46194618460094FFF75F
:10109000DCFF0546284638BD2DE9F84F81460D4650
:1010A00016461F46DDE90AABCDF800B05246394678
:1010B00030460C9B00F014F88046B8F1000F02D1C6
:1010C0000020BDE8F88F43460022022148460095E3
:1010D000FFF7BBFF04460CB90020F2E72046F0E71B
:1010E0002DE9F04705460E4617469846DDF8209054
:1010F0001420FFF7D9F8044614B90020BDE8F087A2
:1011000025606660A76084F80C80C4F810902046C3
:10111000F4E72DE9F84380460D461646304600F0C8
:10112000A6F8044614B90020BDE8F883234600223F
:10113000012140460095FFF788FF07460CB90020C3
:10114000F2E73846F0E72DE9F84381460D461646AA
:101150001F463946304600F014F88046B8F1000FBB
:1011600002D10020BDE8F88343460022032148460F
:101170000095FFF76AFF04460CB90020F2E720460D
:10118000F0E770B505460E460820FFF78DF80446D7
:101190000CB9002070BD256066602046FAE7014664
:1011A000084600E040694269002AFBD170470146C9
:1011B00000204A6902E0431C58B25269002AFAD161
:1011C00070470146084600E0C069C269002AFBD1A9
:1011D000704701460020CA6902E0431C58B2D26938
:1011E000002AFAD1704730B505460B462846FFF76E
:1011F000D6FF044663611C610020586130BD30B5E4
:1012000005460B462846FFF7DCFF0446E3619C6178
:101210000020D86130BD10B502460B460AB1002B44
:1012200001DC002010BD0124516906E0A34201D178
:101230000846F7E7601CC4B249690029F6D10020CE
:10124000F0E710B502460B460AB1002B01DC002086
:1012500010BD0124D16906E0A34201D10846F7E799
:10126000601CC4B2C9690029F6D10020F0E770B54E
:1012700005460420FFF718F804460CB9002070BD9D
:1012800025602046FBE7000010B509480068FFF71D
:10129000A0FF0849087008480068FFF79AFF07494F
:1012A000087007480068FFF782FF0649087010BD04
:1012B000D0000020C9000020D4000020CA00002077
:1012C000CC000020C800002070B5FFF79FFE0E493B
:1012D00008600E4B0E480F4902680F48FFF7A0FE4A
:1012E00004460E4B0E480F4902680F48FFF798FE60
:1012F0000546214604480068FFF775FF2946024865
:101300000068FFF770FF70BDCC000020C90000200E
:10131000D0000020BD00002093570008CA00002024
:10132000D4000020C40000202359000810B500F0AC
:101330003FF800F003F8FFF7C7FF10BD3EB51148B6
:10134000FFF79EFE10490860104A11491148FFF747
:10135000E0FE054600201049104A114BCDE900215E
:101360000290104A10491148FFF796FE044629469C
:1013700005480068FFF743FF214603480068FFF770
:101380003EFF3EBDC4000020D40000208C000020A1
:1013900050000020B3550008AC0000209800002049
:1013A000940000209000002059000020EF55000814
:1013B0002DE9FE432248FFF763FE22490860224AD6
:1013C00022492348FFF7A5FE054600202149224A6D
:1013D000224BCDE900210290214A22492248FFF701
:1013E0005BFE0446214A22492248FFF792FE064648
:1013F000214A22492248FFF78CFE0746214B224A08
:1014000022492348FFF79FFE804629460D48006881
:10141000FFF7F5FE21460B480068FFF7F0FE314666
:1014200008480068FFF7EBFE394606480068FFF7FA
:10143000E6FE414603480068FFF7E1FEBDE8FE8393
:10144000BD000020D00000208D00002062000020A0
:1014500067560008B2000020A4000020A000002071
:101460009C0000206A000020A35600088E00002087
:1014700075000020DF5600088F0000207C0000204F
:101480001B570008A8000020B8000020830000209F
:101490005757000810B5FFF749FFFFF7F5FE024860
:1014A0000068FFF78DFB10BDCC000020F0B50125D2
:1014B000FA26052700249EE051480078012811D122
:1014C00004EB44004F49085C284404EB44014D4AB6
:1014D000505404EB44001146085CB04202DB00208B
:1014E000474908704648007888B904EB44004549EC
:1014F000085C401B04EB4401424A505404EB440096
:101500001146085CB84202DC01203D4908703E48A3
:101510000078012814D104EB44003A49084440788B
:10152000284404EB4401374A1144487004EB44005A
:10153000114608444078B04202DB0020324908706E
:1015400031480078A0B904EB44002E4908444078A3
:10155000401B04EB44012B4A1144487004EB440047
:10156000114608444078B84202DC01202649087040
:1015700026480078012814D104EB4400214908448E
:101580008078284404EB44011E4A1144887004EB1F
:101590004400114608448078B04202DB00201B4919
:1015A00008701A480078A0B904EB440015490844B3
:1015B0008078401B04EB4401124A1144887004EB0C
:1015C0004400114608448078B84202DC01200F49EB
:1015D000087004EB4403DFF82CC063449A7804EBF2
:1015E00044036344597804EB44031CF8030000F0FF
:1015F00027F8601CC4B20C2CFFF65EAFF0BD0000F3
:10160000D80000203C050020D9000020DA0000208E
:10161000002010E0962100EB4002084B9954322143
:1016200000EB40021A445170FA2100EB40021A44C8
:101630009170411CC8B20C28ECDB70473C050020BF
:1016400030B5034600200DE000EB4004074D2B555C
:1016500000EB40042C44617000EB40042C44A27069
:10166000441CE0B20C28EFDB30BD00003C0500203C
:1016700070B502F0A7F8002410E004EB44000A4D16
:101680002844837804EB44002844427804EB440067
:10169000295C204601F077FA601CC4B20C2CECDB0C
:1016A00002F0A2F870BD00003C05002010B5104803
:1016B0000068012804D0022809D0032815D10DE0C4
:1016C000812000F0ABFB012000F0A8FB0DE08120A1
:1016D00000F0A4FB322000F0A1FB06E0812000F026
:1016E0009DFBFF2000F09AFB00BF00BF10BD000073
:1016F0009C00002010B50848007810B1012808D1DE
:1017000003E0A62000F08AFB03E0A72000F086FBA0
:1017100000BF00BF10BD00008D00002010B50848BC
:10172000007810B1012808D103E0A12000F076FB79
:1017300003E0A02000F072FB00BF00BF10BD00005E
:101740008E00002010B50848007810B1012808D19B
:1017500003E0C82000F062FB03E0C02000F05EFB65
:1017600000BF00BF10BD00008F00002010B5FFF7C4
:10177000C1FFFFF79BFFFFF7D1FFFFF7E3FF10BDAE
:101780007047000070B5002100230F22C47804B315
:10179000154C246804F4E064C4F5E064210AC1F146
:1017A0000403CA40447804FA03F1847814402143C6
:1017B00009010E4C0678A155047804F01F05012498
:1017C000AC4005786D11AD0005F1E025C5F800418C
:1017D00009E0047804F01F050124AC40044D0678AC
:1017E000761145F8264070BD0CED00E000E400E005
:1017F00080E100E002490143024A116070470000A5
:101800000000FA050CED00E000200CE0002106E0ED
:101810000022064B03EBC0135A544A1CD1B2802954
:10182000F6DB421CD0B20828F0DB70473C010020F8
:101830002DE9F04304460D4616461F467F2C01DD78
:10184000BDE8F0833F2D00DDFAE7A119802902DD14
:10185000C4F18001CEB2E919402902DDC5F1400191
:10186000CFB2284630E0234629E04FEAE07C00EB87
:101870005C7C4FEAEC0CDFF85C8008EBCC1C1CF8BD
:1018800003C002464FEAE07800EB58784FEAE808D8
:10189000A0EBC8094FF0010808FA09F82CEA080C77
:1018A00001464FEAE07800EB58784FEAE808DFF8A5
:1018B000249009EBC81808F803C0591CCBB2A11931
:1018C0009942D2DC411CC8B2E9198142CBDC00BF8D
:1018D000B6E700003C01002070B503467F2B00DD19
:1018E00070BD3F2900DDFBE7CC1701EB5474E41019
:1018F0000C4D05EBC414E45C0A46CD1701EB55759D
:10190000ED10A1EBC5060125B5402C430846CD17C7
:1019100001EB5575ED10034E06EBC515EC5400BFF9
:10192000DEE700003C0100202DE9F04705460E46A9
:1019300017469846DDF820A0BAF1000F24D12C46B6
:101940000CE031462046FFF7C7FF06EB0800401EBB
:10195000C1B22046FFF7C0FF601CC4B2E819A04224
:10196000EFDC34460BE021462846FFF7B5FFE919C6
:10197000491EC8B22146FFF7AFFF601CC4B206EB98
:101980000800A042EFDC14E02C460FE0B14607E06F
:1019900049462046FFF7A0FF09F1010000F0FF09CA
:1019A00006EB08004845F3DC601CC4B2E819A0420D
:1019B000ECDCBDE8F087000038B5002406E0002527
:1019C00000E06D1CB5F57A7FFBD3641CB4F57A7F1B
:1019D000F5D30121082000F059FA14208DF80300F6
:1019E00003208DF802004020ADF800006946084849
:1019F000FFF72AF98020ADF8000069460448FFF798
:101A000023F9012000F0F6F9012000F0FDF938BDBE
:101A1000000C014070B50546002411E080212141F1
:101A2000294009B1012100E00021084600F0ECF94D
:101A3000012000F0DFF9002000F0DCF9601CC4B2E6
:101A4000082CEBDB012000F0D5F9002000F0D2F9E2
:101A500070BD10B5012000F0D7F9012000F0CAF9DF
:101A6000002000F0D1F9002000F0C4F910BD10B53D
:101A7000002000F0C9F9012000F0BCF9012000F0BD
:101A8000C3F910BD10B5FFF797FFAE2000F0C6F9FF
:101A9000D52000F0C3F9802000F0C0F9A82000F0A4
:101AA000BDF93F2000F0BAF9D32000F0B7F90020CB
:101AB00000F0B4F9402000F0B1F9A12000F0AEF937
:101AC000C82000F0ABF9DA2000F0A8F9122000F0ED
:101AD000A5F9812000F0A2F9FF2000F09FF9D9209C
:101AE00000F09CF9F12000F099F9DB2000F096F964
:101AF000302000F093F9A42000F090F9A62000F027
:101B00008DF98D2000F08AF9142000F087F9AF20BC
:101B100000F084F9FFF778FE00F052F910BD10B51F
:101B20000246012000E050430B1EA1F10101FAD151
:101B300010BD70B505460C4645F0B00000F06EF9DA
:101B4000102141EA141000F069F904F00F0000F0D0
:101B500065F970BDF8B506460F4614461D46082DBA
:101B60000CD1A4F120000E4901EB00101023082233
:101B700039460090304600F017F80FE0062D0DD1E1
:101B8000A4F1200000EB4000064901EB40000823CF
:101B9000062239460090304600F006F8F8BD0000F5
:101BA000BE4B0008AE5100082DE9F04707460C4631
:101BB00090469946DDF820A07F2F01DDBDE8F08733
:101BC0003F2C00DDFAE74B46424621463846FFF7F8
:101BD0002FFE002570E0002669E0B8197F2800DD9F
:101BE00067E0E11704EB517105EBE101072900DD26
:101BF000E4E72046E21704EB527205EBE202344BB5
:101C000003EBC212BB19D25C2146E31704EB5373FA
:101C1000DB10A4EBC30305FB086C1AF80CC00CFA2C
:101C200003FC42EA0C02E31704EB537305EBE303F6
:101C3000DFF89CC00CEBC31307EB060C03F80C2079
:101C4000E11704EB517105EBE101491C072900DDA7
:101C50002BE02046E21704EB527205EBE202521C25
:101C60001B4B03EBC212BB19D25C2146E31704EBFA
:101C70005373DB10A4EBC303C3F1080305FB086C2B
:101C80001AF80CC04CFA03FC42EA0C02E31704EB0E
:101C9000537305EBE3035B1CDFF834C00CEBC31399
:101CA00007EB060C03F80C2000BF701CC6B24645BB
:101CB00093DB00BF681CC5B2A9F10100C11700EB9E
:101CC0005171012202EBE101A94284DC00BF75E7FA
:101CD0003C0100202DE9F0470646894617461D467F
:101CE000DDF82080002417E0281B411E0A20FFF7A2
:101CF00016FFB7FBF0F00A21B0FBF1F201FB120076
:101D000000F1300A04FB0861C8B243465246494616
:101D1000FFF720FF601CC4B2AC42E5DBBDE8F087F2
:101D20002DE9F04F80468A4615461E46DDF8249080
:101D3000002D07DB4B462B2251464046FFF70AFF9A
:101D40002F4606E04B462D2251464046FFF702FF44
:101D50006F42002418E0301B411E0A20FFF7DFFE0F
:101D6000B7FBF0F00A21B0FBF1F201FB120000F129
:101D7000300B611C01FB0981C8B24B465A465146E3
:101D8000FFF7E8FE601CC4B2B442E4DBBDE8F08FAC
:101D90002DE9F0410646884615461F46002409E015
:101DA0002A5D04FB0761C8B23B464146FFF7D2FEFD
:101DB000601CC4B2285D0028F2D1BDE8F0810000AB
:101DC00010B501F0FFFCFFF7D1FC00240BE000216F
:101DD0002046FFF7AEFE064901EBC410802100F05B
:101DE0002DF8601CC4B2082CF1DB01F0FDFC10BD25
:101DF0003C01002010B50446224640210148FFF76F
:101E00003DF810BD000C014010B50446224680216B
:101E10000148FFF733F810BD000C014010B504462F
:101E2000FFF717FE7820FFF7F5FD0020FFF7F2FD22
:101E30002046FFF7EFFDFFF71AFE10BD70B505460F
:101E40000E46FFF706FE7820FFF7E4FD4020FFF77F
:101E5000E1FD002404E0285DFFF7DCFD601CC4B256
:101E6000B442F8DBFFF703FE70BD000029B1064A5B
:101E7000D2690243044BDA6104E0034AD269824327
:101E8000014BDA61704700000010024029B1064A98
:101E900092690243044B9A6104E0034A92698243C7
:101EA000014B9A61704700000010024010B500F02D
:101EB00001F810BD0CB50020019000903348006877
:101EC00040F480303149086000BF3048006800F4B9
:101ED000003000900198401C0190009818B90198BA
:101EE000B0F5A06FF1D12948006800F4003010B1BE
:101EF0000120009001E0002000900098012843D1CB
:101F00002348006840F01000214908600846006836
:101F100020F0030008600846006840F002000860F6
:101F20001A484068194948600846406848600846B1
:101F3000406840F4806048600846406820F47C10A7
:101F400048600846406840F4E81048600846006869
:101F500040F08070086000BF0C48006800F000701E
:101F60000028F9D00948406820F00300074948607C
:101F70000846406840F00200486000BF03484068DF
:101F800000F00C000828F9D10CBD00000010024040
:101F90000020024010B500BF502080F31188BFF32D
:101FA0004F8FBFF36F8F00BF01F0A0FD18B14FF04E
:101FB00080500449086000BF002080F3118800BFF2
:101FC00010BD000004ED00E010B51348006840F0BB
:101FD00001001149086008464068104908400E4950
:101FE0004860084600680E4908400B4908600846EA
:101FF000006820F4802008600846406820F4FE0055
:1020000048604FF41F008860FFF750FF4FF00060FA
:102010000449086010BD0000001002400000FFF8F5
:10202000FFFFF6FE08ED00E001E0FEF72EFFFCE703
:1020300000BFFEE700BFFEE700BFFEE700BFFEE710
:1020400000BFFEE700BFFEE701E0FEF744FFFCE74C
:1020500001E0FEF766FFFCE7FFF714FD062306A28A
:1020600000210846FFF794FEFFF7AAFE03E0FEF703
:10207000CFFAFFF7A5FEFAE76E6169686170690043
:10208000FFF7C6FA07E0FFF711FAFFF7F1FA40F29F
:10209000DC5001F0EBFBF6E700BFFEE700BFFEE718
:1020A00000BFFEE700BFFEE71CB54FF44070FFF72E
:1020B000A1FB0648012100238022CDE9001004A1E4
:1020C000064801F0DFFC01F055FC1CBD400000207B
:1020D0005461736B5F53746172740000E1230008F4
:1020E00010B50121880700F0A5F8012806D10021CC
:1020F000800700F011F801200349087001218807CA
:1021000000F007F810BD000003000020CA4302825F
:102110007047CA430282704721B1028842F001022F
:10212000028004E002884FF6FE731A400280704776
:1021300031B1B0F8442042F40042A0F8442005E058
:10214000B0F84420C2F30E02A0F8442070471FB537
:1021500001210846FFF78AFE0020ADF80A00ADF81D
:102160000600ADF808002320ADF8040000208DF82B
:102170000C0001A94FF0804000F0E0F80121880731
:10218000FFF7C4FF01221146900700F064F81C20FD
:102190008DF8000001208DF8030002208DF8010069
:1021A0006846FFF7EFFA00214FF0804000F0C3F8D7
:1021B00000214FF08040FFF7AFFF1FBD00B587B093
:1021C0000121C802FFF762FE684600F0A8F800206F
:1021D000ADF81600ADF812006320ADF814004720EA
:1021E000ADF8100000208DF8180004A9104800F088
:1021F000A5F801210E48FFF79BFF6020ADF8000015
:102200000020ADF808000120ADF802001420ADF860
:1022100006006946064800F02DF80821044800F041
:1022200075F801210248FFF777FF07B000BD0000F5
:10223000002C014030B50246002000230024158AFE
:1022400005EA0103958905EA010413B10CB10120E7
:1022500000E0002030BD1AB183890B43838102E086
:1022600083898B438381704710B5FFF770FFFFF7B9
:10227000A5FF10BD70B5002400220023058C4FF689
:10228000FE7635400584028C8388048B4FF68F756B
:102290002C40B51E2C400D882C43751E2A400D89FC
:1022A0002A434D882A43144DA8420BD0134DA8420F
:1022B00008D0134DA84205D0124DA84202D0124DAD
:1022C000A84213D14FF6F7752A404D892A434FF69D
:1022D000FB752A408D882A434FF6FF652B404FF649
:1022E000FF552B408D892B43CD892B43838004835D
:1022F000CD888586028470BD002C014000340140E9
:102300000040014000440140004801400A460021CD
:10231000018B4FF6F7731940114301837047002179
:10232000018041808180C180018141818181C181A1
:1023300070478185704781847047000000220288C1
:102340001D4B98420ED01D4B98420BD0B0F1804FE0
:1023500008D01B4B984205D01A4B984202D01A4B1A
:10236000984204D14FF68F731A404B881A43174B8B
:10237000984207D0164B984204D04FF6FF431A40BC
:10238000CB881A4302808B8883850B8803850A4B90
:1023900098420BD0094B984208D00E4B984205D07A
:1023A0000D4B984202D00D4B984201D10B7A038617
:1023B0000123838270470000002C0140003401405B
:1023C0000004004000080040000C004000100040E5
:1023D000001400400040014000440140004801401A
:1023E0001CB5044601F0EEF94D480121002380227E
:1023F000CDE900104BA14D4801F044FB4C480121B0
:1024000000238022CDE900104AA14C4801F03AFB9C
:102410004B48012100238022CDE9001049A14B48FF
:1024200001F030FB4A48012100238022CDE9001051
:1024300048A14A4801F026FB494801210023802297
:10244000CDE9001047A1494801F01CFB4848012193
:1024500000238022CDE9001046A1484801F012FB7C
:102460004748012100238022CDE9001045A14748BB
:1024700001F008FB4648012100238022CDE900102D
:1024800044A1464801F0FEFA45480121002380227C
:10249000CDE9001043A1454801F0F4FA4448012178
:1024A00000238022CDE9001042A1444801F0EAFA5D
:1024B0004348012100238022CDE9001041A1434877
:1024C00001F0E0FA4248012100238022CDE900100A
:1024D00040A1424801F0D6FA414801210023802260
:1024E000CDE900103FA1414801F0CCFA404801215C
:1024F00000238022CDE900103EA1404801F0C2FA3D
:102500003F48012100238022CDE900103DA13F4832
:1025100001F0B8FA002001F0C3F901F065F91CBD23
:10252000040000205441534B3100000029200008D2
:10253000080000205441534B32000000492000089D
:102540000C0000205441534B330000005120000880
:10255000100000205441534B340000005920000863
:10256000140000205441534B350000008120000826
:10257000180000205441534B3600000099200008F9
:102580001C0000205441534B370000009D200008E0
:10259000200000205441534B38000000A1200008C7
:1025A000240000205441534B39000000A5200008AE
:1025B000280000205441534B3130000031200008E6
:1025C0002C0000205441534B3131000035200008CD
:1025D000300000205441534B3132000039200008B4
:1025E000340000205441534B313300003D2000089B
:1025F000380000205441534B313400004120000882
:102600003C0000205441534B313500004520000868
:10261000F8B504460E463046FEF7C9FDA04200DA82
:10262000F8BDFFF7F1F821463046FEF7F4FD054608
:102630000823002101206A68FFF7AAFB28682823E5
:102640005022142100900120FFF7AEFA0020282329
:102650005022142100900120FFF766F90820022380
:1026600022460A2100906120FFF734FB062309A2CD
:102670001C216420FFF78CFB3046FEF798FD0746CF
:10268000082002233A46242100906120FFF722FB14
:1026900000BFC5E72F000000F8B504460E461746F8
:1026A000FFF7B2F80823002101207268FFF770FBE2
:1026B000062371A200216020FFF76AFB06236EA2A9
:1026C00000217820FFF764FB082002232246002126
:1026D00000906820FFF7FEFA00200C231A4616210E
:1026E00000906E20FFF720F900200C231A462B21C2
:1026F00000906E20FFF718F9BC4237D1204604EB5A
:10270000D0714910A4EB410101292FD12146304657
:10271000FEF797FD0546286814231A4612210090FB
:102720000120FFF741FA002014231A4612210090DD
:102730000120FFF7F9F80823142117206A68FFF732
:1027400027FB01200C231A46162100906E20FFF76C
:10275000EBF80C231A462B216E20FFF769F80623AD
:1027600046A22D213020FFF713FB84E0204604EB26
:10277000D0714910A4EB410100293AD121463046DD
:10278000FEF75FFD0546286814231A4628210090AD
:102790000120FFF709FA002014231A46282100908F
:1027A0000120FFF7C1F808232A2117206A68FFF7E4
:1027B000EFFAAD6901200C231A462B2100906E2000
:1027C000FFF7B2F8286814231A461221009001205E
:1027D000FFF7EAF9002014231A4612210090012085
:1027E000FFF7A2F80823142117206A68FFF7D0FA30
:1027F00041E0204604EBD0714910A4EB41010129CE
:1028000039D121463046FEF71CFD054628681423C1
:102810001A46122100900120FFF7C6F90020142368
:102820001A46122100900120FFF77EF80823142198
:1028300017206A68FFF7ACFA01200C231A4616210C
:1028400000906E20FFF770F8ED69286814231A468F
:10285000282100900120FFF7A7F9002014231A4631
:10286000282100900120FFF75FF808232A21172074
:102870006A68FFF78DFAF8BD2D0000002D456E64E3
:102880002D0000002DE9F04F87B082460E4691469C
:102890001D460024D9F800002968401A06903068C7
:1028A0002968401A0590069802F0AEF80190059844
:1028B00002F0AAF80090019901F0E4FF834601F0CC
:1028C000B5FF0022504BCDE9020101F085FD07461E
:1028D00001F002FDC0B20490FEF796FF00203D23F8
:1028E0007D22022100900846FFF71EF8062352467B
:1028F00000210F20FFF74CFA062338210F20109AF1
:10290000FFF746FA3068002806DBD9F800000028F7
:1029100002DB2868002801DA122410E00A240020D3
:102920000A236E222A2100901846FEF7FDFF01209F
:102930000A2300902A211846049AFEF7F5FF062381
:1029400032A221462D20FFF723FA04F10A00C1B27A
:10295000062330A22D20FFF71BFA04F11400C1B2A8
:1029600006232EA22D20FFF713FA306800F087F916
:10297000C7B2062000903B4621464B203268FFF745
:10298000CFF9D9F8000000F07AF9C7B2062000901C
:1029900004F10A00C1B23B464B20D9F80020FFF7F2
:1029A000BFF9286800F06BF9C7B20620009004F167
:1029B0001400C1B23B464B202A68FFF7B1F91198C9
:1029C000012804D0022809D0032819D10FE00623DA
:1029D00014A221461E20FFF7DBF911E004F10A00E2
:1029E000C1B206230FA21E20FFF7D2F908E004F1BE
:1029F0001400C1B206230BA21E20FFF7C9F900BFC5
:102A000000BF07B0BDE8F08F00805B406E6F773A83
:102A1000000000006D61783A000000006D696E6989
:102A20003A0000002D3E000038B505460C46FEF782
:102A3000EBFE00203D237D22022100900846FEF798
:102A400073FF06232A4600210F20FFF7A1F9207803
:102A500001280ED1002028231E220F2100900846B5
:102A6000FEF762FF08230BA219211720FFF790F948
:102A70000FE0207868B90020282346220F2100901B
:102A80002C20FEF751FF082303A219214320FFF752
:102A90007FF938BD4F4E00004F464600F8B504465A
:102AA0000D461646FEF7B0FE00203D237D22022192
:102AB00000900846FEF738FF0623224600210F202B
:102AC000FFF766F906230DA211210A20FFF760F92E
:102AD00006230EA226210A20FFF75AF906232A46CA
:102AE00011215320FFF754F90820009005232021DD
:102AF00037203268FFF714F9F8BD0000646573638E
:102B000072697074696F6E3A0000000076616C75CE
:102B1000653A000000BFFEE770B5044600260025B8
:102B200019E004F080064EB10120FEF793F9012070
:102B3000FEF758F80020FEF78DF908E00120FEF7B7
:102B400089F90020FEF786F90120FEF74BF86006B0
:102B5000040E681CC5B2082DE3DB70BDF8B5054650
:102B60000E4617468DF800608DF801508DF8027002
:102B7000002405E01DF80400FFF7CEFF601CC4B27E
:102B8000032CF7DBF8BD2DE9F04104460D4616464F
:102B90001F464FF0000808E03A4631462846FFF746
:102BA000DDFF08F1010000F0FF08A045F4DBBDE8FF
:102BB000F0812DE9F0414F1E00EBC7010446D1E939
:102BC000000115461E4637F006020DD02A46334650
:102BD00001F002FC7F1E04EBC703D3E9002301F0E0
:102BE000FBF837F00602F1D1022F25D0042F13D0C5
:102BF000062F18BFBDE8F0812A46334601F0ECFBF2
:102C0000D4E90A2301F0E8F82A46334601F0E4FB50
:102C1000D4E9082301F0E0F82A46334601F0DCFB52
:102C2000D4E9062301F0D8F82A46334601F0D4FB54
:102C3000D4E9042301F0D0F82A46334601F0CCFB56
:102C4000D4E9022301F0C8F82A46334601F0C4FB58
:102C5000D4E90023BDE8F04101F0BEB800221346DC
:102C60001046014901F074B90000F03F012201F063
:102C700060BF002213461046114601F069B92DE9E4
:102C8000F05F8246BAF1000F02D10120BDE8F09F4B
:102C9000BAF1000B01DB594601E0CBF10001084617
:102CA00001F047FB804600F025FA064600F006F8E2
:102CB000044601F0E1FA401CE8E700002DE9F0418C
:102CC000C1F30A52A2F2FF362F4A304B0D4604469A
:102CD000142E2FDA002E12DA01F07EF800221346AD
:102CE00001F078FC4CD2002DA4BF0024254647DA21
:102CF00025F00040204318BF254D41D018E0DFF8F3
:102D000094C02CFA06F705EA070C5CEA040C08BF2D
:102D1000BDE8F08101F060F80022134601F05AFC92
:102D20002ED2002D03DA4FF48010F0400544BD434D
:102D3000002425E0332EC8BFBDE8F081A6F1140CB5
:102D40004FF0FF3727FA0CF73C4208BFBDE8F0818F
:102D500001F076FC0022134601F03CFC10D2002D5D
:102D60000DDA142E08BF6D1C09D0C6F13400012104
:102D700001FA00F02044A04238BF6D1C0446BC4359
:102D800029462046BDE8F0819C7500883CE4377EEA
:102D90000000F0BFFFFF0F002DE9F04DC84A0024EE
:102DA00090B0914205DA21F00043934201D805D159
:102DB00020B110B0BDE8F04DFFF758BFB1F5801F4E
:102DC0001BDA53EA000209D0002911DA0120FDF7CD
:102DD0006DFB10B0BDE8F04DFFF74BBF0220FDF7D3
:102DE00065FBFFF73BFF10B081F00041BDE8F08DBF
:102DF0006FF03504362201F09CFE04EB2152C1F342
:102E00001308B049A2F2FF33414401F4801282F06A
:102E10007F6103EB225281F04051009241EA0801A8
:102E20000022A94B01F018FC044608F10200A74E4D
:102E3000C0F313000D467E44032867D2D6E9002371
:102E4000204601F0DDF91ED10098002802BFD6E926
:102E5000000110B0BDE8F08D01F06BFA07460C469A
:102E60009B4A9C4B01F0B8FA06460D469A4A9B4B8A
:102E70003846214601F0B0FA10B032462B46BDE884
:102E8000F04D00F0A9BF4FF05532954B2046294632
:102E900001F0A2FA0022934B01F0D2FB06460F4646
:102EA00022462B461046194601F096FA32463B461A
:102EB00001F092FA064600980F46F0B101F039FA97
:102EC00080468A46824A834B01F086FA32463B4668
:102ED00001F0B6FB22462B4601F0BEFB05460C4630
:102EE0007D4A7E4B4046514601F076FA10B02A46A4
:102EF0002346BDE8F04D01F0AFBB0B4610B03246A3
:102F000020462946BDE8F04D01F0A6BB00224FF057
:102F10008043204600F060FF02460B4620462946CB
:102F200001F016F806460F46009801F002FACDE9C6
:102F3000040132463B461046394601F04DFA0C90EA
:102F400069480C9A4044019009910B46104601F0E3
:102F500043FA8246024665488B46C8F151080B4643
:102F600008F5D72803217844FFF723FE52465B4635
:102F700001F032FA0A905E480D9152465B460421F8
:102F80007844FFF716FE099B0C9A01F025FA844657
:102F900001980D9B40EA080860460A9A00F01CFF61
:102FA00083460891B8F1000F4EDD4FF0FF32204606
:102FB000294601F0BEFD22462B4601F00DFA80465F
:102FC00000988A4660B3DDE90401414A414B01F0B3
:102FD00003FA099100905A4640465146089B00F07A
:102FE000FBFE32463B4601F0F7F9099B009A00F0E0
:102FF000F3FE4246534601F023FB22462B4601F0E6
:103000002BFB04460D46DDE90401334A334B01F046
:10301000E3F910B022462B46BDE8F04D01F01CBB91
:103020005A464046089B00F0D7FE32463B4601F028
:10303000D3F94246534601F003FB10B022462B461B
:10304000BDE8F04D01F0FCBA009840B3DDE90401A1
:103050001F4A204B01F0C0F980468A465A46204656
:103060002946089B01F0F8FA32463B4601F0B4F9D4
:103070004246534601F0F0FA22462B4601F0ECFAA4
:1030800004460D46DDE90401134A144B01F0A4F98E
:1030900010B022462B46BDE8F04D01F0DDBA0B46DC
:1030A0005A462046294601F0D7FA32463B4601F0FF
:1030B00093F910B022462B46BDE8F04D01F0C0BA9E
:1030C0000000F07F645F09000000F03F0E2F000059
:1030D000763C7935EF39EA3D0000E0FE422EE63FCE
:1030E0005555D53F0000E03F86EBF9FFA62D0000C7
:1030F000A42D00002DE9F04104463048002581420E
:1031000005DA21F00042824201D805D124B12046DF
:10311000BDE8F041FFF7AABDB1F5801F1BDA52EA06
:10312000040008D000290FDA0120FDF7BFF9BDE83F
:10313000F041FFF79EBD0220FDF7B8F9FFF78EFDC5
:1031400081F00041BDE8F0816FF035053622204660
:1031500001F0EFFC044605EB2150A0F2FF32D00F46
:1031600040F2FF331B1A0D4663F31F55104401F064
:10317000E0F806460F4629462046FFF70DFE104AA6
:10318000104B01F029F904460D460F4A0F4B30460B
:10319000394601F021F922462B4600F01DFE054676
:1031A0000C460B4A0B4B3046394601F015F92A46BE
:1031B0002346BDE8F04100F00FBE00000000F07FA4
:1031C0000EE526157BCBDB3F362BF111F3FE593D87
:1031D00000609F501344D33F10B5FDF7C0FDFFF7CB
:1031E00043F8FEF757F9FEF75FFF002010BD00001F
:1031F0002DE9F04105460E46264807682648006836
:10320000001D00F095FA50B92348006890F82C1082
:103210000120884021490968814320480160681CD9
:10322000D8B9D6B11E4948681B49096888601A494F
:1032300082680968CA6018490968091D8268516076
:1032400015490968091D8160154A134909684A61D1
:1032500011460968491C11601AE07C190E48006883
:103260004460BC4207D20C480168091D0D48006843
:1032700000F082FA0CE008480168091D0A4800685D
:1032800000F07AFA09480068844201D207480460D5
:10329000BDE8F081F0000020DC000020F4000020F8
:1032A00014060020E4000020E00000200C010020B3
:1032B00010B5044600F086FA2F480068401C2E49DD
:1032C00008602E48006840B92C4804600846006831
:1032D00001280DD100F01CF90AE02948006838B92E
:1032E00026480068C06AE16A884201D82348046021
:1032F00024480068401C2349086094F82C100120E1
:1033000088402149096808431F490860E16A01EBC8
:1033100081011E4A02EB81014868A0608268E26078
:10332000211D826851608160E16A01EB8101174AC9
:1033300002EB81026261E16A01EB8101134A52F8FA
:103340002110491CE26A02EB8202104B43F8221062
:1033500000F04AFA0A48006868B108480068C06A84
:10336000E16A884207D24FF0805009490860BFF3F4
:103370004F8FBFF36F8F10BDEC000020DC000020EA
:10338000F800002008010020F40000206005002063
:1033900004ED00E010B516E000F014FA0C48C06827
:1033A000C468201D00F0C4F90A480068401E09499D
:1033B000086009480068401E0749086000F014FAD8
:1033C000204600F00BF8044800680028E4D110BD46
:1033D00000060020EC000020E800002010B50446A4
:1033E000206B00F011FA204600F00EFA10BD00002C
:1033F00030B54FF48053154800F007042CB1C01DC0
:1034000020F00700114C041B1B1B0246104C2260CD
:1034100000240F4D6C60D018083820F007000D4CC8
:10342000206000240B4D2D686C600A4D2D682C60C7
:103430001146441A4C60074C24680C60064D4C68D9
:103440002C60064D4C682C6030BD00002806002022
:103450001C010020240100202C0100202801002054
:1034600000BFFFF797FF064800680128F9D94FF021
:10347000805004490860BFF34F8FBFF36F8FF0E7B0
:103480006005002004ED00E02DE9F05F81460E4666
:1034900017469A46DDF828800C9CB900A522206BBF
:1034A000FCF731FF781E216B01EB800B2BF0070B33
:1034B0007EB1002507E0715D04F134004155705D77
:1034C00000B902E06D1C102DF5D300BF0021432090
:1034D0000155B8F1050F01D34FF00408C4F82C8052
:1034E000201D00F046F904F1180000F042F92461B3
:1034F000C8F10500A061646252464946584600F092
:1035000005F920600B9808B10B980460BDE8F09FA6
:1035100010B5002407E004EB84010F4A02EB8100A0
:1035200000F01AF9641C052CF5D30C4800F014F9CE
:103530000B4800F011F90B4800F00EF90A4800F0B2
:103540000BF90A4800F008F90448094908600448E2
:103550000849086010BD000060050020C405002077
:10356000D8050020EC0500200006002014060020ED
:10357000E0000020E400002010B50146164800E0FD
:10358000006803688B42FBD30246436813448B42B6
:1035900004D143684C682344436001460A464B68A3
:1035A00013440468A34211D10C4C03682468A3425D
:1035B00008D04B680468646823444B6003681B6848
:1035C0000B6005E0054B1B680B6001E003680B60B6
:1035D000884200D0016010BD1C01002024010020A1
:1035E00009480068006808B9012000E0002020B107
:1035F0004FF0FF300549086005E003480068C068E7
:103600000068024908607047E00000200C010020BB
:1036100000BF502080F31188BFF34F8FBFF36F8F2F
:1036200000BF00BFFEE700002DE9F04705464FF060
:10363000000900F0D5F93048006808B9FFF7D8FE56
:1036400075B105F00700C0F11008C8F1FF30A842BD
:1036500001D2012000E0002008B9454400E0002527
:10366000012000EBE570002841D0002D3FD0234819
:10367000006885423BD8224E3046046801E0264669
:1036800024686068A84202D220680028F7D11A484E
:10369000006884422BD0306800F10809206830604F
:1036A0006068401B102807D967196068401B786064
:1036B00065603846FFF760FF104960680968081ABE
:1036C0000E490860084600680E490968884203D21E
:1036D0000A4800680B490860606840F0004060607C
:1036E0000020206008480068401C0749086000F07E
:1036F000C5FA4846BDE8F0872401002028010020D3
:103700001C0100202C01002030010020001F4FF080
:1037100080730360001F21F001030360001F034B4F
:10372000036014380260203870470000113600082A
:1037300001460A69D1E901309860D1E90103586076
:103740005068884201D18868506000200861106884
:10375000401E10601068704700F1080141604FF092
:10376000FF31816000F10801C16001610021016049
:10377000704700210161704710B502460B685C1C60
:103780000CB9106907E002F1080000E040684468E5
:1037900024689C42FAD944684C604C68A1608860F7
:1037A00041600A611468641C146010BD42684A607C
:1037B00093688B60936859609160086103685B1C33
:1037C0000360704700BF502080F31188BFF34F8F14
:1037D000BFF36F8F00BF03480068401C01490860B9
:1037E000704700003801002006480068401E054967
:1037F00008600846006820B9002080F3118800BFE7
:1038000000BF70473801002070B506463546E6B166
:10381000083D2C466068C00FB8B12068A8B9606840
:1038200020F00040606000F0DBF80849606809683B
:103830000844064908602046FFF79EFE04480068D9
:10384000401C0349086000F019FA70BD28010020EF
:103850003401002000204FF0E02108618861024817
:1038600048610720086170473F19010070B50446A0
:10387000002544B100F0B4F800212046FFF7B8FC61
:1038800000F0FCF905463DB94FF08050034908604F
:10389000BFF34F8FBFF36F8F70BD000004ED00E0EA
:1038A00070B50546FFF78EFF15B92948006800E09E
:1038B00028460446201DFFF73BFF78B9E06A00EB7D
:1038C0008000244951F8200040B994F82C100120C0
:1038D00088402149096881431F480160A06A18B1E6
:1038E00004F11800FFF724FF1C480068401C1B4926
:1038F000086017480068844209D1211D1848FFF765
:1039000055FF18480068401C1649086006E0164834
:103910000068401E14490860FFF762FEFFF764FF6D
:103920000B480068844202D02046FFF757FD0F483D
:10393000006858B106480068844207D14FF08050B3
:103940000B490860BFF34F8FBFF36F8F70BD00004E
:10395000DC00002060050020F400002008010020A9
:1039600000060020E8000020EC000020F800002005
:1039700004ED00E01CB5124800210B464022CDE9C1
:10398000001010A1114800F07DF80446012C14D15C
:1039900000BF502080F31188BFF34F8FBFF36F8FAC
:1039A00000BF4FF0FF300A49086001200949086054
:1039B00000200949086000F04BF8084800681CBD69
:1039C0001001002049444C4500000000613400080B
:1039D0000C010020F8000020F0000020140100205D
:1039E00002480068401C0149086070471801002027
:1039F0001248006818B10120114908601DE000203C
:103A00000F4908600F480068B0FA80F0C0F11F014C
:103A100001EB81020C4B03EB82004268526842606A
:103A200000F108024368934202D142685268426042
:103A30004268D268054B1A6000BF70471801002029
:103A400000010020F400002060050020DC000020C0
:103A500010B50A48006840F470000849086008463C
:103A6000006840F070400860FFF7F4FE0020044951
:103A70000860FCF7BFFB002010BD000020ED00E057
:103A8000380100202DE9FF4F85B080468946174652
:103A9000DDE912ABB800FFF7C7FD064676B14C2052
:103AA000FFF7C2FD04462CB14C212046FCF755FC23
:103AB000266304E03046FFF7A7FE00E000247CB157
:103AC0000020CDE900ABCDE902403A4649464046E8
:103AD000089BFFF7D9FC2046FFF7EAFB012501E030
:103AE0004FF0FF35284609B0BDE8F08F2DE9F041D1
:103AF00000275748006800287ED156480068451CBA
:103B0000544805608DB95448D0F800805348006887
:103B1000514908605148C0F8008051480068401C75
:103B20004F490860FFF75CFD00BF4E4800688542C2
:103B300076D300BF48480068006808B9012000E05B
:103B4000002020B14FF0FF304649086067E042484E
:103B50000068C068C4686668B54202D24148066021
:103B60005DE06069D4E902128A60D4E902214A600A
:103B7000211D42688A4201D1E168416000226261F0
:103B80000168491E0160A06A98B1A06AD4E90712D1
:103B90008A60D4E907214A6004F1180142688A4228
:103BA00001D1216A41600022A2620168491E0160C0
:103BB00000BF94F82C10012088402B490968084365
:103BC00029490860E16A01EB8101284A02EB810181
:103BD0004868A0608268E260211D8268516081604F
:103BE000E16A01EB8101214A02EB81026261E16A33
:103BF00001EB81011D4A00E022E052F82110491C2E
:103C0000E26A02EB8202194B43F822101849E06A7B
:103C10000968C96A88428DD901278BE700E000BF97
:103C200013480068C06A00EB8000104951F820007A
:103C3000012800D901270F48006800B1012704E0DE
:103C40000D480068401C0C4908603846BDE8F0810A
:103C500018010020F0000020E0000020E400002017
:103C6000040100200C010020F40000206005002069
:103C7000DC00002000010020FC00002070B50024C2
:103C80000026FFF79FFD4B480068401E4949086029
:103C90000846006800287DD147480068002879D090
:103CA0005BE04648C068C468A06AD4E907128A602D
:103CB000D4E907214A6004F1180142688A4201D11F
:103CC000216A41600022A2620168491E01606069A8
:103CD000D4E902128A60D4E902214A60211D4268B7
:103CE0008A4201D1E1684160002262610168491E97
:103CF000016094F82C10012088403149096808437C
:103D00002F490860E16A01EB81012E4A02EB810133
:103D10004868A0608268E260211D8268516081600D
:103D2000E16A01EB8101274A02EB81026261E16AEB
:103D300001EB8101234A52F82110491CE26A02EB8F
:103D40008202204B43F822101F49E06A0968C96AC1
:103D5000884202D301201D4908601848006808B94C
:103D6000012000E0002000289BD00CB1FFF738FCB8
:103D70001748056865B100BFFFF7B8FE10B1012014
:103D8000124908606D1E002DF6D100201049086010
:103D90000E4800E009E0006838B1012630070D49FF
:103DA0000860BFF34F8FBFF36F8FFFF71DFD3046E5
:103DB00070BD000018010020EC000020EC05002080
:103DC000F400002060050020DC000020000100203D
:103DD000FC00002004ED00E010B591EA030F48BF9D
:103DE00083F0004300F14084841A71EB030C05D288
:103DF000121943EB0C03001B61EB0C01DFF824E10B
:103E00004FEA1154A4EB135C1EEA430F18BF9EEA5D
:103E1000445F73D023EA0E03DCF1200E21EA045143
:103E200043F4801332D322FA0CFE10EB0E0023FA77
:103E30000CFE41EB0E01CCF1200E03FA0EFE10EB4E
:103E40000E0051F10001B1F5801FCCF1200E32D2ED
:103E500001EB045112FA0EF2BDE8104058BF704752
:103E6000401C38BF5FEA420218BF7047002814BFE9
:103E700020F0010041F100014FEA410313F5001F5A
:103E800038BF7047A1F1C04100F09EBB012A43EB4F
:103E90000302ACF1200CDCF11F0E32BF4FF0000E1C
:103EA00023FA0CF310EB030041EB0451B4EB115F68
:103EB000D0D0A1EB045101F5801149085FEA300030
:103EC00001EB04510ED350F1000038BF12FA0EFE80
:103ED00008D1BDE81040C9E7401C38BF5FEA420284
:103EE000CAD1C3E7BDE810404FEA410313F5001FF4
:103EF00038BF7047A1F1C04100F066BB9EEA445F45
:103F000008D011EA5E0FBDE8104004BF01F0004187
:103F100000207047BDE8104070B500F007FB00BFFF
:103F200064FBBE3E0000E0FF02494FF0000000F0DD
:103F3000CEBD00BF0000F87F491058BFC1F140411D
:103F40005B1058BFC3F140438B42EFF300807047D2
:103F50002DE9C04130B4DFF8A0C23CEA111418BF0B
:103F60003CEA131400F0EC8081EA03051CEA11140A
:103F700044EAD57418BF1CEA131500F0C780A4EBFF
:103F800005044FF0004545EAC12145EAC32341EA53
:103F9000505143EA525304F17F74994204F50034BE
:103FA0004FEAC0204FEAC22208BF904200F09C8036
:103FB0004FEA13650FF24016765D4FEA134506FB94
:103FC00005F7C7F1807706FB07F74FEAD737A7FB5E
:103FD00003687642C8F58038A7FB06CE38BFA8F143
:103FE000010807FB08E64FF0000EA6FB028CE6FB7B
:103FF00003CEDCF1000CCEF1004E38BFAEF1010E65
:10400000A6FB0C584FF000074FF00005E6FB0E87AB
:10401000A1FB08C6A0FB07CE16EB0E0645F1000576
:10402000E1FB076515F1E04E7EBFA4F580345FEA41
:1040300046066D4116F1800745F100054FEA172746
:104040004FEA066647EA0567A6F1DE46B6F1805FED
:104050004FEA15251FD9384624F0010C05EBC47131
:10406000BCF1FE6F01EB0C1102D8F0BCBDE8008181
:1040700024425CBF01F5801E9EEAC47F02D4F0BCDE
:10408000BDE80081244238D4F0BCA1F1C041BDE8B4
:10409000004100F099BA4FEAD22242EA43524FEA75
:1040A000D323A7FB02864FEAD02040EA415007FB0A
:1040B00003661EEA0E0F4FEAD12105FB026658BFC8
:1040C000A6EB0056B6EB00564FEA520E4EEAC37E00
:1040D00018EB0E0E56EB530EBDD518EB02085E41E1
:1040E0007F1C55F10005B6E74FF480154FF000072F
:1040F0004FF000064FF00008ADE7F0BC4FF00000B5
:1041000001F1C04101F00041BDE8008111EA0C1F3E
:104110000CEA131500D00CE013EA0C1F00F0258008
:104120004FF00000F0BC81EA030101F00041BDE85E
:104130000081F0BCBDE8004181EA030100F044BA0F
:10414000F0BCBDE8004170B500F0F0F9097EFC3E1E
:1041500000F007B881EA03014FF0000001F00041D0
:10416000704781EA030100F02FBAF0BCBDE80041BE
:104170004FF0000021497047FFFDFBF9F7F5F4F21D
:10418000F0EEEDEBE9E8E6E4E3E1E0DEDDDBDAD8F2
:10419000D7D5D4D3D1D0CFCDCCCBCAC8C7C6C5C450
:1041A000C2C1C0BFBEBDBCBBBAB9B8B7B6B5B4B367
:1041B000B2B1B0AFAEADACABAAA9A8A8A7A6A5A452
:1041C000A3A3A2A1A09F9F9E9D9C9C9B9A99999816
:1041D0009797969595949393929191908F8F8E8EB9
:1041E0008D8C8C8B8B8A8989888887878685858446
:1041F00084838382828181800000FF070000F87F32
:1042000051EA030C17D41CF5801F58BFBCF5801F62
:1042100000F10680994218BF704708BF904270476E
:1042200007D711F5801F58BF13F5801F19D4994285
:104230007047894270471CF5801F08D5BCF5801F68
:10424000F7D58B4218BF704708BF824270474FF4C2
:10425000001C1CEB410F38BF1CEB430F01D28B42FB
:10426000704770B500F062F9922449004FF0005198
:104270004FF08053FFF760BE4FEA41034FEA5353BC
:10428000A3F58063D3F11E03C8BFD3F1210C0CDD6D
:104290004FF0004242EAC12242EA505232FA03FC95
:1042A0008CEAE17CACEBE1707047102BC4BF0020BE
:1042B000704703F5787CBCF1FF3F04D06FF00042FB
:1042C00082EA2100704770B500F030F949922480ED
:1042D00000207047F2E700004FEA1153A3F5806316
:1042E000D3F11E03A8BFD3F1200C08DB4FF000422E
:1042F00042EAC12252EA505232FA03F070470942B0
:104300000BD4102BC4BF0020704703F5787CBCF1A0
:10431000FF3F05D04FF0FF3070474FF0000070476F
:1043200070B500F003F900BF499224800020704767
:10433000F0E710F0004248BF4042B0FA80F310FAB4
:1043400003F10AD0C3F11D0303F580634FEA415026
:1043500002EB035202EBD12170474FF0000070478F
:1043600051EA030C17D41CF5801F58BFBCF5801F01
:1043700000F10680994218BF704708BF904270470D
:1043800007D711F5801F58BF13F5801F19D4994224
:104390007047894270471CF5801F08D5BCF5801F07
:1043A000F7D58B4218BF704708BF824270474FF461
:1043B000001C1CEB410F38BF1CEB430F01D28B429A
:1043C000704770B500F0B2F8922449004FF00051E8
:1043D0004FF08053FFF7B0BDDFF848C170B51CEA5D
:1043E000111E1EBF1CEA13159EEA0C0F95EA0C0F56
:1043F00000F06F8081EA030423EA4C134EEAD47E76
:1044000021EA4C1141F4801143F48013AE44A1FB26
:10441000024CA0FB0365AEF17F7E361955EB0C050F
:10442000A1FB034C4CF10003A0FB021C16EB0C0695
:10443000654153F10003094218BF46F0010613F429
:10444000007F0BD14FEA03314FEA0530340341EAD4
:10445000155140EA16506FF003020AE04FEAC321FB
:104460004FEAC520F40241EA555140EA56506FF038
:10447000020202EB2E4201EB025585EACE710AD010
:104480005FEA440C18BF24F0004450F1000041F1F1
:10449000000120EAD47040F2FE7C624500D270BD7B
:1044A000A84214BF4FF080444FF04044002E08BF94
:1044B0000024BEF1806FA8BFA1F1C041BDE87040EB
:1044C00080F282804FF0000001F1C04101F0004114
:1044D00070479EEA0C0F0CEA131518BF95EA0C0FF3
:1044E00006D04FF0000081EA030E0EF0004170BDCF
:1044F00000F01CF88900013E00F007B800F009B890
:104500004FEA430C5FEA5C5C08D081EA030100F0EB
:104510005BB84FEA410C5FEA5C5CF6D14FF00000FB
:10452000014970470000FF070000F87F0EF1020EFE
:104530002EF0030E5EF8046B364205D4012A43EBDD
:10454000030515F5001F12D8012841EB010C1CF5DD
:10455000001F0CD80ED14FEAD17C15F5001F0CEBD3
:104560004C0C0CF1020C08BF4CEBD37C04E04FF078
:10457000080C01E04FEAD37C0CEB4C0526FA05F65B
:1045800006F00706B6F1040C06D20EEB860CBDE869
:1045900070404CF0010C6047DFE80CF0090B0202A0
:1045A0004FF000414FF00000A1F5002170BD194609
:1045B0001046012851EB010418BFD4F5001484BF44
:1045C000002001F0004170BD0808A0F500114FEA7D
:1045D0003101704753EA010C17D41CF5801F58BFF6
:1045E000BCF5801F00F106808B4218BF704708BFE2
:1045F0008242704707D713F5801F58BF11F5801FFF
:1046000019D48B4270479B4270471CF5801F08D518
:10461000BCF5801FF7D5994218BF704708BF90427C
:1046200070474FF4001C1CEB430F38BF1CEB410FCD
:1046300001D2994270470FB40CBC03BCFFF7C1BE56
:1046400091EA030F10B581F000413FF5CDAB83F047
:10465000004300F009B8000010B591EA030F48BF0D
:1046600083F000433FF5C0AB841A71EB030C07D213
:1046700012198CF0004C43EB0C03001B61EB0C0196
:10468000DFF8A4E14FEA1154A4EB135C1EEA430FD8
:1046900018BF9EEA445F00F0B08023EA6E035242E6
:1046A00021EA0451C3EB6E0338BF5B1EDCF1200E20
:1046B00025D322FA0CFE10EB0E0043FA0CFE41EB60
:1046C0000E01CCF1200E03FA0EFE10EB0E0051F19C
:1046D0000001CCF1200E29D412FA0EF201EB0451A4
:1046E000BDE8104058BF7047401C1CBFB2F1004FDE
:1046F000704700280CBF491C20F00100704712EBE6
:10470000020E43EB030218BF4FF0010E4EEA4202C5
:10471000ACF1200CDCF11E0E54D943FA0CFE10EB68
:104720000E0051F1FF31CCF11E0ED5D50EF1010E68
:1047300012FA0EFE404141EB010101EB445C5FEADD
:104740005C5C10D910EBDE7001EB045138BFBEF198
:10475000004FBDE8104018BF704700280CBF491C2F
:1047600020F00100704730D24FEAD42C11F500112F
:1047700024F400641BD0B1FA81F20B3AA41AA41EEF
:10478000D2F12003914030FA03F31943904001EB3A
:10479000CC71002C01EB0451BDE81040A8BF70475C
:1047A00001F1C0414FF0000001F000417047B0FA44
:1047B00080F310FA03F100D110BDE41A173C48054C
:1047C000C90AE4E701EB045110BD491001EB0451A3
:1047D000BDE810404FEA300002E04FF000017047A2
:1047E0004A0008BF0042F8D0B2F5001F28BF70474A
:1047F00001F000414FF0000070479EEA445F07D08F
:1048000011EA5E0FBDE8104004BF00210020704790
:10481000BDE8104070B5FFF789FE00BF40DFF63EEF
:1048200083F00041104670470000E0FF43004FEA6C
:10483000D30C4FEA3C0C43401FBF40070CF16051C2
:1048400013F0FE4F70471CF0006F03D100200CF0F6
:10485000004170470CF0004343EA507010B540EA45
:10486000CC0000F0E9F800BF000000924FEA000120
:10487000FFF7AABE4FF000414FF00000A1F5002164
:10488000704700004FF47F0C1CEAD0121EBF1CEAD8
:10489000D11392EA0C0F93EA0C0F00F0858090EA96
:1048A000010F48BF42F4807240F4000C41F4000054
:1048B0002CF07F4120F07F4000B58142A2EB030243
:1048C0000FF2081CACEB504EC0F100009EF800E067
:1048D0004FEA4E0E00FB0EFC38BF49004FEA2C1C7D
:1048E00002F5FA020CFB0EF34FEACE1E4FEA112C32
:1048F0004FEAC1210EEB635E42EB22420EFB0CFC41
:104900004FEA1C5300FB03114FEA112C4FEA01310F
:104910000EFB0CFC4FEADC4C00FB0C11C14228BF23
:1049200009184CEB03335DF804EB10EB410143EB4A
:10493000C250B2F57C0F38BF704729D512F0F00F86
:104940001CBF00F1C04000F000407047008182832E
:104950008485868788898B8C8D8E8F91929395968E
:1049600097999A9C9D9FA0A2A3A5A7A8AAACAEB018
:10497000B2B3B5B7B9BCBEC0C2C5C7C9CCCED1D41D
:10498000D7D9DCDFE2E6E9ECF0F3F7FAFE0000004D
:104990004FEA400C0CF1807CBCF17E4F28BF704781
:1049A000B0F1C04000F08EB890EA010F0CEAD113CC
:1049B00048BF42F48072624538BF634507D213F4A2
:1049C0007F0F16D080EA010000F00040704710B55C
:1049D00000F032F8097EFC3E00F005B880EA0100E4
:1049E00000F00040704780EA010000F0004000F055
:1049F00069B812F47F0F04BF0248704780EA0100D3
:104A000000F060B80000C07F10F0004148BF404295
:104A1000B0FA80F310FA03F2C3F19D030BD051EA10
:104A2000C35101EB1220530638BF704700F101005B
:104A300008BF20F0010070470EF1020E2EF0030EA9
:104A40005EF8044B244204D44FEA4102B2F17F4F96
:104A500011D84FEA4003B3F17F4F0CD80ED14FEA83
:104A6000D07CB2F17F4F0CEB4C0C0CF1020C08BF68
:104A70004CEBD17C04E04FF0080C01E04FEAD17C14
:104A80000CEB4C0324FA03F404F00704B4F1040C17
:104A900006D20EEB840CBDE810404CF0010C6047D0
:104AA000DFE80CF0070802024FF00040A0F580009C
:104AB00010BD0846420018BFD2F1807288BF00F0D6
:104AC000004010BDFF2141EAD050C00570470CF0F6
:104AD0000F03092B08BF082000F059800A2B0BD0C8
:104AE000082B18BF704708BF1CF0400F0AD04FF0CA
:104AF00000004FF0000170471CF0400F18BF4FF04E
:104B0000004070471CF0100F08D020F0704300F0F8
:104B10007F4242EAD3014FEA4370704700F06040A1
:104B200021F07F4242EA000201F07F4040EA7270C9
:104B300070474FF0FF0C4CF4E06C1CEA11531CBFA3
:104B40009CEA030C9445C2BFDA4201EB0251704764
:104B5000002B0DD0BCF1000F0FD0002A01F0004156
:104B6000A4BF41F0E04141F07F614FF00000704789
:104B700001F000414FF00000704750EA01334FF060
:104B80009B0C18BF4CF0806C7FF4CEA970471CF4CE
:104B9000801F11D01CF4E02F03D06FEACC31490004
:104BA00070474FF04050EFF3008222F0704242EA2B
:104BB000000282F3008870474FF000007047000049
:104BC00000000000000000000000000000000000E5
:104BD00000F8000000000000003330000000001664
:104BE0000E00160E0000000000000000000040C093
:104BF0007840C0784000043F04043F040400007083
:104C000088FC08300000001820FF211E0000F0087A
:104C1000F000E018000000211C031E211E0000F01F
:104C20000888700000001E2123241927211000008D
:104C300000160E0000000000000000000000000050
:104C400000E01804020000000007182040000002E5
:104C50000418E00000000040201807000000404059
:104C600080F0804040000202010F010202000000BB
:104C700000F0000000000101011F0101010000001F
:104C800000000000000000B0700000000000000004
:104C9000000000000000000101010101010100000D
:104CA00000000000000000303000000000000000A4
:104CB000000080601804006018060100000000E099
:104CC00010080810E000000F102020100F00001046
:104CD00010F8000000000020203F2020000000709D
:104CE0000808088870000030282422213000003095
:104CF0000888884830000018202020110E0000008D
:104D0000C02010F8000000070424243F240000F80D
:104D10000888880808000019212020110E0000E0F2
:104D2000108888180000000F112020110E00003894
:104D30000808C83808000000003F000000000070AC
:104D4000880808887000001C222121221C0000E035
:104D500010080810E0000000312222110F000000AE
:104D600000C0C00000000000003030000000000063
:104D700000C0C0000000000080B070000000000013
:104D8000804020100800000102040810200040406C
:104D900040404040400004040404040404000008AF
:104DA0001020408000000020100804020100007064
:104DB00048080808F0000000003036010000C0304C
:104DC000C828E810E0000718272423140B0000006F
:104DD000C038E0000000203C23020227382008F8F9
:104DE000888888700000203F202020110E00C030ED
:104DF000080808083800071820202010080008F8C4
:104E000008080810E000203F202020100F0008F8BC
:104E10008888E8081000203F20202320180008F888
:104E20008888E8081000203F200003000000C03000
:104E300008080838000007182020221E020008F881
:104E400008000008F808203F210101213F20000848
:104E500008F8080800000020203F20200000000083
:104E60000808F8080800C08080807F00000008F86B
:104E700088C028180800203F20012638200008F8A4
:104E8000080000000000203F20202020300008F80B
:104E9000F800F8F80800203F003F003F200008F825
:104EA00030C00008F808203F200007183F00E0103D
:104EB00008080810E0000F10202020100F0008F84C
:104EC00008080808F000203F210101010000E0105F
:104ED00008080810E0000F18242438504F0008F884
:104EE000888888887000203F2000030C30200070E4
:104EF0008808080838000038202121221C001808E2
:104F000008F8080818000000203F2000000008F8FA
:104F100008000008F808001F202020201F00087843
:104F2000880000C83808000007380E010000F808A3
:104F300000F80008F800033C0700073C03000818CD
:104F400068808068180820302C03032C3020083833
:104F5000C800C83808000000203F200000001008EA
:104F60000808C83808002038262120201800000032
:104F700000FE020202000000007F40404000000CE2
:104F800030C000000000000000010638C000000230
:104F90000202FE000000004040407F0000000020B0
:104FA00010080408102000000000000000000000AD
:104FB00000000000000080808080808080800002EF
:104FC00004080000000000000000000000000000D5
:104FD0008080808000000019242222223F2008F8CF
:104FE000008080000000003F112020110E00000012
:104FF000008080800000000E1120202011000000A1
:1050000000808088F800000E112020103F20000052
:10501000808080800000001F222222221300008056
:1050200080F0888888180020203F202000000000A1
:10503000808080808000006B94949493600008F8D6
:10504000008080800000203F210000203F20008061
:105050009898000000000020203F20200000000061
:1050600000809898000000C08080807F000008F8D1
:10507000000080808000203F24022D3020000008A6
:1050800008F8000000000020203F20200000808061
:10509000808080808000203F20003F20003F0080F3
:1050A00080008080000000203F2100203F20000081
:1050B000808080800000001F202020201F00808032
:1050C00000808000000080FFA12020110E00000061
:1050D000008080808000000E112020A0FF80808052
:1050E00080008080800020203F21200001000000FF
:1050F00080808080800000332424242419000080D4
:1051000080E0808000000000001F202000008080E0
:10511000000000808000001F202020103F208080A1
:1051200080000080808000010E3008060100808031
:105130000080008080800F300C030C300F00008056
:105140008000808080000020312E0E312000808081
:1051500080000080808080818E70180601000080B1
:105160008080808080000021302C222130000000CF
:105170000000807C020200000000003F4040000070
:105180000000FF00000000000000FF00000000021F
:10519000027C800000000040403F000000000080D2
:1051A000404080000080000000000001010000007D
:1051B000000000000000002F0000000007000700B2
:1051C00000147F147F1400242A7F2A12002313085E
:1051D00064620036495522500000000700000000BC
:1051E0001C224100000041221C000014083E08144B
:1051F0000008083E0808000000A060000008080839
:105200000808000060600000002010080402003E52
:105210005149453E0000427F4000004261514946ED
:10522000002141454B31001814127F1000274545DD
:105230004539003C4A4949300001710905030036EF
:105240004949493600064949291E00003636000002
:105250000000563600000008142241000014141407
:105260001414000041221408000201510906003EF6
:105270004955592E007C1211127C007F494949364C
:10528000003E41414122007F4141221C007F4949AB
:105290004941007F09090901003E4149497A007FDF
:1052A0000808087F0000417F4100002040413F0185
:1052B000007F08142241007F40404040007F020CE4
:1052C000027F007F0408107F003E4141413E007F85
:1052D00009090906003E4151215E007F091929464E
:1052E0000046494949310001017F0101003F40402A
:1052F000403F001F2040201F003F4038403F0063D8
:1053000014081463000708700807006151494543F9
:1053100000007F41410000020408102000004141CC
:105320007F000004020102040040404040400000B1
:1053300001020400002054545478007F484444384B
:1053400000384444442000384444487F00385454D2
:10535000541800087E0901020018A4A4A47C007F50
:10536000080404780000447D4000004080847D00F3
:10537000007F102844000000417F4000007C04189A
:105380000478007C0804047800384444443800FC65
:10539000242424180018242418FC007C0804040881
:1053A00000485454542000043F444020003C4040F6
:1053B000207C001C2040201C003C4030403C00442D
:1053C00028102844001CA0A0A07C004464544C4435
:1053D0000000087F41000000007F00000000417FC6
:1053E0000800000804081008EFBC8C000000000052
:1053F000000000000000000000000000000058381D
:10540000000000000000000000000000E3808200B7
:10541000000000000000000000000000000000008C
:105420000000182424180000000000000000000004
:10543000E4BDA000008060F8074020180F08C808ED
:1054400008281800010000FF00100C0340807F00B6
:1054500001061800E5A5BD001010F01F10F0008037
:105460008282E2928A86800040221508166100003E
:1054700040807F0000000000E4B89600202020FE5D
:105480002020FF202020FF20202020000000007F7F
:10549000404047444444474040400000E7958C006A
:1054A000000000FE929292FE929292FE0000000096
:1054B00008080484621E010001FE020404080800BA
:1054C00000000000FF01010131090909098971018A
:1054D000010101FFFF808080808080968180808034
:1054E000808080FFFF01818181FD8991A1C1FD81C3
:1054F000818101FFFF808080809F888482819F80DE
:10550000808080FF000000000080C0E0F0F8F8FC20
:10551000FCFCFEFEFEFEFEFEFEFEFCFCFCF8F0F0D7
:10552000E0C080000000000000E0FCFEFFFFFFFF85
:10553000FFFFFF0FCFFFFFFFFFFF0FEFFFFFFFEFAB
:10554000EFFFFFFFFFFFFEF8C00000001FFFFFFF9F
:10555000FFFFFFFFFF83F8FDFDFDFDBD81FCFFFFA9
:105560009F80FEFFFFFFFFFFFFFFFF1F0000000007
:1055700000030F1F3F7F7FFFFFFFFFFFFFFFFFFFC6
:10558000FFFFFFFFFFFFFFFFFFFFFFFF0300000024
:105590000000000000000000000000000101030303
:1055A00003030303030303030303030303030300CE
:1055B000000000FF01814141811925458585452570
:1055C000198141418101FFFF001F202010894620E1
:1055D00016162046891020201F00FF0F0808080813
:1055E00008090A0A0A0A0A0A0908080808080FFF2F
:1055F00001FD05050505050505F505050505050577
:10560000FD01FFFF008F00808080808010BF9080B0
:10561000808080008F00FF0F08080A0A080A0A0A23
:105620000A0A0A0A0A08080A0A080FFF01E1110912
:1056300085C5652525252565C5850911E101FFFF7E
:10564000007F800007000030381C06000007008043
:105650007F00FF0F080808090A0A0A0A0A0A0A0A4C
:105660000A0A090808080F0000FC3C1C0C0404048A
:10567000F4F4F4E4E4CC9C3CFC00000000FFC080A7
:1056800000000000FFFFFF7F3F1F8FC0FF000000F2
:1056900000030303030302020202020202030303E4
:1056A0000300000000001838B0C0E0E06C6CE0E0DF
:1056B000C0B0381800000000000686C0DF3F7970D7
:1056C000606070793FDFC0860600000000000101C5
:1056D00000000000030300000000010100000000C2
:1056E000000000800000FCFC0000FCFC00008000CA
:1056F0000000000000060F1F0F0FFFFF0000FFFF5C
:105700000F0F1F0F06000000000000000000030341
:105710000000030300000000000000000000000083
:1057200000187CFCFCFCFC7C180000000000000061
:10573000060606060686E6F6F6F6F6E68606060689
:10574000060600000000000000010303030303033A
:1057500001000000000000000000FCFC0404040440
:105760000404040C183060C0800000000000FFFF3B
:1057700000FFFFD3FBDBFBEBFFFF00FFFF000000A0
:1057800000000303020202020202020202020203FA
:10579000010000FF01FD0515B5B585B5B5B5B5B579
:1057A000A58585858585850505FD05F515151515E1
:1057B0001515151515151515151515151515151599
:1057C0001515151515151515151515151515151589
:1057D0001515151515151515151515151515F505A9
:1057E000FD01FFFF00FF006394946404646464049B
:1057F000646464242464640300FF00FF000000006C
:105800000000007F020C107F007F0808087F007FE7
:105810000909090600003E414141413E000649494F
:105820004949493100000000000000000000FF006D
:10583000FF00FFFF00FF0018A4A4180018180018AC
:10584000180818181818000000FF000704040404C2
:105850000404040404040404040404040404040408
:105860000404040404040404040404047454D40468
:1058700014F41404F424F4045454F404D4547700B9
:10588000FF00FFFF00FF00C32424C300C38003C345
:10589000C3C143C28383030000FF00000000000077
:1058A00000000000000000000000000000000000F8
:1058B000FC9494F40000FC205000002071210100B1
:1058C000F495949C01FC8584FD0101FC21510100AB
:1058D000FF00FFFF8087848485858484848484849A
:1058E000848484848484848484878484848484B445
:1058F000B4B4B4B4B4B4B4B4B4B4B4B4B4B4B4B468
:10590000B4B4B4B4B4B48484848484848484848437
:105910008484848484848484848484848484848447
:105920008780FFFF010101F909090909090909092E
:1059300009090909090909090909090909090909D7
:1059400009090909090909090909090909090909C7
:1059500009090909F90101010101F909E9292929BF
:1059600029292929292929292929292929E909F937
:105970000101FFFF000000FF000000000000000028
:105980000000000000000000000000000000000017
:105990000000000000000000000000000000000007
:1059A00000000000FF0000000000FF00FF8080807A
:1059B00080808080808080808080808080FF00FF69
:1059C0000000FFFF000000FF0000000000000000DA
:1059D00000000000000000000000000000000000C7
:1059E00000000000000000000000000000000000B7
:1059F00000000000FF0000000000FF00040E040093
:105A0000040E040000000000000000040E0400FF6B
:105A10000000FFFF0000007F404040404040404009
:105A200040404040404040C04040404040404040F6
:105A3000404040C0404040404040404040404040E6
:105A4000404040407F0000000000FF0000000000D8
:105A5000000000000000000000000000000000FF47
:105A60000000FFFF80808080808080808090909008
:105A7000909090909090909F909090909090909017
:105A80009090909F90909090909090909090808027
:105A9000808080808080808080809F90929292928F
:105AA0009292929292929292929292929292909FCB
:105AB0008080FF0000F8FCFCFE1E1E1E1E1E1E1E27
:105AC0009EDEFEDE9E1E1E1E1E1E9E9E9E1E1E1E16
:105AD0001E1E1E1EFEFCFCF80000000000FFFFFF63
